:020000040800F2
:1000000000500020091A0008AD190008AF190008B7
:10001000B1190008B3190008B51900080000000064
:10002000000000000000000000000000376400082D
:10003000B7190008000000003B64000821640008B4
:10004000511A0008511A0008511A0008511A0008E4
:10005000511A0008511A0008C565000845650008D6
:100060006565000885650008A5650008511A000847
:10007000511A0008511A0008511A0008511A0008B4
:10008000511A0008511A0008CD640008511A0008DE
:10009000B9190008511A0008511A0008511A00082D
:1000A000511A0008ED640008511A00081165000893
:1000B000511A0008511A0008511A0008511A000874
:1000C000511A0008511A0008511A0008511A000864
:1000D000511A000841640008511A0008511A00081A
:1000E000511A0008511A0008511A000800000000B7
:1000F0000000000000000000000000000000000000
:0C01000000000000000000005FF808F1A3
:1001100010B5054C237833B9044B13B10448AFF341
:1001200000800123237010BD680300200000000040
:10013000D0C3000808B5034B1BB103490348AFF314
:10014000008008BD000000006C030020D0C3000840
:1001500010F8012B11F8013B012A28BF9A42F7D071
:10016000D01A7047034613F8012B002AFBD1181A46
:100170000138704781F0004102E000BF83F0004386
:1001800030B54FEA41044FEA430594EA050F08BF32
:1001900090EA020F1FBF54EA000C55EA020C7FEAF6
:1001A000645C7FEA655C00F0E2804FEA5454D4EB73
:1001B0005555B8BF6D420CDD2C4480EA020281EA3D
:1001C000030382EA000083EA010180EA020281EA75
:1001D0000303362D88BF30BD11F0004F4FEA0131C7
:1001E0004FF4801C4CEA113102D0404261EB4101D6
:1001F00013F0004F4FEA03334CEA133302D052425C
:1002000063EB430394EA050F00F0A780A4F1010417
:10021000D5F1200E0DDB02FA0EFC22FA05F2801851
:1002200041F1000103FA0EF2801843FA05F3594137
:100230000EE0A5F120050EF1200E012A03FA0EFCB6
:1002400028BF4CF0020C43FA05F3C01851EBE371E0
:1002500001F0004507D54FF0000EDCF1000C7EEBFD
:1002600000006EEB0101B1F5801F1BD3B1F5001F3B
:100270000CD349085FEA30004FEA3C0C04F101045A
:100280004FEA445212F5800F80F09A80BCF1004F83
:1002900008BF5FEA500C50F1000041EB045141EA05
:1002A000050130BD5FEA4C0C404141EB010111F406
:1002B000801FA4F10104E9D191F0000F04BF0146B1
:1002C0000020B1FA81F308BF2033A3F10B03B3F18F
:1002D00020020CDA0C3208DD02F1140CC2F10C021F
:1002E00001FA0CF021FA02F10CE002F11402D8BF7D
:1002F000C2F1200C01FA02F120FA0CFCDCBF41EA49
:100300000C019040E41AA2BF01EB0451294330BD17
:100310006FEA04041F3C1CDA0C340EDC04F11404F4
:10032000C4F1200220FA04F001FA02F340EA0300CB
:1003300021FA04F345EA030130BDC4F10C04C4F111
:10034000200220FA02F001FA04F340EA03002946F1
:1003500030BD21FA04F0294630BD94F0000F83F43B
:10036000801306BF81F480110134013D4EE77FEA1E
:10037000645C18BF7FEA655C29D094EA050F08BF6A
:1003800090EA020F05D054EA000C04BF194610464B
:1003900030BD91EA030F1EBF0021002030BD5FEA8F
:1003A000545C05D14000494128BF41F0004130BDB7
:1003B00014F580043CBF01F5801130BD01F000450B
:1003C00045F0FE4141F470014FF0000030BD7FEA7E
:1003D000645C1ABF194610467FEA655C1CBF0B4679
:1003E000024650EA013406BF52EA033591EA030F90
:1003F00041F4002130BD00BF90F0000F04BF002188
:10040000704730B54FF4806404F132044FF00005BA
:100410004FF0000150E700BF90F0000F04BF002133
:10042000704730B54FF4806404F1320410F0004599
:1004300048BF40424FF000013EE700BF42004FEA94
:10044000E2014FEA31014FEA02701FBF12F07F4311
:1004500093F07F4F81F06051704732F07F4208BFC8
:10046000704793F07F4F04BF41F40021704730B5CF
:100470004FF4607401F0004521F000411CE700BF1B
:1004800050EA010208BF704730B54FF000050AE09E
:1004900050EA010208BF704730B511F0004502D59F
:1004A000404261EB41014FF4806404F132045FEAA1
:1004B000915C3FF4D8AE4FF003025FEADC0C18BF4A
:1004C00003325FEADC0C18BF033202EBDC02C2F13C
:1004D000200300FA03FC20FA02F001FA03FE40EACE
:1004E0000E0021FA02F11444BDE600BF70B54FF0D2
:1004F000FF0C4CF4E06C1CEA11541DBF1CEA1355B0
:1005000094EA0C0F95EA0C0F00F0DEF82C4481EA17
:10051000030621EA4C5123EA4C5350EA013518BF37
:1005200052EA033541F4801143F4801338D0A0FB24
:1005300002CE4FF00005E1FB02E506F00042E0FBD1
:1005400003E54FF00006E1FB03569CF0000F18BFD7
:100550004EF0010EA4F1FF04B6F5007F64F540747F
:1005600004D25FEA4E0E6D4146EB060642EAC62112
:1005700041EA55514FEAC52040EA5E504FEACE2E7F
:10058000B4F1FD0C88BFBCF5E06F1ED8BEF1004F82
:1005900008BF5FEA500E50F1000041EB045170BDFE
:1005A00006F0004646EA010140EA020081EA030142
:1005B000B4EB5C04C2BFD4EB0C0541EA045170BD3E
:1005C00041F480114FF0000E013C00F3AB8014F1B8
:1005D000360FDEBF002001F0004170BDC4F1000401
:1005E000203C35DA0C341BDC04F11404C4F1200582
:1005F00000FA05F320FA04F001FA05F240EA0200DD
:1006000001F0004221F0004110EBD37021FA04F612
:1006100042EB06015EEA430E08BF20EAD37070BDCC
:10062000C4F10C04C4F1200500FA04F320FA05F02B
:1006300001FA04F240EA020001F0004110EBD3702D
:1006400041F100015EEA430E08BF20EAD37070BD9D
:10065000C4F1200500FA05F24EEA020E20FA04F376
:1006600001FA05F243EA020321FA04F001F0004125
:1006700021FA04F220EA020000EBD3705EEA430E96
:1006800008BF20EAD37070BD94F0000F0FD101F0C5
:100690000046400041EB010111F4801F08BF013CFE
:1006A000F7D041EA060195F0000F18BF704703F03C
:1006B0000046520043EB030313F4801F08BF013DC3
:1006C000F7D043EA0603704794EA0C0F0CEA13557F
:1006D00018BF95EA0C0F0CD050EA410618BF52EA39
:1006E0004306D1D181EA030101F000414FF000003F
:1006F00070BD50EA410606BF1046194652EA43064D
:1007000019D094EA0C0F02D150EA013613D195EAC0
:100710000C0F05D152EA03361CBF104619460AD108
:1007200081EA030101F0004141F0FE4141F4700112
:100730004FF0000070BD41F0FE4141F4780170BD02
:1007400070B54FF0FF0C4CF4E06C1CEA11541DBF67
:100750001CEA135594EA0C0F95EA0C0F00F0A7F869
:10076000A4EB050481EA030E52EA03354FEA013196
:1007700000F088804FEA03334FF0805545EA1313A9
:1007800043EA12634FEA022245EA111545EA106571
:100790004FEA00260EF000419D4208BF964244F108
:1007A000FD0404F5407402D25B084FEA3202B61A27
:1007B00065EB03055B084FEA32024FF480104FF4FB
:1007C000002CB6EB020E75EB030E22BFB61A75466F
:1007D00040EA0C005B084FEA3202B6EB020E75EB02
:1007E000030E22BFB61A754640EA5C005B084FEA6A
:1007F0003202B6EB020E75EB030E22BFB61A754637
:1008000040EA9C005B084FEA3202B6EB020E75EB41
:10081000030E22BFB61A754640EADC0055EA060E02
:1008200018D04FEA051545EA16754FEA06164FEA45
:10083000C30343EA52734FEAC2025FEA1C1CC0D1F1
:1008400011F4801F0BD141EA00014FF000004FF07E
:10085000004CB6E711F4801F04BF01430020B4F13F
:10086000FD0C88BFBCF5E06F3FF6AFAEB5EB030CF7
:1008700004BFB6EB020C5FEA500C50F1000041EBF4
:10088000045170BD0EF0004E4EEA113114EB5C04C1
:10089000C2BFD4EB0C0541EA045170BD41F4801194
:1008A0004FF0000E013C90E645EA060E8DE60CEA9C
:1008B000135594EA0C0F08BF95EA0C0F3FF43BAFB9
:1008C00094EA0C0F0AD150EA01347FF434AF95EA70
:1008D0000C0F7FF425AF104619462CE795EA0C0F54
:1008E00006D152EA03353FF4FDAE1046194622E721
:1008F00050EA410618BF52EA43067FF4C5AE50EAFB
:1009000041047FF40DAF52EA43057FF4EBAE12E7EA
:100910004FF0FF3C06E000BF4FF0010C02E000BFCB
:100920004FF0010C4DF804CD4FEA410C7FEA6C5CAE
:100930004FEA430C18BF7FEA6C5C1BD001B050EA51
:10094000410C0CBF52EA430C91EA030F02BF90EA3C
:10095000020F0020704710F1000F91EA030F58BFFB
:10096000994208BF90422CBFD8176FEAE37040F05D
:10097000010070474FEA410C7FEA6C5C02D150EAFB
:10098000013C07D14FEA430C7FEA6C5CD6D152EAB6
:10099000033CD3D05DF8040B704700BF844610467B
:1009A00062468C461946634600E000BF01B5FFF77A
:1009B000B7FF002848BF10F1000F01BD4DF808ED4A
:1009C000FFF7F4FF0CBF012000205DF808FB00BF1B
:1009D0004DF808EDFFF7EAFF34BF012000205DF875
:1009E00008FB00BF4DF808EDFFF7E0FF94BF0120C2
:1009F00000205DF808FB00BF4DF808EDFFF7CEFFC3
:100A000094BF012000205DF808FB00BF4DF808ED01
:100A1000FFF7C4FF34BF012000205DF808FB00BFD2
:100A20004FEA410C7FEA6C5C02D150EA013C0AD1EA
:100A30004FEA430C7FEA6C5C02D152EA033C02D1DC
:100A40004FF0000070474FF0010070474FEA41023D
:100A500012F5001215D211D56FF47873B3EB625210
:100A600012D94FEAC12343F0004343EA505311F037
:100A7000004F23FA02F018BF404270474FF00000C9
:100A8000704750EA013005D111F0004008BF6FF007
:100A9000004070474FF00000704700BF4FEA41022E
:100AA000B2F1E04324BFB3F5001CDCF1FE5C0DD9CC
:100AB00001F0004C4FEAC0024CEA5070B2F1004F16
:100AC00040EB830008BF20F00100704711F0804F19
:100AD00021D113F13872BCBF01F00040704741F4DE
:100AE00080114FEA5252C2F11802C2F1200C10FAE2
:100AF0000CF320FA02F018BF40F001004FEAC123C6
:100B00004FEAD32303FA0CFC40EA0C0023FA02F369
:100B10004FEA4303CCE77FEA625307D150EA01333F
:100B20001EBF4FF0FE4040F44000704701F000400F
:100B300040F0FE4040F40000704700BF80F00040ED
:100B400002E000BF81F0004142001FBF5FEA4103A5
:100B500092EA030F7FEA226C7FEA236C6AD04FEAA5
:100B60001262D2EB1363C1BFD218414048404140EA
:100B7000B8BF5B42192B88BF704710F0004F40F49C
:100B8000000020F07F4018BF404211F0004F41F4B8
:100B9000000121F07F4118BF494292EA030F3FD084
:100BA000A2F1010241FA03FC10EB0C00C3F1200397
:100BB00001FA03F100F0004302D5494260EB400026
:100BC000B0F5000F13D3B0F1807F06D340084FEA91
:100BD000310102F10102FE2A51D2B1F1004F40EB86
:100BE000C25008BF20F0010040EA030070474900EE
:100BF00040EB000010F4000FA2F10102EDD1B0FAB9
:100C000080FCACF1080CB2EB0C0200FA0CF0AABFAD
:100C100000EBC25052421843BCBFD040184370474B
:100C200092F0000F81F4000106BF80F40000013251
:100C3000013BB5E74FEA41037FEA226C18BF7FEA28
:100C4000236C21D092EA030F04D092F0000F08BF6A
:100C50000846704790EA010F1CBF0020704712F051
:100C60007F4F04D1400028BF40F00040704712F190
:100C700000723CBF00F50000704700F0004343F0F5
:100C8000FE4040F4000070477FEA226216BF08462B
:100C90007FEA23630146420206BF5FEA412390EAEE
:100CA000010F40F4800070474FF0000304E000BFE4
:100CB00010F0004348BF40425FEA000C08BF704795
:100CC00043F0964301464FF000001CE050EA010259
:100CD00008BF70474FF000030AE000BF50EA01026E
:100CE00008BF704711F0004302D5404261EB41015B
:100CF0005FEA010C02BF84460146002043F0B64380
:100D000008BFA3F18053A3F50003BCFA8CF2083AA4
:100D1000A3EBC25310DB01FA02FC634400FA02FCAD
:100D2000C2F12002BCF1004F20FA02F243EB0200B4
:100D300008BF20F00100704702F1200201FA02FC16
:100D4000C2F1200250EA4C0021FA02F243EB020009
:100D500008BF20EADC7070474FF0FF0C1CEAD0524D
:100D60001EBF1CEAD15392EA0C0F93EA0C0F6FD00E
:100D70001A4480EA010C400218BF5FEA41211ED0EC
:100D80004FF0006343EA501043EA5111A0FB0131D8
:100D90000CF00040B1F5000F3EBF490041EAD371AD
:100DA0005B0040EA010062F17F02FD2A1DD8B3F129
:100DB000004F40EBC25008BF20F00100704790F098
:100DC000000F0CF0004C08BF49024CEA502040EAEA
:100DD00051207F3AC2BFD2F1FF0340EAC2507047B0
:100DE00040F400004FF00003013A5DDC12F1190FEE
:100DF000DCBF00F000407047C2F10002410021FA60
:100E000002F1C2F1200200FA02FC5FEA310040F177
:100E1000000053EA4C0308BF20EADC70704792F0F0
:100E2000000F00F0004C02BF400010F4000F013A28
:100E3000F9D040EA0C0093F0000F01F0004C02BF23
:100E4000490011F4000F013BF9D041EA0C018FE792
:100E50000CEAD15392EA0C0F18BF93EA0C0F0AD098
:100E600030F0004C18BF31F0004CD8D180EA0100BE
:100E700000F00040704790F0000F17BF90F0004F57
:100E8000084691F0000F91F0004F14D092EA0C0F39
:100E900001D142020FD193EA0C0F03D14B0218BFCC
:100EA000084608D180EA010000F0004040F0FE4012
:100EB00040F40000704740F0FE4040F440007047AE
:100EC0004FF0FF0C1CEAD0521EBF1CEAD15392EA2D
:100ED0000C0F93EA0C0F69D0A2EB030280EA010C1D
:100EE00049024FEA402037D04FF0805343EA1111B6
:100EF00043EA10130CF000408B4238BF5B0042F114
:100F00007D024FF4000C8B4224BF5B1A40EA0C00B8
:100F1000B3EB510F24BFA3EB510340EA5C00B3EBEA
:100F2000910F24BFA3EB910340EA9C00B3EBD10FD8
:100F300024BFA3EBD10340EADC001B0118BF5FEA2A
:100F40001C1CE0D1FD2A3FF650AF8B4240EBC25053
:100F500008BF20F0010070470CF0004C4CEA502014
:100F60007F32C2BFD2F1FF0340EAC250704740F463
:100F700000004FF00003013A37E792F0000F00F055
:100F8000004C02BF400010F4000F013AF9D040EAD3
:100F90000C0093F0000F01F0004C02BF490011F467
:100FA000000F013BF9D041EA0C0195E70CEAD1535F
:100FB00092EA0C0F08D142027FF47DAF93EA0C0F46
:100FC0007FF470AF084676E793EA0C0F04D14B022A
:100FD0003FF44CAF08466EE730F0004C18BF31F0DC
:100FE000004CCAD130F000427FF45CAF31F00043D6
:100FF0007FF43CAF5FE700BF4FF0FF3C06E000BF6F
:101000004FF0010C02E000BF4FF0010C4DF804CD91
:101010004FEA40024FEA41037FEA226C18BF7FEAA1
:10102000236C11D001B052EA530C18BF90EA010FA3
:1010300058BFB2EB030088BFC81738BF6FEAE17032
:1010400018BF40F0010070477FEA226C02D15FEACE
:10105000402C05D17FEA236CE4D15FEA412CE1D03A
:101060005DF8040B704700BF844608466146FFE701
:101070000FB5FFF7C9FF002848BF10F1000F0FBDE3
:101080004DF808EDFFF7F4FF0CBF012000205DF8DC
:1010900008FB00BF4DF808EDFFF7EAFF34BF012061
:1010A00000205DF808FB00BF4DF808EDFFF7E0FFFA
:1010B00094BF012000205DF808FB00BF4DF808ED4B
:1010C000FFF7D2FF94BF012000205DF808FB00BFAE
:1010D0004DF808EDFFF7C8FF34BF012000205DF890
:1010E00008FB00BF4FEA4002B2F1FE4F0FD34FF0B2
:1010F0009E03B3EB12620DD94FEA002343F0004385
:1011000010F0004F23FA02F018BF404270474FF032
:101110000000704712F1610F01D1420205D110F0B9
:10112000004008BF6FF0004070474FF0000070476C
:1011300042000ED2B2F1FE4F0BD34FF09E03B3EB41
:10114000126209D44FEA002343F0004323FA02F06D
:1011500070474FF00000704712F1610F01D1420259
:1011600002D14FF0FF3070474FF00000704700BFD2
:10117000054B82B0DA690243DA61DB6918400190FD
:10118000019B02B0704700BF00100240054B82B0C7
:101190009A6902439A619B6918400190019B02B0D1
:1011A000704700BF0010024030B54FF4407393FA0F
:1011B000A3F34FF40074B3FA83F31F25DC402C3003
:1011C00050F8243001F01F018D4002F01F0223EA85
:1011D00005038A401A4340F8242030BDF0B54FF093
:1011E000007696FAA6F6B6FA86F301F00076DE40AF
:1011F0000C3050F8264001F0F8714FF0F87393FA74
:10120000A3F5B5FA85F593FAA3F30727B3FA83F3A9
:1012100021FA05F507FA05F5D94024EA050402FA92
:1012200001F1214340F82610F0BD0000274B10B516
:101230001A6822F0070242F002021A601A6802F0ED
:101240000702022AFAD1224C236843F48033236038
:1012500023689A03FCD5236843F400232360636862
:1012600023F47C1343F4E8136360236843F0807332
:10127000236023689B01FCD5636823F0F00363605F
:10128000636823F4E06343F480636360636823F47A
:1012900060536360636823F0030343F002036360F9
:1012A000636803F00C03082BFAD10A4802F0ACFA89
:1012B0000F2000F0CFFB636823F4404343F4004366
:1012C0006360636823F48003636010BD0020024004
:1012D0000010024000A24A042DE9F04F142597B0F7
:1012E00000F0DCFBFFF7A2FF2A4600210EA809F060
:1012F000EFFA1020FFF74AFF2020FFF747FF0420F6
:10130000FFF744FF0820FFF741FF4FF4005300248C
:101310004FF001090226D2480EA90361D14BCDE955
:101320001064CDE90E3901F0C9FACF4B21465A6954
:1013300009A842EA09025A615B692A4603EA0903DD
:101340000393039BCDE90444029409F0C1FA2A46B1
:1013500021460EA809F0BCFA4FF40070FFF716FF03
:101360000420FFF713FF41F61E63C04F0EA9384655
:10137000CDE90E3401F0A2FABD4BDFF820831A68E4
:1013800004A922F4804222F010021A601A68404632
:1013900042F440521A601A684FF0200B42F02002CB
:1013A0001A601A68DFF8F8A222F040021A601A6880
:1013B00042F080021A601A6822F4407242F480728D
:1013C0001A601A6822F4406242F480621A604FF494
:1013D00080730494059301F0E5F916A941F8504D86
:1013E000404601F0C3F94FF400224FF40013CDE959
:1013F00009234FF4807309A940460D93CDE90B44AE
:1014000001F0E5F9D8F804309A4A40461A409A4B60
:101410004FF400711343C8F80430D8F82430974AC9
:101420006FEA13336FEA0333C8F82430536823F4A8
:101430007F6323F00F035360D8F80430524643F023
:101440004003C8F80430FFF7AFFE5146404606227D
:10145000FFF7C4FED8F80830DFF848A243F40003D1
:10146000C8F808305246404640F20521FFF79CFE7E
:101470005146DFF834A240460622FFF7AFFE52463F
:10148000404640F20A21FFF78FFE514640460622B1
:10149000FFF7A4FE02F0CEFE2A46214604A809F07A
:1014A00017FA5A4621460EA809F012FA2A46214692
:1014B00009A809F00DFA48464FF08048FFF758FE9A
:1014C0004FF47A7304A94FF08040CDE90634ADF8AB
:1014D0001040059401F0CCFAD8F80030DFF8CCA128
:1014E00023F08003C8F80030D8F808300EAA03EAC9
:1014F0000A03C8F80830D8F81830494643F0080302
:10150000C8F8183060234046CDE90E34CDE91044C8
:10151000129401F0E5FAD8F81830042043F00403DF
:10152000C8F81830D8F8043023F0700343F01003E3
:10153000C8F80430D8F8083043F08003C8F8083001
:10154000FFF724FE09234E493846CDE9091303234A
:1015500009A9CDE90B3401F0B1F94A4A2146536893
:101560000EA823F0E06323F4407343F0E06343F4F8
:10157000807353601C2209F0ABF92A46214609A862
:1015800009F0A6F94FF48040FFF700FE0420FFF7B2
:10159000FDFD09233C484FF00408CDE9090303236E
:1015A00009A93846CDE90B3401F088F9374B09A970
:1015B0003846CDE9093801F081F94FF4E133CDE93E
:1015C0000E340C23CDE91234314B0EA91846019389
:1015D000CDE91044149401F04BFB019B21461A699C
:1015E00009A822F490421A615A6922F02A025A612B
:1015F000DA6842F40052DA602A4609F069F95A467C
:1016000021460EA809F064F93046FFF7B1FD214BE1
:10161000214E1A68304622F4804222F010021A60ED
:101620001A6809A942F440521A601A6842EA0B0289
:101630001A601A6822F040021A601A6842F08002AA
:101640001A601A6822F440721A601A6822F4406222
:101650001A604FF47A73ADF82430482328E000BFB5
:10166000001001402000200400100240000801404A
:1016700008000240E0FD3FFF0102800024240140F9
:101680008000800400000140020002040400040401
:10169000003801406C00024000040040002401407A
:1016A000110050810100300202006002F8BFFFFF0C
:1016B0000A940B9301930C9401F0DAF932683046E6
:1016C00042F080023260B268494602EA0A02B26021
:1016D0000EAACDE90E44CDE91044129401F000FAAF
:1016E000B269214622F00402B261726804A822F0B5
:1016F000700242EA0B027260B26822F08002B260AD
:101700002A4609F0E5F85A4621460EA809F0E0F805
:101710002A46214609A809F0DBF84046FFF728FDD4
:101720004FF47A7306F58066ADF81030019B04A97A
:101730003046CDE90634059401F09AF933680EAAD3
:1017400043F080033360B368494603EA0A03B36099
:10175000B369304643F00803B3616023CDE9104418
:10176000CDE90E34129401F0BBF9B369082043EAC5
:101770000803B361B36823F0700343F01003B36050
:10178000B36823F0070343F00603B360F36823F064
:101790004003F360F36823F48043F360736823F03D
:1017A000700343EA0B037360B36823F08003B360F4
:1017B000FFF7ECFC44F2400C0923CDE909C30323F5
:1017C00009A96148CDE90B3401F078F82A46214691
:1017D00009A809F07DF82A4621460EA809F078F8F4
:1017E0004FF40060FFF7D2FC4046FFF7CFFC574BA9
:1017F0000EA93846CDE90E3801F060F8544B06F5D5
:1018000092361A6809A922F4804222F010021A6066
:101810001A68304622F4405242F400521A601A68A4
:1018200022F020021A601A6822F040021A601A6838
:1018300042F080021A601A6822F4407242F4807208
:101840001A601A6822F4406242F480621A604FF60D
:10185000FF73ADF82440CDE90B340A940D9401F0E8
:1018600007F933682A4623F080033360B3682146C2
:1018700003EA0A03B360736809A823F07003736076
:10188000B36823F08003B360B36923F0030343EA32
:101890000903B361B36923F00C03B361B36923F0A7
:1018A000F003B361336A23F00A033362CDE90444E1
:1018B00009F00EF82A4621460EA809F009F84FF45F
:1018C0008060FFF763FC4046FFF760FC40F20113C5
:1018D0000EA93846CDE90E3400F0F0FF4FF48073C6
:1018E0001C4D04A928460593049400F05BFF4FF4B7
:1018F000602E4FF4801309A92846CDE909E3CDE90C
:101900000B440D9400F063FF28464FF000724FF433
:101910000071FFF749FC224628464FF00071FFF79F
:101920005DFC28464FF0007240F20521FFF73CFCB9
:10193000284622464FF00071FFF750FC02F0DAFF14
:10194000204617B0BDE8F08F000C014001000104F3
:101950001C0002400028014070470000114B07B5F1
:101960009A690F2142F001029A619A696FF00100B1
:1019700002F001020092009ADA6942F08052DA61C4
:10198000DB69002203F080530193019B00F0B6F85D
:10199000054A536823F0E06343F00073536003B0DB
:1019A0005DF804FB00100240000001407047FEE7B4
:1019B000FEE7FEE7FEE77047014800F09DB900BF73
:1019C000883400200B4B10B51968024609B90A4942
:1019D0001960186809490A4C0244091B8A4206D951
:1019E00008F004FF0C2303604FF0FF3010BD1A60B5
:1019F000FCE700BF84030020704600200050002058
:101A00000004000070470000002103E00B4B5B580E
:101A1000435004310A480B4B42189A42F6D30A4A03
:101A200002E0002342F8043B084B9A42F9D3FFF747
:101A3000E9FF08F0E1FEFFF74FFC704758CE0008C1
:101A40000000002068030020680300206C4600208E
:101A5000FEE7000038B50E4B054618784FF47A7350
:101A6000B3FBF0F30B4A1068B0FBF3F000F088F81A
:101A7000044658B90F2D09D8024629464FF0FF30C9
:101A800000F03CF82046044B1D6038BD0120FCE707
:101A9000040000200000002008000020074A08B5CC
:101AA0001368032043F01003136000F015F80F20B3
:101AB000FFF7D0FFFFF752FF002008BD00200240D3
:101AC000034A044B11681B780B441360704700BF36
:101AD0000408002004000020074A0002D36800F434
:101AE000E06023F4E0631B041B0C43F0BF6343F48A
:101AF00000330343D360704700ED00E0174B70B52F
:101B0000DC684FF0FF36C4F30224C4F10705042D4E
:101B100004F1040328BF0425062B98BF002406FA0D
:101B200005F388BF033C21EA0303A34006FA04F44B
:101B300022EA0404002843EA0403A8BF00F160403D
:101B40004FEA0313B8BF064ADBB2ABBF00F56140F2
:101B500000F00F0080F80033135470BD00ED00E07A
:101B600014ED00E0002808DB0123420900F01F000B
:101B700003FA00F0014B43F82200704700E100E057
:101B80000138B0F1807F0AD2F021064B064A586036
:101B900082F823100020072298601A607047012005
:101BA000704700BF10E000E000ED00E0F0B5044633
:101BB00087B010B390F8A93203F0FF021BB980F888
:101BC000A82202F067FC254603236E4655F8100B49
:101BD00084F8A93201F0AEF80FCD0FC62B68254668
:101BE0003360271D97E80E0055F8100B01F092F8AE
:101BF000064620B1022384F8A93201254BE00146B4
:101C0000206801F0A1F830464FF0010E2826014669
:101C1000D4F804C0C2B2944500F1010018D80023E2
:101C200028261946D8B2844503F101031DD80FCDEB
:101C30006E460FC62B68336097E80E00206801F0EF
:101C400085F801230546F8B1022284F8A922D4E7D9
:101C500006FB024383F829E083F82820DA8683F81C
:101C60002B10C3E90E111964D4E706FB004282F879
:101C7000691182F8680182F86B11C2F87811C2F814
:101C80007C11C2F88011CDE784F8240084F8A932D1
:101C9000206801F0DAFA284607B0F0BD38B590F8B0
:101CA000A8320446012B10D0012580F8A852006804
:101CB00001F037F82946204602F01DFD206801F0AA
:101CC000C2FA002084F8A80238BD0220FCE790F890
:101CD000A82210B5012A04460BD0012280F8A822C0
:101CE00084F82410006801F0A8FA002084F8A80203
:101CF00010BD0220FCE700002DE9F04F044685B03E
:101D0000006801F0A4FA020409D5DFF82898DFF88A
:101D100028882068B0F844301B0400F1BC8020689B
:101D200001F095FA43050FD522682046B2F84430F9
:101D300023F480631B041B0CA2F8443002F0E5FB83
:101D400000212046FFF7C3FF206801F080FA470416
:101D500008D52268B2F8443023F480431B041B0CDE
:101D6000A2F84430206801F072FA860408D522688F
:101D7000B2F8443023F400531B041B0CA2F8443087
:101D8000206801F064FAC5041CD522682046B2F828
:101D9000403023F004031B041B0CA2F84030B2F8BF
:101DA000403023F008031B041B0CA2F8403002F063
:101DB000CFFB2268B2F8443023F480531B041B0C81
:101DC000A2F84430206801F042FA000541D5002213
:101DD000236833F822102DF812100132082AF8D1A6
:101DE000B3F8402042F00102A3F84020B3F84020AD
:101DF00022F001021204120CA3F84020B3F8442090
:101E00005105FBD5B3F8442022F480621204120C71
:101E1000A3F8442000223DF8121023F822100132CA
:101E2000082AF8D1B3F84020204642F00802A3F86F
:101E30004020B3F8442022F400621204120CA3F8EC
:101E40004420B3F8402042F00402A3F8402002F0FE
:101E50006FFB206801F0FBF982050BD52268204654
:101E6000B2F8443023F400731B041B0CA2F8443076
:101E700002F047FB206801F0EAF9C30508D52268A3
:101E8000B2F8443023F480731B041B0CA2F84430D6
:101E900005B0BDE8F08FB0F8441089B211F00F061C
:101EA00040F0B18011F0100103882AD109EA030340
:101EB00043F400430380B0F8503094F8282003EB3B
:101EC000C20300EB4300B0F80434E26BC3F3090330
:101ED00063641344E363204602F00BFB94F8243060
:101EE000002B3FF416AF226C002A7FF412AF94F857
:101EF0002430216843F08003A1F84C3084F824207A
:101F000007E79BB213F4006520D0B0F8503094F886
:101F1000682104F52C7103EBC20300EB4303B3F813
:101F20000C34B4F86E21C3F30903C4F8843101F012
:101F30004FFC22682046138823F070031B051B0DFD
:101F400043F08003138002F0C5FAE2E61F047FF538
:101F5000E0AE038823F070031B051B0D43F08003E4
:101F60000380B0F8503094F8682103EBC20300EB13
:101F70004303B3F80C34C3F30903C4F884318BB1C1
:101F8000D4F87C1171B1B4F86E2101F021FCD4F8C1
:101F90007C31D4F8842129461344C4F87C3120468E
:101FA00002F09EFA2168D4F87851B1F8503001F26D
:101FB0000C409BB2BDB9C25A22F4F8421204120C72
:101FC000C252C25A48EA020292B2C2520B8823F4A9
:101FD000804323F0700383F4405343F4004343F001
:101FE00080030B8095E63E2D05D86A08EE0748BFB2
:101FF00001329202E8E76A09ED0608BF02F1FF32FA
:1020000048EA8222E0E730F82670BFB2390440F196
:10201000F280282130F8263001FB064123F07003BE
:102020001B051B0D43F0800320F8263091F8743116
:1020300000F5806CABB9B0F8503091F868210633E8
:1020400003EBC2033CF81350C5F30905002D00F063
:10205000B6802B46B1F86E21D1F87C1101F0B8FBA7
:10206000ADE091F86B3191F86821022B40F0898046
:1020700017F4804A4FEAC205D1F8803107F0400ECC
:102080003ED0B0F850A0554402353CF81550C5F389
:1020900009059D428CBF00235B1BC1F880312823BA
:1020A00003FB0643D3F880316BB930F8223023F4B8
:1020B000804323F0700383F4005343F4004343F060
:1020C000800320F82230BEF1000F10D0282303FB3C
:1020D000064393F8682130F8223023F0F0031B0503
:1020E0001B0D43F4004343F0C00320F82230002DC1
:1020F00065D0282101FB06412B46B1F87021ABE7E2
:10210000B0F850B05D4406353CF81550C5F30905EC
:102110009D429CBF5B1BC1F880314FF0280303FB3D
:10212000064388BFC1F880A1D3F880316BB930F87D
:10213000223023F4804323F0700383F4005343F4EC
:10214000004343F0800320F82230BEF1000F10D18D
:10215000282303FB064393F8682130F8223023F04C
:10216000F0031B051B0D43F4004343F0C00320F8AC
:10217000223025B3282101FB06412B46B1F87221FC
:102180006AE730F8223023F0F0031B051B0D43F4FF
:10219000004343F0C00320F8223091F8683130F852
:1021A0002320DB0012F4804FB0F850205ED00232C2
:1021B00013443CF81350C5F30905002D9CD1282188
:1021C00071436318D3F884212A44C3F88421D3F8D7
:1021D0007C212A44C3F87C21D3F880211AB1D3F89A
:1021E00078319D424BD2282303FB0643204693F8C7
:1021F000681102F075F93A067FF58BAD2825206845
:1022000005FB064530F8263000F5806209EA030335
:1022100043F4004320F8263095F82B3095F8281029
:10222000022B01D1FB053DD42823B0F850E003FB7D
:10223000064C0EF1020E0EEBC10132F81120DCF853
:102240004070C2F30902974292BF0021BF1ACCF836
:10225000407003FB064798BFCCF84010396CA9B911
:1022600095F82810204602F044F952E5063213444E
:102270003CF81350C5F30905002DA0D07DE701F50A
:10228000B4712144206800F0F7FFB4E7F96B06FB56
:1022900003331144F963796C0A447A64E11800F05D
:1022A000EBFF36E517F0400E4FEAC10C2B6C07F43C
:1022B000804700F09E80B0F850E0BFB2F4440CF1CB
:1022C000020C32F81CC0CCF3090C9C452CBF002337
:1022D000A3EB0C032B64282303FB06431B6CABB955
:1022E000204602F006F9002F00F0A18095F8281092
:1022F000226832F8213023F0F0031B051B0D43F454
:10230000404343F0800322F8213090E05FB130F881
:10231000213023F0F0031B051B0D43F4404343F031
:10232000800320F82130282303FB064393F84C2038
:10233000012A7CD15A6CD96B62445A649F6C9A6BA7
:1023400061449742D96325D3BF1A9F6495F82970D9
:1023500093B2002F41D1B0F8507000F2044CBC444D
:1023600095F828703F0102BB3CF8072022F4F842A0
:102370001204120C2CF807203CF8072048EA02024D
:1023800092B22CF80720282202FB0646328E00F07B
:1023900063FF4CE01FB983F84C706246D6E7002219
:1023A00083F84C209A643A46D0E73E2A0CD84FEA8C
:1023B000520ED20748BF0EF1010E4FEA8E2E1FFAC1
:1023C0008EFE2CF807E0DEE74FEA521ED20608BF69
:1023D0000EF1FF3E48EA8E2EF1E7012FD3D1B0F87F
:1023E000502000F20447174495F828201201BB52F0
:1023F000C9E7B0F850A0BFB2D4440CF1060C32F8D3
:102400001CC0CCF3090C9C459CBFA3EB0C032B64B4
:102410004FF0280303FB064388BFC5F840E01B6C60
:10242000BBB9204602F065F8002F3FF45FAF95F886
:102430002810226832F8213023F4E04323F04003CF
:1024400083F0300343F4004343F0800322F821304B
:102450005FE45FB930F8213023F0F0031B051B0D5A
:1024600043F4404343F0800320F82130282303FB4A
:10247000064393F84C20012AD9D15A6CD96B624497
:102480005A649F6C9A6B61449742D96323D3BF1AF5
:102490009F6495F8297093B2002F3FD1B0F8507027
:1024A00000F20C4CBC4495F828703F01F2B93CF89E
:1024B000072022F4F8421204120C2CF807203CF8F2
:1024C000072048EA020292B22CF80720282202FBD9
:1024D0000646728E5BE71FB983F84C706246D8E7F8
:1024E00000229A6483F84C203A46D2E73E2A0CD860
:1024F0004FEA520ED20748BF0EF1010E4FEA8E2E60
:102500001FFA8EFE2CF807E0E0E74FEA521ED206D3
:1025100008BF0EF1FF3E48EA8E2EF1E7012FD5D11C
:10252000B0F8502000F20C47174495F8282012010B
:10253000BB52CBE70F8FFFFF0080FFFF11F0800F32
:1025400070B501F0070504464FF028011CD005FBCB
:1025500001110144012048700A614A780D70CB7066
:1025600002B1CD81022B04BF00230B7194F8A83275
:10257000012B13D00123206884F8A83200F0FAFB65
:10258000002084F8A80270BD002601FB05F000F5CC
:10259000B4712044214480F86961DDE70220F2E74C
:1025A00011F0800F10B501F0070204464FF028012A
:1025B00013D0012302FB011101444B700A7094F8FF
:1025C000A832012B13D00123206884F8A83200F030
:1025D0000FFD002084F8A80210BD01FB02F303F5F3
:1025E000B47101440344002083F86901E6E7022046
:1025F000F2E770B52824002601F007014C430519C5
:1026000085F8681104F5B4710144C5F87C21C5F85A
:102610008031C5F8846185F86961006800F02CFE9E
:10262000304670BD282301F0070103FB0101D1F8FA
:102630008401704770B5282501F0070105FB0104EE
:102640000026C4E90F23012201FB055584F8281058
:1026500084F84C204119A364666484F8292000683A
:1026600000F00AFE304670BD38B5436801F007053A
:102670009D42044628D811F0800F4FF028031AD04D
:1026800005FB0333C11801234B7001230D708B70C0
:1026900094F8A8229A4219D084F8A832206800F051
:1026A0006DFD25B904F52C71206800F0D3FD0020E4
:1026B00084F8A80238BD00224B4303F5B4710344EB
:1026C000014483F86921E0E70120F3E70220F1E704
:1026D00038B5436801F00F029A42044626D811F03B
:1026E000800F01F007024FF0280115D0012302FBF3
:1026F000011101444B7000250A708D7094F8A832C6
:10270000012B15D00123206884F8A83200F052FD77
:10271000284684F8A85238BD01FB02F303F5B471D2
:1027200001440344002083F86901E4E70120F2E753
:102730000220F0E710B5282411F0800F1BBF01F034
:10274000070101FB044104FB0100401808BF00F52C
:10275000B47099B21AB90273C180002010BD012271
:102760001B0C027301814381F7E700000C4B9A6850
:1027700003F580639B68134313F001020ED10B68CD
:1027800033B1416821F470210B4343601046704718
:10279000426822F470224260184670470120704758
:1027A00000240140836810B513F001030DD1426885
:1027B0004C6822F48072224342608268096822F4E5
:1027C00000620A438260184610BD0120FCE783685E
:1027D00010B5DB071BD443684A6823F4684312B181
:1027E0008C6813432343436083680C6823F460239D
:1027F00023F481732343CC68096923430B4383602B
:10280000C36A23F470031343C362002010BD012088
:10281000FCE7000002460368007910B500283DD0AF
:10282000002B44D0517901291ED003D3022924D092
:10283000012008E02049486820EA03004860086851
:1028400018430860002092796AB1022A19D0032A3D
:1028500020D0012A2DD1184AD16821EA0301D16084
:1028600091680B43936010BD1349086820EA030088
:102870000860486818434860E4E70F49086818434F
:10288000F6E70D4A916821EA03019160D1680B4394
:10289000D360E8E7084A91681943F6E7DC43064A43
:1028A000116821401160536823405360DBE71846EC
:1028B000D9E70120D7E700BF000401402DE9F04F20
:1028C0000C68C4F30F2494FAA4F24FF00F0AB2FA82
:1028D00082F24FF0030904274FF0011C40F2011E61
:1028E00034FA02F302D11846BDE8F08F0123934079
:1028F00023425ED0072A85BFA2F108030CFA03F336
:102900000EFA02F343F08063C5681E0A96FAA6F831
:10291000B8FA88F825EA06060D6905FA08F5354380
:10292000C5604FEA136893FAA3F6B6FA86F693FAEF
:10293000A3FBBBFA8BFBB6000AFA06F550F8086059
:102940004FEA8B0B26EA05064D6805FA0BFB46EAB3
:102950000B0640F808604D6825F00805012D28D1C8
:1029600093FAA3F5B5FA85F593FAA3FBBBFA8BFBB3
:10297000AD0009FA05F526EA05068D684FEA8B0BCE
:1029800005FA0BFB46EA0B0640F8086093FAA3F53C
:10299000B5FA85F593FAA3F3B3FA83F3AD0007FA1A
:1029A00005F526EA0505CE689B009E402E4340F8BB
:1029B0000860013294E70000034B044A5B68C3F3EC
:1029C0000313D35CD840704700100240E8C30008EE
:1029D000034B044A5B68C3F30223D35CD8407047BF
:1029E00000100240F8C30008034B044A5B68C3F3BD
:1029F000C223D35CD840704700100240F8C30008DF
:102A0000094B5A6802F4803262B15868074AC0F331
:102A100040400130B2FBF0F05B68C3F38343023304
:102A2000584370470248F7E70010024000127A004E
:102A300000093D00044B5B6803F00C03082B01D137
:102A4000FFF7DEBF014870470010024000127A0015
:102A500008B50146FFF7EEFF0860FFF7ADFF4860DD
:102A6000FFF7B6FF88604868FFF7BEFFC86008BD83
:102A70001A4A036890420AD0B0F1804F07D0A2F5FD
:102A80009432904203D002F58062904215D14A6898
:102A900023F070031343114A90420AD0B0F1804FE3
:102AA00007D0A2F59432904203D002F580629042A2
:102AB00003D1CA6823F44073134303608B68C36275
:102AC0000B888362054B984204BF0B69036343691B
:102AD00043F0010343610020704700BF002C014018
:102AE000102930B55FD003D801292CD0012059E03E
:102AF000B1F5807F00F08980B1F5805FF6D1036A7F
:102B0000156823F480530362036A4468C16923F49F
:102B1000005321F4E64141EA0521156943EA0533F2
:102B2000556823F4805343EA0533504DA84204BF4F
:102B3000956924F48044D26808BF44EA851444604F
:102B4000C16102642CE0036A156823F0010303628B
:102B5000036A4168846923F0020324F073042C4360
:102B600015692B43556823F001032B433F4DA842C1
:102B700012D1556923F0080343EA8503956823F0D1
:102B8000040343EA8503956921F480712943D569DB
:102B900021F4007141EA4501D268416084614263D9
:102BA0000362002030BD036A156823F0100303623E
:102BB000036A4168846923F0200324F4E64444EA6C
:102BC0000524156943EA0513556823F0100343EA09
:102BD0000513264DA84213D1556923F0800343EA1B
:102BE0008513956823F0400343EA8513956921F422
:102BF000806141EA8501D56921F4006141EAC5019E
:102C0000D268416084618263CAE7036A156823F46D
:102C100080730362036A4168C46923F4007324F07B
:102C200073042C43156943EA0523556823F4807324
:102C300043EA05230D4DA84213D1556923F40063DF
:102C400043EA8523956823F4806343EA85239569E5
:102C500021F4805141EA0511D56921F4005141EA7E
:102C60004511D2684160C461C26399E7002C0140FC
:102C700030B5C36885B09B0404460D4602D50120DB
:102C800005B030BD4B68C968C2680B43296922F49E
:102C9000B0520B4322F00C021343C3600369AA68CD
:102CA00023F440531343036143696A6923F4407377
:102CB000134343616846FFF7CBFE134B9C4219D187
:102CC00003990029DBD02A68002AD8D019234B4366
:102CD0009200B3FBF2F36422B3FBF2F102FB113377
:102CE0001B013233B3FBF2F303EB01139BB2A3607E
:102CF0000020C5E7054B9C4201D10299E1E7044B56
:102D00009C42BCD1F9E700BF0038014000440040BC
:102D10000048004084B001A880E80E0004B0002004
:102D2000704700234FF43F42A0F84430A0F8402001
:102D300018467047B0F8403023F47C535B045B0CBA
:102D4000A0F84030002070470020704784B010B5D4
:102D500003AC84E80E00BDE810400123A0F8403029
:102D6000002304B0A0F84030A0F84430A0F8503060
:102D700018467047F0B50C78034630F82420C87820
:102D800022F4EC4222F07002032803D8DFE800F0BE
:102D900042494446012048F280052A4323F8242072
:102DA0000E78904A33F82640354314402C4323F8DC
:102DB00026400D7B0C78002D40F08280CD884E7827
:102DC0006D086D0003EB041476B3B3F8506034441F
:102DD000A4F800540D7833F82540670608D533F879
:102DE0002540224042F4004242F0C00223F8252050
:102DF000CA780C78012A33F824107B4A02EA0102CF
:102E000018BF82F0200242F4004242F0800223F810
:102E10002420F0BD42F400720020BCE742F4C062FE
:102E2000FAE742F48062F7E7B3F850200E691444E1
:102E3000A4F808540A78B3F8504003EB0212A4B285
:102E400002F20C4256BB155B25F4F8452D042D0CFF
:102E50001553155B45F4004515530C7833F82420C1
:102E600057040BD533F8242022F0F0021205120D7E
:102E700042F4404242F0800223F82420097833F8DB
:102E8000212022F4804222F0700282F4405242F467
:102E9000004242F0800223F82120BAE73E2E06D8F5
:102EA0007508F60748BF0135AD02ADB2D4E7770922
:102EB000F5064E4D08BF07F1FF3745EA8725F4E7D1
:102EC00033F82450154045F4014545F0800523F8BA
:102ED00024500C780D89B3F8506003EB04146D088E
:102EE000B6B204F580646D00A5530C784D89B3F833
:102EF000506003EB04146D0804F581646D00B6B2F4
:102F0000A5534C780D78B4BB33F82540660408D53A
:102F100033F82540224042F4404242F0800223F838
:102F200025200C7833F8242055060BD533F82420BF
:102F300022F0F0021205120D42F4004242F0C002EB
:102F400023F8242048F280040D7833F8252022F459
:102F5000804222F0700282F44052224323F825205E
:102F6000097833F8212022F4E04222F04002144391
:102F700023F821404DE733F82540640408D533F8A1
:102F80002540224042F4404242F0800223F82520AE
:102F90000C7833F8242052060BD533F8242022F085
:102FA000F0021205120D42F4004242F0C00223F872
:102FB0002420CA780C78012A33F824500A4A02EAFD
:102FC000050218BF82F0200242F4004242F0800263
:102FD00023F82420097833F8212022F0F00292040B
:102FE000920C54E78F8FFFFFBF8FFFFF0080FFFF22
:102FF00010B50C7B4A780B78BCBBF2B130F82320BB
:1030000052060BD530F8232022F0F0021205120DE3
:1030100042F4004242F0C00220F823200A7830F83F
:10302000223023F0C0031B051B0D43F4004343F083
:10303000800320F82230002010BD30F823205404F3
:103040000BD530F8232022F0F0021205120D42F4C5
:10305000404242F0800220F823200A7830F82230E3
:1030600023F0F0039B049B0CDFE7002A44D130F8E7
:10307000232052040BD530F8232022F0F002120551
:10308000120D42F4404242F0800220F823200A78D8
:1030900030F822305C060BD530F8223023F0F003F4
:1030A0001B051B0D43F4004343F0C00320F82230FE
:1030B0000A7830F8223023F0F0031B051B0D43F48F
:1030C000004343F0C00320F8223048F280020C781D
:1030D00030F8243023F4804323F07003134320F8A6
:1030E0002430097830F8213023F4E04323F0400302
:1030F0001A4320F821209EE730F8232052040BD5F4
:1031000030F8232022F0F0021205120D42F4404262
:1031100042F0800220F823200A7830F822305B0643
:103120000BD530F8223023F0F0031B051B0D43F4C0
:10313000004343F0C00320F822300A7830F82230F0
:1031400023F0F0031B051B0D43F4404343F08003C1
:1031500020F8223048F280020C7830F8243023F432
:10316000E04323F04003134320F82430097830F87B
:10317000213023F4804323F07003B9E74B780A78B9
:103180007BB130F8223023F4E04323F0400383F096
:10319000100343F4004343F0800320F82230002062
:1031A000704730F8223023F4804323F0700383F417
:1031B0008053EEE70B7B23BB4B780A781BB330F8C8
:1031C00022305B060BD530F8223023F0F0031B05CC
:1031D0001B0D43F4004343F0C00320F82230CB78AA
:1031E000012B0ED00A7830F8223023F4E04323F08C
:1031F000400383F0200343F4004343F0800320F8AE
:1032000022300020704730F822305B040BD530F8B4
:10321000223023F0F0031B051B0D43F4404343F021
:10322000800320F822300A7830F8223023F48043DB
:1032300023F0700383F44053DDE711B98023A0F835
:103240004C30002070470020704700207047B0F8D5
:10325000440070470020704700EB4202013302F542
:1032600080625B0802EB83039A4200D1704731F819
:10327000020B22F8040BF7E7F8B50C46497805462F
:103280000129277B40F083812269A6696169964202
:1032900028BF1646EFB9B6B23346E288FFF7DCFF27
:1032A000B5F85010227805F2044312010B44D652AF
:1032B000227835F8223023F4E04323F0400383F0F2
:1032C0003003002043F4004343F0800325F822300C
:1032D000F8BDE3782778022B40F02481236A9A42D4
:1032E00030F8272022F4F8724FEA02524FEA1252C5
:1032F00080F0078142F4014242F0800220F827204A
:1033000022789B1B30F82200236210F0400FB3B2EA
:1033100060787CD000284DD1B5F8500005F20C47FC
:1033200007441201002E31D1B85A20F4F8400004AD
:10333000000CB852B85A40F40040B852628928468E
:10334000FFF78AFF226A236961699A4289BF921B4B
:103350000023226232466078314498BF2362616163
:1033600093B2002848D1B5F85000277805F20446FA
:103370003F01064442BBBA5B22F4F8421204120C2D
:10338000BA53BA5B42F40042BA5326E03E2E07D845
:10339000700816F0010F18BF0130800280B2CCE730
:1033A0004FEA561CF006974808BF0CF1FF3C40EA74
:1033B0008C20F3E70128C1D1B5F8507005F20C401C
:1033C000384412018352B9E73E2A0BD85008D2077D
:1033D00048BF0130800280B2B85322892846FFF7E7
:1033E0003BFF65E75009D206864A08BF00F1FF306F
:1033F00042EA802292B2C7E70128EED1B5F85060C8
:10340000207805F20442000132448352E5E70028A7
:103410004DD1B5F8500005F2044707441201002EC3
:1034200031D1B85A20F4F8400004000CB852B85A10
:1034300040F40040B85222892846FFF70DFF226A67
:10344000236961699A4289BF921B00232262324636
:103450006078314498BF2362616193B2002845D1FE
:10346000B5F85000277805F20C463F01064442BBF0
:10347000BA5B22F4F8421204120CBA53BA5B42F45B
:103480000042BA5326E03E2E07D8700816F0010F0E
:1034900018BF0130800280B2CCE74FEA561CF0061C
:1034A000584808BF0CF1FF3C40EA8C20F3E70128A4
:1034B000C1D1B5F8507005F204403844120183526E
:1034C000B9E73E2A08D85008D20748BF0130800229
:1034D00080B2B853628981E75009D206494A08BFD1
:1034E00000F1FF3042EA802292B2CAE70128F1D10E
:1034F000B5F85060207805F20C4200013244835246
:10350000E8E742F4004242F0800220F82720B0F8B9
:103510005070267800F204423A4436019BB2B3520E
:1035200022895CE730F82720B0F8500052064BBFE4
:1035300005F20C4205F2044212181218B3B24FEA17
:1035400007174BBFD353D353628922892846FFF70D
:1035500083FE6378227863B935F8223023F0F003D4
:103560001B051B0D43F4004343F0C00325F8223034
:103570009EE6012B7FF49CAE35F8223023F0F00359
:103580001B051B0D43F4404343F08003EEE7002F7F
:103590003AD1A269236905F20C419A4292BF1346BF
:1035A000D21AA261B0F85020207898BFA76100011C
:1035B000114453B9435A23F4F8431B041B0C4352E0
:1035C000435A43F40043435208E03E2B10D85A08B4
:1035D000DF0748BF0132920292B24252227835F898
:1035E000223023F4804323F0700383F4405368E6D1
:1035F0005A09DE06034B08BF02F1FF3243EA822379
:103600009BB2E0E70080FFFFE378022B74D199B909
:10361000B0F8503000F204422178206909011A44C0
:1036200000283AD18B5A23F4F8431B041B0C8B520D
:103630008B5A43F400438B5262782378002A50D18E
:10364000B5F85020206905F20C4111441B010028F7
:1036500035D1CA5A22F4F8421204120CCA52CA5A7C
:1036600042F40042CA52E369002BB7D044F2400151
:10367000227835F822300B408B4201D0002BADD19F
:1036800035F8223023F0F0031B051B0D43F40043F3
:1036900043F0C00325F82230A0E73E2806D84308AF
:1036A000C00748BF01339B029BB2C4E74609C70667
:1036B000464B08BF06F1FF3643EA8623F4E73E286F
:1036C00006D84208C00748BF0132920292B2C9E749
:1036D0004609C7063D4A08BF06F1FF3642EA862280
:1036E000F4E7012ABFD1B5F8501005F20C420A44A4
:1036F000218A1B01D152B6E7012B64D1A26923694B
:103700009A4295BF0023D21AA361A26198BF1346C3
:1037100089B9B0F85020207805F204410001114425
:10372000FBB9425A22F4F8421204120C4252425A95
:1037300042F40042425261782278002937D1B5F82C
:10374000501005F20C4008441201E3B9835A23F4E7
:10375000F8431B041B0C8352835A43F400438352E7
:103760003CE73E2B06D85A08DE0748BF01329202DA
:1037700092B2DFE75E09DF06144A08BF06F1FF36A2
:1037800042EA8622F4E73E2B07D85908DE0748BFF5
:103790000131890289B2815220E75909DB060B4BBE
:1037A00008BF01F1FF3143EA81239BB2D7E701292A
:1037B0007FF414AFB5F8500005F20C41014412013A
:1037C0009BB28B520AE7012082E500BF0080FFFF19
:1037D00000EB4202F0B502F580625D08084617462C
:1037E0002E46023036B9DB0744BF32F8253001F8E7
:1037F0001530F0BD37F8044B013EA4B200F8024C7E
:10380000240A00F8014CECE7014B1860704700BF38
:1038100000000020D0F8BC3210B56BB1D0F8B8422F
:1038200094F80002FF2807D09B6894F801222146F3
:103830009847FF2384F80032002010BD4323038003
:10384000004870474400002043230380004870472D
:10385000880000204323038000487047D8000020E0
:103860000A23038000487047CC00002038B5054685
:10387000D0F8B84200F036FFD5F8B832C4F80C02E0
:103880004BB1D5F8BC3204F50371DB68D4F80402FF
:103890009847002038BD0220FCE7F8B5D0F8B862A0
:1038A000D6B1142303FB0103DD698DB12827D0F8BD
:1038B000C04207FB0142926BB5FBF2F402FB1454C9
:1038C00034B9DC612246234600F0F0FE2046F8BD04
:1038D0000020C6F81402FAE70220F8E72DE9F743C2
:1038E0004FF000080A78054612F060040E46D0F842
:1038F000B8728DF80580ADF8068028D0202C45D10F
:10390000CC884B78E4B1120611D5D0F8BC223946E8
:10391000D2F8089018462246C847F2883946284609
:1039200000F045FC4446204603B0BDE8F08387F82C
:10393000003287F801422246394600F04DFCF1E79B
:10394000D0F8BC22184695682246A847EBE74F7886
:103950000A2F0DD00B2F15D0C7B990F89C32032B2E
:1039600014D102220DF1060100F021FC3C46DAE7F9
:1039700090F89C32032B09D101220DF1050100F0D2
:1039800016FCD0E790F89C32032BCCD03146284669
:1039900000F0E6FB0224C6E738B504460025812185
:1039A00000F03AFE0121E562204600F035FEC4F841
:1039B0006C518221204600F02FFED4F8B8322564E5
:1039C0004BB1D4F8BC325B689847D4F8B80200F029
:1039D00091FEC4F8B852002038BD037C2DE9F041B7
:1039E0000446CBBB4FF4007302228121012500F075
:1039F00003FE4FF40073E56229460222204600F0E0
:103A0000FBFDC4F86C5101250823032282212046C6
:103A100000F0F2FD25644FF4077000F067FE0646E3
:103A2000C4F8B80250B30027D4F8BC321B689847DA
:103A300094F81080C6F81472C6F81872B8F1000F26
:103A400013D14FF40073D6F804222946204600F023
:103A50003BFE4046BDE8F081012540230222812142
:103A600000F0CAFDE5624023C6E74023D6F80422F1
:103A70002946204600F028FE3846EBE72846E9E7CD
:103A800019B1C0F8BC120020704702207047D0F86E
:103A9000B8320020C3F80812C3F810227047D0F8DB
:103AA000B8320020C3F804127047D0F8B82210B51D
:103AB00082B1D2F81442012374B9C2F81432D2F898
:103AC000103281210363D2F808229BB200F0EEFD90
:103AD000204610BD0220FCE71846FAE7D0F8B822CD
:103AE00010B562B1047CD2F8042234B94FF40073EB
:103AF000012100F0E9FD002010BD4023F8E702207D
:103B0000FAE708B580B1D0F8B43213B10023C0F899
:103B1000B43209B1C0F8B0120123027080F89C32AF
:103B200000F01AFD002008BD0220FCE719B1C0F822
:103B3000B412002070470220704708B500F04EFD17
:103B4000002008BD08B5D0F8B4320BB9022008BD7A
:103B50001B6898470028FAD0F8E708B5D0F8B432C7
:103B60005B689847002008BD38B500F52A75044603
:103B7000284600F0E1FA012394F8A812C4F8943220
:103B8000B4F8AE32C4F8983201F01F03012B0ED006
:103B900007D3022B10D001F08001204600F04AFD2F
:103BA00003E02946204600F0F5F8002038BD2946FC
:103BB000204600F013FAF8E72946204600F033FAD1
:103BC000F3E770B50546164649BBD0F89432032B8F
:103BD0001ED1D0F86031D0F8642193420BD99B1AE2
:103BE0009A42C0F860318CBF9AB292B2314600F06E
:103BF00002FB002070BDD0F8B4321B6923B190F8ED
:103C00009C22032A00D19847284600F0FCFAF0E7EE
:103C1000052BEED1C5F8941200F00CFDE9E7D0F8C1
:103C2000B4329B692BB190F89C22032A01D19847AA
:103C3000DFE70220DEE770B5134604460E46002992
:103C400047D1D0F89422022A3CD1D0E908529542BB
:103C500013D9AA1A0262194692B200F0B5FA334695
:103C60001A461946204600F02FFD94F8A032002095
:103C7000012B01D184F8A00270BDC369B3FBF2F53A
:103C800002FB153565B99A420AD8D0F898229342BA
:103C900006D22A4600F098FAC4F898522B46DFE77D
:103CA000D4F8B432DB682BB194F89C22032A01D1FA
:103CB000204698478021204600F0BCFC204600F0BA
:103CC000ADFAD2E732F00403CFD1802100F0B2FC8C
:103CD000CBE7D0F8B4325B6933B190F89C22032A69
:103CE00002D198470020C7E70220C5E7002270B53F
:103CF0000446012540261146402300F07DFC334652
:103D00008021C4F85851C4F864610022204600F0B4
:103D100073FC0021D4F8B832A561666284F89C5225
:103D2000C4F894126160C4F8A41223B1D4F8B43278
:103D300020465B689847002070BD017400207047E2
:103D400090F89C3280F89D32042380F89C32002049
:103D5000704790F89C32042B04BF90F89D3280F895
:103D60009C320020704708B590F89C22032A04D1A9
:103D7000D0F8B432DB6903B19847002008BD10B514
:103D80000446802100F056FC2046BDE8104000218A
:103D900000F050BC37B50B78044603F06003202BCD
:103DA0000D4612D0402B10D0002B5BD14B78092B45
:103DB00058D8DFE813F0E90005015700FE0057006E
:103DC000840013005700D200A000D4F8B432294672
:103DD0009B6820469847002003B030BD0023ADF813
:103DE00006304B881A0A013A062A3BD8DFE802F06F
:103DF00004202D3A3A525C00D0F8B0321B680DF125
:103E00000601207C9847BDF8062052B1EB8843B1EB
:103E10009A4228BF1A4601462046ADF8062000F017
:103E2000C6F9EB88002BD6D1204600F0ECF9D2E79A
:103E3000027CD0F8B43232B99B6A0DF10600984783
:103E400002234370DFE7DB6AF7E7DBB2052B09D813
:103E5000DFE803F0030C1014181CD0F8B0325B68D4
:103E6000002BCCD12046FFF78AFFB4E7D0F8B03260
:103E70009B68F5E7D0F8B032DB68F1E7D0F8B032F4
:103E80001B69EDE7D0F8B0325B69E9E7D0F8B032F2
:103E90009B69E5E7037C002BE4D1D0F8B4320DF147
:103EA00006005B6B9847AEE7037C002BDAD1D0F8B5
:103EB000B4320DF106001B6B98470723C1E78B88CE
:103EC000002BCFD1CB88002BCCD14D887F2DC9D8EA
:103ED00090F89C32032BC5D0E9B280F89E1200F016
:103EE000D7FB204600F08FF91DB1022384F89C32E5
:103EF00071E70123FAE78978374D01292970B1D894
:103F000090F89C32022B08D0032B14D0FFF737FF18
:103F100029782046FFF721FE5DE7002984D00121A2
:103F20000323416080F89C322046FFF70BFE0228F5
:103F30007FF47AAF96E731B90223416080F89C3272
:103F4000FFF70BFE70E7416801293FF46DAFC9B27E
:103F5000FFF703FE29786160E6E7CA88012A81D16C
:103F600090F89C32002B3FF47DAF022B04D9032B39
:103F70007FF478AF011D03E00146002341F8083FBC
:103F8000204600F014F926E790F89C32013B022B02
:103F90003FF668AFCB88022B7FF464AF0123C36088
:103FA000D0F8A4320BB10323C360022204F10C0148
:103FB000E6E74B88012B7FF40EAFC4F8A43233E759
:103FC00090F89C32013B022B3FF64CAF4B88012B03
:103FD0007FF401AF0023F0E78803002038B50B78A9
:103FE000044603F06003202B0D4602D0402B00D086
:103FF000ABB994F89C32013B022B10D82B79012BE2
:104000000DD8D4F8B43229469B6820469847EB88EF
:104010001BB910B9204600F0F6F8002038BD204644
:10402000FFF7ADFEF9E738B50A78044602F0600202
:10403000202A0B4614D0402A12D06AB95A788D88AB
:10404000012AE9B220D036D3032A05D190F89C2268
:10405000022A27D0032A0BD02046FFF790FE05E066
:10406000D4F8B4221946926820469047002038BD03
:104070005A882AB94A0603D0DB880BB900F0DAFA6D
:10408000204600F0C0F8F1E790F89C22022A09D0FF
:10409000032AE1D15B88002BE8D14D06F0D000F077
:1040A000D7FAEDE74B06D7D000F0C4FA80212046BE
:1040B00000F0C0FADAE790F89C32022B18D0032BFC
:1040C000CAD1142301F00F0215F0800F03FB020286
:1040D0001FD09269002ABFD001F07F0505FB033590
:1040E000054411F07F031FD12B60022229460CE00A
:1040F0004A06B1D12B064FF000034FF002024CBF2D
:1041000000F1140100F5AA710B60204600F04FF891
:10411000ACE7D2F85821002A9ED001F07F0503FBBE
:10412000050505F5AA75DCE7204600F09FFA08B101
:104130000123D9E72860D8E70B7803704B784370E8
:10414000CA788B7803EB022343804A790B7903EB1F
:1041500002238380CA798B7903EB0223C3807047E3
:1041600010B50446802100F065FA2046BDE81040F5
:10417000002100F05FBA30B588B105462B1A15F85A
:10418000014BDBB2002CF9D101335B0013800B70C3
:1041900003234B700223013810F8015F05B930BDCD
:1041A0005A1CCD54D2B20233DBB28C54F4E713461E
:1041B000022210B5C0F89422C0E907330A46002154
:1041C00000F074FA002010BD08B513460A4600211D
:1041D00000F06CFA002008BD1346032210B5C0F8A9
:1041E0009422C0F85C310A46C0F86031002100F02A
:1041F0006BFA002010BD08B513460A46002100F0F6
:1042000063FA002008BD08B50423C0F894320023E7
:104210001A46194600F04AFA002008BD08B50523E1
:10422000C0F8943200231A46194600F04DFA0020D7
:1042300008BD000008B500220E490F48FFF761FCD9
:1042400008B1FDF789FB0D490B48FFF76FFC08B17A
:10425000FDF782FB0A490848FFF712FC08B1FDF799
:104260007BFB0548FFF769FC18B1BDE80840FDF786
:1042700073BB08BD2C010020080800200C000020A2
:104280001C01002000207047002070472DE9F341F9
:104290002A4D044695F89C32032B4CD100284AD075
:1042A0000F68002F47D021462846FFF7F8FB00286B
:1042B000F9D1224D2846FFF711FC0028FAD1204DF4
:1042C000DFF884802744BC4203D1002002B0BDE85F
:1042D000F08195F866200026531CDBB285F8663025
:1042E000622B4FF001032146207888BF85F8666075
:1042F000A85485F8CB6085F864301C440B780A2BF1
:10430000E1D1104B02A941F8046D186805F0B7FC23
:10431000012802D085F86660D5E7019B85F8650025
:10432000002BD0D04FF08053C8F80030BFF34F8F30
:10433000BFF36F8FC7E70220C8E700BF080800205F
:10434000543100201C31002004ED00E010B5064C73
:10435000002206492046FFF79AFB05492046FFF751
:104360009EFB002010BD00BF080800208632002000
:104370002232002010B5094C0A46D4F8B832D3F8DE
:10438000143243B901462046FFF781FB2046BDE8C1
:104390001040FFF78ABB012010BD00BF08080020B5
:1043A000122301480B807047480100200423014874
:1043B0000B8070475C010020002370B51E46050F7E
:1043C000ECB2092D94BF3034373401F8134001EBBF
:1043D000430401336670DCB2A2424FEA0010EED80B
:1043E00070BD00001A2310B50B80094B1868083304
:1043F0001B68C0180AD0074B08221C680649FFF743
:10440000DBFF042205492046FFF7D6FF044810BD14
:10441000E8F7FF1FECF7FF1F620100207201002088
:104420006001002010B5044C0A4604482146FFF7FD
:10443000A2FE204610BD00BF8832002019C400082B
:1044400010B5044C0A4604482146FFF794FE204666
:1044500010BD00BF8832002029C4000810B5044CEC
:104460000A4604482146FFF786FE204610BD00BFDD
:104470008832002000C4000810B5044C0A460448E5
:104480002146FFF778FE204610BD00BF883200208D
:104490000BC4000807B50E4B02689A4215D103F50C
:1044A000DA33DA69072142F40002DA61DB690022BB
:1044B00003F4000301931420019BFDF71FFB14205C
:1044C00003B05DF804EBFDF74DBB03B05DF804FBF2
:1044D000005C004000F52C71D0F8E802FFF744BB07
:1044E000282303FB0103D0F8E802D3F87C21FFF76F
:1044F00068BB282303FB0103D0F8E802DA6BFFF75F
:104500009ABBD0F8E802FFF72EBC836810B5022BE7
:10451000044601D0FDF720FAD4F8E8020121FFF7A4
:104520000CFCD4F8E802BDE81040FFF7DFBB000048
:1045300010B50446D0F8E802FFF702FCA36923B1E6
:10454000024A136943F00603136110BD00ED00E059
:10455000D0F8E802FFF7FDBB082310B51D4A04465A
:104560001D48C0E90023022383600023C0F8E8420D
:10457000C4F8C002C0E906330362FDF717FB08B1B7
:10458000FDF7EAF9002218231146D4F8C002FEF71D
:10459000D1F8582300228021D4F8C002FEF7CAF8CF
:1045A000C02300228121D4F8C002FEF7C3F84FF4E3
:1045B000887300220121D4F8C002FEF7BBF84FF443
:1045C000807300228221D4F8C002FEF7B3F80020E5
:1045D00010BD00BF005C00408834002008B5D0F852
:1045E000C002FDF75BFB032896BF024B0220185C5C
:1045F00008BD00BF3BC4000810B51C46D0F8C0027F
:1046000013462246FDF79AFF032896BF014B02206E
:10461000185C10BD3BC4000808B5D0F8C002FDF717
:10462000BFFF032896BF024B0220185C08BD00BFE5
:104630003BC4000808B5D0F8C002FEF715F80328FF
:1046400096BF024B0220185C08BD00BF3BC40008A7
:1046500008B5D0F8C002FEF73BF8032896BF024B1E
:104660000220185C08BD00BF3BC40008282211F0DE
:10467000800FD0F8C0021BBF01F07F0303FB0221B3
:1046800002FB0101091814BF887891F86A0170478C
:1046900008B5D0F8C002FDF71AFB032896BF024BFD
:1046A0000220185C08BD00BF3BC4000808B5D0F864
:1046B000C002FDF7BFFF032896BF024B0220185C23
:1046C00008BD00BF3BC4000808B5D0F8C002FDF724
:1046D00090FF032896BF024B0220185C08BD00BF64
:1046E0003BC40008D0F8C002FDF79CBF00487047EB
:1046F0008C0300207047704708B5094C23785BB1E4
:104700004AF6AA26074D084C20462E6001F09AFF73
:104710000A2005F039FEF7E7022005F035FEEDE747
:10472000AC050020003000400831002008B5164CD0
:10473000237823B3154C164D26464FF0FF312068E1
:1047400005F0F2FA012803D06021124803F07AF84C
:10475000114801F07DF9002330681A46194605F02A
:10476000C7F9012803D064210A4803F06BF84FF021
:1047700080532B60BFF34F8FBFF36F8FDDE70220B5
:1047800005F002FED4E700BFAC0500201831002080
:1047900004ED00E04BC400086C0C002080B5184C00
:1047A00023784BB3174D184C2E46184F4FF0FF315E
:1047B000386805F0B9FA012803D07121204603F0CA
:1047C00041F84FF0FF31286805F0AEFA012803D018
:1047D0007221204603F036F80D4801F0E1FA00237B
:1047E00030681A46194605F083F90128DED0762193
:1047F000204603F027F8D8E7022005F0C5FDCFE7F3
:10480000AC050020183100204BC4000820310020E6
:104810006C0C00208FB52E4802F054FF2D4801F09B
:10482000DBFE2D4800F02CF92C4800F04BFA2C4808
:1048300000F03EFC01212A4800F0BEFF4FF4FA725E
:104840000321244801F0F2FE0123CDE90133322394
:10485000009319234FF47A711A461D4802F040FF65
:10486000002002F0E3F80130FAD01E4D01222E465E
:104870001D4B1E4C1A701E4F4FF0FF31386805F06B
:1048800053FA012803D08F21204602F0DBFF4FF0BE
:10489000FF31286805F048FA012803D0902120460E
:1048A00002F0D0FF0D4800F07BFA20B13222012146
:1048B000084801F0BBFE002330681A46194605F08F
:1048C00017F90128D8D09621204602F0BBFFD2E785
:1048D0002431002008310020CC0A0020543100206F
:1048E0006C0C002018310020AC0500204BC40008DF
:1048F0001C31002030B585B072B60324002200942C
:1049000011463C4B012005F0ADF800223A4D11460E
:1049100028603A4B0094012005F0A4F8384C39493E
:104920002060012005F096F9374B2A68186025466B
:104930001C461AB93B21354802F084FF2B681BB98D
:104940003C21324802F07EFF23681BB93D212F48ED
:1049500002F078FF2E4B402202932E4B2E490193FA
:1049600003232E480093002305F0FCFA18B93F21D9
:10497000264802F067FF2A4B40220293294B2A491E
:104980000193012329480093002305F0EBFA18B99D
:1049900040211E4802F056FF254B40220293254B32
:1049A00025490193042325480093002305F0DAFAF2
:1049B00018B94121154802F045FF214B4FF4007210
:1049C0000293204B204901930223204800930023A7
:1049D00005F0C8FA18B942210C4802F033FF62B65C
:1049E00005F08EFB4821094805B0BDE8304002F0D3
:1049F00029BF00BF743700201C310020943A0020EA
:104A00002031002024440020183100204BC400082D
:104A1000BC380020244300203FC40008F9460008A9
:104A2000DC420020BC37002042C400082D470008AB
:104A3000043A00200439002045C400089D470008BE
:104A40004C3A0020DC3A002048C400081548000811
:104A500000F00700C0F10702031D042A28BF04224A
:104A6000062B4FF0FF3303FA02F36FEA030394BF00
:104A70000020033803F0010303FA00F07047000040
:104A80007FB500250023C8260446C0F89831324679
:104A90002946C0F89C5180F89451C0F8905105F017
:104AA00017FF32462946A01905F012FF4FF4807314
:104AB0004FF48062CDE90132642300932346124C07
:104AC00002221249124801F01BFEE068C0F30220E6
:104AD000FFF7BEFF0F490001C0B281F81903E0687B
:104AE000C0F30220FFF7B4FF00010B4BC0B281F806
:104AF0001B03DA6842F00202DA60DA6842F001026F
:104B0000DA6004B070BD00BF00ED00E000000240BC
:104B1000342C014000E100E0002C0140F8B50646CD
:104B20000F461B4C1B4DB1B1FFF7AAFFE36843F4DE
:104B30000073E3604FF000632B604FF000732B6055
:104B4000236843F001032360236A43F001032362D7
:104B500086F89471F8BD236823F001032360236A6B
:104B600023F0010323624FF00063C5F88030BFF3E8
:104B70004F8FBFF36F8F4FF00073C5F88030BFF3D6
:104B80004F8FBFF36F8FE36823F40073E360DFE7B9
:104B9000002C014000E100E070B5244C01210546E5
:104BA0002668FFF7BBFF234621494C681A68A4B268
:104BB000921BB2F5FA6F01D8002CF6D100212846DD
:104BC000FFF7ACFFC4F16403012B2DDDD5F8903164
:104BD000C4F16304012B35F8142028881EDD6333EB
:104BE00035F81330B5F8C8105B1A013BC0F57F40AB
:104BF000FF301044C3EB03431844FCF755F8064656
:104C00002046FCF755F801463046FCF759F90146B5
:104C10000848FCF755F9C5F8980170BD01D100238B
:104C2000E4E7101A0023E5E70348F6E7040800204C
:104C30001C0002404054894C000080BF0120704796
:104C40002DE9F04105460024DFF84C8000F1840690
:104C500056F8043BEBB1012C19D1D5F8D43093F8B8
:104C6000CC30002B14BF0423052305EB8303D3F8BA
:104C700084703846FBF776FA3946024628460134F6
:104C800003F092FE042CE3D10120BDE8F08123461D
:104C9000EBE701224146F1E7B9CB000870B50446C5
:104CA0000546074E2046FBF75DFA2B1B984200D8BD
:104CB00070BD15F8013B32681206FCD57360F1E750
:104CC00000380140274B10B51860002411238AB02A
:104CD00080F8CB4080F8CC4080F8CD4080F864402C
:104CE00080F8654080F8664007931F4B0890069354
:104CF0004FF4807305931D4B1D4904931D4B1E4AB1
:104D000003931E4B1E4802931E4B01931E4B0093B0
:104D10001E4B03F0F7FD1E4A1E48D36843F02003E4
:104D2000D360FFF7BBFF1C4BDB68C3F30223C3F167
:104D30000702042A03F1040128BF0422062988BFC0
:104D4000DC1E4FF0FF339340DB4303F00603A34028
:104D5000124A1B01DBB282F82533202353600AB0CC
:104D600010BD00BF0008002044460020444500203C
:104D70005CC60008B9CB00087C01002002C5000811
:104D80006C44002008C5000819C4000820CC0008A5
:104D90000038014019C5000800ED00E000E100E026
:104DA00038B590F8CC5004469DB100F1670590F8F5
:104DB000CD202946114804F049F9642200212846F3
:104DC00005F086FD002384F8CD3084F8CC30012036
:104DD00038BD90F865000028FAD094F86620214686
:104DE000064804F033F964222946204605F070FD98
:104DF00084F8665084F86550E9E700BF6C440020F1
:104E0000F8B590F8CB300E4614466BB10B460E4AFF
:104E1000991BA14201DB2046F8BD13F8011B106865
:104E20000006FCD55160F3E790F8643053B1074DAC
:104E300097B239463046FFF79DFA0128EBD1013D84
:104E4000F7D1E8E71C46E6E70038014040420F0092
:104E5000D0F8D400FFF7D4BF30B50CB29BB00546F4
:104E6000204602F069FF22460346064901A805F0E4
:104E700037FD01A90246D5F8D400FFF7C1FF002095
:104E80001BB030BDE4C4000810B501299CB0044635
:104E900013460CD1094903A805F022FD024603A9D7
:104EA000D4F8D400FFF7ACFF01201CB010BD009275
:104EB00003A80A46024905F013FDEFE7B8C400084D
:104EC000CBC4000808B509220349D0F8D400FFF785
:104ED00097FF012008BD00BFF8C400082DE9F0418C
:104EE0000746DDE906689DF820000C460C2807F10E
:104EF0003C011FFA83FC25D142F2C83E02EB430578
:104F00004FEA4C03238137F80E30AAB2C81803EBDE
:104F100042032060002127F80E30E280A4F804C08C
:104F20006A0005F0D5FC4FF4806308934FF480735A
:104F30004246CDE9065323683046BDE8F0411C499E
:104F400001F0DEBB082818D142F2C83E02EB43054F
:104F50004FEA4C03238137F80E30AAB2C818134425
:104F60002060002127F80E30E280A4F804C02A4611
:104F700005F0AEFC00230893DAE742F2C83E0223B4
:104F8000951C238137F80E30AAB2C818134420604C
:104F9000002127F80E30E280A4F804C02A4605F06C
:104FA00097FC00230695CDE9073306222368C3E763
:104FB0000000024000F00700C0F10702031D042AB0
:104FC00028BF0422062B4FF0FF3398BF002003FABE
:104FD00002F388BF033821EA030101FA00F07047A9
:104FE00010B54468546004891481847A94720478FA
:104FF00014704478547084789470C078D0700A69C2
:105000001A61CA68DA608A689A604A795A710A79BC
:105010001A710A681A6010BD42F2E2330C22C254BF
:1050200042F2D83340F20112C25042F2DC3370B582
:105030001E4C4FF4FA72C45042F2E033C25242F2B4
:10504000284340F2FF72C250012242F2244342F24E
:105050002141C2500023435442F2204142F21C45F8
:1050600043543221415142F2EE354FF00136425560
:1050700042F2E435465142F2E835445142F2EC3412
:105080004FF47A75055342F22C44035142F23C44EA
:10509000035142F23844025142F23542835442F203
:1050A0003442835442F23043C15070BD0050C34774
:1050B00038B50446002500F07FFC2046FFF7ACFF22
:1050C00004F5105304F50F5204F5105104F50F5078
:1050D00008330C321C311830FFF782FF04F51053EF
:1050E0001D702946C4E900552581C4E90355A582F0
:1050F000C4E906552584C4E90955A585C4E90C55BC
:10510000258742F2283204F13C0005F0E1FB42F22F
:10511000C833E55242F27C43E55042F20243E55483
:1051200042F2014342F2F032E5540023A35042F22E
:10513000F432A35042F2FC32A35042F2F832A350B0
:1051400042F20343E55442F20443E5541F4D01216A
:10515000E8681F4CC0F30220FFF72CFF4FF000530C
:105160000001C0B284F81D032360E8680521C0F384
:105170000220FFF71FFF4FF480230001C0B284F824
:10518000120323608023C4F88030BFF34F8FBFF336
:105190006F8F4FF48073C4F88030BFF34F8FBFF32D
:1051A0006F8F4FF40073C4F88030BFF34F8FBFF39D
:1051B0006F8F4FF48063C4F88030BFF34F8FBFF31D
:1051C0006F8FBDE8384001F0E3BA00BF00ED00E0AA
:1051D00000E100E0002142F2604310B5C15042F20C
:1051E0006443C15042F27043C15042F24743C1543C
:1051F00042F24643C15442F24843C15042F24C434A
:10520000C15042F24443C154C288044612B10068FE
:1052100005F05EFB628A1AB10021E06805F058FBD8
:10522000E28B1AB10021A06905F052FB628D2AB110
:10523000606A0021BDE8104005F04ABB10BD0000C7
:10524000002342F2644270B5835042F24C428350D4
:1052500042F24842835042F24542044683540D468E
:1052600021B93A4A136823F00103136042F2024362
:10527000E35C1BB142F20143E35C23BB04F5105332
:105280001B78012B20D8324B9A6845B142F480122A
:105290009A602E4A136843F0010313600BE022F476
:1052A00080129A6059682B4A0A405A6042F2107381
:1052B00000BF013BFCD142F20243E554264B1A6881
:1052C00042F26043E25070BD42F28843E2581E460B
:1052D00022B94FF42D71214802F0B4FAA2591B49AA
:1052E00053B2C868EDB140F40070002BC86008DB11
:1052F000012002F01F06B0405909194E603146F8EE
:10530000210042F20C41615C0329C2D0002BC0DBBA
:1053100002F01F0101228A4011495B0941F8232054
:10532000B7E720F40070002BC860BFDB012102F05A
:105330001F0201FA02F25B090949203341F82320D8
:10534000BFF34F8FBFF36F8FB0E700BF0004004083
:1053500000240140E0FD3FFF04080020CEC8000803
:1053600000E100E02DE9FF4704460E460021FFF76B
:1053700067FF2046FFF72EFF002142F2C83304F1F9
:105380003C07C4E900112181C4E90311A182C4E9E9
:1053900006112184C4E90911A185C4E90C112187F2
:1053A00042F22832E152384605F092FA42F2D63300
:1053B000E25C04F5105393F800800C2A07BF4FEA13
:1053C000460941F29411B14642F22831B8F1020F78
:1053D00044D042F2CC33E55C42F2CD33E35C08F1D9
:1053E000FF301D4442F2CE33D0F1000A4AEB000AEE
:1053F00042F2CF30E35C2B44255C1D440AEB0508E8
:1054000005EB080373438B4243DC0121224B0292DC
:10541000CDE9003108FB06F2434621462046FFF75E
:105420005DFD42F2C83305FB09F5E25AADB2E586EF
:10543000A8EB0A0817441544A4F834802763E55202
:1054400042F2D4332046E65200F0D4FF2046012138
:10545000FFF7F6FE002004B0BDE8F08742F22833E3
:10546000B3EB460F15DB029206220C4B2146CDE929
:105470000032204604233246FFF730FD042342F277
:10548000C832A386A35AE6861F4433442763A35237
:10549000D6E76FF00100DEE74C2401400808014028
:1054A00038B501F0FB03082B04460D4601D0012955
:1054B0002DD142F2D6330C2DE55442F2FC3320D1EB
:1054C000174AE25004F510531B78012B22D8002113
:1054D0002046FFF7B5FE2046FFF77CFE082D1BD0C7
:1054E0000021104801F008FA42F2D4332046E15A74
:1054F000FFF738FF012105462046FFF7A1FE2846A9
:1055000038BD082D0CBF084A4FF07E52D9E74FF046
:10551000FF35F4E70025F2E76FF00105EFE700BF84
:1055200000F07F450024014000007F4300F5105348
:105530002DE9F04F93F8008042F2CC33C55C42F283
:10554000CD3310F803B042F2CE3310F803A042F28C
:10555000CF3310F8039042F2D6330E46C35C85B0C9
:105560000C2B04464FF00001304614BF0027274F94
:10557000FBF79AFD002845D1B8F1020F40D005EBAA
:105580000B0050444844B8F1010F08BF0130FBF74D
:105590008FFB01463846FBF793FC3146FBF77AFD5B
:1055A000054678BB42F2D0390127014644F809602C
:1055B0002046FFF745FE0DF110082046FFF70AFED2
:1055C00048F8047D30460297FBF78CFD4146009079
:1055D0000F4B4FF6FF7202A802F01FFA0D4B029A12
:1055E00044F809009A62039A2046DA6200F002FF4A
:1055F00020463946FFF724FE284605B0BDE8F08F67
:105600000548CAE74FF0FF30F7E700BF00504349B5
:1056100000A24A04000400408096984A000000005E
:105620002DE9F04F9A46044642F2CC33E15442F25F
:10563000CD33E25442F2CE3300F803A042F2CF332E
:105640008FB09DF860B00E4600F803B08B1853443D
:1056500013EB0B0F174605D14FF0FF3528460FB05F
:10566000BDE8F08F42F20243C35C33B10021FFF783
:10567000E7FD2046FFF7AEFD0123069304F5105326
:105680001D78022D77D000211998FBF70DFD002819
:10569000E2D16A1E534253410893414B42F2CD324C
:1056A0001B68A25C09933F4B19991B684FF07E5011
:1056B000079342F2CC33E35C0025134442F2CE322E
:1056C000A25C134442F2CF32A25C1344089A134402
:1056D0000C93FBF7F5FB42F2D6330022E35C0D900E
:1056E0000C2B0CBF304B314BCDE90A232D4B53F81B
:1056F000253018460593FAF7A1FE00222C4BFAF745
:105700003FFDDDE90A23FAF73BFD23A3D3E900239C
:10571000FAF7ECFE80460C988946FBF7C9FAFAF7CF
:105720008DFE02460B4640464946FAF7DFFE8046AC
:105730000D988946FAF782FE02460B4640464946D6
:10574000FBF746F940B1164B53F825300135099364
:10575000059B082D0793C9D142F2F833079A3146C9
:10576000E250089B3A460293099B1248CDE900B3E8
:10577000534601F029F842F2D4332046E15AFFF7AC
:10578000F1FD069B0546002B3FF468AF0121204642
:10579000FFF756FD62E700BF1292F2809F5E763EF1
:1057A00078C4000898C40008000029400000214087
:1057B0000000E03F00240140F0B500F510552B78C3
:1057C00089B004460E46002B62D12B46294600F5CF
:1057D0000F521C33183204F50F5008310C30FFF70C
:1057E000FFFB00212046FFF72BFD2046FFF7F2FCD0
:1057F00042F201430122E25410222E7000210DEBEF
:10580000020005F065F8032541F61E630595039334
:10581000002E48D103A95C48FDF750F829462046E0
:10582000FFF7A0FD42F2E23342F2DC35E15C2046B4
:10583000FFF736FE605942F2DA33019042F2DB3074
:1058400042F2D93242F2D831205CA25CE35C615C66
:1058500000902046FFF7E4FE61592046FFF766FE00
:1058600042F2E0332046E15AFFF77CFD42F21C4150
:10587000615842F22143019142F2204142F2284212
:10588000615CE35C009142F22441A25C61582FE02C
:10589000022BA6D100F5105300F50F5230332432FD
:1058A00000F5105197E7012E2FD103A93648FDF7D7
:1058B00005F8364F29462046FFF754FD0C212046B7
:1058C000FFF7EEFD334632463146019700962046FB
:1058D000FFF7A6FEC8212046FFF744FD39462046C3
:1058E000FFF724FE3223CDE9005300231A46194660
:1058F000204600F01DFB42F2014300220121E25448
:105900002046FFF79DFC09B0F0BD042303A91E4803
:105910000493FCF7D3FF29462046FFF723FD42F20C
:10592000EE3342F2E835E15C2046FFF7B9FD6059FD
:1059300042F2E633019042F2E73042F2E53242F2BF
:10594000E431205CA25CE35C615C00902046FFF7E0
:1059500067FE61592046FFF7E9FD42F2EC3320462D
:10596000E15AFFF7FFFC42F23041615842F2354301
:10597000019142F2344142F23C42615CE35C0091AD
:10598000A25C42F2384181E7000801400000C842B1
:1059900000280DDB0122430900F01F0002FA00F08D
:1059A000044A203342F82300BFF34F8FBFF36F8FB9
:1059B000704700BF00E100E0002342F24442835000
:1059C00042F24842835042F24C42835042F25042EB
:1059D000835042F25442835042F25842835042F282
:1059E0005C42835042F26042835042F264428350F0
:1059F00042F26842835042F26C42835042F270425B
:105A0000835042F27442835042F27842835042F211
:105A10007C420121835000F51252116042F284420F
:105A20000949815042F288420721815042F28C425A
:105A30000649815042F29042835042F29442835090
:105A400042F2984283507047000002400024014017
:105A500038B542F20243C35C044600F51055002BF2
:105A60006FD042F26042464B82581B689B1A42F24A
:105A7000644248BF03F1FF33835042F268438258C7
:105A8000C3589A4219DD42F20C43C35C032B14D075
:105A90002B7893B942F27843C3581BB94121394856
:105AA00001F0D0FE42F28C43E258374B51680B4074
:105AB00042F2784161580B4353602B78012B57D049
:105AC00042F2024242F20C43A25CE35C002A3CD068
:105AD000002B3AD104F510535D6C15F0FF1547D13A
