:020000040800F2
:1000000000500020151A0008B1190008B3190008A3
:10001000B5190008B7190008B91900080000000058
:10002000000000000000000000000000BB190008F4
:10003000BD19000800000000BF190008C119000820
:100040005D1A00085D1A00085D1A00085D1A0008B4
:100050005D1A00085D1A00085D1A0008A54A00082C
:10006000C14A0008DD4A0008F94A0008D9490008D9
:100070005D1A00085D1A00085D1A00085D1A000884
:100080005D1A00085D1A0008B94900085D1A0008E9
:10009000C51900085D1A00085D1A00085D1A0008FD
:1000A0005D1A0008854A00085D1A00085D1A0008FC
:1000B0005D1A0008DD4900085D1A00085D1A000895
:1000C0005D1A00085D1A00085D1A00085D1A000834
:1000D0005D1A0008794900085D1A00085D1A0008D9
:1000E0005D1A00085D1A00085D1A00080000000093
:1000F0000000000000000000000000000000000000
:0C01000000000000000000005FF808F1A3
:1001100010B5054C237833B9044B13B10448AFF341
:1001200000800123237010BD640300200000000044
:1001300008A6000808B5034B1BB103490348AFF3F9
:10014000008008BD000000006803002008A6000829
:1001500010F8012B11F8013B012A28BF9A42F7D071
:10016000D01A7047034613F8012B002AFBD1181A46
:100170000138704781F0004102E000BF83F0004386
:1001800030B54FEA41044FEA430594EA050F08BF32
:1001900090EA020F1FBF54EA000C55EA020C7FEAF6
:1001A000645C7FEA655C00F0E2804FEA5454D4EB73
:1001B0005555B8BF6D420CDD2C4480EA020281EA3D
:1001C000030382EA000083EA010180EA020281EA75
:1001D0000303362D88BF30BD11F0004F4FEA0131C7
:1001E0004FF4801C4CEA113102D0404261EB4101D6
:1001F00013F0004F4FEA03334CEA133302D052425C
:1002000063EB430394EA050F00F0A780A4F1010417
:10021000D5F1200E0DDB02FA0EFC22FA05F2801851
:1002200041F1000103FA0EF2801843FA05F3594137
:100230000EE0A5F120050EF1200E012A03FA0EFCB6
:1002400028BF4CF0020C43FA05F3C01851EBE371E0
:1002500001F0004507D54FF0000EDCF1000C7EEBFD
:1002600000006EEB0101B1F5801F1BD3B1F5001F3B
:100270000CD349085FEA30004FEA3C0C04F101045A
:100280004FEA445212F5800F80F09A80BCF1004F83
:1002900008BF5FEA500C50F1000041EB045141EA05
:1002A000050130BD5FEA4C0C404141EB010111F406
:1002B000801FA4F10104E9D191F0000F04BF0146B1
:1002C0000020B1FA81F308BF2033A3F10B03B3F18F
:1002D00020020CDA0C3208DD02F1140CC2F10C021F
:1002E00001FA0CF021FA02F10CE002F11402D8BF7D
:1002F000C2F1200C01FA02F120FA0CFCDCBF41EA49
:100300000C019040E41AA2BF01EB0451294330BD17
:100310006FEA04041F3C1CDA0C340EDC04F11404F4
:10032000C4F1200220FA04F001FA02F340EA0300CB
:1003300021FA04F345EA030130BDC4F10C04C4F111
:10034000200220FA02F001FA04F340EA03002946F1
:1003500030BD21FA04F0294630BD94F0000F83F43B
:10036000801306BF81F480110134013D4EE77FEA1E
:10037000645C18BF7FEA655C29D094EA050F08BF6A
:1003800090EA020F05D054EA000C04BF194610464B
:1003900030BD91EA030F1EBF0021002030BD5FEA8F
:1003A000545C05D14000494128BF41F0004130BDB7
:1003B00014F580043CBF01F5801130BD01F000450B
:1003C00045F0FE4141F470014FF0000030BD7FEA7E
:1003D000645C1ABF194610467FEA655C1CBF0B4679
:1003E000024650EA013406BF52EA033591EA030F90
:1003F00041F4002130BD00BF90F0000F04BF002188
:10040000704730B54FF4806404F132044FF00005BA
:100410004FF0000150E700BF90F0000F04BF002133
:10042000704730B54FF4806404F1320410F0004599
:1004300048BF40424FF000013EE700BF42004FEA94
:10044000E2014FEA31014FEA02701FBF12F07F4311
:1004500093F07F4F81F06051704732F07F4208BFC8
:10046000704793F07F4F04BF41F40021704730B5CF
:100470004FF4607401F0004521F000411CE700BF1B
:1004800050EA010208BF704730B54FF000050AE09E
:1004900050EA010208BF704730B511F0004502D59F
:1004A000404261EB41014FF4806404F132045FEAA1
:1004B000915C3FF4D8AE4FF003025FEADC0C18BF4A
:1004C00003325FEADC0C18BF033202EBDC02C2F13C
:1004D000200300FA03FC20FA02F001FA03FE40EACE
:1004E0000E0021FA02F11444BDE600BF70B54FF0D2
:1004F000FF0C4CF4E06C1CEA11541DBF1CEA1355B0
:1005000094EA0C0F95EA0C0F00F0DEF82C4481EA17
:10051000030621EA4C5123EA4C5350EA013518BF37
:1005200052EA033541F4801143F4801338D0A0FB24
:1005300002CE4FF00005E1FB02E506F00042E0FBD1
:1005400003E54FF00006E1FB03569CF0000F18BFD7
:100550004EF0010EA4F1FF04B6F5007F64F540747F
:1005600004D25FEA4E0E6D4146EB060642EAC62112
:1005700041EA55514FEAC52040EA5E504FEACE2E7F
:10058000B4F1FD0C88BFBCF5E06F1ED8BEF1004F82
:1005900008BF5FEA500E50F1000041EB045170BDFE
:1005A00006F0004646EA010140EA020081EA030142
:1005B000B4EB5C04C2BFD4EB0C0541EA045170BD3E
:1005C00041F480114FF0000E013C00F3AB8014F1B8
:1005D000360FDEBF002001F0004170BDC4F1000401
:1005E000203C35DA0C341BDC04F11404C4F1200582
:1005F00000FA05F320FA04F001FA05F240EA0200DD
:1006000001F0004221F0004110EBD37021FA04F612
:1006100042EB06015EEA430E08BF20EAD37070BDCC
:10062000C4F10C04C4F1200500FA04F320FA05F02B
:1006300001FA04F240EA020001F0004110EBD3702D
:1006400041F100015EEA430E08BF20EAD37070BD9D
:10065000C4F1200500FA05F24EEA020E20FA04F376
:1006600001FA05F243EA020321FA04F001F0004125
:1006700021FA04F220EA020000EBD3705EEA430E96
:1006800008BF20EAD37070BD94F0000F0FD101F0C5
:100690000046400041EB010111F4801F08BF013CFE
:1006A000F7D041EA060195F0000F18BF704703F03C
:1006B0000046520043EB030313F4801F08BF013DC3
:1006C000F7D043EA0603704794EA0C0F0CEA13557F
:1006D00018BF95EA0C0F0CD050EA410618BF52EA39
:1006E0004306D1D181EA030101F000414FF000003F
:1006F00070BD50EA410606BF1046194652EA43064D
:1007000019D094EA0C0F02D150EA013613D195EAC0
:100710000C0F05D152EA03361CBF104619460AD108
:1007200081EA030101F0004141F0FE4141F4700112
:100730004FF0000070BD41F0FE4141F4780170BD02
:1007400070B54FF0FF0C4CF4E06C1CEA11541DBF67
:100750001CEA135594EA0C0F95EA0C0F00F0A7F869
:10076000A4EB050481EA030E52EA03354FEA013196
:1007700000F088804FEA03334FF0805545EA1313A9
:1007800043EA12634FEA022245EA111545EA106571
:100790004FEA00260EF000419D4208BF964244F108
:1007A000FD0404F5407402D25B084FEA3202B61A27
:1007B00065EB03055B084FEA32024FF480104FF4FB
:1007C000002CB6EB020E75EB030E22BFB61A75466F
:1007D00040EA0C005B084FEA3202B6EB020E75EB02
:1007E000030E22BFB61A754640EA5C005B084FEA6A
:1007F0003202B6EB020E75EB030E22BFB61A754637
:1008000040EA9C005B084FEA3202B6EB020E75EB41
:10081000030E22BFB61A754640EADC0055EA060E02
:1008200018D04FEA051545EA16754FEA06164FEA45
:10083000C30343EA52734FEAC2025FEA1C1CC0D1F1
:1008400011F4801F0BD141EA00014FF000004FF07E
:10085000004CB6E711F4801F04BF01430020B4F13F
:10086000FD0C88BFBCF5E06F3FF6AFAEB5EB030CF7
:1008700004BFB6EB020C5FEA500C50F1000041EBF4
:10088000045170BD0EF0004E4EEA113114EB5C04C1
:10089000C2BFD4EB0C0541EA045170BD41F4801194
:1008A0004FF0000E013C90E645EA060E8DE60CEA9C
:1008B000135594EA0C0F08BF95EA0C0F3FF43BAFB9
:1008C00094EA0C0F0AD150EA01347FF434AF95EA70
:1008D0000C0F7FF425AF104619462CE795EA0C0F54
:1008E00006D152EA03353FF4FDAE1046194622E721
:1008F00050EA410618BF52EA43067FF4C5AE50EAFB
:1009000041047FF40DAF52EA43057FF4EBAE12E7EA
:100910004FF0FF3C06E000BF4FF0010C02E000BFCB
:100920004FF0010C4DF804CD4FEA410C7FEA6C5CAE
:100930004FEA430C18BF7FEA6C5C1BD001B050EA51
:10094000410C0CBF52EA430C91EA030F02BF90EA3C
:10095000020F0020704710F1000F91EA030F58BFFB
:10096000994208BF90422CBFD8176FEAE37040F05D
:10097000010070474FEA410C7FEA6C5C02D150EAFB
:10098000013C07D14FEA430C7FEA6C5CD6D152EAB6
:10099000033CD3D05DF8040B704700BF844610467B
:1009A00062468C461946634600E000BF01B5FFF77A
:1009B000B7FF002848BF10F1000F01BD4DF808ED4A
:1009C000FFF7F4FF0CBF012000205DF808FB00BF1B
:1009D0004DF808EDFFF7EAFF34BF012000205DF875
:1009E00008FB00BF4DF808EDFFF7E0FF94BF0120C2
:1009F00000205DF808FB00BF4DF808EDFFF7CEFFC3
:100A000094BF012000205DF808FB00BF4DF808ED01
:100A1000FFF7C4FF34BF012000205DF808FB00BFD2
:100A20004FEA410C7FEA6C5C02D150EA013C0AD1EA
:100A30004FEA430C7FEA6C5C02D152EA033C02D1DC
:100A40004FF0000070474FF0010070474FEA41023D
:100A500012F5001215D211D56FF47873B3EB625210
:100A600012D94FEAC12343F0004343EA505311F037
:100A7000004F23FA02F018BF404270474FF00000C9
:100A8000704750EA013005D111F0004008BF6FF007
:100A9000004070474FF00000704700BF4FEA41022E
:100AA000B2F1E04324BFB3F5001CDCF1FE5C0DD9CC
:100AB00001F0004C4FEAC0024CEA5070B2F1004F16
:100AC00040EB830008BF20F00100704711F0804F19
:100AD00021D113F13872BCBF01F00040704741F4DE
:100AE00080114FEA5252C2F11802C2F1200C10FAE2
:100AF0000CF320FA02F018BF40F001004FEAC123C6
:100B00004FEAD32303FA0CFC40EA0C0023FA02F369
:100B10004FEA4303CCE77FEA625307D150EA01333F
:100B20001EBF4FF0FE4040F44000704701F000400F
:100B300040F0FE4040F40000704700BF80F00040ED
:100B400002E000BF81F0004142001FBF5FEA4103A5
:100B500092EA030F7FEA226C7FEA236C6AD04FEAA5
:100B60001262D2EB1363C1BFD218414048404140EA
:100B7000B8BF5B42192B88BF704710F0004F40F49C
:100B8000000020F07F4018BF404211F0004F41F4B8
:100B9000000121F07F4118BF494292EA030F3FD084
:100BA000A2F1010241FA03FC10EB0C00C3F1200397
:100BB00001FA03F100F0004302D5494260EB400026
:100BC000B0F5000F13D3B0F1807F06D340084FEA91
:100BD000310102F10102FE2A51D2B1F1004F40EB86
:100BE000C25008BF20F0010040EA030070474900EE
:100BF00040EB000010F4000FA2F10102EDD1B0FAB9
:100C000080FCACF1080CB2EB0C0200FA0CF0AABFAD
:100C100000EBC25052421843BCBFD040184370474B
:100C200092F0000F81F4000106BF80F40000013251
:100C3000013BB5E74FEA41037FEA226C18BF7FEA28
:100C4000236C21D092EA030F04D092F0000F08BF6A
:100C50000846704790EA010F1CBF0020704712F051
:100C60007F4F04D1400028BF40F00040704712F190
:100C700000723CBF00F50000704700F0004343F0F5
:100C8000FE4040F4000070477FEA226216BF08462B
:100C90007FEA23630146420206BF5FEA412390EAEE
:100CA000010F40F4800070474FF0000304E000BFE4
:100CB00010F0004348BF40425FEA000C08BF704795
:100CC00043F0964301464FF000001CE050EA010259
:100CD00008BF70474FF000030AE000BF50EA01026E
:100CE00008BF704711F0004302D5404261EB41015B
:100CF0005FEA010C02BF84460146002043F0B64380
:100D000008BFA3F18053A3F50003BCFA8CF2083AA4
:100D1000A3EBC25310DB01FA02FC634400FA02FCAD
:100D2000C2F12002BCF1004F20FA02F243EB0200B4
:100D300008BF20F00100704702F1200201FA02FC16
:100D4000C2F1200250EA4C0021FA02F243EB020009
:100D500008BF20EADC7070474FF0FF0C1CEAD0524D
:100D60001EBF1CEAD15392EA0C0F93EA0C0F6FD00E
:100D70001A4480EA010C400218BF5FEA41211ED0EC
:100D80004FF0006343EA501043EA5111A0FB0131D8
:100D90000CF00040B1F5000F3EBF490041EAD371AD
:100DA0005B0040EA010062F17F02FD2A1DD8B3F129
:100DB000004F40EBC25008BF20F00100704790F098
:100DC000000F0CF0004C08BF49024CEA502040EAEA
:100DD00051207F3AC2BFD2F1FF0340EAC2507047B0
:100DE00040F400004FF00003013A5DDC12F1190FEE
:100DF000DCBF00F000407047C2F10002410021FA60
:100E000002F1C2F1200200FA02FC5FEA310040F177
:100E1000000053EA4C0308BF20EADC70704792F0F0
:100E2000000F00F0004C02BF400010F4000F013A28
:100E3000F9D040EA0C0093F0000F01F0004C02BF23
:100E4000490011F4000F013BF9D041EA0C018FE792
:100E50000CEAD15392EA0C0F18BF93EA0C0F0AD098
:100E600030F0004C18BF31F0004CD8D180EA0100BE
:100E700000F00040704790F0000F17BF90F0004F57
:100E8000084691F0000F91F0004F14D092EA0C0F39
:100E900001D142020FD193EA0C0F03D14B0218BFCC
:100EA000084608D180EA010000F0004040F0FE4012
:100EB00040F40000704740F0FE4040F440007047AE
:100EC0004FF0FF0C1CEAD0521EBF1CEAD15392EA2D
:100ED0000C0F93EA0C0F69D0A2EB030280EA010C1D
:100EE00049024FEA402037D04FF0805343EA1111B6
:100EF00043EA10130CF000408B4238BF5B0042F114
:100F00007D024FF4000C8B4224BF5B1A40EA0C00B8
:100F1000B3EB510F24BFA3EB510340EA5C00B3EBEA
:100F2000910F24BFA3EB910340EA9C00B3EBD10FD8
:100F300024BFA3EBD10340EADC001B0118BF5FEA2A
:100F40001C1CE0D1FD2A3FF650AF8B4240EBC25053
:100F500008BF20F0010070470CF0004C4CEA502014
:100F60007F32C2BFD2F1FF0340EAC250704740F463
:100F700000004FF00003013A37E792F0000F00F055
:100F8000004C02BF400010F4000F013AF9D040EAD3
:100F90000C0093F0000F01F0004C02BF490011F467
:100FA000000F013BF9D041EA0C0195E70CEAD1535F
:100FB00092EA0C0F08D142027FF47DAF93EA0C0F46
:100FC0007FF470AF084676E793EA0C0F04D14B022A
:100FD0003FF44CAF08466EE730F0004C18BF31F0DC
:100FE000004CCAD130F000427FF45CAF31F00043D6
:100FF0007FF43CAF5FE700BF4FF0FF3C06E000BF6F
:101000004FF0010C02E000BF4FF0010C4DF804CD91
:101010004FEA40024FEA41037FEA226C18BF7FEAA1
:10102000236C11D001B052EA530C18BF90EA010FA3
:1010300058BFB2EB030088BFC81738BF6FEAE17032
:1010400018BF40F0010070477FEA226C02D15FEACE
:10105000402C05D17FEA236CE4D15FEA412CE1D03A
:101060005DF8040B704700BF844608466146FFE701
:101070000FB5FFF7C9FF002848BF10F1000F0FBDE3
:101080004DF808EDFFF7F4FF0CBF012000205DF8DC
:1010900008FB00BF4DF808EDFFF7EAFF34BF012061
:1010A00000205DF808FB00BF4DF808EDFFF7E0FFFA
:1010B00094BF012000205DF808FB00BF4DF808ED4B
:1010C000FFF7D2FF94BF012000205DF808FB00BFAE
:1010D0004DF808EDFFF7C8FF34BF012000205DF890
:1010E00008FB00BF4FEA4002B2F1FE4F0FD34FF0B2
:1010F0009E03B3EB12620DD94FEA002343F0004385
:1011000010F0004F23FA02F018BF404270474FF032
:101110000000704712F1610F01D1420205D110F0B9
:10112000004008BF6FF0004070474FF0000070476C
:1011300042000ED2B2F1FE4F0BD34FF09E03B3EB41
:10114000126209D44FEA002343F0004323FA02F06D
:1011500070474FF00000704712F1610F01D1420259
:1011600002D14FF0FF3070474FF00000704700BFD2
:10117000054B82B0DA690243DA61DB6918400190FD
:10118000019B02B0704700BF00100240054B82B0C7
:101190009A6902439A619B6918400190019B02B0D1
:1011A000704700BF0010024070B54FF0007393FA13
:1011B000A3F3B3FA83F300F000740F4DDC4055F84D
:1011C000242000F0F8704FF0F87393FAA3F1B1FA0D
:1011D00081F193FAA3F3B3FA83F3072620FA01F11E
:1011E000D840062306FA01F122EA010203FA00F0D0
:1011F000104345F8240070BD0C24014000207047C6
:10120000274B10B51A6822F0070242F002021A605A
:101210001A6802F00702022AFAD1224C236843F42A
:101220008033236023689A03FCD5236843F40023AA
:101230002360636823F47C1343F4E813636023683A
:1012400043F08073236023689B01FCD5636823F01F
:10125000F0036360636823F4E06343F480636360D6
:10126000636823F460536360636823F0030343F00F
:1012700002036360636803F00C03082BFAD10A4889
:1012800002F0C8FA002000F0EBFB636823F440434F
:1012900043F400436360636823F48003636010BD1C
:1012A000002002400010024000A24A042DE9F04F45
:1012B0004FF0140897B000F0F7FBFFF7A1FF42468C
:1012C00000210EA807F01AFC1020FFF75FFF202076
:1012D000FFF75CFF0420FFF759FF0820FFF756FFD8
:1012E0004FF40053CC480024036102270123CB4A6A
:1012F0000EA9CDE90E23CDE9107401F0E5FAC84B33
:10130000DFF85C935A69C74E42F001025A615B698B
:10131000DFF850A303F001030393039BD9F80C00FB
:101320004FF4807BC0F30220FFF768FF4FF40063A7
:101330000001C0B286F80B0342463360214609A87B
:10134000CDE90444029407F0D9FB424621460EA899
:1013500007F0D4FB4FF40070FFF718FF0420FFF7ED
:1013600015FF41F61E630EA95046CDE90E3401F07B
:10137000ABFAAD4BAD4D1A6822F4804222F0100258
:101380001A601A6842F440521A601A6842F0200249
:101390001A601A6822F040021A601A6842F080024D
:1013A0001A601A6822F4407242F480721A601A6855
:1013B00022F4406242F480621A60D9F80C00C0F353
:1013C0000220FFF71BFF4FF480230001C0B286F814
:1013D000120304A933602846CDF814B0049401F038
:1013E000E7F916A941F8504D284601F0C5F94FF428
:1013F00000134FF400212846CDE9091309A9CDF8BF
:1014000034B0CDE90B4401F0E8F96B68884A4FF439
:10141000407B1A40874B13436B606B6A864A6FEAC6
:1014200013336FEA03336B62536823F47F6323F053
:101430000F0353606B6843F040036B607F4B9BFA74
:10144000ABF14FF40072B1FA81F122FA01F153F8D5
:101450002100019220F01F0040F0110043F821000C
:1014600077480093FFF7A0FEA96841F40001A96046
:101470009BFAABF1B1FA81F1019A009B22FA01F1DA
:1014800053F8210020F4787040F0200043F8210048
:101490006C48FFF789FE9BFAABFBBBFA8BFB019A0A
:1014A000009B22FA0BFB53F82B20674822F4F842EA
:1014B00042F4006243F82B20FFF776FE02F0C0FEF4
:1014C0004246214604A807F019FB214620220EA817
:1014D00007F014FB4246214609A807F00FFB012044
:1014E0004FF08045FFF744FE4FF47A7304A94FF0A4
:1014F0008040CDE90634ADF81040059401F0BEFA05
:101500002B684FF0090B23F080032B60AB68284653
:1015100023F4804323F00703AB60AB690EAA43F0CA
:101520000803AB6160230121CDE90E34CDE91044FD
:10153000129401F0DBFAAB69284623F00403AB6197
:10154000AB690EAA43F40063AB611021CDE90F44EF
:1015500001F0CCFAAB69042023F48063AB616B68C3
:1015600023F070036B60AB6823F08003AB60FFF780
:101570000DFE0820FFF70AFE344B09A95046CDE9BD
:10158000093BCDE90B7401F09FF940F6080309A966
:101590002F48CDE9093BCDE90B7401F095F92D4AAF
:1015A000214653680EA823F0E06323F4407343F010
:1015B000E06343F4807353601C2207F09FFA4246B5
:1015C000214609A807F09AFA4FF48040FFF7DEFDA4
:1015D0000420FFF7DBFD204B09A9CDE9093B0323DC
:1015E0004FF0040B5046CDE90B3401F06DF91B4B65
:1015F00009A95046CDE9093B01F066F9D9F80C007C
:10160000C0F30220FFF7FAFD202300FA0BF0C0B26E
:1016100086F8250328E000BF0010014020002004C8
:101620000010024000E100E00800024000240140F8
:10163000E0FD3FFF01028000242401402C240140F2
:10164000110050810100300202006002800080041D
:10165000000C0140000001400200020404000404E8
:1016600000ED00E00008014073604FF4E133CDE984
:101670000E340C23CDE91234A44B0EA91846009366
:10168000CDE91044149401F0F9FA009B21461A693F
:1016900009A822F490421A615A6922F02A025A617A
:1016A000DA6842F40052DA60424607F027FA21462F
:1016B00020220EA807F022FA3846FFF759FD944B76
:1016C000944F1A6822F4804222F010021A601A68BD
:1016D00042F440521A601A6842F020021A601A68F6
:1016E00022F040021A601A6842F080021A601A68FA
:1016F00022F440721A601A6822F440621A60D9F823
:101700000C00C0F30220FFF779FD4FF0005300FA00
:101710000BF0C0B286F81D0333604FF47A73ADF856
:101720002430482309A938460B9300930A940C945B
:1017300001F0A4F93A68012142F080023A60BA68E7
:10174000384622F4804222F00702BA600EAACDE9A0
:101750000E44CDE91044129401F0C8F9BA6921464B
:1017600022F00402BA617A6809A822F0700242F0FD
:1017700020027A60BA6822F08002BA60424607F01E
:10178000BDF9202221460EA807F0B8F95846FFF708
:10179000EFFCD9F80C00C0F30220FFF72FFD4FF447
:1017A0007A7300FA0BF0C0B286F81E03356005F5B7
:1017B0000065ADF82430009B09A92846CDE90B341B
:1017C0000A9401F05BF92B680EAA43F080032B60AA
:1017D000AB68012123F4804323F00703AB60284664
:1017E000CDE90E44CDE91044129401F07FF9AB69C4
:1017F000424623F00403AB616B68214623F070037B
:101800006B60AB6809A823F08003AB6007F076F942
:10181000424621460EA807F071F94FF40060FFF729
:10182000B5FC5846FFF7B2FC3B4B0EA95046CDE93C
:101830000E3B01F049F8394B05F592351A6822F450
:10184000804222F010021A601A6822F4405242F4D8
:1018500000521A601A6842F020021A601A6822F0D8
:1018600040021A601A6842F080021A601A6822F474
:10187000407242F480721A601A6822F4406242F4A4
:1018800080621A60D9F80C00C0F30220FFF7B6FCA2
:101890004FF0007300FA0BF0C0B286F81903336002
:1018A0004FF6FF7309A92846CDE90B34ADF8244063
:1018B0000A940D9401F0E2F82B6823F080032B606A
:1018C000AB6823F4804323F00703AB606B6823F01D
:1018D00070036B60AB6823F08003AB60AB6923F0EF
:1018E000030343F00103AB61AB6923F00C03AB616D
:1018F000AB6923F0F003AB612B6A23F00A032B6280
:1019000002F0DAFE204617B0BDE8F08F0038014043
:101910006C00024000040040010001041C00024071
:1019200070470000204B07B59A69012142F001027F
:101930009A619A696FF00B0002F001020092009A1E
:10194000DA6942F08052DA61DB69002203F08053E9
:101950000193019B00F0D8F8002201216FF00A00EA
:1019600000F0D2F8002201216FF0090000F0CCF85D
:10197000002201216FF0040000F0C6F800220121CE
:101980006FF0030000F0C0F800220F216FF001009B
:1019900000F0BAF8054A536823F0E06343F000739F
:1019A000536003B05DF804FB0010024000000140EA
:1019B0007047FEE7FEE7FEE7FEE7704770477047B7
:1019C00000F084B8014800F09DB900BF1413002056
:1019D0000B4B10B51968024609B90A491960186815
:1019E00009490A4C0244091B8A4206D907F004F847
:1019F0000C2303604FF0FF3010BD1A60FCE700BFFE
:101A000080030020F0180020005000200004000097
:101A100070470000002103E00B4B5B58435004313A
:101A20000A480B4B42189A42F6D30A4A02E00023B6
:101A300042F8043B084B9A42F9D3FFF7E9FF06F05E
:101A4000E1FFFFF733FC704738B0000800000020CA
:101A50006403002064030020F0180020FEE700006B
:101A600038B50E4B054618784FF47A73B3FBF0F394
:101A70000B4A1068B0FBF3F000F088F8044658B940
:101A80000F2D09D8024629464FF0FF3000F03CF8F0
:101A90002046044B1D6038BD0120FCE704000020F7
:101AA0000000002008000020074A08B51368032042
:101AB00043F01003136000F015F80020FFF7D0FF8B
:101AC000FFF730FF002008BD00200240034A044B0E
:101AD00011681B780B441360704700BF7C06002020
:101AE00004000020074A0002D36800F4E06023F4F9
:101AF000E0631B041B0C43F0BF6343F40033034358
:101B0000D360704700ED00E0174B70B5DC684FF014
:101B1000FF36C4F30224C4F10705042D04F10403C5
:101B200028BF0425062B98BF002406FA05F388BFBA
:101B3000033C21EA0303A34006FA04F422EA040466
:101B4000002843EA0403A8BF00F160404FEA0313F2
:101B5000B8BF064ADBB2ABBF00F5614000F00F0032
:101B600080F80033135470BD00ED00E014ED00E088
:101B7000002808DB0123420900F01F0003FA00F0EF
:101B8000014B43F82200704700E100E00138B0F15A
:101B9000807F0AD2F021064B064A586082F8231053
:101BA0000020072298601A6070470120704700BF2C
:101BB00010E000E000ED00E0F0B5044687B010B39F
:101BC00090F8A93203F0FF021BB980F8A82202F0B6
:101BD00041FC254603236E4655F8100B84F8A932C4
:101BE00001F0AEF80FCD0FC62B6825463360271DD8
:101BF00097E80E0055F8100B01F092F8064620B158
:101C0000022384F8A93201254BE00146206801F047
:101C1000A1F830464FF0010E28260146D4F804C042
:101C2000C2B2944500F1010018D8002328261946B5
:101C3000D8B2844503F101031DD80FCD6E460FC6FF
:101C40002B68336097E80E00206801F085F80123C7
:101C50000546F8B1022284F8A922D4E706FB024324
:101C600083F829E083F82820DA8683F82B10C3E96B
:101C70000E111964D4E706FB004282F8691182F85C
:101C8000680182F86B11C2F87811C2F87C11C2F8B1
:101C90008011CDE784F8240084F8A932206801F08F
:101CA000DAFA284607B0F0BD38B590F8A8320446F5
:101CB000012B10D0012580F8A852006801F037F8F8
:101CC0002946204602F0F7FC206801F0C2FA002005
:101CD00084F8A80238BD0220FCE790F8A82210B5CD
:101CE000012A04460BD0012280F8A82284F824108F
:101CF000006801F0A8FA002084F8A80210BD0220B4
:101D0000FCE700002DE9F04F044685B0006801F0C3
:101D1000A4FA020409D5DFF82898DFF8288820689B
:101D2000B0F844301B0400F1BC80206801F095FA43
:101D300043050FD522682046B2F8443023F480636F
:101D40001B041B0CA2F8443002F0BFFB002120460C
:101D5000FFF7C3FF206801F080FA470408D5226826
:101D6000B2F8443023F480431B041B0CA2F8443027
:101D7000206801F072FA860408D52268B2F844306F
:101D800023F400531B041B0CA2F84430206801F01C
:101D900064FAC5041CD522682046B2F8403023F00E
:101DA00004031B041B0CA2F84030B2F8403023F0AF
:101DB00008031B041B0CA2F8403002F0A9FB2268A8
:101DC000B2F8443023F480531B041B0CA2F84430B7
:101DD000206801F042FA000541D50022236833F85B
:101DE00022102DF812100132082AF8D1B3F8402041
:101DF00042F00102A3F84020B3F8402022F0010293
:101E00001204120CA3F84020B3F844205105FBD56E
:101E1000B3F8442022F480621204120CA3F8442088
:101E200000223DF8121023F822100132082AF8D1BE
:101E3000B3F84020204642F00802A3F84020B3F84F
:101E4000442022F400621204120CA3F84420B3F8D8
:101E5000402042F00402A3F8402002F049FB206831
:101E600001F0FBF982050BD522682046B2F8443018
:101E700023F400731B041B0CA2F8443002F021FB76
:101E8000206801F0EAF9C30508D52268B2F84430A9
:101E900023F480731B041B0CA2F8443005B0BDE88A
:101EA000F08FB0F8441089B211F00F0640F0B18005
:101EB00011F0100103882AD109EA030343F4004317
:101EC0000380B0F8503094F8282003EBC20300EBF5
:101ED0004300B0F80434E26BC3F3090363641344B2
:101EE000E363204602F0E5FA94F82430002B3FF437
:101EF00016AF226C002A7FF412AF94F824302168C8
:101F000043F08003A1F84C3084F8242007E79BB20B
:101F100013F4006520D0B0F8503094F8682104F52F
:101F20002C7103EBC20300EB4303B3F80C34B4F899
:101F30006E21C3F30903C4F8843101F04FFC226819
:101F40002046138823F070031B051B0D43F080030C
:101F5000138002F09FFAE2E61F047FF5E0AE0388EB
:101F600023F070031B051B0D43F080030380B0F8C2
:101F7000503094F8682103EBC20300EB4303B3F83D
:101F80000C34C3F30903C4F884318BB1D4F87C1149
:101F900071B1B4F86E2101F021FCD4F87C31D4F891
:101FA000842129461344C4F87C31204602F078FA93
:101FB0002168D4F87851B1F8503001F20C409BB24E
:101FC000BDB9C25A22F4F8421204120CC252C25ACB
:101FD00048EA020292B2C2520B8823F4804323F0F3
:101FE000700383F4405343F4004343F080030B80B9
:101FF00095E63E2D05D86A08EE0748BF01329202E9
:10200000E8E76A09ED0608BF02F1FF3248EA8222DA
:10201000E0E730F82670BFB2390440F1F2802821A1
:1020200030F8263001FB064123F070031B051B0D21
:1020300043F0800320F8263091F8743100F5806C6D
:10204000ABB9B0F8503091F86821063303EBC20306
:102050003CF81350C5F30905002D00F0B6802B465F
:10206000B1F86E21D1F87C1101F0B8FBADE091F828
:102070006B3191F86821022B40F0898017F4804A77
:102080004FEAC205D1F8803107F0400E3ED0B0F8DB
:1020900050A0554402353CF81550C5F309059D4242
:1020A0008CBF00235B1BC1F88031282303FB064350
:1020B000D3F880316BB930F8223023F4804323F019
:1020C000700383F4005343F4004343F0800320F88B
:1020D0002230BEF1000F10D0282303FB064393F8F3
:1020E000682130F8223023F0F0031B051B0D43F468
:1020F000004343F0C00320F82230002D65D0282192
:1021000001FB06412B46B1F87021ABE7B0F850B0A7
:102110005D4406353CF81550C5F309059D429CBF4A
:102120005B1BC1F880314FF0280303FB064388BFD7
:10213000C1F880A1D3F880316BB930F8223023F494
:10214000804323F0700383F4005343F4004343F0CF
:10215000800320F82230BEF1000F10D1282303FBAA
:10216000064393F8682130F8223023F0F0031B0572
:102170001B0D43F4004343F0C00320F8223025B385
:10218000282101FB06412B46B1F872216AE730F89D
:10219000223023F0F0031B051B0D43F4004343F0F2
:1021A000C00320F8223091F8683130F82320DB009A
:1021B00012F4804FB0F850205ED0023213443CF845
:1021C0001350C5F30905002D9CD1282171436318D4
:1021D000D3F884212A44C3F88421D3F87C212A44EB
:1021E000C3F87C21D3F880211AB1D3F878319D420D
:1021F0004BD2282303FB0643204693F8681102F0D4
:102200004FF93A067FF58BAD2825206805FB06457A
:1022100030F8263000F5806209EA030343F40043F6
:1022200020F8263095F82B3095F82810022B01D194
:10223000FB053DD42823B0F850E003FB064C0EF11B
:10224000020E0EEBC10132F81120DCF84070C2F32F
:102250000902974292BF0021BF1ACCF8407003FBDD
:10226000064798BFCCF84010396CA9B995F82810EA
:10227000204602F01EF952E5063213443CF8135092
:10228000C5F30905002DA0D07DE701F5B471214407
:10229000206800F0F7FFB4E7F96B06FB0333114445
:1022A000F963796C0A447A64E11800F0EBFF36E5D3
:1022B00017F0400E4FEAC10C2B6C07F4804700F07A
:1022C0009E80B0F850E0BFB2F4440CF1020C32F83A
:1022D0001CC0CCF3090C9C452CBF0023A3EB0C03C2
:1022E0002B64282303FB06431B6CABB9204602F08A
:1022F000E0F8002F00F0A18095F82810226832F84D
:10230000213023F0F0031B051B0D43F4404343F041
:10231000800322F8213090E05FB130F8213023F0C3
:10232000F0031B051B0D43F4404343F0800320F8EA
:102330002130282303FB064393F84C20012A7CD14B
:102340005A6CD96B62445A649F6C9A6B6144974291
:10235000D96325D3BF1A9F6495F8297093B2002FD3
:1023600041D1B0F8507000F2044CBC4495F828708C
:102370003F0102BB3CF8072022F4F8421204120C81
:102380002CF807203CF8072048EA020292B22CF809
:102390000720282202FB0646328E00F063FF4CE045
:1023A0001FB983F84C706246D6E7002283F84C20B0
:1023B0009A643A46D0E73E2A0CD84FEA520ED2072A
:1023C00048BF0EF1010E4FEA8E2E1FFA8EFE2CF83A
:1023D00007E0DEE74FEA521ED20608BF0EF1FF3ECD
:1023E00048EA8E2EF1E7012FD3D1B0F8502000F249
:1023F0000447174495F828201201BB52C9E7B0F8EA
:1024000050A0BFB2D4440CF1060C32F81CC0CCF37F
:10241000090C9C459CBFA3EB0C032B644FF02803D5
:1024200003FB064388BFC5F840E01B6CBBB92046E0
:1024300002F03FF8002F3FF45FAF95F828102268B4
:1024400032F8213023F4E04323F0400383F03003DB
:1024500043F4004343F0800322F821305FE45FB986
:1024600030F8213023F0F0031B051B0D43F44043EB
:1024700043F0800320F82130282303FB064393F820
:102480004C20012AD9D15A6CD96B62445A649F6C92
:102490009A6B61449742D96323D3BF1A9F6495F81E
:1024A000297093B2002F3FD1B0F8507000F20C4C5D
:1024B000BC4495F828703F01F2B93CF8072022F49B
:1024C000F8421204120C2CF807203CF8072048EAC6
:1024D000020292B22CF80720282202FB0646728ED6
:1024E0005BE71FB983F84C706246D8E700229A6414
:1024F00083F84C203A46D2E73E2A0CD84FEA520ED7
:10250000D20748BF0EF1010E4FEA8E2E1FFA8EFE43
:102510002CF807E0E0E74FEA521ED20608BF0EF1A2
:10252000FF3E48EA8E2EF1E7012FD5D1B0F85020BA
:1025300000F20C47174495F828201201BB52CBE754
:102540000F8FFFFF0080FFFF11F0800F70B501F0CB
:10255000070504464FF028011CD005FB011101447A
:10256000012048700A614A780D70CB7002B1CD81AC
:10257000022B04BF00230B7194F8A832012B13D057
:102580000123206884F8A83200F0FAFB002084F8C8
:10259000A80270BD002601FB05F000F5B4712044CF
:1025A000214480F86961DDE70220F2E711F0800F35
:1025B00010B501F0070204464FF0280113D00123A3
:1025C00002FB011101444B700A7094F8A832012BF0
:1025D00013D00123206884F8A83200F00FFD0020FA
:1025E00084F8A80210BD01FB02F303F5B4710144A5
:1025F0000344002083F86901E6E70220F2E770B5A2
:102600002824002601F007014C43051985F86811BC
:1026100004F5B4710144C5F87C21C5F88031C5F8D2
:10262000846185F86961006800F02CFE304670BD59
:10263000282301F0070103FB0101D1F88401704751
:1026400070B5282501F0070105FB01040026C4E947
:102650000F23012201FB055584F8281084F84C2033
:102660004119A364666484F82920006800F00AFE1A
:10267000304670BD38B5436801F007059D420446F9
:1026800028D811F0800F4FF028031AD005FB033330
:10269000C11801234B7001230D708B7094F8A82290
:1026A0009A4219D084F8A832206800F06DFD25B94F
:1026B00004F52C71206800F0D3FD002084F8A802F6
:1026C00038BD00224B4303F5B4710344014483F841
:1026D0006921E0E70120F3E70220F1E738B543681C
:1026E00001F00F029A42044626D811F0800F01F043
:1026F00007024FF0280115D0012302FB011101440C
:102700004B7000250A708D7094F8A832012B15D0FB
:102710000123206884F8A83200F052FD284684F88E
:10272000A85238BD01FB02F303F5B4710144034420
:10273000002083F86901E4E70120F2E70220F0E7D6
:1027400010B5282411F0800F1BBF01F0070101FB19
:10275000044104FB0100401808BF00F5B47099B2B1
:102760001AB90273C180002010BD01221B0C027334
:1027700001814381F7E700000C4B9A6803F5806301
:102780009B68134313F001020ED10B6833B141680B
:1027900021F470210B43436010467047426822F4D5
:1027A00070224260184670470120704700240140A3
:1027B000836810B513F001030DD142684C6822F410
:1027C0008072224342608268096822F400620A43F0
:1027D0008260184610BD0120FCE7836810B5DB0756
:1027E0001BD443684A6823F4684312B18C681343CE
:1027F0002343436083680C6823F4602323F48173CC
:102800002343CC68096923430B438360C36A23F4E1
:1028100070031343C362002010BD0120FCE70000D9
:1028200002460368007910B500283DD0002B44D043
:10283000517901291ED003D3022924D0012008E0B8
:102840002049486820EA0300486008681843086087
:10285000002092796AB1022A19D0032A20D0012AD5
:102860002DD1184AD16821EA0301D16091680B4348
:10287000936010BD1349086820EA030008604868A7
:1028800018434860E4E70F4908681843F6E70D4A23
:10289000916821EA03019160D1680B43D360E8E7B6
:1028A000084A91681943F6E7DC43064A116821405B
:1028B0001160536823405360DBE71846D9E70120D5
:1028C000D7E700BF000401402DE9F04F0C68C4F3C6
:1028D0000F2494FAA4F24FF00F0AB2FA82F24FF0EA
:1028E000030904274FF0011C40F2011E34FA02F3E1
:1028F00002D11846BDE8F08F0123934023425ED0F9
:10290000072A85BFA2F108030CFA03F30EFA02F3BB
:1029100043F08063C5681E0A96FAA6F8B8FA88F8EC
:1029200025EA06060D6905FA08F53543C5604FEA44
:10293000136893FAA3F6B6FA86F693FAA3FBBBFAEA
:102940008BFBB6000AFA06F550F808604FEA8B0BCD
:1029500026EA05064D6805FA0BFB46EA0B0640F829
:1029600008604D6825F00805012D28D193FAA3F5DC
:10297000B5FA85F593FAA3FBBBFA8BFBAD0009FA18
:1029800005F526EA05068D684FEA8B0B05FA0BFB69
:1029900046EA0B0640F8086093FAA3F5B5FA85F508
:1029A00093FAA3F3B3FA83F3AD0007FA05F526EA29
:1029B0000505CE689B009E402E4340F8086001321A
:1029C00094E70000034B044A5B68C3F30313D35C32
:1029D000D84070470010024020A60008034B044A6C
:1029E0005B68C3F30223D35CD840704700100240F9
:1029F00030A60008034B044A5B68C3F3C223D35CD0
:102A0000D84070470010024030A60008094B5A68B1
:102A100002F4803262B15868074AC0F34040013086
:102A2000B2FBF0F05B68C3F3834302335843704753
:102A30000248F7E70010024000127A0000093D004A
:102A4000044B5B6803F00C03082B01D1FFF7DEBFDA
:102A5000014870470010024000127A0008B5014694
:102A6000FFF7EEFF0860FFF7ADFF4860FFF7B6FF26
:102A700088604868FFF7BEFFC86008BD1A4A03684F
:102A800090420AD0B0F1804F07D0A2F59432904224
:102A900003D002F58062904215D14A6823F070039A
:102AA0001343114A90420AD0B0F1804F07D0A2F5EB
:102AB0009432904203D002F58062904203D1CA68FA
:102AC00023F44073134303608B68C3620B888362F3
:102AD000054B984204BF0B690363436943F001034C
:102AE00043610020704700BF002C0140102930B521
:102AF0005FD003D801292CD0012059E0B1F5807FA7
:102B000000F08980B1F5805FF6D1036A156823F47F
:102B100080530362036A4468C16923F4005321F4BB
:102B2000E64141EA0521156943EA0533556823F476
:102B3000805343EA0533504DA84204BF956924F4FD
:102B40008044D26808BF44EA85144460C1610264CD
:102B50002CE0036A156823F001030362036A4168ED
:102B6000846923F0020324F073042C4315692B437A
:102B7000556823F001032B433F4DA84212D15569FC
:102B800023F0080343EA8503956823F0040343EA2E
:102B90008503956921F480712943D56921F4007179
:102BA00041EA4501D26841608461426303620020CA
:102BB00030BD036A156823F010030362036A41689D
:102BC000846923F0200324F4E64444EA05241569CB
:102BD00043EA0513556823F0100343EA0513264D15
:102BE000A84213D1556923F0800343EA8513956801
:102BF00023F0400343EA8513956921F4806141EA9B
:102C00008501D56921F4006141EAC501D2684160BE
:102C100084618263CAE7036A156823F480730362E0
:102C2000036A4168C46923F4007324F073042C43DD
:102C3000156943EA0523556823F4807343EA0523A5
:102C40000D4DA84213D1556923F4006343EA85234F
:102C5000956823F4806343EA8523956921F48051C4
:102C600041EA0511D56921F4005141EA4511D268C4
:102C70004160C461C26399E7002C014030B5C3686C
:102C800085B09B0404460D4602D5012005B030BD39
:102C90004B68C968C2680B43296922F4B0520B43E0
:102CA00022F00C021343C3600369AA6823F4405363
:102CB0001343036143696A6923F440731343436117
:102CC0006846FFF7CBFE134B9C4219D103990029AC
:102CD000DBD02A68002AD8D019234B439200B3FBDB
:102CE000F2F36422B3FBF2F102FB11331B01323326
:102CF000B3FBF2F303EB01139BB2A3600020C5E723
:102D0000054B9C4201D10299E1E7044B9C42BCD1A6
:102D1000F9E700BF0038014000440040004800408F
:102D200084B001A880E80E0004B0002070470023A2
:102D30004FF43F42A0F84430A0F8402018467047B6
:102D4000B0F8403023F47C535B045B0CA0F84030B7
:102D5000002070470020704784B010B503AC84E8B1
:102D60000E00BDE810400123A0F84030002304B05D
:102D7000A0F84030A0F84430A0F850301846704712
:102D8000F0B50C78034630F82420C87822F4EC42E1
:102D900022F07002032803D8DFE800F042494446DD
:102DA000012048F280052A4323F824200E78904A17
:102DB00033F82640354314402C4323F826400D7B3E
:102DC0000C78002D40F08280CD884E786D086D0023
:102DD00003EB041476B3B3F850603444A4F8005401
:102DE0000D7833F82540670608D533F82540224092
:102DF00042F4004242F0C00223F82520CA780C7841
:102E0000012A33F824107B4A02EA010218BF82F03B
:102E1000200242F4004242F0800223F82420F0BD58
:102E200042F400720020BCE742F4C062FAE742F4C8
:102E30008062F7E7B3F850200E691444A4F80854F0
:102E40000A78B3F8504003EB0212A4B202F20C422B
:102E500056BB155B25F4F8452D042D0C1553155B59
:102E600045F4004515530C7833F8242057040BD54E
:102E700033F8242022F0F0021205120D42F44042F1
:102E800042F0800223F82420097833F8212022F42C
:102E9000804222F0700282F4405242F4004242F03A
:102EA000800223F82120BAE73E2E06D87508F607DF
:102EB00048BF0135AD02ADB2D4E77709F5064E4DF6
:102EC00008BF07F1FF3745EA8725F4E733F82450B8
:102ED000154045F4014545F0800523F824500C7851
:102EE0000D89B3F8506003EB04146D08B6B204F515
:102EF00080646D00A5530C784D89B3F8506003EBE6
:102F000004146D0804F581646D00B6B2A5534C78C5
:102F10000D78B4BB33F82540660408D533F8254056
:102F2000224042F4404242F0800223F825200C78EF
:102F300033F8242055060BD533F8242022F0F00274
:102F40001205120D42F4004242F0C00223F8242080
:102F500048F280040D7833F8252022F4804222F0D4
:102F6000700282F44052224323F82520097833F876
:102F7000212022F4E04222F04002144323F82140B1
:102F80004DE733F82540640408D533F82540224046
:102F900042F4404242F0800223F825200C7833F8B6
:102FA000242052060BD533F8242022F0F00212051B
:102FB000120D42F4004242F0C00223F82420CA78E5
:102FC0000C78012A33F824500A4A02EA050218BF95
:102FD00082F0200242F4004242F0800223F82420D2
:102FE000097833F8212022F0F0029204920C54E781
:102FF0008F8FFFFFBF8FFFFF0080FFFF10B50C7B9F
:103000004A780B78BCBBF2B130F8232052060BD5BE
:1030100030F8232022F0F0021205120D42F4004293
:1030200042F0C00220F823200A7830F8223023F042
:10303000C0031B051B0D43F4004343F0800320F83D
:103040002230002010BD30F8232054040BD530F876
:10305000232022F0F0021205120D42F4404242F009
:10306000800220F823200A7830F8223023F0F00381
:103070009B049B0CDFE7002A44D130F82320520444
:103080000BD530F8232022F0F0021205120D42F485
:10309000404242F0800220F823200A7830F82230A3
:1030A0005C060BD530F8223023F0F0031B051B0D16
:1030B00043F4004343F0C00320F822300A7830F88C
:1030C000223023F0F0031B051B0D43F4004343F0B3
:1030D000C00320F8223048F280020C7830F8243007
:1030E00023F4804323F07003134320F8243009783D
:1030F00030F8213023F4E04323F040031A4320F852
:1031000021209EE730F8232052040BD530F82320ED
:1031100022F0F0021205120D42F4404242F0800209
:1031200020F823200A7830F822305B060BD530F8DF
:10313000223023F0F0031B051B0D43F4004343F042
:10314000C00320F822300A7830F8223023F0F00350
:103150001B051B0D43F4404343F0800320F822304D
:1031600048F280020C7830F8243023F4E04323F056
:103170004003134320F82430097830F8213023F439
:10318000804323F07003B9E74B780A787BB130F8BD
:10319000223023F4E04323F0400383F0100343F490
:1031A000004343F0800320F822300020704730F8BD
:1031B000223023F4804323F0700383F48053EEE73E
:1031C0000B7B23BB4B780A781BB330F822305B06AD
:1031D0000BD530F8223023F0F0031B051B0D43F410
:1031E000004343F0C00320F82230CB78012B0ED0EF
:1031F0000A7830F8223023F4E04323F0400383F0D0
:10320000200343F4004343F0800320F822300020E1
:10321000704730F822305B040BD530F8223023F0B1
:10322000F0031B051B0D43F4404343F0800320F8DB
:1032300022300A7830F8223023F4804323F07003E0
:1032400083F44053DDE711B98023A0F84C3000200F
:1032500070470020704700207047B0F84400704766
:103260000020704700EB4202013302F580625B08E8
:1032700002EB83039A4200D1704731F8020B22F827
:10328000040BF7E7F8B50C46497805460129277B7A
:1032900040F083812269A6696169964228BF16467B
:1032A000EFB9B6B23346E288FFF7DCFFB5F850104D
:1032B000227805F2044312010B44D652227835F8E5
:1032C000223023F4E04323F0400383F03003002056
:1032D00043F4004343F0800325F82230F8BDE3783F
:1032E0002778022B40F02481236A9A4230F8272065
:1032F00022F4F8724FEA02524FEA125280F007812C
:1033000042F4014242F0800220F8272022789B1BE1
:1033100030F82200236210F0400FB3B260787CD006
:1033200000284DD1B5F8500005F20C4707441201B2
:10333000002E31D1B85A20F4F8400004000CB852E5
:10334000B85A40F40040B85262892846FFF78AFF15
:10335000226A236961699A4289BF921B0023226213
:1033600032466078314498BF2362616193B200288D
:1033700048D1B5F85000277805F204463F010644CD
:1033800042BBBA5B22F4F8421204120CBA53BA5B85
:1033900042F40042BA5326E03E2E07D8700816F0D9
:1033A000010F18BF0130800280B2CCE74FEA561CF3
:1033B000F006974808BF0CF1FF3C40EA8C20F3E789
:1033C0000128C1D1B5F8507005F20C403844120103
:1033D0008352B9E73E2A0BD85008D20748BF0130C4
:1033E000800280B2B85322892846FFF73BFF65E789
:1033F0005009D206864A08BF00F1FF3042EA802217
:1034000092B2C7E70128EED1B5F85060207805F2F6
:103410000442000132448352E5E700284DD1B5F85B
:10342000500005F2044707441201002E31D1B85A6A
:1034300020F4F8400004000CB852B85A40F40040A0
:10344000B85222892846FFF70DFF226A2369616975
:103450009A4289BF921B002322623246607831442F
:1034600098BF2362616193B2002845D1B5F850003E
:10347000277805F20C463F01064442BBBA5B22F4B2
:10348000F8421204120CBA53BA5B42F40042BA5327
:1034900026E03E2E07D8700816F0010F18BF013045
:1034A000800280B2CCE74FEA561CF006584808BFAD
:1034B0000CF1FF3C40EA8C20F3E70128C1D1B5F8BC
:1034C000507005F20440384412018352B9E73E2A95
:1034D00008D85008D20748BF0130800280B2B853E4
:1034E000628981E75009D206494A08BF00F1FF30DE
:1034F00042EA802292B2CAE70128F1D1B5F85060C1
:10350000207805F20C42000132448352E8E742F48D
:10351000004242F0800220F82720B0F85070267850
:1035200000F204423A4436019BB2B35222895CE76E
:1035300030F82720B0F8500052064BBF05F20C427D
:1035400005F2044212181218B3B24FEA07174BBF24
:10355000D353D353628922892846FFF783FE6378C9
:10356000227863B935F8223023F0F0031B051B0DD8
:1035700043F4004343F0C00325F822309EE6012BBC
:103580007FF49CAE35F8223023F0F0031B051B0DB1
:1035900043F4404343F08003EEE7002F3AD1A269A1
:1035A000236905F20C419A4292BF1346D21AA261D6
:1035B000B0F85020207898BFA7610001114453B99A
:1035C000435A23F4F8431B041B0C4352435A43F45D
:1035D0000043435208E03E2B10D85A08DF0748BF8B
:1035E0000132920292B24252227835F8223023F40C
:1035F000804323F0700383F4405368E65A09DE06E3
:10360000034B08BF02F1FF3243EA82239BB2E0E79B
:103610000080FFFFE378022B74D199B9B0F85030E5
:1036200000F204422178206909011A4400283AD1A5
:103630008B5A23F4F8431B041B0C8B528B5A43F414
:1036400000438B5262782378002A50D1B5F850207D
:10365000206905F20C4111441B01002835D1CA5ADA
:1036600022F4F8421204120CCA52CA5A42F400421E
:10367000CA52E369002BB7D044F24001227835F8F2
:1036800022300B408B4201D0002BADD135F82230D7
:1036900023F0F0031B051B0D43F4004343F0C0036C
:1036A00025F82230A0E73E2806D84308C00748BFC7
:1036B00001339B029BB2C4E74609C706464B08BFCD
:1036C00006F1FF3643EA8623F4E73E2806D842088F
:1036D000C00748BF0132920292B2C9E74609C70645
:1036E0003D4A08BF06F1FF3642EA8622F4E7012A86
:1036F000BFD1B5F8501005F20C420A44218A1B01D3
:10370000D152B6E7012B64D1A26923699A4295BFD1
:103710000023D21AA361A26198BF134689B9B0F8F9
:103720005020207805F2044100011144FBB9425AAF
:1037300022F4F8421204120C4252425A42F400425D
:10374000425261782278002937D1B5F8501005F23D
:103750000C4008441201E3B9835A23F4F8431B04D4
:103760001B0C8352835A43F4004383523CE73E2BA5
:1037700006D85A08DE0748BF0132920292B2DFE74C
:103780005E09DF06144A08BF06F1FF3642EA8622C8
:10379000F4E73E2B07D85908DE0748BF01318902FC
:1037A00089B2815220E75909DB060B4B08BF01F1B2
:1037B000FF3143EA81239BB2D7E701297FF414AF9D
:1037C000B5F8500005F20C41014412019BB28B5236
:1037D0000AE7012082E500BF0080FFFF00EB420204
:1037E000F0B502F580625D08084617462E460230A5
:1037F00036B9DB0744BF32F8253001F81530F0BD8B
:1038000037F8044B013EA4B200F8024C240A00F839
:10381000014CECE7014B1860704700BF000000202E
:10382000D0F8BC3210B56BB1D0F8B84294F80002B1
:10383000FF2807D09B6894F8012221469847FF2370
:1038400084F80032002010BD4323038000487047F5
:103850004400002043230380004870478800002074
:103860004323038000487047D80000200A230380C8
:1038700000487047CC00002038B50546D0F8B84263
:1038800000F010FFD5F8B832C4F80C024BB1D5F8EF
:10389000BC3204F50371DB68D4F8040298470020B9
:1038A00038BD0220FCE7F8B5D0F8B862D6B11423D1
:1038B00003FB0103DD698DB12827D0F8C04207FB67
:1038C0000142926BB5FBF2F402FB145434B9DC6193
:1038D0002246234600F0CAFE2046F8BD0020C6F866
:1038E0001402FAE70220F8E72DE9F7434FF0000849
:1038F0000A78054612F060040E46D0F8B8728DF8CA
:103900000580ADF8068028D0202C45D1CC884B7896
:10391000E4B1120611D5D0F8BC223946D2F808908D
:1039200018462246C847F2883946284600F045FC2A
:103930004446204603B0BDE8F08387F8003287F89C
:1039400001422246394600F04DFCF1E7D0F8BC2296
:10395000184695682246A847EBE74F780A2F0DD006
:103960000B2F15D0C7B990F89C32032B14D102222B
:103970000DF1060100F021FC3C46DAE790F89C329C
:10398000032B09D101220DF1050100F016FCD0E74F
:1039900090F89C32032BCCD03146284600F0E6FB51
:1039A0000224C6E738B504460025812100F014FE44
:1039B0000121E562204600F00FFEC4F86C5182211F
:1039C000204600F009FED4F8B83225644BB1D4F893
:1039D000BC325B689847D4F8B80200F06BFEC4F8BC
:1039E000B852002038BD037C2DE9F0410446CBBB22
:1039F0004FF4007302228121012500F0DDFD4FF418
:103A00000073E56229460222204600F0D5FDC4F885
:103A10006C510125082303228221204600F0CCFDB1
:103A200025644FF4077000F041FE0646C4F8B80262
:103A300050B30027D4F8BC321B68984794F8108024
:103A4000C6F81472C6F81872B8F1000F13D14FF40B
:103A50000073D6F804222946204600F015FE4046A1
:103A6000BDE8F081012540230222812100F0A4FD60
:103A7000E5624023C6E74023D6F8042229462046C3
:103A800000F002FE3846EBE72846E9E719B1C0F836
:103A9000BC120020704702207047D0F8B8320020D6
:103AA000C3F80812C3F810227047D0F8B8320020CB
:103AB000C3F804127047D0F8B82210B582B1D2F81A
:103AC0001442012374B9C2F81432D2F810328121A1
:103AD0000363D2F808229BB200F0C8FD204610BD57
:103AE0000220FCE71846FAE7D0F8B82210B562B118
:103AF000047CD2F8042234B94FF40073012100F0A1
:103B0000C3FD002010BD4023F8E70220FAE708B506
:103B100080B1D0F8B43213B10023C0F8B43209B187
:103B2000C0F8B0120123027080F89C3200F0F4FC5F
:103B3000002008BD0220FCE719B1C0F8B412002033
:103B400070470220704708B500F028FD002008BD2E
:103B500008B5D0F8B4320BB9022008BD1B689847ED
:103B60000028FAD0F8E708B5D0F8B4325B68984777
:103B7000002008BD38B500F52A750446284600F037
:103B8000E1FA012394F8A812C4F89432B4F8AE32E2
:103B9000C4F8983201F01F03012B0ED007D3022B7B
:103BA00010D001F08001204600F024FD03E02946FA
:103BB000204600F0F5F8002038BD2946204600F0E8
:103BC00013FAF8E72946204600F033FAF3E770B518
:103BD0000546164649BBD0F89432032B1ED1D0F8C7
:103BE0006031D0F8642193420BD99B1A9A42C0F8F5
:103BF00060318CBF9AB292B2314600F002FB0020D5
:103C000070BDD0F8B4321B6923B190F89C22032A0E
:103C100000D19847284600F0FCFAF0E7052BEED1DA
:103C2000C5F8941200F0E6FCE9E7D0F8B4329B69DD
:103C30002BB190F89C22032A01D19847DFE702209C
:103C4000DEE770B5134604460E46002947D1D0F88A
:103C50009422022A3CD1D0E90852954213D9AA1ADB
:103C60000262194692B200F0B5FA33461A46194676
:103C7000204600F009FD94F8A0320020012B01D16C
:103C800084F8A00270BDC369B3FBF2F502FB1535E1
:103C900065B99A420AD8D0F89822934206D22A46A9
:103CA00000F098FAC4F898522B46DFE7D4F8B43203
:103CB000DB682BB194F89C22032A01D12046984757
:103CC0008021204600F096FC204600F0ADFAD2E7B5
:103CD00032F00403CFD1802100F08CFCCBE7D0F888
:103CE000B4325B6933B190F89C22032A02D1984721
:103CF0000020C7E70220C5E7002270B50446012571
:103D000040261146402300F057FC33468021C4F87A
:103D10005851C4F864610022204600F04DFC002197
:103D2000D4F8B832A561666284F89C52C4F8941243
:103D30006160C4F8A41223B1D4F8B43220465B68A1
:103D40009847002070BD01740020704790F89C32A5
:103D500080F89D32042380F89C320020704790F850
:103D60009C32042B04BF90F89D3280F89C320020D6
:103D7000704708B590F89C22032A04D1D0F8B432D9
:103D8000DB6903B19847002008BD10B504468021C7
:103D900000F030FC2046BDE81040002100F02ABCB5
:103DA00037B50B78044603F06003202B0D4612D084
:103DB000402B10D0002B5BD14B78092B58D8DFE873
:103DC00013F0E90005015700FE00570084001300BE
:103DD0005700D200A000D4F8B43229469B68204690
:103DE0009847002003B030BD0023ADF806304B8863
:103DF0001A0A013A062A3BD8DFE802F004202D3ADD
:103E00003A525C00D0F8B0321B680DF10601207CFC
:103E10009847BDF8062052B1EB8843B19A4228BFBB
:103E20001A4601462046ADF8062000F0C6F9EB8898
:103E3000002BD6D1204600F0ECF9D2E7027CD0F876
:103E4000B43232B99B6A0DF10600984702234370E1
:103E5000DFE7DB6AF7E7DBB2052B09D8DFE803F021
:103E6000030C1014181CD0F8B0325B68002BCCD1B6
:103E70002046FFF78AFFB4E7D0F8B0329B68F5E739
:103E8000D0F8B032DB68F1E7D0F8B0321B69EDE76B
:103E9000D0F8B0325B69E9E7D0F8B0329B69E5E76A
:103EA000037C002BE4D1D0F8B4320DF106005B6B3B
:103EB0009847AEE7037C002BDAD1D0F8B4320DF18D
:103EC00006001B6B98470723C1E78B88002BCFD1D7
:103ED000CB88002BCCD14D887F2DC9D890F89C324F
:103EE000032BC5D0E9B280F89E1200F0B1FB20464A
:103EF00000F08FF91DB1022384F89C3271E7012391
:103F0000FAE78978374D01292970B1D890F89C32A9
:103F1000022B08D0032B14D0FFF737FF2978204657
:103F2000FFF721FE5DE7002984D0012103234160D2
:103F300080F89C322046FFF70BFE02287FF47AAF10
:103F400096E731B90223416080F89C32FFF70BFEFF
:103F500070E7416801293FF46DAFC9B2FFF703FE76
:103F600029786160E6E7CA88012A81D190F89C32FD
:103F7000002B3FF47DAF022B04D9032B7FF478AFE5
:103F8000011D03E00146002341F8083F204600F0F0
:103F900014F926E790F89C32013B022B3FF668AFFC
:103FA000CB88022B7FF464AF0123C360D0F8A43226
:103FB0000BB10323C360022204F10C01E6E74B8836
:103FC000012B7FF40EAFC4F8A43233E790F89C3293
:103FD000013B022B3FF64CAF4B88012B7FF401AF26
:103FE0000023F0E78403002038B50B78044603F083
:103FF0006003202B0D4602D0402B00D0ABB994F8C3
:104000009C32013B022B10D82B79012B0DD8D4F810
:10401000B43229469B6820469847EB881BB910B9F3
:10402000204600F0F6F8002038BD2046FFF7ADFE30
:10403000F9E738B50A78044602F06002202A0B46F8
:1040400014D0402A12D06AB95A788D88012AE9B270
:1040500020D036D3032A05D190F89C22022A27D0FB
:10406000032A0BD02046FFF790FE05E0D4F8B422D7
:104070001946926820469047002038BD5A882AB9D0
:104080004A0603D0DB880BB900F0B4FA204600F0F2
:10409000C0F8F1E790F89C22022A09D0032AE1D166
:1040A0005B88002BE8D14D06F0D000F0B1FAEDE7C7
:1040B0004B06D7D000F09EFA8021204600F09AFAF5
:1040C000DAE790F89C32022B18D0032BCAD11423C4
:1040D00001F00F0215F0800F03FB02021FD092695E
:1040E000002ABFD001F07F0505FB0335054411F020
:1040F0007F031FD12B60022229460CE04A06B1D172
:104100002B064FF000034FF002024CBF00F11401E8
:1041100000F5AA710B60204600F04FF8ACE7D2F82A
:104120005821002A9ED001F07F0503FB050505F507
:10413000AA75DCE7204600F079FA08B10123D9E737
:104140002860D8E70B7803704B784370CA788B7877
:1041500003EB022343804A790B7903EB022383802C
:10416000CA798B7903EB0223C380704710B50446EC
:10417000802100F03FFA2046BDE81040002100F009
:1041800039BA30B588B105462B1A15F8014BDBB2A8
:10419000002CF9D101335B0013800B7003234B70AB
:1041A0000223013810F8015F05B930BD5A1CCD5407
:1041B000D2B20233DBB28C54F4E71346022210B5BC
:1041C000C0F89422C0E907330A46002100F04EFAF5
:1041D000002010BD08B513460A46002100F046FA3B
:1041E000002008BD1346032210B5C0F89422C0F881
:1041F0005C310A46C0F86031002100F045FA002029
:1042000010BD08B513460A46002100F03DFA002013
:1042100008BD08B50423C0F8943200231A46194695
:1042200000F024FA002008BD08B50523C0F8943238
:1042300000231A46194600F027FA002008BD0000A6
:1042400008B500220E490F48FFF761FC08B1FDF7E1
:1042500067FB0D490B48FFF76FFC08B1FDF760FBEA
:104260000A490848FFF712FC08B1FDF759FB054859
:10427000FFF769FC18B1BDE80840FDF751BB08BD68
:104280002C010020800600200C0000201C010020D2
:104290000020704700207047F8B51A4E044696F883
:1042A0009C32032B2CD158B30D684DB321463046B8
:1042B000FFF7FBFB0028F9D1124E3046FFF714FC44
:1042C0000028FAD1214601260F4B2544A94201D1ED
:1042D0000020F8BD0F4693F865400131621CD2B250
:1042E00083F8652011F801CC622A88BF83F8650045
:1042F00003F804C03A780A2A08BF83F86460E5E747
:104300000220E6E7800600201606002010B5064CC5
:10431000002206492046FFF7C0FB05492046FFF76B
:10432000C4FB002010BD00BF800600202C0D002023
:104330004409002010B5094C0A46D4F8B832D3F825
:10434000143243B901462046FFF7A7FB2046BDE8DB
:104350001040FFF7B0BB012010BD00BF8006002059
:10436000122301480B8070474801002004230148B4
:104370000B8070475C010020002370B51E46050FBE
:10438000ECB2092D94BF3034373401F8134001EBFF
:10439000430401336670DCB2A2424FEA0010EED84B
:1043A00070BD00001A2310B50B80094B1868083344
:1043B0001B68C0180AD0074B08221C680649FFF783
:1043C000DBFF042205492046FFF7D6FF044810BD55
:1043D000E8F7FF1FECF7FF1F6201002072010020C9
:1043E0006001002010B5044C0A4604482146FFF73E
:1043F000C8FE204610BD00BF1411002051A60008C1
:1044000010B5044C0A4604482146FFF7BAFE204680
:1044100010BD00BF1411002061A6000810B5044CA7
:104420000A4604482146FFF7ACFE204610BD00BFF7
:104430001411002038A6000810B5044C0A460448A0
:104440002146FFF79EFE204610BD00BF141100203C
:1044500043A6000807B50E4B02689A4215D103F532
:10446000DA33DA69142042F40002DA610022DB69EF
:10447000114603F400030193019BFDF745FB142053
:1044800003B05DF804EBFDF773BB03B05DF804FB0C
:10449000005C004000F52C71D0F8E802FFF76ABB21
:1044A000282303FB0103D0F8E802D3F87C21FFF7AF
:1044B0008EBB282303FB0103D0F8E802DA6BFFF779
:1044C000C0BBD0F8E802FFF754BC836810B5022BDC
:1044D000044601D0FDF724FAD4F8E8020121FFF7E1
:1044E00032FCD4F8E802BDE81040FFF705BC00003C
:1044F00010B50446D0F8E802FFF728FCA36923B101
:10450000024A136943F00603136110BD00ED00E099
:10451000D0F8E802FFF723BC082310B51D4A044673
:104520001D48C0E90023022383600023C0F8E8424D
:10453000C4F8C002C0E906330362FDF73DFB08B1D1
:10454000FDF7EEF9002218231146D4F8C002FEF759
:10455000F7F8582300228021D4F8C002FEF7F0F8C3
:10456000C02300228121D4F8C002FEF7E9F84FF4FD
:10457000887300220121D4F8C002FEF7E1F84FF45D
:10458000807300228221D4F8C002FEF7D9F80020FF
:1045900010BD00BF005C00401413002008B5D0F827
:1045A000C002FDF781FB032896BF024B0220185C76
:1045B00008BD00BF73A6000810B51C46D0F8C002A5
:1045C00013462246FDF7C0FF032896BF014B022089
:1045D000185C10BD73A6000808B5D0F8C002FDF73E
:1045E000E5FF032896BF024B0220185C08BD00BF00
:1045F00073A6000808B5D0F8C002FEF73BF8032800
:1046000096BF024B0220185C08BD00BF73A60008CD
:1046100008B5D0F8C002FEF761F8032896BF024B38
:104620000220185C08BD00BF73A60008282211F004
:10463000800FD0F8C0021BBF01F07F0303FB0221F3
:1046400002FB0101091814BF887891F86A017047CC
:1046500008B5D0F8C002FDF740FB032896BF024B17
:104660000220185C08BD00BF73A6000808B5D0F88A
:10467000C002FDF7E5FF032896BF024B0220185C3D
:1046800008BD00BF73A6000808B5D0F8C002FDF74A
:10469000B6FF032896BF024B0220185C08BD00BF7E
:1046A00073A60008D0F8C002FDF7C2BF00487047EB
:1046B000880300207047704780B52A4800F06EFBE1
:1046C000294800F0F6FA294800F0C0FD284800F01B
:1046D00031FB284B284A0121224800F063FB0221CC
:1046E000244B254A1F4800F05DFB4FF080431A68B9
:1046F000224842F001021A601A6A4AF6AA2642F0DB
:1047000001021A621A6A1E4D42F010021A621D4A14
:10471000154CD36843F02003D36000F0A7F800F0F5
:10472000B9F80021114801F075FA01210F4800F095
:10473000C1FE154A03210C4800F0E4FA0B4F38463D
:104740002E6000F09FFC084800F0E4FA00F0E2F868
:104750000028F4D047F230520121204600F0D2FA6E
:10476000ECE700BFE4160020D4160020101600204D
:1047700000160020000048420000204177A60008F3
:104780000030004000380140E093040001207047F1
:10479000F8B5124B064693F864300C466BB10346ED
:1047A0000F4A991BA14201DB2046F8BD13F8011BFB
:1047B00010680006FCD55160F3E70A4B93F86430AB
:1047C00053B1094D8FB239463046FFF7B3FD01288A
:1047D000EAD1013DF7D1E7E71C46E5E7B005002047
:1047E000003801401606002040420F0008461146DE
:1047F000FFF7CEBF08B509210248FFF7C9FF012026
:1048000008BD00BF1FA8000810B50CB29AB0204622
:1048100002F090FC22460346054901A804F02CFA58
:10482000014601A8FFF7B4FF00201AB010BD00BF79
:104830000BA8000800B501299DB013460BD109490A
:1048400003A804F019FA014603A8FFF7A1FF01200D
:104850001DB05DF804FB009203A80A46024904F06B
:104860000BFAF0E7DFA70008F2A7000870B50446CE
:104870000546074E2046FBF775FC2B1B984200D8D7
:1048800070BD15F8013B32681206FCD57360F1E784
:10489000003801400023134A00B582F8643082F8E2
:1048A0006530114A89B082F8643082F8653011238E
:1048B00007930E4B0E4A06934FF4807305930D4BEE
:1048C0000D4904930D4B0E4803930E4B02930E4B70
:1048D00001930E4B00930E4B03F040FA09B05DF8C4
:1048E00004FB00BFB005002016060020C8180020F9
:1048F0007C010020C817002040A8000893AD0008E4
:10490000F416002029A800082FA8000851A60008C6
:1049100000AE000838B5154C94F864508DB194F889
:1049200065202146124803F0B7FD6422002120468D
:1049300004F0E4F8002384F8653084F86430012042
:1049400038BD0C4C94F864000028F9D094F8652028
:104950002146074803F0A0FD64222946204604F0C2
:10496000CDF884F8655084F86450E8E7B00500207D
:10497000F4160020160600200D4B1A68920616D574
:104980006FF020021A605A680A4BD2B293F86500A1
:10499000411CC9B2622983F8651084BF002183F8E5
:1049A00065100A2A1A5404BF012283F86420704754
:1049B00000380140B0050020054B1A68D20705D524
:1049C0006FF0010203481A6000F094BB704700BF0B
:1049D000002401401016002000BF7047254B10B581
:1049E0001B699B0744D5244CD4F8B5301BB97521FD
:1049F000224802F0FEF8D4F8B9301BB976211F48DE
:104A000002F0F7F8D4F8B530D4F8B910DA881C4BB6
:104A10000B4413F8013CD4F8951003F1804303F5DF
:104A200000335B689BB2D31A013B48BF02F1FF33EE
:104A3000C4F899305B1A48BF9B18C4F89D30D4F86D
:104A40009D20D4F8AD309A420EDB00210A4800F0D8
:104A500031FD084AD36823F00203D360012384F8B0
:104A60008830002384F886306FF00202014B1A610F
:104A700010BD00BF0004004010160020D5AA000899
:104A8000CEAA0008054B1A69D20706D56FF00102BD
:104A90001A61034AD3680133D3607047002C014088
:104AA00000160020044B5A69920704D502220348DD
:104AB0005A6100F089BB70470004014010160020C5
:104AC000044B5A69520704D5042203485A6100F086
:104AD0007BBB70470004014010160020044B5A694C
:104AE000120704D5082203485A6100F06DBB7047D5
:104AF0000004014010160020044B5A69D20604D568
:104B0000102203485A6100F05FBB70470004014067
:104B1000101600200023037143718371C371006874
:104B200008B103F0ADBF704700280DDB0122430937
:104B300000F01F0002FA00F0044A203342F823007C
:104B4000BFF34F8FBFF36F8F704700BF00E100E0EE
:104B500030B54FF4407393FAA3F3B3FA83F31F24F1
:104B600000F44072074DDA4055F8223000F01F0083
:104B7000844001F01F0123EA04038140194345F8F2
:104B8000221030BD2C24014070B54FF0007393FA11
:104B9000A3F3B3FA83F300F000740F4DDC4055F833
:104BA000242000F0F8704FF0F87393FAA3F1B1FAF3
:104BB00081F193FAA3F3B3FA83F3072620FA01F104
:104BC000D840062306FA01F122EA010203FA00F0B6
:104BD000104345F8240070BD0C24014010B50F4C63
:104BE000214411F8011C01F1804101F500310C68EC
:104BF00024F001040C608860CA600A68029822F4FC
:104C0000407202430A604A68120C120413434B605C
:104C10000B6843F001030B6010BD00BF00AB000840
:104C20002DE9F14F1E469DF82C3005460C2B0C4605
:104C3000DDF828901FFA82F88FB219D14FEA410BA4
:104C4000584603F015FFA5F804802860EF805A4607
:104C50000021824603F052FF4FF480730A935246BC
:104C600023464946304601B0BDE8F04FFFF7B6BFD6
:104C7000082B08460CD103F0FBFEA5F80480286041
:104C8000EF8022460021824603F038FF0023E5E74B
:104C900003F0EEFE224600212860A5F80480EF8094
:104CA000814603F02BFF00234A460A930621234640
:104CB000D8E70023C0E90133C3607047C160064BE9
:104CC00021B91A6942F400521A6170475A6942F4D4
:104CD00000525A61704700BF00100140C368084A83
:104CE00043B1116941F400511161B3FA83F35B09D7
:104CF000C3607047516941F400515161F5E700BF4D
:104D00000010014049000139C0E900128260012110
:104D1000FFF7D4BF0268002A0BDD8168002902DD9D
:104D20000139816070474168013A81600260FFF794
:104D3000D5BF704773B50446C82003F099FE6426BA
:104D400000210023E160A360A1712060A680C82239
:104D5000054603F0D3FE4FF480732A4600930221E8
:104D600033460248FFF73AFF02B070BD342C0140D1
:104D7000094B1A6841B142F001021A601A6A42F006
:104D800001021A628171704722F001021A601A6AE8
:104D900022F00102F5E700BF002C01400023038050
:104DA000704700002DE9F04398464B1E012B85B05B
:104DB00004460E46914647D94FF48B71294801F0BD
:104DC00018FF10214FF080452B6A04AF23EA01033E
:104DD0002B62012302930023484647F8043DFCF769
:104DE00081F94FF6FF72394600901F4B02A802F07E
:104DF0001AF8029B60600398012BE862C8BFAB629F
:104E0000FBF756FF074619494046FCF759F8394663
:104E1000FBF7A2FFFCF766F90546FBF749FF3946A9
:104E2000FCF74EF81149FBF797FF012E4FF0804336
:104E30000FD1A0605D6322781AB11A6A42F00102B4
:104E40001A6205B0BDE8F083012914BF10210121C9
:104E5000B8E7E0609D636278002AF2D01A6A42F0F7
:104E60001002EDE707AB0008005125020000C84220
:104E70000023012280F8873080F8883080F889305C
:104E800080F88A3080F88B3080F88C3080F882305F
:104E900080F8833080F8843080F8853080F88D3059
:104EA00080F88E3080F88F3080F8903080F8913024
:104EB00080F8923080F8933080F8943080F8953004
:104EC00080F8963080F8973080F8983080F89930E4
:104ED00080F89A3080F89B3080F89C3080F89D30C4
:104EE00080F89E3080F89F3080F8A03080F8A130A4
:104EF00080F8A23080F8A33080F8B920072280F82B
:104F0000A43080F8A53080F8A63080F8A73080F86B
:104F1000A83080F8863080F8AD3080F8AE3080F868
:104F2000AF3080F8B03080F8A93080F8AA3080F82F
:104F3000AB3080F8AC3080F8B13080F8B23080F817
:104F4000B33080F8B43080F8B53080F8B63080F8EF
:104F5000B73080F8B83080F8BA3080F8BB3080F8CD
:104F6000BC3080F8BD2080F8BE3080F8BF3080F8BB
:104F7000C03070472DE9F843D0F8B53004460E46EE
:104F8000154623B940F2C911384801F032FE013606
:104F900012D1D4F8B530D4F8B920D988344B1344A1
:104FA00013F8013C03F1804303F50033586880B2E5
:104FB000081A01F033FF0546012384F88630D4F83F
:104FC0008930C4F895500133C4F88930D4F8B5302D
:104FD000DE883046FBF768FEFBF730FA89468046EC
:104FE000E76CC7F16400FBF763FEFBF727FA0022CA
:104FF000204BFBF7A5FB42464B46FBF777FAFBF746
:1050000025FDC4F8AD003846FBF752FEFBF716FA53
:105010000022184BFBF794FB4B464246FBF766FA1F
:10502000FBF714FD94F84B30281A48BF8019022B67
:10503000C4F8910014D0104A104B51680B405360D3
:105040000F4AD36843F00203D360002384F8A530ED
:1050500084F8A63084F8A73084F8A830BDE8F88337
:10506000D4F8BD0040B2FFF75FFDE9E707AB0008E9
:1050700000AB00080000594000240140E0FD3FFF64
:10508000000400401A4AD0F8A110136810B49942E5
:105090001368D0F8A54088BF03F1FF3323445B1A9F
:1050A000C0F8A5301368C0F8A13090F8503093B91B
:1050B00090F88630D3B990F88830BBB9D0F8A930D1
:1050C000D0F8A5206333934210DA4FF0FF3210BCC2
:1050D0001146FFF74FBF022B08D1D0F8B130D0F8FE
:1050E000A5209A42A4BF012380F8883010BC7047E5
:1050F0007C06002010B5D0F8B530044623B94FF433
:10510000B9712F4801F075FDD4F8B93023B940F2D8
:1051100073112B4801F06DFDD4F8B530D4F8B920E7
:10512000D988284B134413F8013C03F1804303F55D
:105130000033586880B2081A01F070FE94F8883085
:10514000024603BBD4F8B5108B88C31A48BFC88881
:10515000096848BF1B1894F83200082807BF885C0C
:10516000CB5C31F8120031F8133094F8511059B972
:10517000D4F85610884201DD99420DDAD4F88D300A
:105180000133C4F88D3010BD0129F7D1D4F8561081
:105190008842F3DA9942F1DCD4F8A510D4F8A930AA
:1051A0009942EBDD0023114684F8A53084F8A6303F
:1051B00084F8A73084F8A8302046FFF7DBFEDDE74F
:1051C00007AB000800AB000810B5D0F8B5300446B6
:1051D00023B94FF4DC711B4801F00BFDD4F8B93052
:1051E00023B940F2B911174801F003FDD4F8B530E6
:1051F000D4F8B920D988144B134413F8013C03F1B7
:10520000804303F50033586880B2081A01F006FEA7
:1052100094F8883002469BB9D4F8A500D4F8A910B8
:1052200088420DDD84F8A53084F8A63084F8A730D4
:1052300084F8A8302046BDE810401146FFF79ABE1A
:1052400010BD00BF07AB000800AB0008F8B504466E
:105250000025FFF70DFE6FF00B0701230C26DFF88A
:10526000CCC1DFF8CCE180F83C3080F8333080F8F6
:105270003430C0F837C080F83B7080F83D6080F86B
:10528000355080F83650C4F842E06FF0170E3222E5
:1052900007214FF0FF3084F846E04FF0030E84F80A
:1052A000691084F8643084F85E2084F8483084F80B
:1052B0003E3084F83F3084F8403084F8413084F840
:1052C00047E084F8680084F86A5084F86B5084F8EA
:1052D000655084F8665084F8675084F8635084F809
:1052E000625084F85F5084F8605084F8615084F80C
:1052F0006C5084F86D5084F86E5084F8763084F8E1
:10530000702084F8313084F8283084F8293084F80B
:10531000571084F85230C4F82CC084F8560084F832
:105320006F50204684F87A5084F87B5084F87C5083
:1053300084F87D5084F8775084F8785084F8795058
:1053400084F8755084F8745084F8715084F8725061
:1053500084F8735084F8307084F8326084F82A50EE
:1053600084F82B5084F85A5084F85B5084F85C50D1
:1053700084F85D5084F8585084F8595084F853509C
:1053800084F84C2084F8545084F8555084F85150D7
:1053900084F8505084F84D5084F84E5084F84F50A3
:1053A00084F84B50FFF7B6FB04F10800FFF7B2FB9F
:1053B00004F11000FFF7AEFB04F11800FFF7AAFBA1
:1053C00004F12000FFF7A6FB174B84F84A5084F83D
:1053D00049509A6884F8B55042F0010284F8B650FA
:1053E00084F8B75084F8B8509A609A6842F4000282
:1053F0009A609A68996802F4807221F480719960C9
:10540000996841F00401996099684907FCD44FF408
:105410007A7300BF013BFCD103498B6823F480738E
:1054200013438B60F8BD00BF0024014000007A44A4
:105430000050C34700211E4A10B51368044623F0EC
:1054400001031360C28880F8881080F8891080F802
:105450008A1080F88B1080F88C1080F88D1080F8FE
:105460008E1080F88F1080F8901080F8A51080F8CA
:10547000A61080F8A71080F8A81080F8861012B146
:10548000006803F03BFBE2891AB10021A06803F039
:1054900035FBE28A1AB10021206903F02FFBE28B71
:1054A0002AB1A0690021BDE8104003F027BB10BD60
:1054B0000004004038B590F84A3004460D4613B158
:1054C00090F8493023BB94F84B30012B29D82A4B54
:1054D0009A68F5B142F480129A6094F85030022B29
:1054E0000FD0D4F8823023B94FF48961234801F0FA
:1054F00080FB2149224A4868D4F882300240134395
:105500004B60204A136843F00103136084F84A504B
:1055100038BD22F480129A605968194A0A405A60CC
:10552000EFE7D4F8BD3023B940F22B41134801F026
:1055300060FB154B1A68ADB142F001021A6094F895
:105540005030022BDDD0D4F8BD2053B2002BD8DB75
:10555000012102F01F0201FA02F20C495B0941F835
:105560002320CEE722F001021A60D4F8BD0040B239
:10557000FFF7DAFAC5E700BF0024014007AB0008D7
:10558000E0FD3FFF000400406C00024000E100E04D
:105590002DE9F04F642A85B004460D4617469A4619
:1055A0009DF838B004D94FF0FF3005B0BDE8F08F5A
:1055B0000429F8D80F9B013B622BF4D80021FFF798
:1055C00079FF2046FFF736FF00260123C4F8B540D7
:1055D00084F8B93084F8BA6084F8BB6084F8BC60A1
:1055E000E06AFAF72BFF02460B460020BB49FBF7A7
:1055F000A7F88046208E8946FBF756FBFAF71EFF78
:1056000002460B4640464946FAF770FF0022B44B6B
:10561000FAF76CFFFBF71AFAC4F8B10015B1BBF149
:10562000020F1ED1D4F8BD3023B940F24121AD485C
:1056300001F0DFFAD4F8BD0040B2FFF775FAAA4ACC
:10564000AA4B516800200B405360022384F852009B
:1056500084F8530084F8540084F8550084F85030DE
:10566000A3E794F84B10022940F0938006239E4A4A
:1056700084F8B93050689D4B0340536094F828304B
:10568000CDE90266002B51D0072384F8BD304FF4DA
:10569000700384F8BE6084F8BF6084F8C060DAB23A
:1056A000920002F1804202F5803290681B0C20EAE1
:1056B000030093FAA3F3012594F851309060002B76
:1056C00014BF02232B4602A802918DF80E308DF8EC
:1056D0000C50FDF7A5F8D4F8BD3085495AB2002A20
:1056E000C8684FDB0026A1F5406103F01F0388184E
:1056F00005FA03F3520980F8006341F822300023D1
:1057000084F8563084F8573084F8583084F859308B
:1057100084F85A3084F85B3084F85C3084F85D306B
:1057200020460121FFF7C6FE00203EE794F829201D
:1057300062B1082284F8BE3084F8BF3084F8C030EB
:1057400084F8BD2004214FF07063A8E794F82A3054
:1057500063B1092384F8BE2084F8BD3084F8BF20EB
:1057600084F8C02008214FF0704398E70A2284F89B
:10577000BE3084F8BF3084F8C03084F8BD201021DA
:105780005C4B8CE7002203F00F03043B0B441A76BA
:10579000B5E7D4F8BD3023B940F27F21514801F07C
:1057A00028FAD4F8BD0040B2FFF7BEF9012D0AD1A6
:1057B00094F82830002B3FF4F6AE84F88250022390
:1057C00084F883300AE0022D6ED194F82930002B42
:1057D0003FF4E9AE84F8825084F883506FF07F0381
:1057E00084F884300023404E84F8853071683F4A45
:1057F000D4F882300A401343736094F8323040F694
:10580000FF780C2B18BF4FF0FF084046FBF74CFA0F
:10581000FAF714FE0022384BFAF792FFCDE90001A7
:105820003846FBF741FAFAF709FE02460B46DDE976
:105830000001FAF75BFEFBF709F93049DFF8C0C059
:10584000BAF1000F3ED1736A03EA0C033B43736263
:105850004B6803EA0C034B60C4F85600C4F85A7056
:10586000D4F8B100FBF724FAFAF7E8FD06460F98E2
:105870000F46FBF71DFAFAF7E1FD00221E4BFAF77F
:105880005FFF0B46024639463046FAF72FFEFBF71C
:10589000DDF80F9BC4F8A900E36484F850B084F8E5
:1058A00051A0C4F852503BE7032D02D194F82A309E
:1058B00080E794F82B30002B3FF475AE042384F876
:1058C00082307CE7726A02EA0C0242EA08027262E3
:1058D0004B6803EA0C033B43BDE700BF0000F03F09
:1058E00000408F4007AB000800240140E0FD3FFF6F
:1058F00000ED00E001000F000000594024240140A9
:1059000000F0FFFF37B5C56C90F85130D0F85A2041
:10591000D0F85210019590F85040D2B20094FFF7A1
:1059200037FE03B030BD07B5C16C90F85130D0F8E8
:105930005A2001910221D2B200910021FFF728FEE6
:1059400003B05DF804FB00002DE9F74304460D4663
:105950000021FFF7AFFD2046FFF76CFD2046FFF763
:10596000D9F804F10800FFF7D5F804F11000FFF7AB
:10597000D1F804F11800FFF7CDF804F12000FFF78B
:10598000C9F894F8326094F84B300C2E07BF6A00C7
:1059900041F288372A4642F21077022B2FD094F832
:1059A000290094F82830034494F82A00034494F81A
:1059B0002B00184400F1010909FB05F808F1FF3339
:1059C0004344BB4230DCA084504380B2E08403F007
:1059D0004FF801234A4641460093154B2062019639
:1059E0002046FFF71DF920462586FFF78BFF20464E
:1059F0000121FFF75FFD002003B0BDE8F083AF4257
:105A000012DB0023042784F8253084F82470E58411
:105A1000284603F02DF80622064B2062DB68294653
:105A2000009201963A46DBE76FF00100E4E700BF21
:105A30004C2401400008014038B501F0FB03082B5D
:105A4000044601D0012917D194F84B3084F8321064
:105A5000012B14D800212046FFF72CFD2046FFF72C
:105A6000E9FC218E2046FFF76FFF01210546204605
:105A7000FFF720FD284638BD4FF0FF35FAE7002537
:105A8000F8E700002DE9FF410E46054600213046AB
:105A9000FBF700FB78BB19493046FBF719FB0446BE
:105AA00048BB01270146EE622846FFF703FD284662
:105AB000FFF7C0FC0DF11008304648F8047D02974E
:105AC000FBF710FB414600900D4B4FF6FF7202A80A
:105AD00001F0A9F90B4B029AE8629A62039A2846F0
