:020000040800F2
:100000000050002065190008091900080B190008A4
:100010000D1900080F190008111900080000000050
:100020000000000000000000000000005B6100080C
:1000300013190008000000005F6100084561000816
:10004000AD190008AD190008AD190008AD19000878
:10005000AD190008AD1900086D630008FD620008C5
:10006000196300083563000851630008AD190008E2
:10007000AD190008AD190008AD190008AD19000848
:10008000AD190008AD190008F1610008AD190008AC
:1000900015190008AD190008AD190008AD190008C0
:1000A000AD190008A9620008AD190008CD6200086A
:1000B000AD19000811620008AD190008AD1900085B
:1000C000AD190008AD190008AD190008AD190008F8
:1000D000AD19000865610008AD190008AD190008E8
:1000E000AD190008AD190008AD19000800000000A6
:1000F0000000000000000000000000000000000000
:0C01000000000000000000005FF808F1A3
:1001100010B5054C237833B9044B13B10448AFF341
:1001200000800123237010BD680300200000000040
:10013000A8C0000808B5034B1BB103490348AFF33F
:10014000008008BD000000006C030020A8C000086B
:1001500010F8012B11F8013B012A28BF9A42F7D071
:10016000D01A7047034613F8012B002AFBD1181A46
:100170000138704781F0004102E000BF83F0004386
:1001800030B54FEA41044FEA430594EA050F08BF32
:1001900090EA020F1FBF54EA000C55EA020C7FEAF6
:1001A000645C7FEA655C00F0E2804FEA5454D4EB73
:1001B0005555B8BF6D420CDD2C4480EA020281EA3D
:1001C000030382EA000083EA010180EA020281EA75
:1001D0000303362D88BF30BD11F0004F4FEA0131C7
:1001E0004FF4801C4CEA113102D0404261EB4101D6
:1001F00013F0004F4FEA03334CEA133302D052425C
:1002000063EB430394EA050F00F0A780A4F1010417
:10021000D5F1200E0DDB02FA0EFC22FA05F2801851
:1002200041F1000103FA0EF2801843FA05F3594137
:100230000EE0A5F120050EF1200E012A03FA0EFCB6
:1002400028BF4CF0020C43FA05F3C01851EBE371E0
:1002500001F0004507D54FF0000EDCF1000C7EEBFD
:1002600000006EEB0101B1F5801F1BD3B1F5001F3B
:100270000CD349085FEA30004FEA3C0C04F101045A
:100280004FEA445212F5800F80F09A80BCF1004F83
:1002900008BF5FEA500C50F1000041EB045141EA05
:1002A000050130BD5FEA4C0C404141EB010111F406
:1002B000801FA4F10104E9D191F0000F04BF0146B1
:1002C0000020B1FA81F308BF2033A3F10B03B3F18F
:1002D00020020CDA0C3208DD02F1140CC2F10C021F
:1002E00001FA0CF021FA02F10CE002F11402D8BF7D
:1002F000C2F1200C01FA02F120FA0CFCDCBF41EA49
:100300000C019040E41AA2BF01EB0451294330BD17
:100310006FEA04041F3C1CDA0C340EDC04F11404F4
:10032000C4F1200220FA04F001FA02F340EA0300CB
:1003300021FA04F345EA030130BDC4F10C04C4F111
:10034000200220FA02F001FA04F340EA03002946F1
:1003500030BD21FA04F0294630BD94F0000F83F43B
:10036000801306BF81F480110134013D4EE77FEA1E
:10037000645C18BF7FEA655C29D094EA050F08BF6A
:1003800090EA020F05D054EA000C04BF194610464B
:1003900030BD91EA030F1EBF0021002030BD5FEA8F
:1003A000545C05D14000494128BF41F0004130BDB7
:1003B00014F580043CBF01F5801130BD01F000450B
:1003C00045F0FE4141F470014FF0000030BD7FEA7E
:1003D000645C1ABF194610467FEA655C1CBF0B4679
:1003E000024650EA013406BF52EA033591EA030F90
:1003F00041F4002130BD00BF90F0000F04BF002188
:10040000704730B54FF4806404F132044FF00005BA
:100410004FF0000150E700BF90F0000F04BF002133
:10042000704730B54FF4806404F1320410F0004599
:1004300048BF40424FF000013EE700BF42004FEA94
:10044000E2014FEA31014FEA02701FBF12F07F4311
:1004500093F07F4F81F06051704732F07F4208BFC8
:10046000704793F07F4F04BF41F40021704730B5CF
:100470004FF4607401F0004521F000411CE700BF1B
:1004800050EA010208BF704730B54FF000050AE09E
:1004900050EA010208BF704730B511F0004502D59F
:1004A000404261EB41014FF4806404F132045FEAA1
:1004B000915C3FF4D8AE4FF003025FEADC0C18BF4A
:1004C00003325FEADC0C18BF033202EBDC02C2F13C
:1004D000200300FA03FC20FA02F001FA03FE40EACE
:1004E0000E0021FA02F11444BDE600BF70B54FF0D2
:1004F000FF0C4CF4E06C1CEA11541DBF1CEA1355B0
:1005000094EA0C0F95EA0C0F00F0DEF82C4481EA17
:10051000030621EA4C5123EA4C5350EA013518BF37
:1005200052EA033541F4801143F4801338D0A0FB24
:1005300002CE4FF00005E1FB02E506F00042E0FBD1
:1005400003E54FF00006E1FB03569CF0000F18BFD7
:100550004EF0010EA4F1FF04B6F5007F64F540747F
:1005600004D25FEA4E0E6D4146EB060642EAC62112
:1005700041EA55514FEAC52040EA5E504FEACE2E7F
:10058000B4F1FD0C88BFBCF5E06F1ED8BEF1004F82
:1005900008BF5FEA500E50F1000041EB045170BDFE
:1005A00006F0004646EA010140EA020081EA030142
:1005B000B4EB5C04C2BFD4EB0C0541EA045170BD3E
:1005C00041F480114FF0000E013C00F3AB8014F1B8
:1005D000360FDEBF002001F0004170BDC4F1000401
:1005E000203C35DA0C341BDC04F11404C4F1200582
:1005F00000FA05F320FA04F001FA05F240EA0200DD
:1006000001F0004221F0004110EBD37021FA04F612
:1006100042EB06015EEA430E08BF20EAD37070BDCC
:10062000C4F10C04C4F1200500FA04F320FA05F02B
:1006300001FA04F240EA020001F0004110EBD3702D
:1006400041F100015EEA430E08BF20EAD37070BD9D
:10065000C4F1200500FA05F24EEA020E20FA04F376
:1006600001FA05F243EA020321FA04F001F0004125
:1006700021FA04F220EA020000EBD3705EEA430E96
:1006800008BF20EAD37070BD94F0000F0FD101F0C5
:100690000046400041EB010111F4801F08BF013CFE
:1006A000F7D041EA060195F0000F18BF704703F03C
:1006B0000046520043EB030313F4801F08BF013DC3
:1006C000F7D043EA0603704794EA0C0F0CEA13557F
:1006D00018BF95EA0C0F0CD050EA410618BF52EA39
:1006E0004306D1D181EA030101F000414FF000003F
:1006F00070BD50EA410606BF1046194652EA43064D
:1007000019D094EA0C0F02D150EA013613D195EAC0
:100710000C0F05D152EA03361CBF104619460AD108
:1007200081EA030101F0004141F0FE4141F4700112
:100730004FF0000070BD41F0FE4141F4780170BD02
:1007400070B54FF0FF0C4CF4E06C1CEA11541DBF67
:100750001CEA135594EA0C0F95EA0C0F00F0A7F869
:10076000A4EB050481EA030E52EA03354FEA013196
:1007700000F088804FEA03334FF0805545EA1313A9
:1007800043EA12634FEA022245EA111545EA106571
:100790004FEA00260EF000419D4208BF964244F108
:1007A000FD0404F5407402D25B084FEA3202B61A27
:1007B00065EB03055B084FEA32024FF480104FF4FB
:1007C000002CB6EB020E75EB030E22BFB61A75466F
:1007D00040EA0C005B084FEA3202B6EB020E75EB02
:1007E000030E22BFB61A754640EA5C005B084FEA6A
:1007F0003202B6EB020E75EB030E22BFB61A754637
:1008000040EA9C005B084FEA3202B6EB020E75EB41
:10081000030E22BFB61A754640EADC0055EA060E02
:1008200018D04FEA051545EA16754FEA06164FEA45
:10083000C30343EA52734FEAC2025FEA1C1CC0D1F1
:1008400011F4801F0BD141EA00014FF000004FF07E
:10085000004CB6E711F4801F04BF01430020B4F13F
:10086000FD0C88BFBCF5E06F3FF6AFAEB5EB030CF7
:1008700004BFB6EB020C5FEA500C50F1000041EBF4
:10088000045170BD0EF0004E4EEA113114EB5C04C1
:10089000C2BFD4EB0C0541EA045170BD41F4801194
:1008A0004FF0000E013C90E645EA060E8DE60CEA9C
:1008B000135594EA0C0F08BF95EA0C0F3FF43BAFB9
:1008C00094EA0C0F0AD150EA01347FF434AF95EA70
:1008D0000C0F7FF425AF104619462CE795EA0C0F54
:1008E00006D152EA03353FF4FDAE1046194622E721
:1008F00050EA410618BF52EA43067FF4C5AE50EAFB
:1009000041047FF40DAF52EA43057FF4EBAE12E7EA
:100910004FF0FF3C06E000BF4FF0010C02E000BFCB
:100920004FF0010C4DF804CD4FEA410C7FEA6C5CAE
:100930004FEA430C18BF7FEA6C5C1BD001B050EA51
:10094000410C0CBF52EA430C91EA030F02BF90EA3C
:10095000020F0020704710F1000F91EA030F58BFFB
:10096000994208BF90422CBFD8176FEAE37040F05D
:10097000010070474FEA410C7FEA6C5C02D150EAFB
:10098000013C07D14FEA430C7FEA6C5CD6D152EAB6
:10099000033CD3D05DF8040B704700BF844610467B
:1009A00062468C461946634600E000BF01B5FFF77A
:1009B000B7FF002848BF10F1000F01BD4DF808ED4A
:1009C000FFF7F4FF0CBF012000205DF808FB00BF1B
:1009D0004DF808EDFFF7EAFF34BF012000205DF875
:1009E00008FB00BF4DF808EDFFF7E0FF94BF0120C2
:1009F00000205DF808FB00BF4DF808EDFFF7CEFFC3
:100A000094BF012000205DF808FB00BF4DF808ED01
:100A1000FFF7C4FF34BF012000205DF808FB00BFD2
:100A20004FEA410C7FEA6C5C02D150EA013C0AD1EA
:100A30004FEA430C7FEA6C5C02D152EA033C02D1DC
:100A40004FF0000070474FF0010070474FEA41023D
:100A500012F5001215D211D56FF47873B3EB625210
:100A600012D94FEAC12343F0004343EA505311F037
:100A7000004F23FA02F018BF404270474FF00000C9
:100A8000704750EA013005D111F0004008BF6FF007
:100A9000004070474FF00000704700BF4FEA41022E
:100AA000B2F1E04324BFB3F5001CDCF1FE5C0DD9CC
:100AB00001F0004C4FEAC0024CEA5070B2F1004F16
:100AC00040EB830008BF20F00100704711F0804F19
:100AD00021D113F13872BCBF01F00040704741F4DE
:100AE00080114FEA5252C2F11802C2F1200C10FAE2
:100AF0000CF320FA02F018BF40F001004FEAC123C6
:100B00004FEAD32303FA0CFC40EA0C0023FA02F369
:100B10004FEA4303CCE77FEA625307D150EA01333F
:100B20001EBF4FF0FE4040F44000704701F000400F
:100B300040F0FE4040F40000704700BF80F00040ED
:100B400002E000BF81F0004142001FBF5FEA4103A5
:100B500092EA030F7FEA226C7FEA236C6AD04FEAA5
:100B60001262D2EB1363C1BFD218414048404140EA
:100B7000B8BF5B42192B88BF704710F0004F40F49C
:100B8000000020F07F4018BF404211F0004F41F4B8
:100B9000000121F07F4118BF494292EA030F3FD084
:100BA000A2F1010241FA03FC10EB0C00C3F1200397
:100BB00001FA03F100F0004302D5494260EB400026
:100BC000B0F5000F13D3B0F1807F06D340084FEA91
:100BD000310102F10102FE2A51D2B1F1004F40EB86
:100BE000C25008BF20F0010040EA030070474900EE
:100BF00040EB000010F4000FA2F10102EDD1B0FAB9
:100C000080FCACF1080CB2EB0C0200FA0CF0AABFAD
:100C100000EBC25052421843BCBFD040184370474B
:100C200092F0000F81F4000106BF80F40000013251
:100C3000013BB5E74FEA41037FEA226C18BF7FEA28
:100C4000236C21D092EA030F04D092F0000F08BF6A
:100C50000846704790EA010F1CBF0020704712F051
:100C60007F4F04D1400028BF40F00040704712F190
:100C700000723CBF00F50000704700F0004343F0F5
:100C8000FE4040F4000070477FEA226216BF08462B
:100C90007FEA23630146420206BF5FEA412390EAEE
:100CA000010F40F4800070474FF0000304E000BFE4
:100CB00010F0004348BF40425FEA000C08BF704795
:100CC00043F0964301464FF000001CE050EA010259
:100CD00008BF70474FF000030AE000BF50EA01026E
:100CE00008BF704711F0004302D5404261EB41015B
:100CF0005FEA010C02BF84460146002043F0B64380
:100D000008BFA3F18053A3F50003BCFA8CF2083AA4
:100D1000A3EBC25310DB01FA02FC634400FA02FCAD
:100D2000C2F12002BCF1004F20FA02F243EB0200B4
:100D300008BF20F00100704702F1200201FA02FC16
:100D4000C2F1200250EA4C0021FA02F243EB020009
:100D500008BF20EADC7070474FF0FF0C1CEAD0524D
:100D60001EBF1CEAD15392EA0C0F93EA0C0F6FD00E
:100D70001A4480EA010C400218BF5FEA41211ED0EC
:100D80004FF0006343EA501043EA5111A0FB0131D8
:100D90000CF00040B1F5000F3EBF490041EAD371AD
:100DA0005B0040EA010062F17F02FD2A1DD8B3F129
:100DB000004F40EBC25008BF20F00100704790F098
:100DC000000F0CF0004C08BF49024CEA502040EAEA
:100DD00051207F3AC2BFD2F1FF0340EAC2507047B0
:100DE00040F400004FF00003013A5DDC12F1190FEE
:100DF000DCBF00F000407047C2F10002410021FA60
:100E000002F1C2F1200200FA02FC5FEA310040F177
:100E1000000053EA4C0308BF20EADC70704792F0F0
:100E2000000F00F0004C02BF400010F4000F013A28
:100E3000F9D040EA0C0093F0000F01F0004C02BF23
:100E4000490011F4000F013BF9D041EA0C018FE792
:100E50000CEAD15392EA0C0F18BF93EA0C0F0AD098
:100E600030F0004C18BF31F0004CD8D180EA0100BE
:100E700000F00040704790F0000F17BF90F0004F57
:100E8000084691F0000F91F0004F14D092EA0C0F39
:100E900001D142020FD193EA0C0F03D14B0218BFCC
:100EA000084608D180EA010000F0004040F0FE4012
:100EB00040F40000704740F0FE4040F440007047AE
:100EC0004FF0FF0C1CEAD0521EBF1CEAD15392EA2D
:100ED0000C0F93EA0C0F69D0A2EB030280EA010C1D
:100EE00049024FEA402037D04FF0805343EA1111B6
:100EF00043EA10130CF000408B4238BF5B0042F114
:100F00007D024FF4000C8B4224BF5B1A40EA0C00B8
:100F1000B3EB510F24BFA3EB510340EA5C00B3EBEA
:100F2000910F24BFA3EB910340EA9C00B3EBD10FD8
:100F300024BFA3EBD10340EADC001B0118BF5FEA2A
:100F40001C1CE0D1FD2A3FF650AF8B4240EBC25053
:100F500008BF20F0010070470CF0004C4CEA502014
:100F60007F32C2BFD2F1FF0340EAC250704740F463
:100F700000004FF00003013A37E792F0000F00F055
:100F8000004C02BF400010F4000F013AF9D040EAD3
:100F90000C0093F0000F01F0004C02BF490011F467
:100FA000000F013BF9D041EA0C0195E70CEAD1535F
:100FB00092EA0C0F08D142027FF47DAF93EA0C0F46
:100FC0007FF470AF084676E793EA0C0F04D14B022A
:100FD0003FF44CAF08466EE730F0004C18BF31F0DC
:100FE000004CCAD130F000427FF45CAF31F00043D6
:100FF0007FF43CAF5FE700BF4FF0FF3C06E000BF6F
:101000004FF0010C02E000BF4FF0010C4DF804CD91
:101010004FEA40024FEA41037FEA226C18BF7FEAA1
:10102000236C11D001B052EA530C18BF90EA010FA3
:1010300058BFB2EB030088BFC81738BF6FEAE17032
:1010400018BF40F0010070477FEA226C02D15FEACE
:10105000402C05D17FEA236CE4D15FEA412CE1D03A
:101060005DF8040B704700BF844608466146FFE701
:101070000FB5FFF7C9FF002848BF10F1000F0FBDE3
:101080004DF808EDFFF7F4FF0CBF012000205DF8DC
:1010900008FB00BF4DF808EDFFF7EAFF34BF012061
:1010A00000205DF808FB00BF4DF808EDFFF7E0FFFA
:1010B00094BF012000205DF808FB00BF4DF808ED4B
:1010C000FFF7D2FF94BF012000205DF808FB00BFAE
:1010D0004DF808EDFFF7C8FF34BF012000205DF890
:1010E00008FB00BF4FEA4002B2F1FE4F0FD34FF0B2
:1010F0009E03B3EB12620DD94FEA002343F0004385
:1011000010F0004F23FA02F018BF404270474FF032
:101110000000704712F1610F01D1420205D110F0B9
:10112000004008BF6FF0004070474FF0000070476C
:1011300042000ED2B2F1FE4F0BD34FF09E03B3EB41
:10114000126209D44FEA002343F0004323FA02F06D
:1011500070474FF00000704712F1610F01D1420259
:1011600002D14FF0FF3070474FF00000704700BFD2
:10117000054B82B0DA690243DA61DB6918400190FD
:10118000019B02B0704700BF00100240054B82B0C7
:101190009A6902439A619B6918400190019B02B0D1
:1011A000704700BF0010024070B54FF0007393FA13
:1011B000A3F3B3FA83F300F000740F4DDC4055F84D
:1011C000242000F0F8704FF0F87393FAA3F1B1FA0D
:1011D00081F193FAA3F3B3FA83F3072620FA01F11E
:1011E000D840062306FA01F122EA010203FA00F0D0
:1011F000104345F8240070BD0C240140274B10B566
:101200001A6822F0070242F002021A601A6802F01D
:101210000702022AFAD1224C236843F48033236068
:1012200023689A03FCD5236843F400232360636892
:1012300023F47C1343F4E8136360236843F0807362
:10124000236023689B01FCD5636823F0F00363608F
:10125000636823F4E06343F480636360636823F4AA
:1012600060536360636823F0030343F00203636029
:10127000636803F00C03082BFAD10A4802F072FAF3
:101280000F2000F095FB636823F4404343F40043D0
:101290006360636823F48003636010BD0020024034
:1012A0000010024000A24A042DE9F04F142697B026
:1012B00000F0A2FBFFF7A2FF324600210EA809F0C2
:1012C00075F91020FFF762FF2020FFF75FFF042071
:1012D000FFF75CFF0820FFF759FF4FF400534FF072
:1012E0000108D34800240361D24B0EA9CDE90E3882
:1012F0000223CDE9103401F08FFACF4B21465A6911
:1013000009A842EA08025A615B69324603EA080307
:101310000393039BCDE90444029409F047F9324654
:1013200021460EA809F042F94FF40070FFF72EFF96
:101330000420FFF72BFF41F61E63C04F0EA938466D
:10134000CDE90E3401F068FABD4B4FF480751A6890
:10135000DFF8249322F4804222F010021A601A6807
:1013600004A942F440521A601A68484642F020022A
:101370001A601A68DFF804B322F040021A601A6893
:101380004FF4407A42F080021A601A6822F44072E8
:1013900042F480721A601A6822F4406242F4806259
:1013A0001A600494059501F0ABF916A941F8504D67
:1013B000484601F089F94FF400224FF4001309A9BF
:1013C0004846CDE90923CDE90B440D9501F0ADF96F
:1013D000D9F804309B4A1A409B4B1343C9F8043098
:1013E000D9F82430994A6FEA13336FEA0333C9F806
:1013F0002430536823F47F6323F00F035360D9F83C
:10140000043043F04003C9F804309AFAAAF24FF4CA
:101410000075B2FA82F225FA02F25BF822108C48CB
:1014200021F01F0141F011014BF82210FFF7BCFE23
:10143000D9F8082042F40002C9F808209AFAAAF262
:10144000B2FA82F225FA02F25BF82210814821F406
:10145000787141F020014BF82210FFF7A5FE9AFAAF
:10146000AAFABAFA8AFA25FA0AFA5BF82A307A480E
:1014700023F4F84343F400634BF82A304FF0200B79
:10148000FFF792FE02F084FE3246214604A809F0DE
:101490008DF85A4621460EA809F088F832462146B2
:1014A00009A809F083F840464FF0804AFFF760FE34
:1014B0004FF47A7304A94FF08040CDE90634ADF8BB
:1014C0001040059401F082FADAF80030DFF8B091AC
:1014D00023F08003CAF80030DAF808300EAA03EAD5
:1014E0000903CAF80830DAF81830414643F0080317
:1014F000CAF8183060235046CDE90E34CDE91044C7
:10150000129401F09BFADAF81830042043F0040337
:10151000CAF81830DAF80430504D23F0700343F065
:101520001003CAF80430DAF8083043F08003CAF830
:101530000830FFF72BFE092349493846CDE9091346
:10154000032309A9CDE90B3401F066F9454A214688
:1015500053680EA823F0E06323F4407343F0E06384
:1015600043F4807353601C2209F020F83246214670
:1015700009A809F01BF84FF48040FFF707FE04208C
:10158000FFF704FE092338484FF0040ACDE90903A8
:10159000032309A93846CDE90B3401F03DF9334B5B
:1015A00009A93846CDE9093A01F036F94FF4E1339B
:1015B000CDE90E340C23CDE912342D4B0EA918467B
:1015C0000193CDE91044149401F000FB019B2146E6
:1015D0001A6909A822F490421A615A6922F02A0273
:1015E0005A61DA6842F40052DA60324608F0DEFFEF
:1015F0005A4621460EA808F0D9FF0220FFF7B8FD91
:101600001C4B28461A6809A922F4804222F01002D5
:101610001A601A6842F440521A601A6842EA0B02D1
:101620001A601A6822F040021A601A682AE000BFA5
:10163000001001402000200400100240000801407A
:1016400008000240E0FD3FFF010280002424014029
:1016500011005081010030020200600200040040CD
:101660008000800400000140020002040400040421
:10167000003801406C000240002401402C2401404D
:10168000F8BFFFFF42F080021A601A6822F440722D
:101690001A601A6822F440621A604FF47A73ADF847
:1016A000243048230A940B9301930C9401F08EF993
:1016B0002A68284642F080022A60AA68414602EA67
:1016C0000902AA600EAACDE90E44CDE91044129495
:1016D00001F0B4F9AA69214622F00402AA616A68FD
:1016E00004A822F0700242EA0B026A60AA6822F0A3
:1016F0008002AA60324608F059FF5A4621460EA8D9
:1017000008F054FF3246214609A808F04FFF504622
:10171000FFF72EFD4FF47A7305F58065ADF81030B4
:10172000019B04A92846CDE90634059401F04EF941
:101730002B680EAA43F080032B60AB68414603EA96
:101740000903AB60AB69284643F00803AB61602333
:10175000CDE91044CDE90E34129401F06FF9AB6974
:10176000082043EA0A03AB61AB6823F0700343F03F
:101770001003AB60AB6823F0070343F00603AB60D4
:10178000EB6823F04003EB60EB6823F48043EB60ED
:101790006B6823F0700343EA0B036B60AB6823F0C4
:1017A0008003AB60FFF7F2FC44F2400C0923CDE963
:1017B00009C3032309A93C48CDE90B3401F02CF8F7
:1017C0003246214609A808F0F1FE324621460EA80D
:1017D00008F0ECFE4FF40060FFF7D8FC5046FFF72E
:1017E000D5FC324B0EA93846CDE90E3A01F014F87B
:1017F0002F4B05F592351A6809A922F4804222F090
:1018000010021A601A68284622F4405242F400522C
:101810001A601A6822F020021A601A6822F0400248
:101820001A601A6842F080021A601A6822F4407244
:1018300042F480721A601A6822F4406242F48062B4
:101840001A604FF6FF73ADF82440CDE90B340A94CB
:101850000D9401F0BBF82B6823F080032B60AB687C
:1018600003EA0903AB606B6823F070036B60AB683D
:1018700023F08003AB60AB6923F0030343EA080362
:10188000AB61AB6923F00C03AB61AB6923F0F003F0
:10189000AB612B6A23F00A032B6202F08BFF204618
:1018A00017B0BDE8F08F00BF000C0140010001043B
:1018B0001C00024070470000114B07B59A690F21C8
:1018C00042F001029A619A696FF0010002F0010290
:1018D0000092009ADA6942F08052DA61DB690022F4
:1018E00003F080530193019B00F0B6F8054A53685A
:1018F00023F0E06343F00073536003B05DF804FB32
:1019000000100240000001407047FEE7FEE7FEE7DE
:10191000FEE77047014800F09DB900BFAC310020E0
:101920000B4B10B51968024609B90A4919601868C5
:1019300009490A4C0244091B8A4206D908F0C4FD31
:101940000C2303604FF0FF3010BD1A60FCE700BFAE
:10195000840300200041002000500020000400000B
:1019600070470000002103E00B4B5B5843500431EB
:101970000A480B4B42189A42F6D30A4A02E0002367
:1019800042F8043B084B9A42F9D3FFF7E9FF08F00D
:10199000A1FDFFF789FC704738CB0008000000204C
:1019A000680300206803002000410020FEE70000DB
:1019B00038B50E4B054618784FF47A73B3FBF0F345
:1019C0000B4A1068B0FBF3F000F088F8044658B9F1
:1019D0000F2D09D8024629464FF0FF3000F03CF8A1
:1019E0002046044B1D6038BD0120FCE704000020A8
:1019F0000000002008000020074A08B513680320F3
:101A000043F01003136000F015F80F20FFF7D0FF2C
:101A1000FFF752FF002008BD00200240034A044B9C
:101A200011681B780B441360704700BF2009002029
:101A300004000020074A0002D36800F4E06023F4A9
:101A4000E0631B041B0C43F0BF6343F40033034308
:101A5000D360704700ED00E0174B70B5DC684FF0C5
:101A6000FF36C4F30224C4F10705042D04F1040376
:101A700028BF0425062B98BF002406FA05F388BF6B
:101A8000033C21EA0303A34006FA04F422EA040417
:101A9000002843EA0403A8BF00F160404FEA0313A3
:101AA000B8BF064ADBB2ABBF00F5614000F00F00E3
:101AB00080F80033135470BD00ED00E014ED00E039
:101AC000002808DB0123420900F01F0003FA00F0A0
:101AD000014B43F82200704700E100E00138B0F10B
:101AE000807F0AD2F021064B064A586082F8231004
:101AF0000020072298601A6070470120704700BFDD
:101B000010E000E000ED00E0F0B5044687B010B34F
:101B100090F8A93203F0FF021BB980F8A82202F066
:101B200067FC254603236E4655F8100B84F8A9324E
:101B300001F0AEF80FCD0FC62B6825463360271D88
:101B400097E80E0055F8100B01F092F8064620B108
:101B5000022384F8A93201254BE00146206801F0F8
:101B6000A1F830464FF0010E28260146D4F804C0F3
:101B7000C2B2944500F1010018D800232826194666
:101B8000D8B2844503F101031DD80FCD6E460FC6B0
:101B90002B68336097E80E00206801F085F8012378
:101BA0000546F8B1022284F8A922D4E706FB0243D5
:101BB00083F829E083F82820DA8683F82B10C3E91C
:101BC0000E111964D4E706FB004282F8691182F80D
:101BD000680182F86B11C2F87811C2F87C11C2F862
:101BE0008011CDE784F8240084F8A932206801F040
:101BF000DAFA284607B0F0BD38B590F8A8320446A6
:101C0000012B10D0012580F8A852006801F037F8A8
:101C10002946204602F01DFD206801F0C2FA00208E
:101C200084F8A80238BD0220FCE790F8A82210B57D
:101C3000012A04460BD0012280F8A82284F824103F
:101C4000006801F0A8FA002084F8A80210BD022064
:101C5000FCE700002DE9F04F044685B0006801F074
:101C6000A4FA020409D5DFF82898DFF8288820684C
:101C7000B0F844301B0400F1BC80206801F095FAF4
:101C800043050FD522682046B2F8443023F4806320
:101C90001B041B0CA2F8443002F0E5FB0021204697
:101CA000FFF7C3FF206801F080FA470408D52268D7
:101CB000B2F8443023F480431B041B0CA2F84430D8
:101CC000206801F072FA860408D52268B2F8443020
:101CD00023F400531B041B0CA2F84430206801F0CD
:101CE00064FAC5041CD522682046B2F8403023F0BF
:101CF00004031B041B0CA2F84030B2F8403023F060
:101D000008031B041B0CA2F8403002F0CFFB226832
:101D1000B2F8443023F480531B041B0CA2F8443067
:101D2000206801F042FA000541D50022236833F80B
:101D300022102DF812100132082AF8D1B3F84020F1
:101D400042F00102A3F84020B3F8402022F0010243
:101D50001204120CA3F84020B3F844205105FBD51F
:101D6000B3F8442022F480621204120CA3F8442039
:101D700000223DF8121023F822100132082AF8D16F
:101D8000B3F84020204642F00802A3F84020B3F800
:101D9000442022F400621204120CA3F84420B3F889
:101DA000402042F00402A3F8402002F06FFB2068BC
:101DB00001F0FBF982050BD522682046B2F84430C9
:101DC00023F400731B041B0CA2F8443002F047FB01
:101DD000206801F0EAF9C30508D52268B2F844305A
:101DE00023F480731B041B0CA2F8443005B0BDE83B
:101DF000F08FB0F8441089B211F00F0640F0B180B6
:101E000011F0100103882AD109EA030343F40043C7
:101E10000380B0F8503094F8282003EBC20300EBA5
:101E20004300B0F80434E26BC3F309036364134462
:101E3000E363204602F00BFB94F82430002B3FF4C0
:101E400016AF226C002A7FF412AF94F82430216878
:101E500043F08003A1F84C3084F8242007E79BB2BC
:101E600013F4006520D0B0F8503094F8682104F5E0
:101E70002C7103EBC20300EB4303B3F80C34B4F84A
:101E80006E21C3F30903C4F8843101F04FFC2268CA
:101E90002046138823F070031B051B0D43F08003BD
:101EA000138002F0C5FAE2E61F047FF5E0AE038876
:101EB00023F070031B051B0D43F080030380B0F873
:101EC000503094F8682103EBC20300EB4303B3F8EE
:101ED0000C34C3F30903C4F884318BB1D4F87C11FA
:101EE00071B1B4F86E2101F021FCD4F87C31D4F842
:101EF000842129461344C4F87C31204602F09EFA1E
:101F00002168D4F87851B1F8503001F20C409BB2FE
:101F1000BDB9C25A22F4F8421204120CC252C25A7B
:101F200048EA020292B2C2520B8823F4804323F0A3
:101F3000700383F4405343F4004343F080030B8069
:101F400095E63E2D05D86A08EE0748BF0132920299
:101F5000E8E76A09ED0608BF02F1FF3248EA82228B
:101F6000E0E730F82670BFB2390440F1F280282152
:101F700030F8263001FB064123F070031B051B0DD2
:101F800043F0800320F8263091F8743100F5806C1E
:101F9000ABB9B0F8503091F86821063303EBC203B7
:101FA0003CF81350C5F30905002D00F0B6802B4610
:101FB000B1F86E21D1F87C1101F0B8FBADE091F8D9
:101FC0006B3191F86821022B40F0898017F4804A28
:101FD0004FEAC205D1F8803107F0400E3ED0B0F88C
:101FE00050A0554402353CF81550C5F309059D42F3
:101FF0008CBF00235B1BC1F88031282303FB064301
:10200000D3F880316BB930F8223023F4804323F0C9
:10201000700383F4005343F4004343F0800320F83B
:102020002230BEF1000F10D0282303FB064393F8A3
:10203000682130F8223023F0F0031B051B0D43F418
:10204000004343F0C00320F82230002D65D0282142
:1020500001FB06412B46B1F87021ABE7B0F850B058
:102060005D4406353CF81550C5F309059D429CBFFB
:102070005B1BC1F880314FF0280303FB064388BF88
:10208000C1F880A1D3F880316BB930F8223023F445
:10209000804323F0700383F4005343F4004343F080
:1020A000800320F82230BEF1000F10D1282303FB5B
:1020B000064393F8682130F8223023F0F0031B0523
:1020C0001B0D43F4004343F0C00320F8223025B336
:1020D000282101FB06412B46B1F872216AE730F84E
:1020E000223023F0F0031B051B0D43F4004343F0A3
:1020F000C00320F8223091F8683130F82320DB004B
:1021000012F4804FB0F850205ED0023213443CF8F5
:102110001350C5F30905002D9CD128217143631884
:10212000D3F884212A44C3F88421D3F87C212A449B
:10213000C3F87C21D3F880211AB1D3F878319D42BD
:102140004BD2282303FB0643204693F8681102F084
:1021500075F93A067FF58BAD2825206805FB064505
:1021600030F8263000F5806209EA030343F40043A7
:1021700020F8263095F82B3095F82810022B01D145
:10218000FB053DD42823B0F850E003FB064C0EF1CC
:10219000020E0EEBC10132F81120DCF84070C2F3E0
:1021A0000902974292BF0021BF1ACCF8407003FB8E
:1021B000064798BFCCF84010396CA9B995F828109B
:1021C000204602F044F952E5063213443CF813501D
:1021D000C5F30905002DA0D07DE701F5B4712144B8
:1021E000206800F0F7FFB4E7F96B06FB03331144F6
:1021F000F963796C0A447A64E11800F0EBFF36E584
:1022000017F0400E4FEAC10C2B6C07F4804700F02A
:102210009E80B0F850E0BFB2F4440CF1020C32F8EA
:102220001CC0CCF3090C9C452CBF0023A3EB0C0372
:102230002B64282303FB06431B6CABB9204602F03A
:1022400006F9002F00F0A18095F82810226832F8D6
:10225000213023F0F0031B051B0D43F4404343F0F2
:10226000800322F8213090E05FB130F8213023F074
:10227000F0031B051B0D43F4404343F0800320F89B
:102280002130282303FB064393F84C20012A7CD1FC
:102290005A6CD96B62445A649F6C9A6B6144974242
:1022A000D96325D3BF1A9F6495F8297093B2002F84
:1022B00041D1B0F8507000F2044CBC4495F828703D
:1022C0003F0102BB3CF8072022F4F8421204120C32
:1022D0002CF807203CF8072048EA020292B22CF8BA
:1022E0000720282202FB0646328E00F063FF4CE0F6
:1022F0001FB983F84C706246D6E7002283F84C2061
:102300009A643A46D0E73E2A0CD84FEA520ED207DA
:1023100048BF0EF1010E4FEA8E2E1FFA8EFE2CF8EA
:1023200007E0DEE74FEA521ED20608BF0EF1FF3E7D
:1023300048EA8E2EF1E7012FD3D1B0F8502000F2F9
:102340000447174495F828201201BB52C9E7B0F89A
:1023500050A0BFB2D4440CF1060C32F81CC0CCF330
:10236000090C9C459CBFA3EB0C032B644FF0280386
:1023700003FB064388BFC5F840E01B6CBBB9204691
:1023800002F065F8002F3FF45FAF95F8281022683F
:1023900032F8213023F4E04323F0400383F030038C
:1023A00043F4004343F0800322F821305FE45FB937
:1023B00030F8213023F0F0031B051B0D43F440439C
:1023C00043F0800320F82130282303FB064393F8D1
:1023D0004C20012AD9D15A6CD96B62445A649F6C43
:1023E0009A6B61449742D96323D3BF1A9F6495F8CF
:1023F000297093B2002F3FD1B0F8507000F20C4C0E
:10240000BC4495F828703F01F2B93CF8072022F44B
:10241000F8421204120C2CF807203CF8072048EA76
:10242000020292B22CF80720282202FB0646728E86
:102430005BE71FB983F84C706246D8E700229A64C4
:1024400083F84C203A46D2E73E2A0CD84FEA520E87
:10245000D20748BF0EF1010E4FEA8E2E1FFA8EFEF4
:102460002CF807E0E0E74FEA521ED20608BF0EF153
:10247000FF3E48EA8E2EF1E7012FD5D1B0F850206B
:1024800000F20C47174495F828201201BB52CBE705
:102490000F8FFFFF0080FFFF11F0800F70B501F07C
:1024A000070504464FF028011CD005FB011101442B
:1024B000012048700A614A780D70CB7002B1CD815D
:1024C000022B04BF00230B7194F8A832012B13D008
:1024D0000123206884F8A83200F0FAFB002084F879
:1024E000A80270BD002601FB05F000F5B471204480
:1024F000214480F86961DDE70220F2E711F0800FE6
:1025000010B501F0070204464FF0280113D0012353
:1025100002FB011101444B700A7094F8A832012BA0
:1025200013D00123206884F8A83200F00FFD0020AA
:1025300084F8A80210BD01FB02F303F5B471014455
:102540000344002083F86901E6E70220F2E770B552
:102550002824002601F007014C43051985F868116D
:1025600004F5B4710144C5F87C21C5F88031C5F883
:10257000846185F86961006800F02CFE304670BD0A
:10258000282301F0070103FB0101D1F88401704702
:1025900070B5282501F0070105FB01040026C4E9F8
:1025A0000F23012201FB055584F8281084F84C20E4
:1025B0004119A364666484F82920006800F00AFECB
:1025C000304670BD38B5436801F007059D420446AA
:1025D00028D811F0800F4FF028031AD005FB0333E1
:1025E000C11801234B7001230D708B7094F8A82241
:1025F0009A4219D084F8A832206800F06DFD25B900
:1026000004F52C71206800F0D3FD002084F8A802A6
:1026100038BD00224B4303F5B4710344014483F8F1
:102620006921E0E70120F3E70220F1E738B54368CC
:1026300001F00F029A42044626D811F0800F01F0F3
:1026400007024FF0280115D0012302FB01110144BC
:102650004B7000250A708D7094F8A832012B15D0AC
:102660000123206884F8A83200F052FD284684F83F
:10267000A85238BD01FB02F303F5B47101440344D1
:10268000002083F86901E4E70120F2E70220F0E787
:1026900010B5282411F0800F1BBF01F0070101FBCA
:1026A000044104FB0100401808BF00F5B47099B262
:1026B0001AB90273C180002010BD01221B0C0273E5
:1026C00001814381F7E700000C4B9A6803F58063B2
:1026D0009B68134313F001020ED10B6833B14168BC
:1026E00021F470210B43436010467047426822F486
:1026F0007022426018467047012070470024014054
:10270000836810B513F001030DD142684C6822F4C0
:102710008072224342608268096822F400620A43A0
:102720008260184610BD0120FCE7836810B5DB0706
:102730001BD443684A6823F4684312B18C6813437E
:102740002343436083680C6823F4602323F481737C
:102750002343CC68096923430B438360C36A23F492
:1027600070031343C362002010BD0120FCE700008A
:1027700002460368007910B500283DD0002B44D0F4
:10278000517901291ED003D3022924D0012008E069
:102790002049486820EA0300486008681843086038
:1027A000002092796AB1022A19D0032A20D0012A86
:1027B0002DD1184AD16821EA0301D16091680B43F9
:1027C000936010BD1349086820EA03000860486858
:1027D00018434860E4E70F4908681843F6E70D4AD4
:1027E000916821EA03019160D1680B43D360E8E767
:1027F000084A91681943F6E7DC43064A116821400C
:102800001160536823405360DBE71846D9E7012085
:10281000D7E700BF000401402DE9F04F0C68C4F376
:102820000F2494FAA4F24FF00F0AB2FA82F24FF09A
:10283000030904274FF0011C40F2011E34FA02F391
:1028400002D11846BDE8F08F0123934023425ED0A9
:10285000072A85BFA2F108030CFA03F30EFA02F36C
:1028600043F08063C5681E0A96FAA6F8B8FA88F89D
:1028700025EA06060D6905FA08F53543C5604FEAF5
:10288000136893FAA3F6B6FA86F693FAA3FBBBFA9B
:102890008BFBB6000AFA06F550F808604FEA8B0B7E
:1028A00026EA05064D6805FA0BFB46EA0B0640F8DA
:1028B00008604D6825F00805012D28D193FAA3F58D
:1028C000B5FA85F593FAA3FBBBFA8BFBAD0009FAC9
:1028D00005F526EA05068D684FEA8B0B05FA0BFB1A
:1028E00046EA0B0640F8086093FAA3F5B5FA85F5B9
:1028F00093FAA3F3B3FA83F3AD0007FA05F526EADA
:102900000505CE689B009E402E4340F808600132CA
:1029100094E70000034B044A5B68C3F30313D35CE2
:10292000D840704700100240C0C00008034B044A62
:102930005B68C3F30223D35CD840704700100240A9
:10294000D0C00008034B044A5B68C3F3C223D35CC6
:10295000D840704700100240D0C00008094B5A68A8
:1029600002F4803262B15868074AC0F34040013037
:10297000B2FBF0F05B68C3F3834302335843704704
:102980000248F7E70010024000127A0000093D00FB
:10299000044B5B6803F00C03082B01D1FFF7DEBF8B
:1029A000014870470010024000127A0008B5014645
:1029B000FFF7EEFF0860FFF7ADFF4860FFF7B6FFD7
:1029C00088604868FFF7BEFFC86008BD1A4A036800
:1029D00090420AD0B0F1804F07D0A2F594329042D5
:1029E00003D002F58062904215D14A6823F070034B
:1029F0001343114A90420AD0B0F1804F07D0A2F59C
:102A00009432904203D002F58062904203D1CA68AA
:102A100023F44073134303608B68C3620B888362A3
:102A2000054B984204BF0B690363436943F00103FC
:102A300043610020704700BF002C0140102930B5D1
:102A40005FD003D801292CD0012059E0B1F5807F57
:102A500000F08980B1F5805FF6D1036A156823F430
:102A600080530362036A4468C16923F4005321F46C
:102A7000E64141EA0521156943EA0533556823F427
:102A8000805343EA0533504DA84204BF956924F4AE
:102A90008044D26808BF44EA85144460C16102647E
:102AA0002CE0036A156823F001030362036A41689E
:102AB000846923F0020324F073042C4315692B432B
:102AC000556823F001032B433F4DA84212D15569AD
:102AD00023F0080343EA8503956823F0040343EADF
:102AE0008503956921F480712943D56921F400712A
:102AF00041EA4501D268416084614263036200207B
:102B000030BD036A156823F010030362036A41684D
:102B1000846923F0200324F4E64444EA052415697B
:102B200043EA0513556823F0100343EA0513264DC5
:102B3000A84213D1556923F0800343EA85139568B1
:102B400023F0400343EA8513956921F4806141EA4B
:102B50008501D56921F4006141EAC501D26841606F
:102B600084618263CAE7036A156823F48073036291
:102B7000036A4168C46923F4007324F073042C438E
:102B8000156943EA0523556823F4807343EA052356
:102B90000D4DA84213D1556923F4006343EA852300
:102BA000956823F4806343EA8523956921F4805175
:102BB00041EA0511D56921F4005141EA4511D26875
:102BC0004160C461C26399E7002C014030B5C3681D
:102BD00085B09B0404460D4602D5012005B030BDEA
:102BE0004B68C968C2680B43296922F4B0520B4391
:102BF00022F00C021343C3600369AA6823F4405314
:102C00001343036143696A6923F4407313434361C7
:102C10006846FFF7CBFE134B9C4219D1039900295C
:102C2000DBD02A68002AD8D019234B439200B3FB8B
:102C3000F2F36422B3FBF2F102FB11331B013233D6
:102C4000B3FBF2F303EB01139BB2A3600020C5E7D3
:102C5000054B9C4201D10299E1E7044B9C42BCD157
:102C6000F9E700BF00380140004400400048004040
:102C700084B001A880E80E0004B000207047002353
:102C80004FF43F42A0F84430A0F840201846704767
:102C9000B0F8403023F47C535B045B0CA0F8403068
:102CA000002070470020704784B010B503AC84E862
:102CB0000E00BDE810400123A0F84030002304B00E
:102CC000A0F84030A0F84430A0F8503018467047C3
:102CD000F0B50C78034630F82420C87822F4EC4292
:102CE00022F07002032803D8DFE800F0424944468E
:102CF000012048F280052A4323F824200E78904AC8
:102D000033F82640354314402C4323F826400D7BEE
:102D10000C78002D40F08280CD884E786D086D00D3
:102D200003EB041476B3B3F850603444A4F80054B1
:102D30000D7833F82540670608D533F82540224042
:102D400042F4004242F0C00223F82520CA780C78F1
:102D5000012A33F824107B4A02EA010218BF82F0EC
:102D6000200242F4004242F0800223F82420F0BD09
:102D700042F400720020BCE742F4C062FAE742F479
:102D80008062F7E7B3F850200E691444A4F80854A1
:102D90000A78B3F8504003EB0212A4B202F20C42DC
:102DA00056BB155B25F4F8452D042D0C1553155B0A
:102DB00045F4004515530C7833F8242057040BD5FF
:102DC00033F8242022F0F0021205120D42F44042A2
:102DD00042F0800223F82420097833F8212022F4DD
:102DE000804222F0700282F4405242F4004242F0EB
:102DF000800223F82120BAE73E2E06D87508F60790
:102E000048BF0135AD02ADB2D4E77709F5064E4DA6
:102E100008BF07F1FF3745EA8725F4E733F8245068
:102E2000154045F4014545F0800523F824500C7801
:102E30000D89B3F8506003EB04146D08B6B204F5C5
:102E400080646D00A5530C784D89B3F8506003EB96
:102E500004146D0804F581646D00B6B2A5534C7876
:102E60000D78B4BB33F82540660408D533F8254007
:102E7000224042F4404242F0800223F825200C78A0
:102E800033F8242055060BD533F8242022F0F00225
:102E90001205120D42F4004242F0C00223F8242031
:102EA00048F280040D7833F8252022F4804222F085
:102EB000700282F44052224323F82520097833F827
:102EC000212022F4E04222F04002144323F8214062
:102ED0004DE733F82540640408D533F825402240F7
:102EE00042F4404242F0800223F825200C7833F867
:102EF000242052060BD533F8242022F0F0021205CC
:102F0000120D42F4004242F0C00223F82420CA7895
:102F10000C78012A33F824500A4A02EA050218BF45
:102F200082F0200242F4004242F0800223F8242082
:102F3000097833F8212022F0F0029204920C54E731
:102F40008F8FFFFFBF8FFFFF0080FFFF10B50C7B4F
:102F50004A780B78BCBBF2B130F8232052060BD56F
:102F600030F8232022F0F0021205120D42F4004244
:102F700042F0C00220F823200A7830F8223023F0F3
:102F8000C0031B051B0D43F4004343F0800320F8EE
:102F90002230002010BD30F8232054040BD530F827
:102FA000232022F0F0021205120D42F4404242F0BA
:102FB000800220F823200A7830F8223023F0F00332
:102FC0009B049B0CDFE7002A44D130F823205204F5
:102FD0000BD530F8232022F0F0021205120D42F436
:102FE000404242F0800220F823200A7830F8223054
:102FF0005C060BD530F8223023F0F0031B051B0DC7
:1030000043F4004343F0C00320F822300A7830F83C
:10301000223023F0F0031B051B0D43F4004343F063
:10302000C00320F8223048F280020C7830F82430B7
:1030300023F4804323F07003134320F824300978ED
:1030400030F8213023F4E04323F040031A4320F802
:1030500021209EE730F8232052040BD530F823209E
:1030600022F0F0021205120D42F4404242F08002BA
:1030700020F823200A7830F822305B060BD530F890
:10308000223023F0F0031B051B0D43F4004343F0F3
:10309000C00320F822300A7830F8223023F0F00301
:1030A0001B051B0D43F4404343F0800320F82230FE
:1030B00048F280020C7830F8243023F4E04323F007
:1030C0004003134320F82430097830F8213023F4EA
:1030D000804323F07003B9E74B780A787BB130F86E
:1030E000223023F4E04323F0400383F0100343F441
:1030F000004343F0800320F822300020704730F86E
:10310000223023F4804323F0700383F48053EEE7EE
:103110000B7B23BB4B780A781BB330F822305B065D
:103120000BD530F8223023F0F0031B051B0D43F4C0
:10313000004343F0C00320F82230CB78012B0ED09F
:103140000A7830F8223023F4E04323F0400383F080
:10315000200343F4004343F0800320F82230002092
:10316000704730F822305B040BD530F8223023F062
:10317000F0031B051B0D43F4404343F0800320F88C
:1031800022300A7830F8223023F4804323F0700391
:1031900083F44053DDE711B98023A0F84C300020C0
:1031A00070470020704700207047B0F84400704717
:1031B0000020704700EB4202013302F580625B0899
:1031C00002EB83039A4200D1704731F8020B22F8D8
:1031D000040BF7E7F8B50C46497805460129277B2B
:1031E00040F083812269A6696169964228BF16462C
:1031F000EFB9B6B23346E288FFF7DCFFB5F85010FE
:10320000227805F2044312010B44D652227835F895
:10321000223023F4E04323F0400383F03003002006
:1032200043F4004343F0800325F82230F8BDE378EF
:103230002778022B40F02481236A9A4230F8272015
:1032400022F4F8724FEA02524FEA125280F00781DC
:1032500042F4014242F0800220F8272022789B1B92
:1032600030F82200236210F0400FB3B260787CD0B7
:1032700000284DD1B5F8500005F20C470744120163
:10328000002E31D1B85A20F4F8400004000CB85296
:10329000B85A40F40040B85262892846FFF78AFFC6
:1032A000226A236961699A4289BF921B00232262C4
:1032B00032466078314498BF2362616193B200283E
:1032C00048D1B5F85000277805F204463F0106447E
:1032D00042BBBA5B22F4F8421204120CBA53BA5B36
:1032E00042F40042BA5326E03E2E07D8700816F08A
:1032F000010F18BF0130800280B2CCE74FEA561CA4
:10330000F006974808BF0CF1FF3C40EA8C20F3E739
:103310000128C1D1B5F8507005F20C4038441201B3
:103320008352B9E73E2A0BD85008D20748BF013074
:10333000800280B2B85322892846FFF73BFF65E739
:103340005009D206864A08BF00F1FF3042EA8022C7
:1033500092B2C7E70128EED1B5F85060207805F2A7
:103360000442000132448352E5E700284DD1B5F80C
:10337000500005F2044707441201002E31D1B85A1B
:1033800020F4F8400004000CB852B85A40F4004051
:10339000B85222892846FFF70DFF226A2369616926
:1033A0009A4289BF921B00232262324660783144E0
:1033B00098BF2362616193B2002845D1B5F85000EF
:1033C000277805F20C463F01064442BBBA5B22F463
:1033D000F8421204120CBA53BA5B42F40042BA53D8
:1033E00026E03E2E07D8700816F0010F18BF0130F6
:1033F000800280B2CCE74FEA561CF006584808BF5E
:103400000CF1FF3C40EA8C20F3E70128C1D1B5F86C
:10341000507005F20440384412018352B9E73E2A45
:1034200008D85008D20748BF0130800280B2B85394
:10343000628981E75009D206494A08BF00F1FF308E
:1034400042EA802292B2CAE70128F1D1B5F8506071
:10345000207805F20C42000132448352E8E742F43E
:10346000004242F0800220F82720B0F85070267801
:1034700000F204423A4436019BB2B35222895CE71F
:1034800030F82720B0F8500052064BBF05F20C422E
:1034900005F2044212181218B3B24FEA07174BBFD5
:1034A000D353D353628922892846FFF783FE63787A
:1034B000227863B935F8223023F0F0031B051B0D89
:1034C00043F4004343F0C00325F822309EE6012B6D
:1034D0007FF49CAE35F8223023F0F0031B051B0D62
:1034E00043F4404343F08003EEE7002F3AD1A26952
:1034F000236905F20C419A4292BF1346D21AA26187
:10350000B0F85020207898BFA7610001114453B94A
:10351000435A23F4F8431B041B0C4352435A43F40D
:103520000043435208E03E2B10D85A08DF0748BF3B
:103530000132920292B24252227835F8223023F4BC
:10354000804323F0700383F4405368E65A09DE0693
:10355000034B08BF02F1FF3243EA82239BB2E0E74C
:103560000080FFFFE378022B74D199B9B0F8503096
:1035700000F204422178206909011A4400283AD156
:103580008B5A23F4F8431B041B0C8B528B5A43F4C5
:1035900000438B5262782378002A50D1B5F850202E
:1035A000206905F20C4111441B01002835D1CA5A8B
:1035B00022F4F8421204120CCA52CA5A42F40042CF
:1035C000CA52E369002BB7D044F24001227835F8A3
:1035D00022300B408B4201D0002BADD135F8223088
:1035E00023F0F0031B051B0D43F4004343F0C0031D
:1035F00025F82230A0E73E2806D84308C00748BF78
:1036000001339B029BB2C4E74609C706464B08BF7D
:1036100006F1FF3643EA8623F4E73E2806D842083F
:10362000C00748BF0132920292B2C9E74609C706F5
:103630003D4A08BF06F1FF3642EA8622F4E7012A36
:10364000BFD1B5F8501005F20C420A44218A1B0183
:10365000D152B6E7012B64D1A26923699A4295BF82
:103660000023D21AA361A26198BF134689B9B0F8AA
:103670005020207805F2044100011144FBB9425A60
:1036800022F4F8421204120C4252425A42F400420E
:10369000425261782278002937D1B5F8501005F2EE
:1036A0000C4008441201E3B9835A23F4F8431B0485
:1036B0001B0C8352835A43F4004383523CE73E2B56
:1036C00006D85A08DE0748BF0132920292B2DFE7FD
:1036D0005E09DF06144A08BF06F1FF3642EA862279
:1036E000F4E73E2B07D85908DE0748BF01318902AD
:1036F00089B2815220E75909DB060B4B08BF01F163
:10370000FF3143EA81239BB2D7E701297FF414AF4D
:10371000B5F8500005F20C41014412019BB28B52E6
:103720000AE7012082E500BF0080FFFF00EB4202B4
:10373000F0B502F580625D08084617462E46023055
:1037400036B9DB0744BF32F8253001F81530F0BD3B
:1037500037F8044B013EA4B200F8024C240A00F8EA
:10376000014CECE7014B1860704700BF00000020DF
:10377000D0F8BC3210B56BB1D0F8B84294F8000262
:10378000FF2807D09B6894F8012221469847FF2321
:1037900084F80032002010BD4323038000487047A6
:1037A0004400002043230380004870478800002025
:1037B0004323038000487047D80000200A23038079
:1037C00000487047CC00002038B50546D0F8B84214
:1037D00000F036FFD5F8B832C4F80C024BB1D5F87A
:1037E000BC3204F50371DB68D4F80402984700206A
:1037F00038BD0220FCE7F8B5D0F8B862D6B1142382
:1038000003FB0103DD698DB12827D0F8C04207FB17
:103810000142926BB5FBF2F402FB145434B9DC6143
:103820002246234600F0F0FE2046F8BD0020C6F8F0
:103830001402FAE70220F8E72DE9F7434FF00008F9
:103840000A78054612F060040E46D0F8B8728DF87A
:103850000580ADF8068028D0202C45D1CC884B7847
:10386000E4B1120611D5D0F8BC223946D2F808903E
:1038700018462246C847F2883946284600F045FCDB
:103880004446204603B0BDE8F08387F8003287F84D
:1038900001422246394600F04DFCF1E7D0F8BC2247
:1038A000184695682246A847EBE74F780A2F0DD0B7
:1038B0000B2F15D0C7B990F89C32032B14D10222DC
:1038C0000DF1060100F021FC3C46DAE790F89C324D
:1038D000032B09D101220DF1050100F016FCD0E700
:1038E00090F89C32032BCCD03146284600F0E6FB02
:1038F0000224C6E738B504460025812100F03AFECF
:103900000121E562204600F035FEC4F86C518221A9
:10391000204600F02FFED4F8B83225644BB1D4F81D
:10392000BC325B689847D4F8B80200F091FEC4F846
:10393000B852002038BD037C2DE9F0410446CBBBD2
:103940004FF4007302228121012500F003FE4FF4A1
:103950000073E56229460222204600F0FBFDC4F810
:103960006C510125082303228221204600F0F2FD3C
:1039700025644FF4077000F067FE0646C4F8B802ED
:1039800050B30027D4F8BC321B68984794F81080D5
:10399000C6F81472C6F81872B8F1000F13D14FF4BC
:1039A0000073D6F804222946204600F03BFE40462C
:1039B000BDE8F081012540230222812100F0CAFDEB
:1039C000E5624023C6E74023D6F804222946204674
:1039D00000F028FE3846EBE72846E9E719B1C0F8C1
:1039E000BC120020704702207047D0F8B832002087
:1039F000C3F80812C3F810227047D0F8B83200207C
:103A0000C3F804127047D0F8B82210B582B1D2F8CA
:103A10001442012374B9C2F81432D2F81032812151
:103A20000363D2F808229BB200F0EEFD204610BDE1
:103A30000220FCE71846FAE7D0F8B82210B562B1C8
:103A4000047CD2F8042234B94FF40073012100F051
:103A5000E9FD002010BD4023F8E70220FAE708B591
:103A600080B1D0F8B43213B10023C0F8B43209B138
:103A7000C0F8B0120123027080F89C3200F01AFDE9
:103A8000002008BD0220FCE719B1C0F8B4120020E4
:103A900070470220704708B500F04EFD002008BDB9
:103AA00008B5D0F8B4320BB9022008BD1B6898479E
:103AB0000028FAD0F8E708B5D0F8B4325B68984728
:103AC000002008BD38B500F52A750446284600F0E8
:103AD000E1FA012394F8A812C4F89432B4F8AE3293
:103AE000C4F8983201F01F03012B0ED007D3022B2C
:103AF00010D001F08001204600F04AFD03E0294685
:103B0000204600F0F5F8002038BD2946204600F098
:103B100013FAF8E72946204600F033FAF3E770B5C8
:103B20000546164649BBD0F89432032B1ED1D0F877
:103B30006031D0F8642193420BD99B1A9A42C0F8A5
:103B400060318CBF9AB292B2314600F002FB002085
:103B500070BDD0F8B4321B6923B190F89C22032ABF
:103B600000D19847284600F0FCFAF0E7052BEED18B
:103B7000C5F8941200F00CFDE9E7D0F8B4329B6967
:103B80002BB190F89C22032A01D19847DFE702204D
:103B9000DEE770B5134604460E46002947D1D0F83B
:103BA0009422022A3CD1D0E90852954213D9AA1A8C
:103BB0000262194692B200F0B5FA33461A46194627
:103BC000204600F02FFD94F8A0320020012B01D1F7
:103BD00084F8A00270BDC369B3FBF2F502FB153592
:103BE00065B99A420AD8D0F89822934206D22A465A
:103BF00000F098FAC4F898522B46DFE7D4F8B432B4
:103C0000DB682BB194F89C22032A01D12046984707
:103C10008021204600F0BCFC204600F0ADFAD2E73F
:103C200032F00403CFD1802100F0B2FCCBE7D0F812
:103C3000B4325B6933B190F89C22032A02D19847D1
:103C40000020C7E70220C5E7002270B50446012521
:103C500040261146402300F07DFC33468021C4F805
:103C60005851C4F864610022204600F073FC002122
:103C7000D4F8B832A561666284F89C52C4F89412F4
:103C80006160C4F8A41223B1D4F8B43220465B6852
:103C90009847002070BD01740020704790F89C3256
:103CA00080F89D32042380F89C320020704790F801
:103CB0009C32042B04BF90F89D3280F89C32002087
:103CC000704708B590F89C22032A04D1D0F8B4328A
:103CD000DB6903B19847002008BD10B50446802178
:103CE00000F056FC2046BDE81040002100F050BC1A
:103CF00037B50B78044603F06003202B0D4612D035
:103D0000402B10D0002B5BD14B78092B58D8DFE823
:103D100013F0E90005015700FE005700840013006E
:103D20005700D200A000D4F8B43229469B68204640
:103D30009847002003B030BD0023ADF806304B8813
:103D40001A0A013A062A3BD8DFE802F004202D3A8D
:103D50003A525C00D0F8B0321B680DF10601207CAD
:103D60009847BDF8062052B1EB8843B19A4228BF6C
:103D70001A4601462046ADF8062000F0C6F9EB8849
:103D8000002BD6D1204600F0ECF9D2E7027CD0F827
:103D9000B43232B99B6A0DF1060098470223437092
:103DA000DFE7DB6AF7E7DBB2052B09D8DFE803F0D2
:103DB000030C1014181CD0F8B0325B68002BCCD167
:103DC0002046FFF78AFFB4E7D0F8B0329B68F5E7EA
:103DD000D0F8B032DB68F1E7D0F8B0321B69EDE71C
:103DE000D0F8B0325B69E9E7D0F8B0329B69E5E71B
:103DF000037C002BE4D1D0F8B4320DF106005B6BEC
:103E00009847AEE7037C002BDAD1D0F8B4320DF13D
:103E100006001B6B98470723C1E78B88002BCFD187
:103E2000CB88002BCCD14D887F2DC9D890F89C32FF
:103E3000032BC5D0E9B280F89E1200F0D7FB2046D4
:103E400000F08FF91DB1022384F89C3271E7012341
:103E5000FAE78978374D01292970B1D890F89C325A
:103E6000022B08D0032B14D0FFF737FF2978204608
:103E7000FFF721FE5DE7002984D001210323416083
:103E800080F89C322046FFF70BFE02287FF47AAFC1
:103E900096E731B90223416080F89C32FFF70BFEB0
:103EA00070E7416801293FF46DAFC9B2FFF703FE27
:103EB00029786160E6E7CA88012A81D190F89C32AE
:103EC000002B3FF47DAF022B04D9032B7FF478AF96
:103ED000011D03E00146002341F8083F204600F0A1
:103EE00014F926E790F89C32013B022B3FF668AFAD
:103EF000CB88022B7FF464AF0123C360D0F8A432D7
:103F00000BB10323C360022204F10C01E6E74B88E6
:103F1000012B7FF40EAFC4F8A43233E790F89C3243
:103F2000013B022B3FF64CAF4B88012B7FF401AFD6
:103F30000023F0E78803002038B50B78044603F02F
:103F40006003202B0D4602D0402B00D0ABB994F873
:103F50009C32013B022B10D82B79012B0DD8D4F8C1
:103F6000B43229469B6820469847EB881BB910B9A4
:103F7000204600F0F6F8002038BD2046FFF7ADFEE1
:103F8000F9E738B50A78044602F06002202A0B46A9
:103F900014D0402A12D06AB95A788D88012AE9B221
:103FA00020D036D3032A05D190F89C22022A27D0AC
:103FB000032A0BD02046FFF790FE05E0D4F8B42288
:103FC0001946926820469047002038BD5A882AB981
:103FD0004A0603D0DB880BB900F0DAFA204600F07D
:103FE000C0F8F1E790F89C22022A09D0032AE1D117
:103FF0005B88002BE8D14D06F0D000F0D7FAEDE752
:104000004B06D7D000F0C4FA8021204600F0C0FA59
:10401000DAE790F89C32022B18D0032BCAD1142374
:1040200001F00F0215F0800F03FB02021FD092690E
:10403000002ABFD001F07F0505FB0335054411F0D0
:104040007F031FD12B60022229460CE04A06B1D122
:104050002B064FF000034FF002024CBF00F1140199
:1040600000F5AA710B60204600F04FF8ACE7D2F8DB
:104070005821002A9ED001F07F0503FB050505F5B8
:10408000AA75DCE7204600F09FFA08B10123D9E7C2
:104090002860D8E70B7803704B784370CA788B7828
:1040A00003EB022343804A790B7903EB02238380DD
:1040B000CA798B7903EB0223C380704710B504469D
:1040C000802100F065FA2046BDE81040002100F094
:1040D0005FBA30B588B105462B1A15F8014BDBB233
:1040E000002CF9D101335B0013800B7003234B705C
:1040F0000223013810F8015F05B930BD5A1CCD54B8
:10410000D2B20233DBB28C54F4E71346022210B56C
:10411000C0F89422C0E907330A46002100F074FA7F
:10412000002010BD08B513460A46002100F06CFAC5
:10413000002008BD1346032210B5C0F89422C0F831
:104140005C310A46C0F86031002100F06BFA0020B3
:1041500010BD08B513460A46002100F063FA00209E
:1041600008BD08B50423C0F8943200231A46194646
:1041700000F04AFA002008BD08B50523C0F89432C3
:1041800000231A46194600F04DFA002008BD000031
:1041900008B500220E490F48FFF761FC08B1FDF792
:1041A00089FB0D490B48FFF76FFC08B1FDF782FB57
:1041B0000A490848FFF712FC08B1FDF77BFB0548E8
:1041C000FFF769FC18B1BDE80840FDF773BB08BDF7
:1041D0002C010020240900200C0000201C010020DC
:1041E00000207047002070472DE9F3412A4D044616
:1041F00095F89C32032B4CD100284AD00F68002F31
:1042000047D021462846FFF7F8FB0028F9D1224D78
:104210002846FFF711FC0028FAD1204DDFF88480F2
:104220002744BC4203D1002002B0BDE8F08195F8DC
:1042300066200026531CDBB285F86630622B4FF0F7
:1042400001032146207888BF85F86660A85485F868
:10425000CB6085F864301C440B780A2BE1D1104BFD
:1042600002A941F8046D186805F08CFB012802D002
:1042700085F86660D5E7019B85F86500002BD0D0F6
:104280004FF08053C8F80030BFF34F8FBFF36F8FEC
:10429000C7E70220C8E700BF24090020782E0020CD
:1042A000402E002004ED00E010B5064C0022064927
:1042B0002046FFF79AFB05492046FFF79EFB0020AA
:1042C00010BD00BF24090020AA2F0020462F002087
:1042D00010B5094C0A46D4F8B832D3F8143243B9B1
:1042E00001462046FFF781FB2046BDE81040FFF75E
:1042F0008ABB012010BD00BF240900201223014801
:104300000B80704748010020042301480B80704750
:104310005C010020002370B51E46050FECB2092D8C
:1043200094BF3034373401F8134001EB43040133B8
:104330006670DCB2A2424FEA0010EED870BD0000F9
:104340001A2310B50B80094B186808331B68C01876
:104350000AD0074B08221C680649FFF7DBFF04223E
:1043600005492046FFF7D6FF044810BDE8F7FF1FB8
:10437000ECF7FF1F620100207201002060010020A5
:1043800010B5044C0A4604482146FFF7A2FE204619
:1043900010BD00BFAC2F0020F1C0000810B5044CC8
:1043A0000A4604482146FFF794FE204610BD00BF90
:1043B000AC2F002001C1000810B5044C0A46044887
:1043C0002146FFF786FE204610BD00BFAC2F00201F
:1043D000D8C0000810B5044C0A4604482146FFF72F
:1043E00078FE204610BD00BFAC2F0020E3C00008BF
:1043F00007B50E4B02689A4215D103F5DA33DA6934
:10440000072142F40002DA61DB69002203F40003B1
:1044100001931420019BFDF71FFB142003B05DF8EE
:1044200004EBFDF74DBB03B05DF804FB005C0040FE
:1044300000F52C71D0F8E802FFF744BB282303FBFA
:104440000103D0F8E802D3F87C21FFF768BB2823EA
:1044500003FB0103D0F8E802DA6BFFF79ABBD0F850
:10446000E802FFF72EBC836810B5022B044601D08A
:10447000FDF720FAD4F8E8020121FFF70CFCD4F88C
:10448000E802BDE81040FFF7DFBB000010B50446AE
:10449000D0F8E802FFF702FCA36923B1024A1369CE
:1044A00043F00603136110BD00ED00E0D0F8E80210
:1044B000FFF7FDBB082310B51D4A04461D48C0E99F
:1044C0000023022383600023C0F8E842C4F8C0023E
:1044D000C0E906330362FDF717FB08B1FDF7EAF9FF
:1044E000002218231146D4F8C002FEF7D1F8582351
:1044F00000228021D4F8C002FEF7CAF8C0230022AF
:104500008121D4F8C002FEF7C3F84FF4887300226B
:104510000121D4F8C002FEF7BBF84FF480730022EB
:104520008221D4F8C002FEF7B3F8002010BD00BF0E
:10453000005C0040AC31002008B5D0F8C002FDF7A7
:104540005BFB032896BF024B0220185C08BD00BF2E
:1045500013C1000810B51C46D0F8C002134622460D
:10456000FDF79AFF032896BF014B0220185C10BD8F
:1045700013C1000808B5D0F8C002FDF7BFFF03283B
:1045800096BF024B0220185C08BD00BF13C1000893
:1045900008B5D0F8C002FEF715F8032896BF024B05
:1045A0000220185C08BD00BF13C1000808B5D0F890
:1045B000C002FEF73BF8032896BF024B0220185CAE
:1045C00008BD00BF13C10008282211F0800FD0F8E9
:1045D000C0021BBF01F07F0303FB022102FB0101AC
:1045E000091814BF887891F86A01704708B5D0F8A7
:1045F000C002FDF71AFB032896BF024B0220185C8D
:1046000008BD00BF13C1000808B5D0F8C002FDF70F
:10461000BFFF032896BF024B0220185C08BD00BFF5
:1046200013C1000808B5D0F8C002FDF790FF0328B9
:1046300096BF024B0220185C08BD00BF13C10008E2
:10464000D0F8C002FDF79CBF004870478C030020E3
:10465000704770474AF6AA2608B5054D054C204616
:104660002E6001F0C3FE0A2005F014FDF7E700BF3D
:10467000003000402C2E0020124C08B52646124D6A
:104680004FF0FF31206805F0D1F9012803D05F21F8
:104690000E4802F029FF0E4801F012F9002330689D
:1046A0001A46194605F0BCF8012803D063210748D3
:1046B00002F01AFF4FF080532B60BFF34F8FBFF310
:1046C0006F8FDDE73C2E002004ED00E023C10008E1
:1046D000880D0020154D80B52E46154C154F4FF016
:1046E000FF31386805F0A2F9012803D06E21204679
:1046F00002F0FAFE4FF0FF31286805F097F9012823
:1047000003D06F21204602F0EFFE0B4801F020FAA3
:10471000002330681A46194605F082F80128DED0D9
:104720007321204602F0E0FED8E700BF3C2E0020B7
:1047300023C10008442E0020880D0020184D80B5AC
:104740002E46184C184F4FF0FF31386805F06EF9BF
:10475000012803D07B21204602F0C6FE4FF0FF3136
:10476000286805F063F9012803D07C21204602F077
:10477000BBFE0E4800F0B6FA20B1322201210C48EF
:1047800001F028FE002330681A46194605F048F863
:104790000128D8D08121204602F0A6FED2E700BF32
:1047A0003C2E002023C10008402E0020782E00203F
:1047B0002C2E00208FB572B64D4802F0D7FD4D4823
:1047C00001F0DEFD4C4800F0EBF84C4800F01CFA1C
:1047D0004B4800F01BFC0121494800F037FF4FF423
:1047E000FA720321434801F0F5FD01243223CDE99B
:1047F0000144009314220A234FF47A713C4802F0DA
:10480000C3FD032600223F4B11462046009604F0CC
:10481000C1FF00223C4F114638603C4B20460096B9
:1048200004F0B8FF00223A4D3A4B2860009620462B
:10483000114604F0AFFF384C3B6820601BB93F21A4
:10484000364802F051FE2B681BB94021334802F074
:104850004BFE23681BB94121304802F045FE00237E
:1048600020681A46194604F0DBFF012803D04321D3
:104870002A4802F039FE2A4B10220293294B2A497A
:104880000193022329480093002305F0EDF9284BFA
:1048900080221860274B28490293284B284801930F
:1048A00001230093002305F0DFF9264B80221860D6
:1048B000254B26490293264B264801930423009357
:1048C000002305F0D1F9244B4FF480721860234B7C
:1048D00023490293234B244801930323009300238D
:1048E00005F0C2F9214B186062B605F08FFAFEE7B9
:1048F000482E00202C2E0020E80B0020782E0020CF
:10490000880D002098340020402E0020DC39002043
:10491000442E0020B83E00203C2E002023C1000879
:10492000E0360020783E002017C1000855460008F8
:10493000AC050020243E00201AC10008E03400200D
:1049400079460008B0050020343900201DC1000858
:1049500034370020D5460008B405002088390020EF
:1049600020C10008243A00203D470008B805002077
:1049700000F00700C0F10702031D042A28BF04222B
:10498000062B4FF0FF3303FA02F36FEA030394BFE1
:104990000020033803F0010303FA00F07047000021
:1049A00073B500230025C8260446C0F89831324666
:1049B0002946C0F89C5180F89451C0F8905105F0F8
:1049C000F5FD32462946A01905F0F0FD64234FF4A9
:1049D0008072CDE900322346114C0222114912485F
:1049E00001F062FDE068C0F30220FFF7C1FF0F494C
:1049F0000001C0B281F81903E068C0F30220FFF79C
:104A0000B7FF00010A4BC0B281F81B03DA6842F01D
:104A10000102DA60DA6842F40072DA6002B070BD56
:104A200000ED00E000000240342C014000E100E015
:104A3000002C01402DE9F04106460F46244D4FF071
:104A40000068244CF9B1FFF7ABFF4FF00073C5F8D5
:104A500000802B60236843F0010323601E4BDA685B
:104A600042F00202DA601A6842F001021A601A6A21
:104A700042F001021A621A6A42F001021A6286F8D2
:104A80009471BDE8F081C5F88080BFF34F8FBFF30C
:104A90006F8F4FF00073C5F88030BFF34F8FBFF3B7
:104AA0006F8F0D4BDA6822F00202DA601A6822F08A
:104AB00001021A601A6A22F001021A621A6A22F0CE
:104AC00001021A62236823F001032360D7E700BFC5
:104AD00000E100E01C000240002C014070B5244CB5
:104AE000012105462668FFF7A5FF234621494C68AA
:104AF0001A68A4B2921BB2F5FA6F01D8002CF6D155
:104B000000212846FFF796FFC4F16403012B2DDD39
:104B1000D5F89031C4F16304012B35F814202888AE
:104B20001EDD633335F81330B5F8C8105B1A013B4E
:104B3000C0F57F40FF301044C3EB03431844FCF73B
:104B4000B3F806462046FCF7B3F801463046FCF7BA
:104B5000B7F901460848FCF7B3F9C5F8980170BDEC
:104B600001D10023E4E7101A0023E5E70348F6E744
:104B7000200900201C0002404054894C000080BFE6
:104B8000012070472DE9F04105460024DFF84C80F4
:104B900000F1840656F8043BEBB1012C19D1D5F88D
:104BA000D43093F8CC30002B14BF0423052305EB3D
:104BB0008303D3F884703846FBF7D4FA39460246AB
:104BC0002846013403F088FD042CE3D10120BDE820
:104BD000F0812346EBE701224146F1E799C800083E
:104BE00070B504460546074E2046FBF7BBFA2B1B63
:104BF000984200D870BD15F8013B32681206FCD50A
:104C00007360F1E700380140274B10B518600024AD
:104C100011238AB080F8CB4080F8CC4080F8CD409A
:104C200080F8644080F8654080F8664007931F4B29
:104C3000089006934FF4807305931D4B1D49049310
:104C40001D4B1E4A03931E4B1E4802931E4B01939D
:104C50001E4B00931E4B03F0EDFC1E4A1E48D3680A
:104C600043F02003D360FFF7BBFF1C4BDB68C3F3AB
:104C70000223C3F10702042A03F1040128BF04221E
:104C8000062988BFDC1E4FF0FF339340DB4303F05F
:104C90000603A340124A1B01DBB282F8253320230E
:104CA00053600AB010BD00BF1C090020D84000208E
:104CB000D83F0020F4C2000899C800087C010020F9
:104CC00098C10008003F00209EC10008F1C0000804
:104CD00000C9000800380140AFC1000800ED00E045
:104CE00000E100E038B590F8CC5004469DB100F1E9
:104CF000670590F8CD202946114804F03FF864225A
:104D00000021284605F052FC002384F8CD3084F8B9
:104D1000CC30012038BD90F865000028FAD094F816
:104D200066202146064804F029F8642229462046D8
:104D300005F03CFC84F8665084F86550E9E700BF54
:104D4000003F0020F8B590F8CB300E4614466BB10A
:104D50000B460E4A991BA14201DB2046F8BD13F811
:104D6000011B10680006FCD55160F3E790F8643031
:104D700053B1074D97B239463046FFF7A9FA0128DB
:104D8000EBD1013DF7D1E8E71C46E6E700380140EA
:104D900040420F00D0F8D400FFF7D4BF30B50CB2BA
:104DA0009BB00546204602F057FE224603460649C0
:104DB00001A805F003FC01A90246D5F8D400FFF7CD
:104DC000C1FF00201BB030BD7AC1000810B5012919
:104DD0009CB0044613460CD1094903A805F0EEFB2C
:104DE000024603A9D4F8D400FFF7ACFF01201CB0A1
:104DF00010BD009203A80A46024905F0DFFBEFE769
:104E00004EC1000861C1000808B509220349D0F865
:104E1000D400FFF797FF012008BD00BF8EC1000836
:104E20002DE9F0419DF820E002EB43059BB25A00CA
:104E3000BEF10C0F0A810C46DDE9066700F13C0269
:104E40001FFA85FC00F5FF511BD1B1F800E002EB21
:104E50000E000EEB4C0E20606A00A1F800E0A3806B
:104E6000A4F806C0002105F0A1FB4FF480733A4678
:104E7000CDE9065323683046BDE8F041144901F0FE
:104E800013BBBEF1080F10D1B1F800E002EB0E0029
:104E9000E64420602A46A1F800E0A380A4F806C0FA
:104EA000002105F083FB0023E1E70F88D019674458
:104EB00020602A460F80A380A4F806C0002105F0D8
:104EC00075FB00230622CDE906532368D3E700BF14
:104ED0000000024010B590FAA0F2B2FA82F290FA05
:104EE000A0F00F23B0FA80F0064C920003FA02F211
:104EF0002368800023EA020301FA00F018432060CF
:104F000010BD00BF0008014000F00700C0F107021B
:104F1000031D042A28BF0422062B4FF0FF3398BF3D
:104F2000002003FA02F388BF033821EA030101FAE3
:104F300000F0704710B54468546004891481847A85
:104F40009472047814704478547084789470C078A3
:104F5000D0700A691A61CA68DA608A689A604A7908
:104F60005A710A791A710A681A6010BD41F6FA730B
:104F70000C2230B5C25441F6F07340F20112C25017
:104F800041F6F4731F4A42F23101C25041F6F87300
:104F90004FF4FA72C25242F2380340F2FF72C2502A
:104FA000012242F23403C25000230324435442F24C
:104FB00030014454322142F22C04015142F20604E1
:104FC0004FF00135025541F6FC7405510E4D00F5C8
:104FD0000054256042F204044FF47A75055342F2FE
:104FE0003C04035142F24C04035142F24804025182
:104FF00042F24502835442F24402835400F50150C8
:10500000016030BD00007A440050C34738B5044603
:1050100000F016FC2046FFF7A9FF04F5005304F545
:10502000FF5204F5005104F5FF50183304322C31BF
:105030001030FFF77FFF002542F216034FF4FA52BB
:10504000E5542946C4E900552581C4E90355A582E4
:10505000C4E906552584C4E90955A585C4E90C555C
:10506000258704F13C0005F0A1FA04F5FF531D80EB
:1050700042F28C03E55042F20803E55042F20C0381
:10508000E55042F21003E55042F21403E5521F4D81
:105090000121E8681E4CC0F30220FFF735FF000134
:1050A000C0B284F81D03E8680521C0F30220FFF7B1
:1050B0002BFF4FF000530001C0B284F812032360AD
:1050C0004FF4802323608023C4F88030BFF34F8FD8
:1050D000BFF36F8F4FF48073C4F88030BFF34F8FEE
:1050E000BFF36F8F4FF40073C4F88030BFF34F8F5E
:1050F000BFF36F8F4FF48063C4F88030BFF34F8FDE
:10510000BFF36F8FBDE8384001F010BA00ED00E04A
:1051100000E100E0002142F2740310B5C15042F2F8
:105120007803C15042F28403C15042F25B03C15480
:1051300042F25A03C15442F25C03C15042F260038E
:10514000C15042F25803C154C288044612B10068EB
:1051500005F02CFA628A1AB10021E06805F026FAFF
:10516000E28B1AB10021A06905F020FA628D2AB104
:10517000606A0021BDE8104005F018BA10BD0000BB
:1051800038B5002242F278030446C2500D4621B9D8
:105190005D4A136823F00103136042F21503E35CD8
:1051A00023B142F21403E35C002B55D142F2160303
:1051B000E35C012B51D8002140F20220FFF78AFE68
:1051C000002140F20440FFF785FE002140F6080070
:1051D000FFF780FE002141F21000FFF77BFE4B4BF2
:1051E0002DB34B490A6842F001020A609A6842F402
:1051F00080129A6042F21C03E35C032B11D042F24E
:105200005403E35823B94FF4F071424802F06CF9AB
:105210003E4A414B51680B4042F2540161580B43E6
:105220005360394A136843F0010313600CE09A6835
:1052300022F480129A605968374A0A405A6042F252
:10524000107300BF013BFCD142F21503E554334B10
:105250001A6842F27403E25038BD42F29403E358F4
:1052600023B94FF4DD712B4802F03EF9042140F2DE
:105270000220FFF72FFE042140F20440FFF72AFE30
:10528000042140F60800FFF725FE042141F210003A
:10529000FFF720FE1C4BEDB121490A6842F00102E4
:1052A0000A60DA6842F40072DA6042F21C03E35CDE
:1052B000032BB6D042F29403E25853B2002BB0DB7A
:1052C000012102F01F0201FA02F216495B0941F8BE
:1052D0002320A6E7DA6822F40072DA6042F294032F
:1052E000E25853B2002BAADB012102F01F0201FA9F
:1052F00002F25B090B49203341F82320BFF34F8FA3
:10530000BFF36F8F9BE700BF000400400024014003
:105310000800024066C50008E0FD3FFF20090020AC
:105320006C00024000E100E02DE9F043044685B046
:105330000E460021FFF724FF2046FFF7EBFE002179
:1053400004F5FF5704F13C08C4E900112181C4E9C8
:105350000311A182C4E906112184C4E90911A185C0
:10536000C4E90C1121874FF4FA523980404605F008
:105370001DF941F6EE73E25C42F21603E35C0C2A7F
:1053800007BF4FEA46094FF47A60B1464FF4FA502E
:10539000022B37D041F6E57141F6E473655C41F6C6
:1053A000E671E35C2B44655C41F6E7712B44655C78
:1053B0001D446B1CE918714381423CDC01210292BF
:1053C0001E4A2046CDE9002103FB06F22146FFF7E5
:1053D00027FDA58605FB09F53B88ADB2E58608EB00
:1053E00003021D4422633D8041F6EC732046E652E1
:1053F00000F092FE20460121FFF7C2FE002005B01A
:10540000BDE8F083B6F5FA5F15D80D4B2146DB6891
:10541000029206222046CDE9003204233246FFF7ED
:10542000FFFC04233A88A38608EB02033244E68695
:1054300023633A80D8E76FF00100E0E74C24014095
:105440000008014038B501F0FB03082B04460D4667
:1054500001D001292DD141F6EE730C2DE55442F215
:10546000100320D1174AE25042F21603E35C012BED
:1054700022D800212046FFF783FE2046FFF74AFE90
:10548000082D1BD00021104801F0F2F841F6EC7312
:105490002046E15AFFF748FF012105462046FFF765
:1054A0006FFE284638BD082D0CBF084A4FF07E52CB
:1054B000D9E74FF0FF35F4E70025F2E76FF001057B
:1054C000EFE700BF00F07F450024014000007F436C
:1054D00041F6E4732DE9F043C55C41F6E57310F83D
:1054E000039041F6E6730E4610F8038041F6E77329
:1054F00085B00446C75C00213046FBF7CBFD002891
:105500004FD142F21603E35C022B48D005EB0900B1
:10551000404438440130FBF7CBFBFAF78FFF22A35E
:10552000D3E90023FAF7E2FF02460B4600202049A8
:10553000FBF706F9FBF7B2FA3146FBF7ABFD054680
:1055400078BB41F6E8790127014644F80960204616
:10555000FFF716FE0DF110082046FFF7DBFD48F8B7
:10556000047D30460297FBF7BDFD41460090114B8C
:105570004FF6FF7202A802F0DDF80F4B029A44F8D2
:1055800009009A62039A2046DA6200F0C5FD2046BF
:105590003946FFF7F5FD284605B0BDE8F08307481A
:1055A000CAE74FF0FF30F7E73FABCC94D6DFD23EEF
:1055B0000000F03F00A24A040004004000247449A7
:1055C0002DE9F0430446984641F6E473E15441F670
:1055D000E573E25441F6E67300F8038041F6E773A1
:1055E00085B09DF830900E4600F8039042F2150306
:1055F000C55C174635B10021FFF7C2FD2046FFF715
:1056000089FD012542F21603E35C022B0BD0042333
:105610000122CDF80090CDE90132314643463A46A9
:10562000094800F09FFF41F6EC732046E15AFFF76E
:105630007BFE06461DB101212046FFF7A1FD304645
:1056400005B0BDE8F08300BF0024014042F216031C
:1056500030B5C35C89B004460D46002B63D100F51C
:10566000005300F5FF522C33103204F5005104F5BD
:10567000FF5018310430FFF75DFC00212046FFF792
:105680007FFD2046FFF746FD42F214030122E2545B
:1056900042F216031022E55400210DEB020004F043
:1056A00085FF41F61E6308A941F8143D002D42D143
:1056B0005748FDF7B1F803212046FFF735FE41F6C4
:1056C000FA732046E15CFFF7BDFE41F6F37041F648
:1056D000F27341F6F17241F6F071205CA25CE35C7A
:1056E000615C00902046FFF76BFF41F6F4732046A3
:1056F000E158FFF7EDFE41F6F8732046E15AFFF757
:1057000013FE42F22C01615842F23103019142F240
:10571000300142F23802615CE35C009142F23401F4
:10572000A25C61582AE0022BA7D100F5FF5200F5D8
:1057300001531C3299E7012D2DD13548FDF76CF846
:1057400003212046FFF7F0FD0C212046FFF77AFEEB
:105750002B462A46294600952046FFF731FFC821EF
:105760002046FFF7E1FD2B492046FFF7B1FE03235A
:105770003222CDE9003200231A461946204600F0B5
:10578000B7FA42F2140300220121E2542046FFF747
:10579000F7FC09B030BD08231D480493FDF73CF821
:1057A00003212046FFF7C0FD42F206032046E15CDC
:1057B000FFF748FE41F6FF7041F6FE7341F6FD72B9
:1057C00041F6FC71205CA25CE35C615C00902046C9
:1057D000FFF7F6FE04F5005319682046FFF778FE40
:1057E00042F204032046E15AFFF79EFD04F5015101
:1057F000096842F24503019142F2440142F24C022F
:10580000615CE35C0091A25C42F2480189E700BF61
:10581000000801400000C84200280DDB01224309B6
:1058200000F01F0002FA00F0044A203342F823007F
:10583000BFF34F8FBFF36F8F704700BF00E100E0F1
:10584000002342F25402835042F25802835042F243
:105850005C02835042F26002835042F26402835041
:1058600042F26802835042F26C02835042F27002AC
:10587000835042F27402835042F27802835042F223
:105880007C02835000F50252136042F2840283507E
:1058900042F28802835042F28C020121835042F28C
:1058A0009002815042F294020721815042F2980204
:1058B000835042F29C02835042F2A0028350704710
:1058C00038B542F21503C25C0446002A42D042F2C7
:1058D00074012F4B41581B685B1A42F2780148BF94
:1058E00003F1FF33435042F21603E35C012B48D02F
:1058F00042F21C03E35C8AB383BB04F500539D6D45
:1059000015F0FF153DD142F2780204F50253A2587A
:105910001B689A4235DD29462046FFF731FC42F2EA
:105920008C03E358D9881B4B586880B2081A01F0E1
:10593000FCFE42F264030122E05042F25A03E254B8
:1059400042F25803E554144B092214491868FFF732
:10595000F9F916E042F27803C250C4E7032B10D1E4
:1059600042F27803E25842F28803E3589A4208DD93
:1059700042F25A030122E25442F25B03E35C002B41
:10598000E1D042F25A03E25C42F25B03E25438BDDA
:1059900020090020080002401C09002098C50008CA
:1059A00007B542F29C030122C25042F2A003C1504B
:1059B000002302A941F8043D0B4B186803F0E2FFF5
:1059C000012803D0B921094801F08EFD019B3BB1AC
:1059D0004FF08052064B1A60BFF34F8FBFF36F8FAB
:1059E00003B05DF804FB00BF442E0020A2C50008F0
:1059F00004ED00E038B542F28C03C35804461BB9ED
:105A00005D21304801F070FD42F29003E3581BB96C
:105A10005E212C4801F068FD42F28C056359D9885B
:105A200042F29003E258284B134413F8013C03F16F
:105A3000804303F50033586880B2081A01F075FE00
:105A400042F25A03E35C014633BB42F29C03E35843
:105A500013BB62599388C31A48BFD088126848BFE5
:105A60001B1841F6EE70205C082807BF505CD35C21
:105A700032F8110032F8133042F21D02A25C62B912
:105A800042F22402A258904201DD9A420EDA42F21A
:105A90006002A3580133A35038BD012AF7D142F266
:105AA0002402A2589042F2DA9A42F0DC42F27803E1
:105AB000E25842F27C03E3589A42E8DD2046FFF7C1
:105AC0006FFFE4E7A2C5000891C5000838B542F2AF
:105AD0008C03C35804461BB9A4211B4801F004FDE4
