:020000040800F2
:10000000005000207D1B0008A91A0008AB1A000848
:10001000AD1A0008AF1A0008B11A0008000000006D
:10002000000000000000000000000000B31A0008FB
:10003000B51A000800000000B71A0008B91A000835
:10004000C51B0008C51B0008C51B0008C51B000810
:10005000C51B0008C51B0008C51B0008C51B000800
:10006000C51B0008C51B0008C51B0008115000086F
:10007000C51B0008C51B0008C51B0008C51B0008E0
:10008000C51B0008C51B0008F94E0008C51B000869
:10009000BD1A0008C51B0008C51B0008C51B0008C9
:1000A000C51B0008C51B0008C51B0008C51B0008B0
:1000B000C51B0008C51B000815500008C51B00081B
:1000C000C51B0008C51B0008C51B0008C51B000890
:1000D000C51B0008B94E0008C51B0008C51B000859
:1000E000C51B0008C51B0008C51B00080000000058
:1000F0000000000000000000000000000000000000
:0C01000000000000000000005FF808F1A3
:1001100010B5054C237833B9044B13B10448AFF341
:1001200000800123237010BD640300200000000044
:10013000F09E000808B5034B1BB103490348AFF319
:10014000008008BD0000000068030020F09E000849
:1001500010F8012B11F8013B012A28BF9A42F7D071
:10016000D01A7047034613F8012B002AFBD1181A46
:100170000138704781F0004102E000BF83F0004386
:1001800030B54FEA41044FEA430594EA050F08BF32
:1001900090EA020F1FBF54EA000C55EA020C7FEAF6
:1001A000645C7FEA655C00F0E2804FEA5454D4EB73
:1001B0005555B8BF6D420CDD2C4480EA020281EA3D
:1001C000030382EA000083EA010180EA020281EA75
:1001D0000303362D88BF30BD11F0004F4FEA0131C7
:1001E0004FF4801C4CEA113102D0404261EB4101D6
:1001F00013F0004F4FEA03334CEA133302D052425C
:1002000063EB430394EA050F00F0A780A4F1010417
:10021000D5F1200E0DDB02FA0EFC22FA05F2801851
:1002200041F1000103FA0EF2801843FA05F3594137
:100230000EE0A5F120050EF1200E012A03FA0EFCB6
:1002400028BF4CF0020C43FA05F3C01851EBE371E0
:1002500001F0004507D54FF0000EDCF1000C7EEBFD
:1002600000006EEB0101B1F5801F1BD3B1F5001F3B
:100270000CD349085FEA30004FEA3C0C04F101045A
:100280004FEA445212F5800F80F09A80BCF1004F83
:1002900008BF5FEA500C50F1000041EB045141EA05
:1002A000050130BD5FEA4C0C404141EB010111F406
:1002B000801FA4F10104E9D191F0000F04BF0146B1
:1002C0000020B1FA81F308BF2033A3F10B03B3F18F
:1002D00020020CDA0C3208DD02F1140CC2F10C021F
:1002E00001FA0CF021FA02F10CE002F11402D8BF7D
:1002F000C2F1200C01FA02F120FA0CFCDCBF41EA49
:100300000C019040E41AA2BF01EB0451294330BD17
:100310006FEA04041F3C1CDA0C340EDC04F11404F4
:10032000C4F1200220FA04F001FA02F340EA0300CB
:1003300021FA04F345EA030130BDC4F10C04C4F111
:10034000200220FA02F001FA04F340EA03002946F1
:1003500030BD21FA04F0294630BD94F0000F83F43B
:10036000801306BF81F480110134013D4EE77FEA1E
:10037000645C18BF7FEA655C29D094EA050F08BF6A
:1003800090EA020F05D054EA000C04BF194610464B
:1003900030BD91EA030F1EBF0021002030BD5FEA8F
:1003A000545C05D14000494128BF41F0004130BDB7
:1003B00014F580043CBF01F5801130BD01F000450B
:1003C00045F0FE4141F470014FF0000030BD7FEA7E
:1003D000645C1ABF194610467FEA655C1CBF0B4679
:1003E000024650EA013406BF52EA033591EA030F90
:1003F00041F4002130BD00BF90F0000F04BF002188
:10040000704730B54FF4806404F132044FF00005BA
:100410004FF0000150E700BF90F0000F04BF002133
:10042000704730B54FF4806404F1320410F0004599
:1004300048BF40424FF000013EE700BF42004FEA94
:10044000E2014FEA31014FEA02701FBF12F07F4311
:1004500093F07F4F81F06051704732F07F4208BFC8
:10046000704793F07F4F04BF41F40021704730B5CF
:100470004FF4607401F0004521F000411CE700BF1B
:1004800050EA010208BF704730B54FF000050AE09E
:1004900050EA010208BF704730B511F0004502D59F
:1004A000404261EB41014FF4806404F132045FEAA1
:1004B000915C3FF4D8AE4FF003025FEADC0C18BF4A
:1004C00003325FEADC0C18BF033202EBDC02C2F13C
:1004D000200300FA03FC20FA02F001FA03FE40EACE
:1004E0000E0021FA02F11444BDE600BF70B54FF0D2
:1004F000FF0C4CF4E06C1CEA11541DBF1CEA1355B0
:1005000094EA0C0F95EA0C0F00F0DEF82C4481EA17
:10051000030621EA4C5123EA4C5350EA013518BF37
:1005200052EA033541F4801143F4801338D0A0FB24
:1005300002CE4FF00005E1FB02E506F00042E0FBD1
:1005400003E54FF00006E1FB03569CF0000F18BFD7
:100550004EF0010EA4F1FF04B6F5007F64F540747F
:1005600004D25FEA4E0E6D4146EB060642EAC62112
:1005700041EA55514FEAC52040EA5E504FEACE2E7F
:10058000B4F1FD0C88BFBCF5E06F1ED8BEF1004F82
:1005900008BF5FEA500E50F1000041EB045170BDFE
:1005A00006F0004646EA010140EA020081EA030142
:1005B000B4EB5C04C2BFD4EB0C0541EA045170BD3E
:1005C00041F480114FF0000E013C00F3AB8014F1B8
:1005D000360FDEBF002001F0004170BDC4F1000401
:1005E000203C35DA0C341BDC04F11404C4F1200582
:1005F00000FA05F320FA04F001FA05F240EA0200DD
:1006000001F0004221F0004110EBD37021FA04F612
:1006100042EB06015EEA430E08BF20EAD37070BDCC
:10062000C4F10C04C4F1200500FA04F320FA05F02B
:1006300001FA04F240EA020001F0004110EBD3702D
:1006400041F100015EEA430E08BF20EAD37070BD9D
:10065000C4F1200500FA05F24EEA020E20FA04F376
:1006600001FA05F243EA020321FA04F001F0004125
:1006700021FA04F220EA020000EBD3705EEA430E96
:1006800008BF20EAD37070BD94F0000F0FD101F0C5
:100690000046400041EB010111F4801F08BF013CFE
:1006A000F7D041EA060195F0000F18BF704703F03C
:1006B0000046520043EB030313F4801F08BF013DC3
:1006C000F7D043EA0603704794EA0C0F0CEA13557F
:1006D00018BF95EA0C0F0CD050EA410618BF52EA39
:1006E0004306D1D181EA030101F000414FF000003F
:1006F00070BD50EA410606BF1046194652EA43064D
:1007000019D094EA0C0F02D150EA013613D195EAC0
:100710000C0F05D152EA03361CBF104619460AD108
:1007200081EA030101F0004141F0FE4141F4700112
:100730004FF0000070BD41F0FE4141F4780170BD02
:1007400070B54FF0FF0C4CF4E06C1CEA11541DBF67
:100750001CEA135594EA0C0F95EA0C0F00F0A7F869
:10076000A4EB050481EA030E52EA03354FEA013196
:1007700000F088804FEA03334FF0805545EA1313A9
:1007800043EA12634FEA022245EA111545EA106571
:100790004FEA00260EF000419D4208BF964244F108
:1007A000FD0404F5407402D25B084FEA3202B61A27
:1007B00065EB03055B084FEA32024FF480104FF4FB
:1007C000002CB6EB020E75EB030E22BFB61A75466F
:1007D00040EA0C005B084FEA3202B6EB020E75EB02
:1007E000030E22BFB61A754640EA5C005B084FEA6A
:1007F0003202B6EB020E75EB030E22BFB61A754637
:1008000040EA9C005B084FEA3202B6EB020E75EB41
:10081000030E22BFB61A754640EADC0055EA060E02
:1008200018D04FEA051545EA16754FEA06164FEA45
:10083000C30343EA52734FEAC2025FEA1C1CC0D1F1
:1008400011F4801F0BD141EA00014FF000004FF07E
:10085000004CB6E711F4801F04BF01430020B4F13F
:10086000FD0C88BFBCF5E06F3FF6AFAEB5EB030CF7
:1008700004BFB6EB020C5FEA500C50F1000041EBF4
:10088000045170BD0EF0004E4EEA113114EB5C04C1
:10089000C2BFD4EB0C0541EA045170BD41F4801194
:1008A0004FF0000E013C90E645EA060E8DE60CEA9C
:1008B000135594EA0C0F08BF95EA0C0F3FF43BAFB9
:1008C00094EA0C0F0AD150EA01347FF434AF95EA70
:1008D0000C0F7FF425AF104619462CE795EA0C0F54
:1008E00006D152EA03353FF4FDAE1046194622E721
:1008F00050EA410618BF52EA43067FF4C5AE50EAFB
:1009000041047FF40DAF52EA43057FF4EBAE12E7EA
:100910004FF0FF3C06E000BF4FF0010C02E000BFCB
:100920004FF0010C4DF804CD4FEA410C7FEA6C5CAE
:100930004FEA430C18BF7FEA6C5C1BD001B050EA51
:10094000410C0CBF52EA430C91EA030F02BF90EA3C
:10095000020F0020704710F1000F91EA030F58BFFB
:10096000994208BF90422CBFD8176FEAE37040F05D
:10097000010070474FEA410C7FEA6C5C02D150EAFB
:10098000013C07D14FEA430C7FEA6C5CD6D152EAB6
:10099000033CD3D05DF8040B704700BF844610467B
:1009A00062468C461946634600E000BF01B5FFF77A
:1009B000B7FF002848BF10F1000F01BD4DF808ED4A
:1009C000FFF7F4FF0CBF012000205DF808FB00BF1B
:1009D0004DF808EDFFF7EAFF34BF012000205DF875
:1009E00008FB00BF4DF808EDFFF7E0FF94BF0120C2
:1009F00000205DF808FB00BF4DF808EDFFF7CEFFC3
:100A000094BF012000205DF808FB00BF4DF808ED01
:100A1000FFF7C4FF34BF012000205DF808FB00BFD2
:100A20004FEA410C7FEA6C5C02D150EA013C0AD1EA
:100A30004FEA430C7FEA6C5C02D152EA033C02D1DC
:100A40004FF0000070474FF0010070474FEA41023D
:100A500012F5001215D211D56FF47873B3EB625210
:100A600012D94FEAC12343F0004343EA505311F037
:100A7000004F23FA02F018BF404270474FF00000C9
:100A8000704750EA013005D111F0004008BF6FF007
:100A9000004070474FF00000704700BF4A0011D27D
:100AA00012F5001211D20DD56FF47873B3EB6252C8
:100AB0000ED44FEAC12343F0004343EA505323FAD4
:100AC00002F070474FF00000704750EA013002D149
:100AD0004FF0FF3070474FF0000070474FEA41027F
:100AE000B2F1E04324BFB3F5001CDCF1FE5C0DD98C
:100AF00001F0004C4FEAC0024CEA5070B2F1004FD6
:100B000040EB830008BF20F00100704711F0804FD8
:100B100021D113F13872BCBF01F00040704741F49D
:100B200080114FEA5252C2F11802C2F1200C10FAA1
:100B30000CF320FA02F018BF40F001004FEAC12385
:100B40004FEAD32303FA0CFC40EA0C0023FA02F329
:100B50004FEA4303CCE77FEA625307D150EA0133FF
:100B60001EBF4FF0FE4040F44000704701F00040CF
:100B700040F0FE4040F40000704700BF80F00040AD
:100B800002E000BF81F0004142001FBF5FEA410365
:100B900092EA030F7FEA226C7FEA236C6AD04FEA65
:100BA0001262D2EB1363C1BFD218414048404140AA
:100BB000B8BF5B42192B88BF704710F0004F40F45C
:100BC000000020F07F4018BF404211F0004F41F478
:100BD000000121F07F4118BF494292EA030F3FD044
:100BE000A2F1010241FA03FC10EB0C00C3F1200357
:100BF00001FA03F100F0004302D5494260EB4000E6
:100C0000B0F5000F13D3B0F1807F06D340084FEA50
:100C1000310102F10102FE2A51D2B1F1004F40EB45
:100C2000C25008BF20F0010040EA030070474900AD
:100C300040EB000010F4000FA2F10102EDD1B0FA78
:100C400080FCACF1080CB2EB0C0200FA0CF0AABF6D
:100C500000EBC25052421843BCBFD040184370470B
:100C600092F0000F81F4000106BF80F40000013211
:100C7000013BB5E74FEA41037FEA226C18BF7FEAE8
:100C8000236C21D092EA030F04D092F0000F08BF2A
:100C90000846704790EA010F1CBF0020704712F011
:100CA0007F4F04D1400028BF40F00040704712F150
:100CB00000723CBF00F50000704700F0004343F0B5
:100CC000FE4040F4000070477FEA226216BF0846EB
:100CD0007FEA23630146420206BF5FEA412390EAAE
:100CE000010F40F4800070474FF0000304E000BFA4
:100CF00010F0004348BF40425FEA000C08BF704755
:100D000043F0964301464FF000001CE050EA010218
:100D100008BF70474FF000030AE000BF50EA01022D
:100D200008BF704711F0004302D5404261EB41011A
:100D30005FEA010C02BF84460146002043F0B6433F
:100D400008BFA3F18053A3F50003BCFA8CF2083A64
:100D5000A3EBC25310DB01FA02FC634400FA02FC6D
:100D6000C2F12002BCF1004F20FA02F243EB020074
:100D700008BF20F00100704702F1200201FA02FCD6
:100D8000C2F1200250EA4C0021FA02F243EB0200C9
:100D900008BF20EADC7070474FF0FF0C1CEAD0520D
:100DA0001EBF1CEAD15392EA0C0F93EA0C0F6FD0CE
:100DB0001A4480EA010C400218BF5FEA41211ED0AC
:100DC0004FF0006343EA501043EA5111A0FB013198
:100DD0000CF00040B1F5000F3EBF490041EAD3716D
:100DE0005B0040EA010062F17F02FD2A1DD8B3F1E9
:100DF000004F40EBC25008BF20F00100704790F058
:100E0000000F0CF0004C08BF49024CEA502040EAA9
:100E100051207F3AC2BFD2F1FF0340EAC25070476F
:100E200040F400004FF00003013A5DDC12F1190FAD
:100E3000DCBF00F000407047C2F10002410021FA1F
:100E400002F1C2F1200200FA02FC5FEA310040F137
:100E5000000053EA4C0308BF20EADC70704792F0B0
:100E6000000F00F0004C02BF400010F4000F013AE8
:100E7000F9D040EA0C0093F0000F01F0004C02BFE3
:100E8000490011F4000F013BF9D041EA0C018FE752
:100E90000CEAD15392EA0C0F18BF93EA0C0F0AD058
:100EA00030F0004C18BF31F0004CD8D180EA01007E
:100EB00000F00040704790F0000F17BF90F0004F17
:100EC000084691F0000F91F0004F14D092EA0C0FF9
:100ED00001D142020FD193EA0C0F03D14B0218BF8C
:100EE000084608D180EA010000F0004040F0FE40D2
:100EF00040F40000704740F0FE4040F4400070476E
:100F00004FF0FF0C1CEAD0521EBF1CEAD15392EAEC
:100F10000C0F93EA0C0F69D0A2EB030280EA010CDC
:100F200049024FEA402037D04FF0805343EA111175
:100F300043EA10130CF000408B4238BF5B0042F1D3
:100F40007D024FF4000C8B4224BF5B1A40EA0C0078
:100F5000B3EB510F24BFA3EB510340EA5C00B3EBAA
:100F6000910F24BFA3EB910340EA9C00B3EBD10F98
:100F700024BFA3EBD10340EADC001B0118BF5FEAEA
:100F80001C1CE0D1FD2A3FF650AF8B4240EBC25013
:100F900008BF20F0010070470CF0004C4CEA5020D4
:100FA0007F32C2BFD2F1FF0340EAC250704740F423
:100FB00000004FF00003013A37E792F0000F00F015
:100FC000004C02BF400010F4000F013AF9D040EA93
:100FD0000C0093F0000F01F0004C02BF490011F427
:100FE000000F013BF9D041EA0C0195E70CEAD1531F
:100FF00092EA0C0F08D142027FF47DAF93EA0C0F06
:101000007FF470AF084676E793EA0C0F04D14B02E9
:101010003FF44CAF08466EE730F0004C18BF31F09B
:10102000004CCAD130F000427FF45CAF31F0004395
:101030007FF43CAF5FE700BF4FEA4002B2F1FE4FE2
:101040000FD34FF09E03B3EB12620DD94FEA00238A
:1010500043F0004310F0004F23FA02F018BF404263
:1010600070474FF00000704712F1610F01D142024A
:1010700005D110F0004008BF6FF0004070474FF0FE
:101080000000704753B94AB9002908BF00281CBFA7
:101090004FF0FF314FF0FF3000F074B9ADF1080CA4
:1010A0006DE904CE00F006F8DDF804E0DDE9022386
:1010B00004B070472DE9F0478C460446089E002B8B
:1010C0004BD18A42154667D9B2FA82F24AB1C2F1CF
:1010D000200701FA02F320FA07F7954047EA030CCC
:1010E00094404FEA154EBCFBFEF71FFA85F80EFB45
:1010F00017C307FB08F9210C41EA0343994509D9B5
:10110000EB1807F1FF3180F01C81994540F21981FD
:10111000023F2B44A3EB0903B3FBFEF00EFB10339D
:1011200000FB08F1A4B244EA0344A14209D92C19F6
:1011300000F1FF3380F00781A14240F204810238C0
:101140002C4440EA07400027641A1EB10023D44013
:10115000C6E900433946BDE8F0878B4209D9002E25
:1011600000F0EC800027C6E9000138463946BDE8AA
:10117000F087B3FA83F7002F48D18B4202D3824223
:1011800000F2FB80841A61EB030301209C46002ED1
:10119000E0D0C6E9004CDDE702B9FFDEB2FA82F228
:1011A000002A40F08F800127491B4FEA15481FFA9B
:1011B00085F9B1FBF8FE08FB1E1109FB0EF04FEAA2
:1011C000144C4CEA0143984207D9EB180EF1FF3159
:1011D00002D2984200F2CD808E461B1AB3FBF8F083
:1011E00008FB103309FB00F9A4B244EA0344A1450B
:1011F00007D92C1900F1FF3302D2A14500F2B680C5
:101200001846A4EB090440EA0E409EE7C7F120050A
:10121000BB4022FA05FC4CEA030C21FA05F44FEA24
:101220001C4EB4FBFEF91FFA8CF80EFB194420FA91
:1012300005F3B94009FB08FA19430B0C43EA0444CF
:10124000A24502FA07F200FA07F30BD91CEB0404DB
:1012500009F1FF3080F08880A24540F28580A9F135
:1012600002096444A4EB0A04B4FBFEF00EFB104434
:1012700000FB08FA89B241EA0444A24508D91CEBF4
:10128000040400F1FF316BD2A24569D902386444ED
:1012900040EA0940A0FB0289A4EB0A044C45414600
:1012A000CE4654D351D0002E69D05A1A64EB0E04A6
:1012B00004FA05F522FA07F3FC401D43C6E9005481
:1012C000002747E79540C2F1200321FA03F04FEAD7
:1012D0001548B0FBF8F71FFA85F908FB170024FA48
:1012E00003F3914007FB09FC0B43190C41EA004151
:1012F0008C4504FA02F407D9691807F1FF3031D29E
:101300008C452FD9023F2944A1EB0C01B1FBF8F029
:1013100008FB101C00FB09FE99B241EA0C418E4506
:1013200007D9691800F1FF3318D28E4516D9023853
:101330002944A1EB0E0140EA07473AE73746304619
:1013400008E70F46E6E61846FBE64345ABD2B8EBA6
:10135000020169EB0C0201389646A4E71846E8E75B
:10136000084695E70746CFE781467BE702382C44DD
:1013700047E7AEF1020E2B442FE7384607E7374622
:10138000E8E600BF704700BF054B82B09A69024390
:101390009A619B6918400190019B02B0704700BFA1
:1013A0000010024070B54FF0007393FAA3F3B3FA44
:1013B00083F300F000740F4DDC4055F8242000F05A
:1013C000F8704FF0F87393FAA3F1B1FA81F193FA40
:1013D000A3F3B3FA83F3072620FA01F1D8400623DA
:1013E00006FA01F122EA010203FA00F0104345F87F
:1013F000240070BD0C24014000207047274B10B51D
:101400001A6822F0070242F002021A601A6802F01B
:101410000702022AFAD1224C236843F48033236066
:1014200023689A03FCD5236843F400232360636890
:1014300023F47C1343F4E8136360236843F0807360
:10144000236023689B01FCD5636823F0F00363608D
:10145000636823F4E06343F480636360636823F4A8
:1014600060536360636823F0030343F00203636027
:10147000636803F00C03082BFAD10A4802F054FC0D
:10148000002000F0A1FB636823F4404343F40043D1
:101490006360636823F48003636010BD0020024032
:1014A0000010024000A24A042DE9F04F4FF0140949
:1014B00097B000F0ADFBFFF7A1FF4A4600210EA850
:1014C00006F016F91020FFF75FFF2020FFF75CFF02
:1014D0000420FFF759FF0820FFF756FF4FF4005391
:1014E000C848C94A036101230024CDE90E23022321
:1014F0000EA94FF00408CDE9103401F070FC4EF253
:10150000E003DFF83CA30EA95046CDE90E3801F008
:1015100066FC40F201130EA9BC48CDE90E3801F07B
:101520005EFCBB4BBB4D5A69BB4F42F001025A6196
:101530005A69019302F001020292029AE8684FF49C
:101540008076C0F30220FFF757FF4FF4006200FAE5
:1015500008F0C0B287F80B0321463A6009A84A4652
:10156000CDE90444039406F0C3F84A4621460EA888
:1015700006F0BEF84FF40070FFF706FF4046FFF795
:1015800003FF40F206620EA95046CDE90E2401F099
:1015900026FCA24ADFF8ACB2116821F4804121F0A8
:1015A00010011160116841F440511160116841F05F
:1015B00020011160116821F040011160116841F0B3
:1015C00080011160116821F4407141F48071116053
:1015D000116821F4406141F480611160E868904D28
:1015E000C0F30220FFF708FF4FF4802200FA08F052
:1015F000C0B287F8120304A93A60284605960494FD
:1016000001F0B6FB16A941F84C4D284601F094FBB9
:101610004FF400124FF400212846CDE9091209A920
:101620000D96CDE90B4401F0B8FB69687D4A4FF493
:1016300040760A4042F400026A606A6A7A496FEAB8
:1016400012326FEA02326A624A6822F47F6222F042
:101650000F0242F00A024A606A6842F040026A6081
:1016600096FAA6F04FF40071B0FA80F021FA00F07B
:101670005BF82020009122F01F0C4CF011024BF877
:1016800020206A48FFF78EFEA86840F40000A8609A
:1016900096FAA6F0B0FA80F0009921FA00F05BF813
:1016A000205025F4787545F020054BF8205060480F
:1016B000FFF778FE96FAA6F6B6FA86F600995D4828
:1016C00021FA06F65BF826104FF0804521F4F84128
:1016D00041F400614BF826102026FFF763FE03F06B
:1016E00039F84A46214604A806F002F83246214657
:1016F0000EA805F0FDFF4A46214609A805F0F8FFAF
:10170000019B04A9DA694FF0804042F00102DA61DE
:10171000DB694FF01C0B03F001030393039B4FF4B1
:101720007A730693009301F033FC2A68012122F0BA
:1017300080022A60AA68284622F4804222F007022A
:10174000AA60AA6942F00802AA616022CDE90E24CB
:101750000EAACDE91044129401F052FCAA6910219E
:1017600022F00402AA61AA69284642F40062AA6132
:101770000EAACDE90F4401F043FCAA69404622F4C9
:101780008062AA616A6822F070026A60AA6822F028
:101790008002AA60FFF7F8FD0820FFF7F5FD092594
:1017A0000223254A09A95046CDE90925CDE90B3484
:1017B00001F015FB022340F6080209A91348CDE900
:1017C0000B34CDE9092501F00AFB1C490EA84A6833
:1017D00022F0E06222F4407242F0E06242F4807251
:1017E0004A605A46214605F083FF4A46214609A829
:1017F00005F07EFF4FF48040FFF7C6FD4046FFF73F
:10180000C3FD21E00010014020002004000C014035
:101810000010024000ED00E000E100E0080002409E
:1018200000240140E0FD3FFF2424014011005081CD
:1018300001003002020060028000800400000140CC
:10184000000801402C240140534A09A9CDE909258B
:1018500003225046CDE90B24504D01F0C0FA504A06
:1018600009A95046CDE9092801F0B9FAE8684FF016
:10187000100AC0F30220FFF7BFFD4FF4E13200FA77
:1018800008F0C0B287F825037E60CDE90E240C2253
:101890004FF048094FF080084FF48057414D0EA992
:1018A0002846CDE91224CDE91044149401F070FCCF
:1018B0002A69214622F490422A616A6909A822F025
:1018C0002A026A61EA6842F40052EA605246364DE2
:1018D00005F00EFF21465A460EA8CDE9044405F056
:1018E00007FF009B314A2846C5E901342A60C5E953
:1018F0000394C5F8188001F0A1F809A928460997B2
:1019000001F053F9284601F0C5F80DEB0A0128460D
:10191000CDE9046401F0DEF922460EA92846CDE99E
:101920000E441094129401F00DF95246214609A874
:101930001F4D05F0DDFE21465A460EA8CDE90444B0
:1019400005F0D6FE009B1B4A2846C5E901342A60F3
:10195000C5E90394C5F8188001F070F809A9284674
:10196000099701F022F9284601F094F80DEB0A01DD
:101970002846CDE9044401F0ADF922460EA92846D7
:10198000CDE90E441094129401F0DCF803F01EF936
:10199000204617B0BDE8F08F0200020400ED00E021
:1019A0000400040400380140F80500200004004051
:1019B000B00500200008004070470000204B07B52C
:1019C0009A69012142F001029A619A696FF00B0055
:1019D00002F001020092009ADA6942F08052DA6164
:1019E000DB69002203F080530193019B00F040F972
:1019F000002201216FF00A0000F03AF900220121D3
:101A00006FF0090000F034F9002201216FF00400AA
:101A100000F02EF9002201216FF0030000F028F9F8
:101A200000220F216FF0010000F022F9054A5368EF
:101A300023F0E06343F00073536003B05DF804FBF0
:101A4000001002400000014007B50368134A9342AA
:101A50000CD1134BDA6942F00202DA61DB6903F060
:101A600002030093009B03B05DF804FB0D4A934210
:101A7000F9D10B4B1E20DA6942F00402DA61002230
:101A8000DB69114603F004030193019B00F0F0F8B9
:101A90001E2003B05DF804EB00F01EB90004004006
:101AA00000100240000800407047FEE7FEE7FEE736
:101AB000FEE770477047704700F0BCB8014800F07F
:101AC000D5B900BFA41300200120704708B505F068
:101AD00083FD162303604FF0FF3008BD08B505F005
:101AE0007BFD16230360FEE770B50E4615460C46D7
:101AF000A31B9D4201DC284670BDAFF3008004F8B3
:101B0000010BF5E770B50E4615460C46A31B9D422A
:101B100001DC284670BD14F8010BAFF30080F5E737
:101B20004FF0FF3070474FF4005300204B60704778
:101B300001207047002070470B4B10B51968024612
:101B400009B90A491960186809490A4C0244091B75
:101B50008A4206D905F040FD0C2303604FF0FF30A8
:101B600010BD1A60FCE700BF80030020502C00204D
:101B7000005000200004000070470000002103E036
:101B80000B4B5B58435004310A480B4B42189A42A6
:101B9000F6D30A4A02E0002342F8043B084B9A427B
:101BA000F9D3FFF7E9FF05F02FFDFFF77DFC704744
:101BB00018A7000800000020640300206403002030
:101BC0004C2C0020FEE7000038B50E4B0546187877
:101BD0004FF47A73B3FBF0F30B4A1068B0FBF3F0E9
:101BE00000F088F8044658B90F2D09D80246294656
:101BF0004FF0FF3000F03CF82046044B1D6038BD2C
:101C00000120FCE704000020000000200800002064
:101C1000074A08B51368032043F01003136000F06F
:101C200015F80020FFF7D0FFFFF7C8FE002008BD21
:101C300000200240034A044B11681B780B441360D8
:101C4000704700BF0C07002004000020074A000274
:101C5000D36800F4E06023F4E0631B041B0C43F042
:101C6000BF6343F400330343D360704700ED00E0EB
:101C7000174B70B5DC684FF0FF36C4F30224C4F193
:101C80000705042D04F1040328BF0425062B98BF83
:101C9000002406FA05F388BF033C21EA0303A340AE
:101CA00006FA04F422EA0404002843EA0403A8BF65
:101CB00000F160404FEA0313B8BF064ADBB2ABBF86
:101CC00000F5614000F00F0080F80033135470BD40
:101CD00000ED00E014ED00E0002808DB01234209DC
:101CE00000F01F0003FA00F0014B43F82200704798
:101CF00000E100E00138B0F1807F0AD2F021064B0C
:101D0000064A586082F823100020072298601A6063
:101D100070470120704700BF10E000E000ED00E0D8
:101D2000F0B5044687B010B390F8A93203F0FF0273
:101D30001BB980F8A82202F017FE254603236E4641
:101D400055F8100B84F8A93201F084FA0FCD0FC6B4
:101D50002B6825463360271D97E80E0055F8100BB9
:101D600001F068FA064620B1022384F8A932012561
:101D70004BE00146206801F077FA30464FF0010E43
:101D800028260146D4F804C0C2B2944500F10100EF
:101D900018D8002328261946D8B2844503F1010338
:101DA0001DD80FCD6E460FC62B68336097E80E0026
:101DB000206801F05BFA01230546F8B1022284F89D
:101DC000A922D4E706FB024383F829E083F8282000
:101DD000DA8683F82B10C3E90E111964D4E706FBE9
:101DE000004282F8691182F8680182F86B11C2F82A
:101DF0007811C2F87C11C2F88011CDE784F8240074
:101E000084F8A932206801F0B0FC284607B0F0BD84
:101E100038B590F8A8320446012B10D0012580F87F
:101E2000A852006801F00DFA2946204602F0CDFEC6
:101E3000206801F098FC002084F8A80238BD022038
:101E4000FCE790F8A82210B5012A04460BD0012225
:101E500080F8A82284F82410006801F07EFC00209D
:101E600084F8A80210BD0220FCE700002DE9F04F25
:101E7000044685B0006801F07AFC020409D5DFF859
:101E80002898DFF828882068B0F844301B0400F157
:101E9000BC80206801F06BFC43050FD5226820460A
:101EA000B2F8443023F480631B041B0CA2F84430C6
:101EB00002F095FD00212046FFF7C3FF206801F0E6
:101EC00056FC470408D52268B2F8443023F4804316
:101ED0001B041B0CA2F84430206801F048FC860467
:101EE00008D52268B2F8443023F400531B041B0CBD
:101EF000A2F84430206801F03AFCC5041CD52268E1
:101F00002046B2F8403023F004031B041B0CA2F857
:101F10004030B2F8403023F008031B041B0CA2F839
:101F2000403002F07FFD2268B2F8443023F4805341
:101F30001B041B0CA2F84430206801F018FC0005BB
:101F400041D50022236833F822102DF812100132F7
:101F5000082AF8D1B3F8402042F00102A3F840204B
:101F6000B3F8402022F001021204120CA3F8402022
:101F7000B3F844205105FBD5B3F8442022F4806225
:101F80001204120CA3F8442000223DF8121023F88A
:101F900022100132082AF8D1B3F84020204642F03E
:101FA0000802A3F84020B3F8442022F4006212048F
:101FB000120CA3F84420B3F8402042F00402A3F826
:101FC000402002F01FFD206801F0D1FB82050BD5F7
:101FD00022682046B2F8443023F400731B041B0C23
:101FE000A2F8443002F0F7FC206801F0C0FBC30502
:101FF00008D52268B2F8443023F480731B041B0C0C
:10200000A2F8443005B0BDE8F08FB0F8441089B2B2
:1020100011F00F0640F0B18011F0100103882AD1B1
:1020200009EA030343F400430380B0F8503094F806
:10203000282003EBC20300EB4300B0F80434E26B4A
:10204000C3F3090363641344E363204602F0BBFC5B
:1020500094F82430002B3FF416AF226C002A7FF452
:1020600012AF94F82430216843F08003A1F84C307B
:1020700084F8242007E79BB213F4006520D0B0F861
:10208000503094F8682104F52C7103EBC20300EB87
:102090004303B3F80C34B4F86E21C3F30903C4F856
:1020A000843101F025FE22682046138823F0700356
:1020B0001B051B0D43F08003138002F075FCE2E664
:1020C0001F047FF5E0AE038823F070031B051B0D92
:1020D00043F080030380B0F8503094F8682103EB9C
:1020E000C20300EB4303B3F80C34C3F30903C4F891
:1020F00084318BB1D4F87C1171B1B4F86E2101F048
:10210000F7FDD4F87C31D4F8842129461344C4F86F
:102110007C31204602F04EFC2168D4F87851B1F8A9
:10212000503001F20C409BB2BDB9C25A22F4F842C1
:102130001204120CC252C25A48EA020292B2C252AD
:102140000B8823F4804323F0700383F4405343F45B
:10215000004343F080030B8095E63E2D05D86A08C6
:10216000EE0748BF01329202E8E76A09ED0608BFB0
:1021700002F1FF3248EA8222E0E730F82670BFB26F
:10218000390440F1F280282130F8263001FB064165
:1021900023F070031B051B0D43F0800320F826304D
:1021A00091F8743100F5806CABB9B0F8503091F80B
:1021B0006821063303EBC2033CF81350C5F309054D
:1021C000002D00F0B6802B46B1F86E21D1F87C11BD
:1021D00001F08EFDADE091F86B3191F86821022B92
:1021E00040F0898017F4804A4FEAC205D1F8803167
:1021F00007F0400E3ED0B0F850A0554402353CF8F0
:102200001550C5F309059D428CBF00235B1BC1F827
:102210008031282303FB0643D3F880316BB930F8B3
:10222000223023F4804323F0700383F4005343F4FB
:10223000004343F0800320F82230BEF1000F10D09D
:10224000282303FB064393F8682130F8223023F05B
:10225000F0031B051B0D43F4004343F0C00320F8BB
:102260002230002D65D0282101FB06412B46B1F814
:102270007021ABE7B0F850B05D4406353CF815501E
:10228000C5F309059D429CBF5B1BC1F880314FF02F
:10229000280303FB064388BFC1F880A1D3F880312F
:1022A0006BB930F8223023F4804323F0700383F4B9
:1022B000005343F4004343F0800320F82230BEF182
:1022C000000F10D1282303FB064393F8682130F850
:1022D000223023F0F0031B051B0D43F4004343F0B1
:1022E000C00320F8223025B3282101FB06412B46EC
:1022F000B1F872216AE730F8223023F0F0031B05B1
:102300001B0D43F4004343F0C00320F8223091F842
:10231000683130F82320DB0012F4804FB0F85020F1
:102320005ED0023213443CF81350C5F30905002D6A
:102330009CD1282171436318D3F884212A44C3F81F
:102340008421D3F87C212A44C3F87C21D3F880214E
:102350001AB1D3F878319D424BD2282303FB0643B0
:10236000204693F8681102F025FB3A067FF58BAD05
:102370002825206805FB064530F8263000F58062E8
:1023800009EA030343F4004320F8263095F82B3084
:1023900095F82810022B01D1FB053DD42823B0F875
:1023A00050E003FB064C0EF1020E0EEBC10132F8B9
:1023B0001120DCF84070C2F30902974292BF00215D
:1023C000BF1ACCF8407003FB064798BFCCF840100A
:1023D000396CA9B995F82810204602F0F4FA52E5B4
:1023E000063213443CF81350C5F30905002DA0D064
:1023F0007DE701F5B4712144206801F0CDF9B4E71F
:10240000F96B06FB03331144F963796C0A447A646F
:10241000E11801F0C1F936E517F0400E4FEAC10CA2
:102420002B6C07F4804700F09E80B0F850E0BFB2FC
:10243000F4440CF1020C32F81CC0CCF3090C9C459E
:102440002CBF0023A3EB0C032B64282303FB0643C0
:102450001B6CABB9204602F0B6FA002F00F0A18049
:1024600095F82810226832F8213023F0F0031B057C
:102470001B0D43F4404343F0800322F8213090E0E9
:102480005FB130F8213023F0F0031B051B0D43F43E
:10249000404343F0800320F82130282303FB064308
:1024A00093F84C20012A7CD15A6CD96B62445A644F
:1024B0009F6C9A6B61449742D96325D3BF1A9F647E
:1024C00095F8297093B2002F41D1B0F8507000F206
:1024D000044CBC4495F828703F0102BB3CF807202F
:1024E00022F4F8421204120C2CF807203CF80720C2
:1024F00048EA020292B22CF80720282202FB064684
:10250000328E01F039F94CE01FB983F84C70624605
:10251000D6E7002283F84C209A643A46D0E73E2A58
:102520000CD84FEA520ED20748BF0EF1010E4FEA07
:102530008E2E1FFA8EFE2CF807E0DEE74FEA521EC1
:10254000D20608BF0EF1FF3E48EA8E2EF1E7012FBA
:10255000D3D1B0F8502000F20447174495F8282052
:102560001201BB52C9E7B0F850A0BFB2D4440CF17D
:10257000060C32F81CC0CCF3090C9C459CBFA3EBA5
:102580000C032B644FF0280303FB064388BFC5F8F8
:1025900040E01B6CBBB9204602F015FA002F3FF457
:1025A0005FAF95F82810226832F8213023F4E04319
:1025B00023F0400383F0300343F4004343F08003EF
:1025C00022F821305FE45FB930F8213023F0F003C6
:1025D0001B051B0D43F4404343F0800320F82130DA
:1025E000282303FB064393F84C20012AD9D15A6CC7
:1025F000D96B62445A649F6C9A6B61449742D96369
:1026000023D3BF1A9F6495F8297093B2002F3FD14E
:10261000B0F8507000F20C4CBC4495F828703F01A3
:10262000F2B93CF8072022F4F8421204120C2CF8FC
:1026300007203CF8072048EA020292B22CF8072053
:10264000282202FB0646728E5BE71FB983F84C70A6
:102650006246D8E700229A6483F84C203A46D2E7D3
:102660003E2A0CD84FEA520ED20748BF0EF1010E97
:102670004FEA8E2E1FFA8EFE2CF807E0E0E74FEAB5
:10268000521ED20608BF0EF1FF3E48EA8E2EF1E739
:10269000012FD5D1B0F8502000F20C47174495F81F
:1026A00028201201BB52CBE70F8FFFFF0080FFFFF6
:1026B00011F0800F70B501F0070504464FF02801B6
:1026C0001CD005FB01110144012048700A614A78C1
:1026D0000D70CB7002B1CD81022B04BF00230B71B2
:1026E00094F8A832012B13D00123206884F8A83273
:1026F00000F0D0FD002084F8A80270BD002601FB88
:1027000005F000F5B4712044214480F86961DDE7EB
:102710000220F2E711F0800F10B501F00702044625
:102720004FF0280113D0012302FB011101444B702B
:102730000A7094F8A832012B13D00123206884F882
:10274000A83200F0E5FE002084F8A80210BD01FBCD
:1027500002F303F5B47101440344002083F86901D6
:10276000E6E70220F2E770B52824002601F0070111
:102770004C43051985F8681104F5B4710144C5F896
:102780007C21C5F88031C5F8846185F869610068ED
:1027900001F002F8304670BD282301F0070103FB69
:1027A0000101D1F88401704770B5282501F00701B7
:1027B00005FB01040026C4E90F23012201FB055596
:1027C00084F8281084F84C204119A364666484F8C6
:1027D0002920006800F0E0FF304670BD38B543683E
:1027E00001F007059D42044628D811F0800F4FF0F4
:1027F00028031AD005FB0333C11801234B700123B2
:102800000D708B7094F8A8229A4219D084F8A832DF
:10281000206800F043FF25B904F52C71206800F012
:10282000A9FF002084F8A80238BD00224B4303F51D
:10283000B4710344014483F86921E0E70120F3E720
:102840000220F1E738B5436801F00F029A420446CE
:1028500026D811F0800F01F007024FF0280115D0A3
:10286000012302FB011101444B7000250A708D7099
:1028700094F8A832012B15D00123206884F8A832DF
:1028800000F028FF284684F8A85238BD01FB02F367
:1028900003F5B47101440344002083F86901E4E7BF
:1028A0000120F2E70220F0E710B5282411F0800F94
:1028B0001BBF01F0070101FB044104FB01004018AC
:1028C00008BF00F5B47099B21AB90273C180002034
:1028D00010BD01221B0C027301814381F7E7000048
:1028E000036A70B523F001030362036A44688269D6
:1028F0000D6822F073022A438D6823F002032B43F4
:102900000A4DA8420BD1CD6823F008032B4324F4D1
:102910004074D1E90556354323F004032C43446049
:1029200082614A684263036270BD00BF002C0140AF
:10293000036A70B523F480730362036A4468C26952
:102940000D6822F073022A438D6823F4007343EA72
:1029500005230B4DA8420DD1CD6823F4006343EA53
:10296000052324F44054D1E90556354323F480630C
:1029700044EA05144460C2614A68C263036270BDE0
:10298000002C0140036A30B523F480530362036ACC
:102990004468C2690D6822F4E64242EA05228D6865
:1029A00023F4005343EA0533064DA84202BF4D69A4
:1029B00024F4804444EA85144460C2614A68026495
:1029C000036230BD002C0140704700001A4A0368C2
:1029D00090420AD0B0F1804F07D0A2F594329042D5
:1029E00003D002F58062904215D14A6823F070034B
:1029F0001343114A90420AD0B0F1804F07D0A2F59C
:102A00009432904203D002F58062904203D1CA68AA
:102A100023F4407313434A6923F080031343036094
:102A20008B68C3620B688362034B984204BF0B69D7
:102A30000363012343617047002C014010B5044635
:102A400030B390F83D3003F0FF021BB980F83C2012
:102A5000FEF7FAFF0223206884F83D30211DFFF7BE
:102A6000B5FF0123002084F8463084F83E3084F816
:102A70003F3084F8403084F8413084F8423084F8A4
:102A8000433084F8443084F8453084F83D3010BD3C
:102A90000120FCE710B5044630B390F83D3003F058
:102AA000FF021BB980F83C20FFF78EFF022320684D
:102AB00084F83D30211DFFF789FF0123002084F8B1
:102AC000463084F83E3084F83F3084F8403084F853
:102AD000413084F8423084F8433084F8443084F83C
:102AE000453084F83D3010BD0120FCE7036A70B525
:102AF00023F010030362036A446882690D6822F4BC
:102B0000E64242EA05228D6823F0200343EA0513DA
:102B10000B4DA8420DD1CD6823F0800343EA051385
:102B200024F44064D1E90556354323F0400344EAD8
:102B30008504446082614A688263036270BD00BF9D
:102B4000002C014090F83C3010B5012B044620D0F9
:102B5000012380F83C300C2A0BD8DFE802F0070A8A
:102B60000A0A0E0A0A0A120A0A0A16000068FFF781
:102B7000B7FE002084F83C0010BD0068FFF7B6FFE8
:102B8000F7E70068FFF7D4FEF3E70068FFF7FAFE07
:102B9000EFE70220F0E710B584680A4324F47F448D
:102BA00042EA03232343836010BD90F83C3070B5A4
:102BB000012B04464FF0020019D0012384F83D0098
:102BC000206884F83C30836823F47F4323F0770344
:102BD00083600B68402B65D015D8102B0CD007D81C
:102BE00053B10123002084F83D3084F83C0070BDCF
:102BF000202B01D0302BF4D1826843F0070322F060
:102C0000700213431AE0602B34D019D8502BE8D14E
:102C10004A68CE68016A056A21F00A0125F00105BB
:102C2000056283690A4323F0F00343EA06138361D4
:102C30000262836823F0700343F057038360D0E798
:102C4000702B0CD0B3F5005FCBD1CB68D1E901215B
:102C5000FFF7A1FF2268936843F4804308E0CB6844
:102C6000D1E90121FFF797FF2268936843F07703CA
:102C70009360B6E74D68CE68016A21F010010162E9
:102C80008269036A22F4704223F0A00343EA051329
:102C900042EA063282610362836823F0700343F0E4
:102CA0006703CBE74A68CE68016A056A21F00A012A
:102CB00025F00105056283690A4323F0F00343EA26
:102CC000061383610262836823F0700343F04703B5
:102CD000B4E7000090F83C3030B5012B4FF0020310
:102CE00025D0012280F83D3003680D685C6880F8CB
:102CF0003C2024F070042C439A685C600D4CA34285
:102D00000AD0B3F1804F07D0A4F59434A34203D086
:102D100004F58064A34204D1496822F080020A438A
:102D20009A60012380F83D30002380F83C3018463B
:102D300030BD00BF002C01400C4B9A6803F5806346
:102D40009B68134313F001020ED10B6833B1416845
:102D500021F470210B43436010467047426822F40F
:102D600070224260184670470120704700240140DD
:102D7000836810B513F001030DD142684C6822F44A
:102D80008072224342608268096822F400620A432A
:102D90008260184610BD0120FCE7836810B5DB0790
:102DA0001BD443684A6823F4684312B18C68134308
:102DB0002343436083680C6823F4602323F4817306
:102DC0002343CC68096923430B438360C36A23F41C
:102DD00070031343C362002010BD0120FCE72DE9FE
:102DE000F04F0C68C4F30F2494FAA4F24FF00F0ACA
:102DF000B2FA82F24FF0030904274FF0011C40F2AF
:102E0000011E34FA02F302D11846BDE8F08F012307
:102E1000934023425ED0072A85BFA2F108030CFA33
:102E200003F30EFA02F343F08063C5681E0A96FAB4
:102E3000A6F8B8FA88F825EA06060D6905FA08F535
:102E40003543C5604FEA136893FAA3F6B6FA86F6DF
:102E500093FAA3FBBBFA8BFBB6000AFA06F550F80F
:102E600008604FEA8B0B26EA05064D6805FA0BFB56
:102E700046EA0B0640F808604D6825F00805012D6C
:102E800028D193FAA3F5B5FA85F593FAA3FBBBFA1B
:102E90008BFBAD0009FA05F526EA05068D684FEAB9
:102EA0008B0B05FA0BFB46EA0B0640F8086093FA19
:102EB000A3F5B5FA85F593FAA3F3B3FA83F3AD005E
:102EC00007FA05F526EA0505CE689B009E402E43CD
:102ED00040F80860013294E7034B044A5B68C3F38F
:102EE0000313D35CD840704700100240089F0008CD
:102EF000034B044A5B68C3F30223D35CD84070479A
:102F000000100240189F0008034B044A5B68C3F39B
:102F1000C223D35CD840704700100240189F0008BD
:102F2000094B5A6802F4803262B15868074AC0F30C
:102F300040400130B2FBF0F05B68C3F383430233DF
:102F4000584370470248F7E70010024000127A0029
:102F500000093D00044B5B6803F00C03082B01D112
:102F6000FFF7DEBF014870470010024000127A00F0
:102F700008B50146FFF7EEFF0860FFF7ADFF4860B8
:102F8000FFF7B6FF88604868FFF7BEFFC86008BD5E
:102F90001A4A036890420AD0B0F1804F07D0A2F5D8
:102FA0009432904203D002F58062904215D14A6873
:102FB00023F070031343114A90420AD0B0F1804FBE
:102FC00007D0A2F59432904203D002F5806290427D
:102FD00003D1CA6823F44073134303608B68C36250
:102FE0000B888362054B984204BF0B6903634369F6
:102FF00043F0010343610020704700BF002C0140F3
:10300000102930B55FD003D801292CD0012059E018
:10301000B1F5807F00F08980B1F5805FF6D1036A59
:10302000156823F480530362036A4468C16923F47A
:10303000005321F4E64141EA0521156943EA0533CD
:10304000556823F4805343EA0533504DA84204BF2A
:10305000956924F48044D26808BF44EA851444602A
:10306000C16102642CE0036A156823F00103036266
:10307000036A4168846923F0020324F073042C433B
:1030800015692B43556823F001032B433F4DA8429C
:1030900012D1556923F0080343EA8503956823F0AC
:1030A000040343EA8503956921F480712943D569B6
:1030B00021F4007141EA4501D268416084614263B4
:1030C0000362002030BD036A156823F01003036219
:1030D000036A4168846923F0200324F4E64444EA47
:1030E0000524156943EA0513556823F0100343EAE4
:1030F0000513264DA84213D1556923F0800343EAF6
:103100008513956823F0400343EA8513956921F4FC
:10311000806141EA8501D56921F4006141EAC50178
:10312000D268416084618263CAE7036A156823F448
:1031300080730362036A4168C46923F4007324F056
:1031400073042C43156943EA0523556823F48073FF
:1031500043EA05230D4DA84213D1556923F40063BA
:1031600043EA8523956823F4806343EA85239569C0
:1031700021F4805141EA0511D56921F4005141EA59
:103180004511D2684160C461C26399E7002C0140D7
:1031900030B5C36885B09B0404460D4602D50120B6
:1031A00005B030BD4B68C968C2680B43296922F479
:1031B000B0520B4322F00C021343C3600369AA68A8
:1031C00023F440531343036143696A6923F4407352
:1031D000134343616846FFF7CBFE134B9C4219D162
:1031E00003990029DBD02A68002AD8D019234B4341
:1031F0009200B3FBF2F36422B3FBF2F102FB113352
:103200001B013233B3FBF2F303EB01139BB2A36058
:103210000020C5E7054B9C4201D10299E1E7044B30
:103220009C42BCD1F9E700BF003801400044004097
:103230000048004084B001A880E80E0004B00020DF
:10324000704700234FF43F42A0F84430A0F84020DC
:1032500018467047B0F8403023F47C535B045B0C95
:10326000A0F84030002070470020704784B010B5AF
:1032700003AC84E80E00BDE810400123A0F8403004
:10328000002304B0A0F84030A0F84430A0F850303B
:1032900018467047F0B50C78034630F82420C878FB
:1032A00022F4EC4222F07002032803D8DFE800F099
:1032B00042494446012048F280052A4323F824204D
:1032C0000E78904A33F82640354314402C4323F8B7
:1032D00026400D7B0C78002D40F08280CD884E7802
:1032E0006D086D0003EB041476B3B3F850603444FA
:1032F000A4F800540D7833F82540670608D533F854
:103300002540224042F4004242F0C00223F825202A
:10331000CA780C78012A33F824107B4A02EA0102A9
:1033200018BF82F0200242F4004242F0800223F8EB
:103330002420F0BD42F400720020BCE742F4C062D9
:10334000FAE742F48062F7E7B3F850200E691444BC
:10335000A4F808540A78B3F8504003EB0212A4B260
:1033600002F20C4256BB155B25F4F8452D042D0CDA
:103370001553155B45F4004515530C7833F824209C
:1033800057040BD533F8242022F0F0021205120D59
:1033900042F4404242F0800223F82420097833F8B6
:1033A000212022F4804222F0700282F4405242F442
:1033B000004242F0800223F82120BAE73E2E06D8D0
:1033C0007508F60748BF0135AD02ADB2D4E77709FD
:1033D000F5064E4D08BF07F1FF3745EA8725F4E7AC
:1033E00033F82450154045F4014545F0800523F895
:1033F00024500C780D89B3F8506003EB04146D0869
:10340000B6B204F580646D00A5530C784D89B3F80D
:10341000506003EB04146D0804F581646D00B6B2CE
:10342000A5534C780D78B4BB33F82540660408D515
:1034300033F82540224042F4404242F0800223F813
:1034400025200C7833F8242055060BD533F824209A
:1034500022F0F0021205120D42F4004242F0C002C6
:1034600023F8242048F280040D7833F8252022F434
:10347000804222F0700282F44052224323F8252039
:10348000097833F8212022F4E04222F0400214436C
:1034900023F821404DE733F82540640408D533F87C
:1034A0002540224042F4404242F0800223F8252089
:1034B0000C7833F8242052060BD533F8242022F060
:1034C000F0021205120D42F4004242F0C00223F84D
:1034D0002420CA780C78012A33F824500A4A02EAD8
:1034E000050218BF82F0200242F4004242F080023E
:1034F00023F82420097833F8212022F0F0029204E6
:10350000920C54E78F8FFFFFBF8FFFFF0080FFFFFC
:1035100010B50C7B4A780B78BCBBF2B130F8232095
:1035200052060BD530F8232022F0F0021205120DBE
:1035300042F4004242F0C00220F823200A7830F81A
:10354000223023F0C0031B051B0D43F4004343F05E
:10355000800320F82230002010BD30F823205404CE
:103560000BD530F8232022F0F0021205120D42F4A0
:10357000404242F0800220F823200A7830F82230BE
:1035800023F0F0039B049B0CDFE7002A44D130F8C2
:10359000232052040BD530F8232022F0F00212052C
:1035A000120D42F4404242F0800220F823200A78B3
:1035B00030F822305C060BD530F8223023F0F003CF
:1035C0001B051B0D43F4004343F0C00320F82230D9
:1035D0000A7830F8223023F0F0031B051B0D43F46A
:1035E000004343F0C00320F8223048F280020C78F8
:1035F00030F8243023F4804323F07003134320F881
:103600002430097830F8213023F4E04323F04003DC
:103610001A4320F821209EE730F8232052040BD5CE
:1036200030F8232022F0F0021205120D42F440423D
:1036300042F0800220F823200A7830F822305B061E
:103640000BD530F8223023F0F0031B051B0D43F49B
:10365000004343F0C00320F822300A7830F82230CB
:1036600023F0F0031B051B0D43F4404343F080039C
:1036700020F8223048F280020C7830F8243023F40D
:10368000E04323F04003134320F82430097830F856
:10369000213023F4804323F07003B9E74B780A7894
:1036A0007BB130F8223023F4E04323F0400383F071
:1036B000100343F4004343F0800320F8223000203D
:1036C000704730F8223023F4804323F0700383F4F2
:1036D0008053EEE70B7B23BB4B780A781BB330F8A3
:1036E00022305B060BD530F8223023F0F0031B05A7
:1036F0001B0D43F4004343F0C00320F82230CB7885
:10370000012B0ED00A7830F8223023F4E04323F066
:10371000400383F0200343F4004343F0800320F888
:1037200022300020704730F822305B040BD530F88F
:10373000223023F0F0031B051B0D43F4404343F0FC
:10374000800320F822300A7830F8223023F48043B6
:1037500023F0700383F44053DDE711B98023A0F810
:103760004C30002070470020704700207047B0F8B0
:10377000440070470020704700EB4202013302F51D
:1037800080625B0802EB83039A4200D1704731F8F4
:10379000020B22F8040BF7E7F8B50C46497805460A
:1037A0000129277B40F083812269A66961699642DD
:1037B00028BF1646EFB9B6B23346E288FFF7DCFF02
:1037C000B5F85010227805F2044312010B44D6528A
:1037D000227835F8223023F4E04323F0400383F0CD
:1037E0003003002043F4004343F0800325F82230E7
:1037F000F8BDE3782778022B40F02481236A9A42AF
:1038000030F8272022F4F8724FEA02524FEA12529F
:1038100080F0078142F4014242F0800220F8272024
:1038200022789B1B30F82200236210F0400FB3B2C5
:1038300060787CD000284DD1B5F8500005F20C47D7
:1038400007441201002E31D1B85A20F4F840000488
:10385000000CB852B85A40F40040B8526289284669
:10386000FFF78AFF226A236961699A4289BF921B26
:103870000023226232466078314498BF236261613E
:1038800093B2002848D1B5F85000277805F20446D5
:103890003F01064442BBBA5B22F4F8421204120C08
:1038A000BA53BA5B42F40042BA5326E03E2E07D820
:1038B000700816F0010F18BF0130800280B2CCE70B
:1038C0004FEA561CF006974808BF0CF1FF3C40EA4F
:1038D0008C20F3E70128C1D1B5F8507005F20C40F7
:1038E000384412018352B9E73E2A0BD85008D20758
:1038F00048BF0130800280B2B85322892846FFF7C2
:103900003BFF65E75009D206864A08BF00F1FF3049
:1039100042EA802292B2C7E70128EED1B5F85060A2
:10392000207805F20442000132448352E5E7002882
:103930004DD1B5F8500005F2044707441201002E9E
:1039400031D1B85A20F4F8400004000CB852B85AEB
:1039500040F40040B85222892846FFF70DFF226A42
:10396000236961699A4289BF921B00232262324611
:103970006078314498BF2362616193B2002845D1D9
:10398000B5F85000277805F20C463F01064442BBCB
:10399000BA5B22F4F8421204120CBA53BA5B42F436
:1039A0000042BA5326E03E2E07D8700816F0010FE9
:1039B00018BF0130800280B2CCE74FEA561CF006F7
:1039C000584808BF0CF1FF3C40EA8C20F3E701287F
:1039D000C1D1B5F8507005F2044038441201835249
:1039E000B9E73E2A08D85008D20748BF0130800204
:1039F00080B2B853628981E75009D206494A08BFAC
:103A000000F1FF3042EA802292B2CAE70128F1D1E8
:103A1000B5F85060207805F20C4200013244835220
:103A2000E8E742F4004242F0800220F82720B0F894
:103A30005070267800F204423A4436019BB2B352E9
:103A400022895CE730F82720B0F8500052064BBFBF
:103A500005F20C4205F2044212181218B3B24FEAF2
:103A600007174BBFD353D353628922892846FFF7E8
:103A700083FE6378227863B935F8223023F0F003AF
:103A80001B051B0D43F4004343F0C00325F822300F
:103A90009EE6012B7FF49CAE35F8223023F0F00334
:103AA0001B051B0D43F4404343F08003EEE7002F5A
:103AB0003AD1A269236905F20C419A4292BF13469A
:103AC000D21AA261B0F85020207898BFA7610001F7
:103AD000114453B9435A23F4F8431B041B0C4352BB
:103AE000435A43F40043435208E03E2B10D85A088F
:103AF000DF0748BF0132920292B24252227835F873
:103B0000223023F4804323F0700383F4405368E6AB
:103B10005A09DE06034B08BF02F1FF3243EA822353
:103B20009BB2E0E70080FFFFE378022B74D199B9E4
:103B3000B0F8503000F204422178206909011A449B
:103B400000283AD18B5A23F4F8431B041B0C8B52E8
:103B50008B5A43F400438B5262782378002A50D169
:103B6000B5F85020206905F20C4111441B010028D2
:103B700035D1CA5A22F4F8421204120CCA52CA5A57
:103B800042F40042CA52E369002BB7D044F240012C
:103B9000227835F822300B408B4201D0002BADD17A
:103BA00035F8223023F0F0031B051B0D43F40043CE
:103BB00043F0C00325F82230A0E73E2806D843088A
:103BC000C00748BF01339B029BB2C4E74609C70642
:103BD000464B08BF06F1FF3643EA8623F4E73E284A
:103BE00006D84208C00748BF0132920292B2C9E724
:103BF0004609C7063D4A08BF06F1FF3642EA86225B
:103C0000F4E7012ABFD1B5F8501005F20C420A447E
:103C1000218A1B01D152B6E7012B64D1A269236925
:103C20009A4295BF0023D21AA361A26198BF13469E
:103C300089B9B0F85020207805F204410001114400
:103C4000FBB9425A22F4F8421204120C4252425A70
:103C500042F40042425261782278002937D1B5F807
:103C6000501005F20C4008441201E3B9835A23F4C2
:103C7000F8431B041B0C8352835A43F400438352C2
:103C80003CE73E2B06D85A08DE0748BF01329202B5
:103C900092B2DFE75E09DF06144A08BF06F1FF367D
:103CA00042EA8622F4E73E2B07D85908DE0748BFD0
:103CB0000131890289B2815220E75909DB060B4B99
:103CC00008BF01F1FF3143EA81239BB2D7E7012905
:103CD0007FF414AFB5F8500005F20C410144120115
:103CE0009BB28B520AE7012082E500BF0080FFFFF4
:103CF00000EB4202F0B502F580625D080846174607
:103D00002E46023036B9DB0744BF32F8253001F8C1
:103D10001530F0BD37F8044B013EA4B200F8024C58
:103D2000240A00F8014CECE7014B1860704700BF13
:103D300000000020D0F8BC3210B56BB1D0F8B8420A
:103D400094F80002FF2807D09B6894F801222146CE
:103D50009847FF2384F80032002010BD43230380DE
:103D60000048704744000020432303800048704708
:103D7000880000204323038000487047D8000020BB
:103D80000A23038000487047CC00002038B5054660
:103D9000D0F8B84200F010FFD5F8B832C4F80C02E1
:103DA0004BB1D5F8BC3204F50371DB68D4F80402DA
:103DB0009847002038BD0220FCE7F8B5D0F8B8627B
:103DC000D6B1142303FB0103DD698DB12827D0F898
:103DD000C04207FB0142926BB5FBF2F402FB1454A4
:103DE00034B9DC612246234600F0CAFE2046F8BD05
:103DF0000020C6F81402FAE70220F8E72DE9F7439D
:103E00004FF000080A78054612F060040E46D0F81C
:103E1000B8728DF80580ADF8068028D0202C45D1E9
:103E2000CC884B78E4B1120611D5D0F8BC223946C3
:103E3000D2F8089018462246C847F28839462846E4
:103E400000F045FC4446204603B0BDE8F08387F807
:103E5000003287F801422246394600F04DFCF1E776
:103E6000D0F8BC22184695682246A847EBE74F7861
:103E70000A2F0DD00B2F15D0C7B990F89C32032B09
:103E800014D102220DF1060100F021FC3C46DAE7D4
:103E900090F89C32032B09D101220DF1050100F0AD
:103EA00016FCD0E790F89C32032BCCD03146284644
:103EB00000F0E6FB0224C6E738B504460025812160
:103EC00000F014FE0121E562204600F00FFEC4F868
:103ED0006C518221204600F009FED4F8B8322564E6
:103EE0004BB1D4F8BC325B689847D4F8B80200F004
:103EF0006BFEC4F8B852002038BD037C2DE9F041B8
:103F00000446CBBB4FF4007302228121012500F04F
:103F1000DDFD4FF40073E56229460222204600F0E1
:103F2000D5FDC4F86C5101250823032282212046C7
:103F300000F0CCFD25644FF4077000F041FE06460A
:103F4000C4F8B80250B30027D4F8BC321B689847B5
:103F500094F81080C6F81472C6F81872B8F1000F01
:103F600013D14FF40073D6F804222946204600F0FE
:103F700015FE4046BDE8F081012540230222812143
:103F800000F0A4FDE5624023C6E74023D6F80422F2
:103F90002946204600F002FE3846EBE72846E9E7CE
:103FA00019B1C0F8BC120020704702207047D0F849
:103FB000B8320020C3F80812C3F810227047D0F8B6
:103FC000B8320020C3F804127047D0F8B82210B5F8
:103FD00082B1D2F81442012374B9C2F81432D2F873
:103FE000103281210363D2F808229BB200F0C8FD91
:103FF000204610BD0220FCE71846FAE7D0F8B822A8
:1040000010B562B1047CD2F8042234B94FF40073C5
:10401000012100F0C3FD002010BD4023F8E702207D
:10402000FAE708B580B1D0F8B43213B10023C0F874
:10403000B43209B1C0F8B0120123027080F89C328A
:1040400000F0F4FC002008BD0220FCE719B1C0F824
:10405000B412002070470220704708B500F028FD18
:10406000002008BD08B5D0F8B4320BB9022008BD55
:104070001B6898470028FAD0F8E708B5D0F8B432A2
:104080005B689847002008BD38B500F52A750446DE
:10409000284600F0E1FA012394F8A812C4F89432FB
:1040A000B4F8AE32C4F8983201F01F03012B0ED0E1
:1040B00007D3022B10D001F08001204600F024FD30
:1040C00003E02946204600F0F5F8002038BD2946D7
:1040D000204600F013FAF8E72946204600F033FAAC
:1040E000F3E770B50546164649BBD0F89432032B6A
:1040F0001ED1D0F86031D0F8642193420BD99B1ABD
:104100009A42C0F860318CBF9AB292B2314600F048
:1041100002FB002070BDD0F8B4321B6923B190F8C7
:104120009C22032A00D19847284600F0FCFAF0E7C9
:10413000052BEED1C5F8941200F0E6FCE9E7D0F8C3
:10414000B4329B692BB190F89C22032A01D1984785
:10415000DFE70220DEE770B5134604460E4600296D
:1041600047D1D0F89422022A3CD1D0E90852954296
:1041700013D9AA1A0262194692B200F0B5FA334670
:104180001A461946204600F009FD94F8A032002096
:10419000012B01D184F8A00270BDC369B3FBF2F515
:1041A00002FB153565B99A420AD8D0F89822934295
:1041B00006D22A4600F098FAC4F898522B46DFE758
:1041C000D4F8B432DB682BB194F89C22032A01D1D5
:1041D000204698478021204600F096FC204600F0BB
:1041E000ADFAD2E732F00403CFD1802100F08CFC8D
:1041F000CBE7D0F8B4325B6933B190F89C22032A44
:1042000002D198470020C7E70220C5E7002270B519
:104210000446012540261146402300F057FC334652
:104220008021C4F85851C4F864610022204600F08F
:104230004DFC0021D4F8B832A561666284F89C5226
:10424000C4F894126160C4F8A41223B1D4F8B43253
:1042500020465B689847002070BD017400207047BD
:1042600090F89C3280F89D32042380F89C32002024
:10427000704790F89C32042B04BF90F89D3280F870
:104280009C320020704708B590F89C22032A04D184
:10429000D0F8B432DB6903B19847002008BD10B5EF
:1042A0000446802100F030FC2046BDE8104000218B
:1042B00000F02ABC37B50B78044603F06003202BCE
:1042C0000D4612D0402B10D0002B5BD14B78092B20
:1042D00058D8DFE813F0E90005015700FE00570049
:1042E000840013005700D200A000D4F8B43229464D
:1042F0009B6820469847002003B030BD0023ADF8EE
:1043000006304B881A0A013A062A3BD8DFE802F049
:1043100004202D3A3A525C00D0F8B0321B680DF1FF
:104320000601207C9847BDF8062052B1EB8843B1C6
:104330009A4228BF1A4601462046ADF8062000F0F2
:10434000C6F9EB88002BD6D1204600F0ECF9D2E775
:10435000027CD0F8B43232B99B6A0DF1060098475E
:1043600002234370DFE7DB6AF7E7DBB2052B09D8EE
:10437000DFE803F0030C1014181CD0F8B0325B68AF
:10438000002BCCD12046FFF78AFFB4E7D0F8B0323B
:104390009B68F5E7D0F8B032DB68F1E7D0F8B032CF
:1043A0001B69EDE7D0F8B0325B69E9E7D0F8B032CD
:1043B0009B69E5E7037C002BE4D1D0F8B4320DF122
:1043C00006005B6B9847AEE7037C002BDAD1D0F890
:1043D000B4320DF106001B6B98470723C1E78B88A9
:1043E000002BCFD1CB88002BCCD14D887F2DC9D8C5
:1043F00090F89C32032BC5D0E9B280F89E1200F0F1
:10440000B1FB204600F08FF91DB1022384F89C32E5
:1044100071E70123FAE78978374D01292970B1D86E
:1044200090F89C32022B08D0032B14D0FFF737FFF3
:1044300029782046FFF721FE5DE7002984D001217D
:104440000323416080F89C322046FFF70BFE0228D0
:104450007FF47AAF96E731B90223416080F89C324D
:10446000FFF70BFE70E7416801293FF46DAFC9B259
:10447000FFF703FE29786160E6E7CA88012A81D147
:1044800090F89C32002B3FF47DAF022B04D9032B14
:104490007FF478AF011D03E00146002341F8083F97
:1044A000204600F014F926E790F89C32013B022BDD
:1044B0003FF668AFCB88022B7FF464AF0123C36063
:1044C000D0F8A4320BB10323C360022204F10C0123
:1044D000E6E74B88012B7FF40EAFC4F8A43233E734
:1044E00090F89C32013B022B3FF64CAF4B88012BDE
:1044F0007FF401AF0023F0E78403002038B50B7888
:10450000044603F06003202B0D4602D0402B00D060
:10451000ABB994F89C32013B022B10D82B79012BBC
:104520000DD8D4F8B43229469B6820469847EB88CA
:104530001BB910B9204600F0F6F8002038BD20461F
:10454000FFF7ADFEF9E738B50A78044602F06002DD
:10455000202A0B4614D0402A12D06AB95A788D8886
:10456000012AE9B220D036D3032A05D190F89C2243
:10457000022A27D0032A0BD02046FFF790FE05E041
:10458000D4F8B4221946926820469047002038BDDE
:104590005A882AB94A0603D0DB880BB900F0B4FA6E
:1045A000204600F0C0F8F1E790F89C22022A09D0DA
:1045B000032AE1D15B88002BE8D14D06F0D000F052
:1045C000B1FAEDE74B06D7D000F09EFA80212046E5
:1045D00000F09AFADAE790F89C32022B18D0032BFD
:1045E000CAD1142301F00F0215F0800F03FB020261
:1045F0001FD09269002ABFD001F07F0505FB03356B
:10460000054411F07F031FD12B60022229460CE0E4
:104610004A06B1D12B064FF000034FF002024CBF07
:1046200000F1140100F5AA710B60204600F04FF86C
:10463000ACE7D2F85821002A9ED001F07F0503FB99
:10464000050505F5AA75DCE7204600F079FA08B102
:104650000123D9E72860D8E70B7803704B784370C3
:10466000CA788B7803EB022343804A790B7903EBFA
:1046700002238380CA798B7903EB0223C3807047BE
:1046800010B50446802100F03FFA2046BDE81040F6
:10469000002100F039BA30B588B105462B1A15F85B
:1046A000014BDBB2002CF9D101335B0013800B709E
:1046B00003234B700223013810F8015F05B930BDA8
:1046C0005A1CCD54D2B20233DBB28C54F4E71346F9
:1046D000022210B5C0F89422C0E907330A4600212F
:1046E00000F04EFA002010BD08B513460A4600211E
:1046F00000F046FA002008BD1346032210B5C0F8AA
:104700009422C0F85C310A46C0F86031002100F004
:1047100045FA002010BD08B513460A46002100F0F6
:104720003DFA002008BD08B50423C0F894320023E8
:104730001A46194600F024FA002008BD08B50523E2
:10474000C0F8943200231A46194600F027FA0020D8
:1047500008BD000008B500220E490F48FFF761FCB4
:1047600008B1FDF729F90D490B48FFF76FFC08B1B7
:10477000FDF722F90A490848FFF712FC08B1FDF7D6
:104780001BF90548FFF769FC18B1BDE80840FDF7C3
:1047900013B908BD2C010020100700200C000020D8
:1047A0001C0100200020704700207047F8B51A4E09
:1047B000044696F89C32032B2CD158B30D684DB3A8
:1047C00021463046FFF7FBFB0028F9D1124E304658
:1047D000FFF714FC0028FAD1214601260F4B25448F
:1047E000A94201D10020F8BD0F4693F86540013180
:1047F000621CD2B283F8652011F801CC622A88BF0E
:1048000083F8650003F804C03A780A2A08BF83F8E1
:104810006460E5E70220E6E710070020A606002016
:1048200010B5064C002206492046FFF7C0FB05499B
:104830002046FFF7C4FB002010BD00BF100700207A
:10484000BC0D0020D409002010B5094C0A46D4F84C
:10485000B832D3F8143243B901462046FFF7A7FB1C
:104860002046BDE81040FFF7B0BB012010BD00BFDF
:1048700010070020122301480B80704748010020D8
:10488000042301480B8070475C010020002370B5B1
:104890001E46050FECB2092D94BF3034373401F8B1
:1048A000134001EB430401336670DCB2A2424FEACD
:1048B0000010EED870BD00001A2310B50B80094B14
:1048C000186808331B68C0180AD0074B08221C68F8
:1048D0000649FFF7DBFF042205492046FFF7D6FF14
:1048E000044810BDE8F7FF1FECF7FF1F620100202E
:1048F000720100206001002010B5044C0A460448F3
:104900002146FFF7C8FE204610BD00BFA4110020BD
:10491000399F000810B5044C0A4604482146FFF7A9
:10492000BAFE204610BD00BFA4110020499F000818
:1049300010B5044C0A4604482146FFF7ACFE204659
:1049400010BD00BFA4110020209F000810B5044C2A
:104950000A4604482146FFF79EFE204610BD00BFD0
:10496000A41100202B9F000807B50E4B02689A4245
:1049700015D103F5DA33DA69142042F40002DA6162
:104980000022DB69114603F400030193019BFDF74C
:104990006FF9142003B05DF804EBFDF79DB903B087
:1049A0005DF804FB005C004000F52C71D0F8E802D3
:1049B000FFF76ABB282303FB0103D0F8E802D3F812
:1049C0007C21FFF78EBB282303FB0103D0F8E8020C
:1049D000DA6BFFF7C0BBD0F8E802FFF754BC83687E
:1049E00010B5022B044601D0FCF7E6FFD4F8E8022C
:1049F0000121FFF732FCD4F8E802BDE81040FFF7D0
:104A000005BC000010B50446D0F8E802FFF728FC0A
:104A1000A36923B1024A136943F00603136110BD71
:104A200000ED00E0D0F8E802FFF723BC082310B542
:104A30001D4A04461D48C0E9002302238360002369
:104A4000C0F8E842C4F8C002C0E906330362FDF7CB
:104A500067F908B1FCF7B0FF002218231146D4F81B
:104A6000C002FDF721FF582300228021D4F8C002A4
:104A7000FDF71AFFC02300228121D4F8C002FDF700
:104A800013FF4FF4887300220121D4F8C002FDF710
:104A90000BFF4FF4807300228221D4F8C002FDF78F
:104AA00003FF002010BD00BF005C0040A4130020E5
:104AB00008B5D0F8C002FDF7ABF9032896BF024B4A
:104AC0000220185C08BD00BF5B9F000810B51C46A3
:104AD000D0F8C00213462246FDF7EAFD032896BF30
:104AE000014B0220185C10BD5B9F000808B5D0F890
:104AF000C002FDF70FFE032896BF024B0220185C90
:104B000008BD00BF5B9F000808B5D0F8C002FDF7E4
:104B100065FE032896BF024B0220185C08BD00BF4B
:104B20005B9F000808B5D0F8C002FDF78BFE032894
:104B300096BF024B0220185C08BD00BF5B9F0008B7
:104B4000282211F0800FD0F8C0021BBF01F07F03B4
:104B500003FB022102FB0101091814BF887891F8B8
:104B60006A01704708B5D0F8C002FDF76AF903285A
:104B700096BF024B0220185C08BD00BF5B9F000877
:104B800008B5D0F8C002FDF70FFE032896BF024B10
:104B90000220185C08BD00BF5B9F000808B5D0F874
:104BA000C002FDF7E0FD032896BF024B0220185C0F
:104BB00008BD00BF5B9F0008D0F8C002FDF7ECBD48
:104BC0000048704788030020704770470024394D23
:104BD00007B539482C7000F0CDFA384800F0B4FB26
:104BE000374800F086FA374800F03EFB364B374A2C
:104BF0000121314800F0C2FA02212F48324B334ADA
:104C000000F0BCFA4FF080431A684AF6AA2642F038
:104C100001021A601A6A42F001021A621A6A42F02C
:104C200010021A622A4AD36843F02003D36000F0CE
:104C3000D1F8284800F03CFA40F2DC5301220093FE
:104C40002549264B234800F01DFA214640F6B8328C
:104C5000224802F04DFD224A29781368174843F094
:104C600001031360012200F087FB1E4A1949D36833
:104C7000144843F00203D360CDE9004440F2FF73CF
:104C8000194A00F023FB194A03210D4800F05AFA93
:104C9000174D0B4C0A482E6000F05CFA00F0DAF871
:104CA0000028F7D047F230520121204600F04AFA9E
:104CB000F0E700BFA0220020A422002076220020DE
:104CC0009022002090160020000048420000204161
:104CD000003801400024014000000240BE160020C0
:104CE000000400400008004002028000E09304003D
:104CF0000030004001207047F8B5124B064693F88B
:104D000064300C466BB103460F4A991BA14201DB8C
:104D10002046F8BD13F8011B10680006FCD5516051
:104D2000F3E70A4B93F8643053B1094D8FB239461B
:104D30003046FFF789FD0128EAD1013DF7D1E7E7C9
:104D40001C46E5E74006002000380140A60600208A
:104D500040420F0008461146FFF7CEBF08B50921B3
:104D60000248FFF7C9FF012008BD00BF9F9F000850
:104D700010B50CB29AB0204600F05CFE2246034605
:104D8000054901A803F038F8014601A8FFF7B4FF70
:104D900000201AB010BD00BF8B9F000800B501298C
:104DA0009DB013460BD1094903A803F025F801462D
:104DB00003A8FFF7A1FF01201DB05DF804FB0092DE
:104DC00003A80A46024903F017F8F0E75F9F0008BE
:104DD000729F00080023134A00B582F8643082F8FD
:104DE0006530114A89B082F8643082F86530112349
:104DF00007930E4B0E4A06934FF4807305930D4BA9
:104E00000D4904930D4B0E4803930E4B02930E4B2A
:104E100001930E4B00930E4B01F054FC09B05DF86A
:104E200004FB00BF40060020A6060020242C002022
:104E30007C010020242B0020B09F0008D3A3000891
:104E4000842A0020A99F0008499F0008399F000874
:104E500038A4000838B5154C94F864508DB194F816
:104E600065202146124802F04FF8642200212046B6
:104E700002F03EFC002384F8653084F864300120A1
:104E800038BD0C4C94F864000028F9D094F86520E3
:104E90002146074802F038F864222946204602F0ED
:104EA00027FC84F8655084F86450E8E74006002049
:104EB000842A0020A60600200D4B1A68920616D5FB
:104EC0006FF020021A605A680A4BD2B293F865005C
:104ED000411CC9B2622983F8651084BF002183F8A0
:104EE00065100A2A1A5404BF012283F8642070470F
:104EF00000380140400600203E4B30B51A68D2070A
:104F000027D56FF001013C4A526819603B4B197B71
:104F1000F9B940F2DB5192B2C2F5BB62033232EA18
:104F2000220228BF0A469878D11E48BF02F2D95102
:104F300080B9334CD3F8070034F81250854203DDB2
:104F400034F81110884212DAD3F811200132C3F874
:104F5000112030BD0128F7D1294CD3F8070034F8CF
:104F600012508542F0DA34F811108842ECDCD3F8A4
:104F70000D10C3F819200131C3F80D10A2F2EE2173
:104F80000029BCBF02F2EE22C3F81520D3F8292075
:104F9000A8BFC3F81510B2F5FA6F18DD1549194A04
:104FA000486802404A604621174AD162116841F0C0
:104FB00001011160116A41F001011162002283F8C0
:104FC000292083F82A2083F82B2083F82C200F49EE
:104FD000D3F825000A68D3F8294090420A6828BF10
:104FE00002F1FF322244121AC3F829200A68C3F8DA
:104FF0002520A9E700240140080002409016002067
:10500000BE160020E0FD3FFF000800400C07002016
:1050100000BF7047164A10B513699B0726D56FF07D
:105020000201144B144C5B689BB2C3F5BB630333A2
:10503000C4F81D301161D4F819209B1A48BF03F23F
:10504000DC53C4F8213040F2ED23D4F821209A42F9
:105050000CDD0A4B00221978094800F08DF9044A4A
:10506000136823F0010313600123237310BD00BFF5
:10507000000800400800024090160020A0220020F6
:105080007622002010B5094C4C30224412F8014C15
:105090000A199060D360536802981B0C1B040343E9
:1050A00053600B5943F001030B5110BDB1A100082F
:1050B000836843F001038360836843F400038360E3
:1050C0008268836802F4807223F48073836083684B
:1050D00043F00403836083685B07FCD44FF47A7366
:1050E00000BF013BFCD1836823F4807313438360CA
:1050F00070470023C0E90133C3607047C160064BAD
:1051000021B91A6942F400521A6170475A6942F48F
:1051100000525A61704700BF00100140C368084A3E
:1051200043B1116941F400511161B3FA83F35B0992
:10513000C3607047516941F400515161F5E700BF08
:105140000010014049000139C0E9001282600121CC
:10515000FFF7D4BF0268002A0BDD8168002902DD59
:105160000139816070474168013A81600260FFF750
:10517000D5BF704700230380704700002DE9F0473A
:1051800098464B1E012B05460F46164605D9304B57
:10519000304A9221304802F001FA4FF08042012952
:1051A00014BF6FF010036FF001032C4801248246F6
:1051B000116A0B401362FBF79BFD3146FBF7A0FE23
:1051C000FBF73AFFB0F5803F81460CDD01349AFBD6
:1051D000F4F0F0E7E8609C636A78002A36D01A6A37
:1051E00042F0100231E0FBF783FD06462046FBF754
:1051F0007FFD01461A48FBF783FE3146FBF780FE30
:105200004FF08043012C6860C3F82C9000D09C6262
:1052100014494046FBF774FE3146FBF7BDFDFBF732
:105220000BFF0446FBF764FD3146FBF769FE0D49B1
:10523000FBF7B2FD012F4FF08043CBD1A8605C6338
:105240002A781AB11A6A42F001021A62BDE8F087A0
:10525000C9A10008B8A10008DCA10008005125027E
:105260004054094C0000C8420023C37203734373C7
:105270008373C373037443748374C3740375437576
:105280008375C375037643768376C3760377437756
:105290008377C37780F8203080F8213080F822307F
:1052A00080F8233080F8243080F8253080F82630CC
:1052B00080F8273080F8283080F8293080F82A30AC
:1052C00080F82B3080F82C3070470000F8B540F69D
:1052D000FD755C1EA4B2AC429DF8186005D9154B53
:1052E000154AD321154802F059F9154D4C68C0F8FC
:1052F00007302C400AB94C60F8BD14434C60114F84
:105300004D6A66B93D402B434B628C6A3C408C62CF
:105310009DF81C3086704370C0F80320ECE76FEAFC
:1053200015356FEA05354D628C6A3C4023438B622C
:10533000EEE700BF0BA20008C0A10008DCA1000836
:10534000E0FD3FFF00F0FFFF6FF017020274032241
:1053500042746FF00B020023027501228374C37440
:1053600042758375037043708370C370037143711A
:105370008371C371C3757047054B996822B141F4BD
:1053800080119960C275704721F48011F9E700BF60
:1053900000240140002310B59CB00093642202ABAE
:1053A00003A9044601F01CFC38B96FF06C012046DB
:1053B00000F03CFB4FF0FF3010E00F4903A8FAF774
:1053C000C7FE18B90D4B1870012007E00C4903A85F
:1053D000FAF7BEFE20B90120084B18701CB010BDB2
:1053E000084903A8FAF7B4FE18B90222034B1A7051
:1053F000EAE76FF0DF01DAE730A20008A022002020
:1054000036A2000839A200081FB50C4B04461B78D1
:105410005BB90B4901A802F01CFD072201A9204637
:1054200001F09EF9012004B010BD012B0CBF05490D
:10543000054901A802F00DFD0422EFE7A02200209B
:105440003CA2000844A2000849A2000870B5164B0F
:105450009EB01C780546012C1ED1144814490388BF
:10546000428891FBF3F1838840F6FF764B434A4331
:105470000291002193FBF6F3CDE9001192FBF6F2C5
:105480000C4905A802F0B8FC05A90246284601F01F
:1054900067F920461EB070BD6FF4957100F0C6FA32
:1054A0004FF0FF30F6E700BFA0220020BE1600201C
:1054B00050FB4A004EA200082DE9F84F344B8346BA
:1054C0001D78002D57D1334E337B2BB9324901F073
:1054D0005DF90120BDE8F88F40F2DC57D6F81540A1
:1054E000DFF8C880DFF8C890DFF8BCA040F2DB53DB
:1054F0009C4225DC34B1032394FBF3F303EB430319
:105500009C421FD139F81400FBF7EEFB8046013FA7
:1055100004F10104EAD1214937734868204AD6F8DA
:105520000330024013434B60012239461D48FFF708
:1055300023FF4FF4FA621C49584601F0FFF9C8E70F
:105540000024DFE739F81400FBF7CEFB4146FBF7F8
:10555000D7FCFAF773FF0CA3D3E90023FAF7C6FFD1
:10556000FBF79CFA80B20AF805006B1C000A0AF8E7
:1055700003000235CBE76FF4957100F057FA4FF056
:10558000FF30A7E7AFF30080000000000070C740C5
:10559000A022002090160020D3A300080024014080
:1055A000E0FD3FFF76220020B422002000C0BA4474
:1055B000BE160020F0B593B0012202A9044601F006
:1055C000ADFA40B96FF06C01204600F02FFA4FF0B1
:1055D000FF3013B0F0BDDDE90201FBF737FA144BE1
:1055E00001285A681BD19F681D780523114904A81A
:1055F00007AE00F0D9F805233A460E49304600F0D0
:10560000D3F804AB2A460C4900960AA802F0F4FB32
:105610000AA90246204601F0A3F80120D9E7022892
:1056200002D1DF685D78E0E76FF0DF01CCE700BF13
:10563000A42200201CA4000825A2000800000000ED
:105640002DE9F04387B001226946044601F066FA6D
:1056500048B96FF06C01204600F0E8F94FF0FF30D8
:1056600007B0BDE8F083012202A9204601F056FAF6
:105670000028EED0012204A9204601F04FFA0028AC
:10568000E7D0DDE90001FBF7E1F9431E012B0546F8
:1056900020D8DDE902670022002330463946FBF7B7
:1056A000A1F9B8B916A3D3E9002330463946FBF770
:1056B000ADF978B9DDE90489002200234046494666
:1056C000FBF786F930B900220F4B40464946FBF7FD
:1056D0009DF910B16FF0DF01BDE749464046FBF789
:1056E000FDF9394604463046FBF7F8F923460246F1
:1056F00029460648FFF742FD0120B1E7AFF30080DD
:105700000000000060E3664100005940A422002030
:1057100013B501226946044601F000FA40B96FF062
:105720006C01204600F082F94FF0FF3002B010BD4E
:10573000DDE90001FBF78AF9431E012B02D96FF066
:10574000DF01EEE74FF0804201280CBF0123102358
:10575000116A01200B431362E8E713B50122694681
:10576000044601F0DBF940B96FF06C01204600F00F
:105770005DF94FF0FF3002B010BDDDE90001FBF72D
:1057800065F9431E012B02D96FF0DF01EEE74FF000
:105790008042012814BF6FF010036FF00103116AFB
:1057A00001200B401362E6E72DE9F04FB3B0054648
:1057B0008A4693460021642268461C4601F098FF01
:1057C000642200210DEB020001F092FF002C0FDC9F
:1057D0005846FBF731FC3E490246684602F00CFB96
:1057E0006A465146284602F007FB33B0BDE8F08F09
:1057F0002046FAF711FE06460F4602460B4632A136
:10580000D1E9000103F04AFB0022324BFAF76EFEA9
:10581000804658468946FAF711FE02460B46404636
:105820004946FAF7ADFCFBF759F93B46324680464C
:105830002949002003F032FBFBF708F906464046F1
:10584000FBF7FAFB07463046FBF752FA4146FBF7F7
:10585000A3FAFBF7F1FB90FBF6F30A2103FB16001A
:10586000002390FBF1F201FB120030300DF8030031
:1058700001339C421046F4D12E2232AB2344002F38
:1058800003F8C82C04F1010317DD0A2197FBF1F29C
:1058900001FB127730370DF80370581C174652B9C8
:1058A0000DF163021DF8031013F1FF3302F8011F1D
:1058B000F8D219AA95E70346E8E7302132AA1A443C
:1058C00002F8C81CECE700BF9A9999999999B93FD9
:1058D00063A200080000E03F0000244070B50446C9
:1058E0000D460422002100F01AFAE36A33B11B6866
:1058F00023B129462046BDE87040184770BD3C30B2
:1059000000F018B9002307B502A921F8023D3C3088
:1059100000F069F9BDF9060003B05DF804FB70B54D
:105920000446FFF7EFFF054698B90146204600F010
:105930005FF943070DD504222946204600F061F99E
:10594000E36A33B11B6823B129462046BDE87040A5
:10595000184770BD10B504463C3000F0F1F8204601
:10596000BDE81040FFF7DBBF10B50446084651B153
:1059700054B1002304F13C000B8000F001F92046F3
:10598000FFF7CDFF012010BD2046FCE72DE9F743CE
:1059900004460F4622B11BB9FF21104602F086FAD9
:1059A00002AE26F8047D04F13C083146404600F082
:1059B000CBF8054698BB3146404600F0FAF84FF662
:1059C000A26331464046ADF8043000F0BDF8002631
:1059D0004FF00609DFF8508009FB06F333F9082081
:1059E000BA4209DB4344B3F90220BA4204DC9A8884
:1059F0000221204600F093F90136092EECD13946F8
:105A00002046FFF76BFF1DB906492046FFF766FFEA
:105A100014B1012384F8383003B0BDE8F0830125C8
:105A2000D5E700BFA2FEFFFF98A3000800231A4697
:105A3000FFF7ACBF10F18A0F49D021DC6FF49573EA
:105A4000984250D010F5957F0BDA10F5AF7F48D013
:105A500010F59B7F43D06FF4B573984207D123486C
:105A6000704710F1C80F36D003DCE03035D0204845
:105A7000704710F1AA0F2CD09730F8D11D4870470D
:105A800010F16C0F1DD009DC10F1710F1DD010F159
:105A90006D0F18D08330EAD11748704710F1670FA7
:105AA0000DD003DC6830E2D11448704710F1650F67
:105AB00003D00028DBD112487047124870471248C3
:105AC0007047124870471248704712487047124892
:105AD0007047124870471248704712487047124882
