:020000040800F2
:1000000000000120412F00087D2E00088B2E0008E3
:10001000912E0008972E00089D2E00080000000079
:10002000000000000000000000000000ED8C00084F
:10003000A32E000800000000F98C0008BD8C000809
:10004000912F0008912F0008912F0008912F000890
:10005000912F0008912F0008C98F000839900008DF
:10006000A99000081991000889910008912F0008B3
:10007000912F0008912F0008912F0008912F000860
:10008000912F0008912F0008C98D0008912F0008BA
:10009000912F0008912F0008912F0008912F000840
:1000A000912F0008912F0008912F0008912F000830
:1000B000912F0008912F0008912F0008912F000820
:1000C000912F0008912F0008912F0008912F000810
:1000D000912F0008058D0008912F0008912F00082E
:1000E000912F0008912F0008912F0008912F0008F0
:1000F0004D8F0008912F00087D8F00085D8E00084D
:10010000912F00080000000000000000912F00085F
:10011000912F0008912F0008912F0008912F0008BF
:10012000912F0008912F0008912F0008912F0008AF
:10013000912F0008D58E000800000000000000008C
:10014000912F0008912F0008912F00080000000057
:10015000000000000000000000000000000000009F
:10016000912F0008912F0008912F0008912F00086F
:10017000912F0008912F0008912F0008912F00085F
:10018000912F0008912F00080000000000000000DF
:04019000912F0008A3
:1001A00010B5054C237833B9044B13B10448AFF3B1
:1001B00000800123237010BDF80100200000000022
:1001C000DC4D010808B5034B1BB103490348AFF3ED
:1001D000008008BD00000000FC010020DC4D01088B
:1001E00010F8012B11F8013B012A28BF9A42F7D0E1
:1001F000D01A7047034613F8012B002AFBD1181AB6
:1002000001387047000000000000000000000000FE
:1002100001F0FF01102A2BDB10F0070F08D010F8B7
:10022000013B013A8B422DD010F0070F42B3F6D1BB
:10023000F0B441EA012141EA014122F007047FF0D4
:1002400000070023F0E80256083C85EA010586EA2B
:10025000010685FA47F5A3FA87F586FA47F6A5FA67
:1002600087F68EB9EED1F0BC01F0FF0102F0070273
:1002700032B110F8013B013A83EA010313B1F8D11E
:100280000020704701387047002D06BF35460338FF
:10029000073815F0010F07D1013015F4807F02BF38
:1002A000013015F4C03F0130F0BC0138704700BF89
:1002B00081F0004102E000BF83F0004330B54FEA17
:1002C00041044FEA430594EA050F08BF90EA020F84
:1002D0001FBF54EA000C55EA020C7FEA645C7FEA17
:1002E000655C00F0E2804FEA5454D4EB5555B8BF3A
:1002F0006D420CDD2C4480EA020281EA030382EAAB
:10030000000083EA010180EA020281EA0303362D3C
:1003100088BF30BD11F0004F4FEA01314FF4801C0F
:100320004CEA113102D0404261EB410113F0004F21
:100330004FEA03334CEA133302D0524263EB4303D8
:1003400094EA050F00F0A780A4F10104D5F1200E76
:100350000DDB02FA0EFC22FA05F2801841F10001D1
:1003600003FA0EF2801843FA05F359410EE0A5F1A5
:1003700020050EF1200E012A03FA0EFC28BF4CF0D6
:10038000020C43FA05F3C01851EBE37101F000458C
:1003900007D54FF0000EDCF1000C7EEB00006EEB99
:1003A0000101B1F5801F1BD3B1F5001F0CD3490823
:1003B0005FEA30004FEA3C0C04F101044FEA44527A
:1003C00012F5800F80F09A80BCF1004F08BF5FEA01
:1003D000500C50F1000041EB045141EA050130BDE1
:1003E0005FEA4C0C404141EB010111F4801FA4F184
:1003F0000104E9D191F0000F04BF01460020B1FAD9
:1004000081F308BF2033A3F10B03B3F120020CDA10
:100410000C3208DD02F1140CC2F10C0201FA0CF0EE
:1004200021FA02F10CE002F11402D8BFC2F1200C53
:1004300001FA02F120FA0CFCDCBF41EA0C01904009
:10044000E41AA2BF01EB0451294330BD6FEA040452
:100450001F3C1CDA0C340EDC04F11404C4F120023D
:1004600020FA04F001FA02F340EA030021FA04F34F
:1004700045EA030130BDC4F10C04C4F1200220FAA6
:1004800002F001FA04F340EA0300294630BD21FAE4
:1004900004F0294630BD94F0000F83F4801306BFAA
:1004A00081F480110134013D4EE77FEA645C18BF9E
:1004B0007FEA655C29D094EA050F08BF90EA020F35
:1004C00005D054EA000C04BF1946104630BD91EA2D
:1004D000030F1EBF0021002030BD5FEA545C05D130
:1004E0004000494128BF41F0004130BD14F580046F
:1004F0003CBF01F5801130BD01F0004545F0FE41E3
:1005000041F470014FF0000030BD7FEA645C1ABF17
:10051000194610467FEA655C1CBF0B46024650EA4E
:10052000013406BF52EA033591EA030F41F400217A
:1005300030BD00BF90F0000F04BF0021704730B500
:100540004FF4806404F132044FF000054FF00001D5
:1005500050E700BF90F0000F04BF0021704730B596
:100560004FF4806404F1320410F0004548BF40426B
:100570004FF000013EE700BF42004FEAE2014FEAC0
:1005800031014FEA02701FBF12F07F4393F07F4F9B
:1005900081F06051704732F07F4208BF704793F09E
:1005A0007F4F04BF41F40021704730B54FF46074B1
:1005B00001F0004521F000411CE700BF50EA0102B4
:1005C00008BF704730B54FF000050AE050EA01025D
:1005D00008BF704730B511F0004502D5404261EBCD
:1005E00041014FF4806404F132045FEA915C3FF40E
:1005F000D8AE4FF003025FEADC0C18BF03325FEAAB
:10060000DC0C18BF033202EBDC02C2F1200300FA5B
:1006100003FC20FA02F001FA03FE40EA0E0021FA80
:1006200002F11444BDE600BF70B54FF0FF0C4CF46E
:10063000E06C1CEA11541DBF1CEA135594EA0C0F20
:1006400095EA0C0F00F0DEF82C4481EA030621EA5B
:100650004C5123EA4C5350EA013518BF52EA033596
:1006600041F4801143F4801338D0A0FB02CE4FF048
:100670000005E1FB02E506F00042E0FB03E54FF078
:100680000006E1FB03569CF0000F18BF4EF0010E70
:10069000A4F1FF04B6F5007F64F5407404D25FEA6C
:1006A0004E0E6D4146EB060642EAC62141EA55511F
:1006B0004FEAC52040EA5E504FEACE2EB4F1FD0C61
:1006C00088BFBCF5E06F1ED8BEF1004F08BF5FEADF
:1006D000500E50F1000041EB045170BD06F0004691
:1006E00046EA010140EA020081EA0301B4EB5C043E
:1006F000C2BFD4EB0C0541EA045170BD41F4801136
:100700004FF0000E013C00F3AB8014F1360FDEBF5A
:10071000002001F0004170BDC4F10004203C35DA36
:100720000C341BDC04F11404C4F1200500FA05F3B9
:1007300020FA04F001FA05F240EA020001F000425A
:1007400021F0004110EBD37021FA04F642EB0601D0
:100750005EEA430E08BF20EAD37070BDC4F10C04FA
:10076000C4F1200500FA04F320FA05F001FA04F2BE
:1007700040EA020001F0004110EBD37041F10001AA
:100780005EEA430E08BF20EAD37070BDC4F12005B5
:1007900000FA05F24EEA020E20FA04F301FA05F21D
:1007A00043EA020321FA04F001F0004121FA04F2C5
:1007B00020EA020000EBD3705EEA430E08BF20EA95
:1007C000D37070BD94F0000F0FD101F000464000CF
:1007D00041EB010111F4801F08BF013CF7D041EA51
:1007E000060195F0000F18BF704703F00046520055
:1007F00043EB030313F4801F08BF013DF7D043EA26
:100800000603704794EA0C0F0CEA135518BF95EADB
:100810000C0F0CD050EA410618BF52EA4306D1D162
:1008200081EA030101F000414FF0000070BD50EA81
:10083000410606BF1046194652EA430619D094EA0B
:100840000C0F02D150EA013613D195EA0C0F05D1F5
:1008500052EA03361CBF104619460AD181EA030149
:1008600001F0004141F0FE4141F470014FF0000001
:1008700070BD41F0FE4141F4780170BD70B54FF09C
:10088000FF0C4CF4E06C1CEA11541DBF1CEA13551C
:1008900094EA0C0F95EA0C0F00F0A7F8A4EB0504FE
:1008A00081EA030E52EA03354FEA013100F08880F5
:1008B0004FEA03334FF0805545EA131343EA1263BE
:1008C0004FEA022245EA111545EA10654FEA002673
:1008D0000EF000419D4208BF964244F1FD0404F52C
:1008E000407402D25B084FEA3202B61A65EB030588
:1008F0005B084FEA32024FF480104FF4002CB6EB45
:10090000020E75EB030E22BFB61A754640EA0C00C4
:100910005B084FEA3202B6EB020E75EB030E22BF04
:10092000B61A754640EA5C005B084FEA3202B6EB45
:10093000020E75EB030E22BFB61A754640EA9C0004
:100940005B084FEA3202B6EB020E75EB030E22BFD4
:10095000B61A754640EADC0055EA060E18D04FEA92
:10096000051545EA16754FEA06164FEAC30343EA32
:1009700052734FEAC2025FEA1C1CC0D111F4801FFF
:100980000BD141EA00014FF000004FF0004CB6E7F8
:1009900011F4801F04BF01430020B4F1FD0C88BF97
:1009A000BCF5E06F3FF6AFAEB5EB030C04BFB6EBA2
:1009B000020C5FEA500C50F1000041EB045170BD95
:1009C0000EF0004E4EEA113114EB5C04C2BFD4EBC2
:1009D0000C0541EA045170BD41F480114FF0000E46
:1009E000013C90E645EA060E8DE60CEA135594EAC2
:1009F0000C0F08BF95EA0C0F3FF43BAF94EA0C0FC5
:100A00000AD150EA01347FF434AF95EA0C0F7FF439
:100A100025AF104619462CE795EA0C0F06D152EA8D
:100A200003353FF4FDAE1046194622E750EA410671
:100A300018BF52EA43067FF4C5AE50EA41047FF482
:100A40000DAF52EA43057FF4EBAE12E74FF0FF3CE7
:100A500006E000BF4FF0010C02E000BF4FF0010CB8
:100A60004DF804CD4FEA410C7FEA6C5C4FEA430C31
:100A700018BF7FEA6C5C1BD001B050EA410C0CBF80
:100A800052EA430C91EA030F02BF90EA020F0020E2
:100A9000704710F1000F91EA030F58BF994208BF49
:100AA00090422CBFD8176FEAE37040F00100704706
:100AB0004FEA410C7FEA6C5C02D150EA013C07D15D
:100AC0004FEA430C7FEA6C5CD6D152EA033CD3D0A8
:100AD0005DF8040B704700BF8446104662468C46A2
:100AE0001946634600E000BF01B5FFF7B7FF0028D5
:100AF00048BF10F1000F01BD4DF808EDFFF7F4FFFE
:100B00000CBF012000205DF808FB00BF4DF808ED88
:100B1000FFF7EAFF34BF012000205DF808FB00BFAB
:100B20004DF808EDFFF7E0FF94BF012000205DF8CD
:100B300008FB00BF4DF808EDFFF7CEFF94BF012082
:100B400000205DF808FB00BF4DF808EDFFF7C4FF7B
:100B500034BF012000205DF808FB00BF4FEA410CC4
:100B60007FEA6C5C02D150EA013C0AD14FEA430CA7
:100B70007FEA6C5C02D152EA033C02D14FF00000E4
:100B800070474FF0010070474FEA410212F5001222
:100B900015D211D56FF47873B3EB625212D94FEAC4
:100BA000C12343F0004343EA505311F0004F23FAAE
:100BB00002F018BF404270474FF00000704750EA03
:100BC000013005D111F0004008BF6FF000407047C0
:100BD0004FF00000704700BF4A0011D212F500121A
:100BE00011D20DD56FF47873B3EB62520ED44FEA85
:100BF000C12343F0004343EA505323FA02F0704705
:100C00004FF00000704750EA013002D14FF0FF3042
:100C100070474FF0000070474FEA4102B2F1E043E5
:100C200024BFB3F5001CDCF1FE5C0DD901F0004CD3
:100C30004FEAC0024CEA5070B2F1004F40EB830023
:100C400008BF20F00100704711F0804F21D113F14F
:100C50003872BCBF01F00040704741F480114FEA88
:100C60005252C2F11802C2F1200C10FA0CF320FA11
:100C700002F018BF40F001004FEAC1234FEAD3232E
:100C800003FA0CFC40EA0C0023FA02F34FEA430398
:100C9000CCE77FEA625307D150EA01331EBF4FF021
:100CA000FE4040F44000704701F0004040F0FE403C
:100CB00040F40000704700BF53B94AB9002908BF8B
:100CC00000281CBF4FF0FF314FF0FF3000F072B929
:100CD000ADF1080C6DE904CE00F006F8DDF804E093
:100CE000DDE9022304B070472DE9F047089E044671
:100CF0008846002B4BD18A42154667D9B2FA82F258
:100D00004AB1C2F1200701FA02F320FA07F7954031
:100D100047EA030894404FEA154E230CB8FBFEF750
:100D20001FFA85FC0EFB178843EA084307FB0CF10A
:100D3000994209D9EB1807F1FF3080F01B819942E5
:100D400040F21881023F2B445B1AA4B2B3FBFEF0C1
:100D50000EFB103344EA034400FB0CFCA44509D904
:100D60002C1900F1FF3380F00781A44540F2048183
:100D700002382C4440EA0740A4EB0C0400271EB1C3
:100D8000D4400023C6E900433946BDE8F0878B42D2
:100D900009D9002E00F0EB800027C6E90001384693
:100DA0003946BDE8F087B3FA83F7002F47D18B426D
:100DB00002D3824200F2FA80841A61EB030301201D
:100DC0009846002EE0D0C6E90048DDE702B9FFDE14
:100DD000B2FA82F2002A40F08F80491B4FEA154E8A
:100DE0001FFA85F80127B1FBFEFC230C0EFB1C113A
:100DF00043EA014308FB0CF1994207D9EB180CF1C7
:100E0000FF3002D2994200F2CD808446591AA3B233
:100E1000B1FBFEF00EFB101443EA044408FB00F89B
:100E2000A04507D92C1900F1FF3302D2A04500F2EA
:100E3000B6801846A4EB080440EA0C409FE7C7F1CF
:100E4000200CBB4022FA0CFE4EEA030E01FA07F416
:100E500020FA0CF521FA0CF34FEA1E482543B3FBA8
:100E6000F8F92C0C08FB19331FFA8EFA44EA0343F5
:100E700009FB0AF49C4202FA07F200FA07F10BD9C7
:100E80001EEB030309F1FF3080F087809C4240F2A3
:100E90008480A9F1020973441B1BADB2B3FBF8F0C7
:100EA00008FB103345EA034400FB0AFAA24508D9BF
:100EB0001EEB040400F1FF336BD2A24569D902385E
:100EC000744440EA0940A0FB0289A4EB0A044C45A3
:100ED000C2464B4654D351D0002E69D0B1EB0A051F
:100EE00064EB030404FA0CFCFD40FC404CEA0505ED
:100EF000C6E90054002747E7C2F1200320FA03F7B0
:100F0000954001FA02F021FA03F34FEA154E3843F7
:100F1000010CB3FBFEF71FFA85F80EFB173341EA0D
:100F2000034107FB08F38B4204FA02F407D969185E
:100F300007F1FF3C2FD28B422DD9023F2944CB1A17
:100F400081B2B3FBFEF00EFB103341EA034100FB1C
:100F500008F38B4207D9691800F1FF3C17D28B4286
:100F600015D902382944C91A40EA07473BE73746F2
:100F7000304609E70746E7E61846FBE64145ABD2AF
:100F8000B8EB020A69EB0E0201381346A4E760468B
:100F9000E9E7184695E76746D1E781467CE70238DE
:100FA0002C4447E7ACF1020C2B442FE7384608E706
:100FB0003746E9E6704700BF80B483B000AF786081
:100FC00039607B689B6823F0E0723B681A437B685A
:100FD0009A6000BF0C37BD465DF8047B704780B453
:100FE00083B000AF786039607B68DB6823F44062CF
:100FF0003B681A437B68DA6000BF0C37BD465DF87A
:10100000047B704780B489B000AFF860B9607A6043
:10101000FB6830331946BB6803F440734FF44072E9
:10102000BA61BA6992FAA2F27A617A69B2FA82F284
:10103000D2B2D3409B000B44FB61FB691A68BB68CA
:1010400003F01F031F2101FA03F3DB431A407B68FF
:101050009B0E03F01F01BB6803F01F0301FA03F3AB
:101060001A43FB691A6000BF2437BD465DF8047B54
:10107000704780B48DB000AFF860B9607A60FB68EB
:1010800014331946BB6803F000734FF00072BA6165
:10109000BA6992FAA2F27A617A69B2FA82F2D2B2AB
:1010A000D3409B000B44FB62FB6A1A68BB6803F0E9
:1010B000F8734FF0F8713962396A91FAA1F1F96168
:1010C000F969B1FA81F1C9B2CB40072101FA03F302
:1010D000DB431A40BB6803F0F8734FF0F871B96254
:1010E000B96A91FAA1F17962796AB1FA81F1C9B26A
:1010F000CB40796801FA03F31A43FB6A1A6000BF18
:101100003437BD465DF8047B7047000080B485B07D
:1011100000AFF860B9607A60FB68D3F8B020B968B6
:101120000B4B0B40DB431A407B6803F01803084964
:10113000D940BB681940064B0B401A43FB68C3F803
:10114000B02000BF1437BD465DF8047B704700BF78
:10115000FEFF070080B489B000AFF860B9607A6024
:10116000FB680C331846BB6803F440134FF440127D
:10117000BA61BA6992FAA2F27A617A69B2FA82F233
:10118000D2B223FA02F1BB6803F002021346DB007D
:1011900013449B000B449B000344FB61FB691A68EA
:1011A000B968084B0B40DB431A407968BB680B40B9
:1011B0001A43FB691A6000BF2437BD465DF8047B03
:1011C000704700BFFEFFC77D80B489B000AFF860F4
:1011D000B9607A603B60FB6820331946BB6803F452
:1011E00040134FF44012BA61BA6992FAA2F27A61DE
:1011F0007A69B2FA82F2D2B2D3409B000B44FB610F
:10120000FB691B6803F0F0227B6819043B680B4301
:101210001A43FB691A6000BF2437BD465DF8047BA2
:10122000704780B483B000AF78607B689B6823F020
:1012300040527B689A607B689B6823F0104323F0E0
:101240003F0343F080527B689A6000BF0C37BD4675
:101250005DF8047B704780B483B000AF78607B6832
:101260005B6843F080027B685A6000BF0C37BD4664
:101270005DF8047B704780B483B000AF786039605C
:101280007B681A683B6803F01003042101FA03F33A
:101290001A437B681A6000BF0C37BD465DF8047BBB
:1012A0007047000080B485B000AFF860B9607A6024
:1012B000BB68013B0D4AD35C1A46FB6813441B68AC
:1012C00023F4804323F01003BA68013A07498A5C8B
:1012D0001146FA680A4411467A6813430B6000BF4E
:1012E0001437BD465DF8047B704700BF7855010890
:1012F00080B485B000AFF860B9607A60BB68013B2C
:101300000C4AD35C1A46FB6813441B6823F0200286
:10131000BB68013B0749CB5C1946FB680B44194687
:101320007B6813430B6000BF1437BD465DF8047B38
:10133000704700BF7855010880B485B000AFF860F1
:10134000B9607A60BB68013B0C4AD35C1A46FB6803
:1013500013441B6823F04002BB68013B0749CB5C88
:101360001946FB680B4419467B6813430B6000BFAA
:101370001437BD465DF8047B704700BF78550108FF
:1013800080B485B000AFF860B9607A60BB68013B9B
:101390000C4AD35C1A46FB6813441B6823F0800296
:1013A000BB68013B0749CB5C1946FB680B441946F7
:1013B0007B6813430B6000BF1437BD465DF8047BA8
:1013C000704700BF7855010880B485B000AFF86061
:1013D000B9607A60BB68013B0C4AD35C1A46FB6873
:1013E00013441B6823F44072BB68013B0749CB5C84
:1013F0001946FB680B4419467B6813430B6000BF1A
:101400001437BD465DF8047B704700BF785501086E
:1014100080B485B000AFF860B9607A60BB68013B0A
:101420000C4AD35C1A46FB6813441B6823F44062E1
:10143000BB68013B0749CB5C1946FB680B44194666
:101440007B6813430B6000BF1437BD465DF8047B17
:10145000704700BF7855010880B485B000AFF860D0
:10146000B9607A60BB68013B0C4AD35C1A46FB68E2
:1014700013441B6823F44052BB68013B0749CB5C13
:101480001946FB680B4419467B6813430B6000BF89
:101490001437BD465DF8047B704700BF78550108DE
:1014A00080B400AF054B1B68044A43F0010313608E
:1014B00000BFBD465DF8047B704700BF00100240CE
:1014C00080B400AF064B1B6803F00203022B0CBF75
:1014D00001230023DBB21846BD465DF8047B70474C
:1014E0000010024080B483B000AF7860074B1B68E7
:1014F00023F0F8027B68DB00044913430B6000BF54
:101500000C37BD465DF8047B704700BF00100240F9
:1015100080B483B000AF7860064B5B6823F00302B1
:1015200004497B6813434B6000BF0C37BD465DF830
:10153000047B70470010024080B400AF044B5B682E
:1015400003F00C031846BD465DF8047B704700BFEE
:101550000010024080B483B000AF7860064B5B6837
:1015600023F0F00204497B6813434B6000BF0C3743
:10157000BD465DF8047B70470010024080B483B024
:1015800000AF7860064B5B6823F4E06204497B6837
:1015900013434B6000BF0C37BD465DF8047B7047BA
:1015A0000010024080B483B000AF7860064B5B68E7
:1015B00023F4605204497B6813434B6000BF0C372F
:1015C000BD465DF8047B70470010024080B483B0D4
:1015D00000AF78600A4B1A6B7B681B0E032101FA7F
:1015E00003F3DB431A407B6823F07F430449134332
:1015F0000B6300BF0C37BD465DF8047B704700BF2E
:101600000010024080B483B000AF78600A4B1A6BC0
:101610007B68DB0E4FF4807101FA03F3DB431A4061
:101620007B6823F07C43044913430B6300BF0C37F2
:10163000BD465DF8047B70470010024080B400AFE7
:10164000054B1B68044A43F08073136000BFBD461E
:101650005DF8047B704700BF0010024080B400AF0B
:10166000074B1B6803F00073B3F1007F0CBF01232D
:101670000023DBB21846BD465DF8047B704700BF0F
:101680000010024080B485B000AFF860B9607A60A5
:101690000B4B5B6823F47612F968BB680B4308496F
:1016A00013434B60064BDB6A23F00F0204497B684F
:1016B0001343CB6200BF1437BD465DF8047B70470F
:1016C0000010024080B485B000AF7860084B5A69C2
:1016D00007497B6813434B61054B5A697B6813408C
:1016E000FB60FB6800BF1437BD465DF8047B7047A4
:1016F0000010024080B485B000AF7860084BDA6912
:1017000007497B681343CB61054BDA697B6813405B
:10171000FB60FB6800BF1437BD465DF8047B704773
:101720000010024080B485B000AF7860084B9A6921
:1017300007497B6813438B61054B9A697B681340AB
:10174000FB60FB6800BF1437BD465DF8047B704743
:101750000010024080B485B000AF78607B681B0E3B
:1017600003F1804303F58033FB60FB681A687B68F4
:101770001B0A03F47F43DB431A407B689BB21A4386
:10178000FB681A6000BF1437BD465DF8047B7047E4
:1017900080B483B000AF7860094B1A687B681B0A7D
:1017A00003F47F43DB431A407B6803F47F4304491F
:1017B00013430B6000BF0C37BD465DF8047B7047D8
:1017C0000000014080B485B000AF78603960134AF2
:1017D0003B68DBB2023352F823203B681B0CDB432F
:1017E00002EA03013B681B0CFB60FB6893FAA3F35E
:1017F000BB60BB68B3FA83F3DBB21A467B6803FABB
:1018000002F206483B68DBB20A43023340F8232069
:1018100000BF1437BD465DF8047B704700000140EF
:1018200080B483B000AF7860064B1B6823F00702DA
:1018300004497B6813430B6000BF0C37BD465DF85D
:10184000047B70470020024080B400AF044B1B684B
:1018500003F007031846BD465DF8047B704700BFE0
:101860000020024080B483B000AF78607B681B68C2
:1018700043F080027B681A6000BF0C37BD465DF8FC
:10188000047B704780B483B000AF78607B681B68CE
:1018900023F080027B681A6000BF0C37BD465DF8FC
:1018A000047B704780B485B000AF786039603B68D6
:1018B000012B28D03B68042B23D03B68102B1ED073
:1018C0003B68402B19D03B68B3F5807F13D03B6851
:1018D000B3F5806F0DD03B68B3F5805F07D03B68F0
:1018E000B3F5803F01D107230EE008230CE0062367
:1018F0000AE0052308E0042306E0032304E00223B2
:1019000002E0012300E00023FB737B6818331946D3
:10191000FB7B0B4AD35C0B44BB60BB681A68FB7B48
:101920000849CB5C194604238B40DB431A40BB6853
:101930001A6000BF1437BD465DF8047B704700BFD6
:10194000805501088C55010880B485B000AF7860DF
:1019500039603B68012B28D03B68042B23D03B68BF
:10196000102B1ED03B68402B19D03B68B3F5807F0D
:1019700013D03B68B3F5806F0DD03B68B3F5805F43
:1019800007D03B68B3F5803F01D107230EE0082361
:101990000CE006230AE0052308E0042306E0032305
:1019A00004E0022302E0012300E00023FB737B68D4
:1019B00018331946FB7B0A4AD35C0B44BB60BB68F7
:1019C0001A68FB7B0749CB5C194608238B401A43F6
:1019D000BB681A6000BF1437BD465DF8047B7047D2
:1019E000805501088C55010880B487B000AFF860BD
:1019F000B9607A60BB68012B28D0BB68042B23D068
:101A0000BB68102B1ED0BB68402B19D0BB68B3F548
:101A1000807F13D0BB68B3F5806F0DD0BB68B3F582
:101A2000805F07D0BB68B3F5803F01D107230EE08C
:101A300008230CE006230AE0052308E0042306E05F
:101A4000032304E0022302E0012300E00023FB75EE
:101A5000FB6818331946FB7D0E4AD35C0B443B618F
:101A60003B691A68FB7D0C49CB5C194603238B400C
:101A7000DB431A407B681B0CF97D0748415C8B40B7
:101A80001A433B691A6000BF1C37BD465DF8047BF2
:101A9000704700BF805501089855010880B487B091
:101AA00000AFF860B9607A60BB68012B28D0BB68D2
:101AB000042B23D0BB68102B1ED0BB68402B19D041
:101AC000BB68B3F5807F13D0BB68B3F5806F0DD0D2
:101AD000BB68B3F5805F07D0BB68B3F5803F01D129
:101AE00007230EE008230CE006230AE0052308E0A4
:101AF000042306E0032304E0022302E0012300E0C4
:101B00000023FB75FB6818331946FB7D0E4AD35C36
:101B10000B443B613B691A68FB7D0C49CB5C194661
:101B20000C238B40DB431A407B681B0CF97D074874
:101B3000415C8B401A433B691A6000BF1C37BD46AD
:101B40005DF8047B704700BF805501089855010877
:101B500080B487B000AFF860B9607A60BB68012BD1
:101B600028D0BB68042B23D0BB68102B1ED0BB68C9
:101B7000402B19D0BB68B3F5807F13D0BB68B3F599
:101B8000806F0DD0BB68B3F5805F07D0BB68B3F53D
:101B9000803F01D107230EE008230CE006230AE072
:101BA000052308E0042306E0032304E0022302E007
:101BB000012300E00023FB75FB6818331946FB7D09
:101BC0000E4AD35C0B443B613B691A68FB7D0C49B0
:101BD000CB5C1946F0238B40DB431A407B681B0C1F
:101BE000F97D0748415C8B401A433B691A6000BF8E
:101BF0001C37BD465DF8047B704700BF8055010867
:101C00009855010880B487B000AFF860B9607A6079
:101C1000BB68012B28D0BB68042B23D0BB68102BDA
:101C20001ED0BB68402B19D0BB68B3F5807F13D0A2
:101C3000BB68B3F5806F0DD0BB68B3F5805F07D08C
:101C4000BB68B3F5803F01D107230EE008230CE009
:101C500006230AE0052308E0042306E0032304E04A
:101C6000022302E0012300E00023FB75FB681A6AEF
:101C7000FB7D0B49CB5C19460A238B40DB431A40A2
:101C8000FB7D0749CB5C19467B688B401A43FB6898
:101C90001A6200BF1C37BD465DF8047B704700BF69
:101CA000A455010880B483B000AF786039607B68C8
:101CB0009B6823F4A03323F007033A681A437B6838
:101CC0009A6000BF0C37BD465DF8047B704780B456
:101CD00083B000AF786039607B685B6823F0700286
:101CE0003B681A437B685A6000BF0C37BD465DF8FD
:101CF000047B704780B483B000AF786039607B6844
:101D00005B6823F470023B681A437B685A6000BF2B
:101D10000C37BD465DF8047B704780B483B000AFDC
:101D2000786039607B689B6823F4803323F0070375
:101D30003A681A437B689A6000BF0C37BD465DF86D
:101D4000047B704780B483B000AF786039607B68F3
:101D50009B6823F070023B681A437B689A6000BF5F
:101D60000C37BD465DF8047B704780B483B000AF8C
:101D700078607B689B6843F080027B689A6000BF54
:101D80000C37BD465DF8047B704780B483B000AF6C
:101D900078607B689B6823F080027B689A6000BF54
:101DA0000C37BD465DF8047B704780B483B000AF4C
:101DB00078607B68DB6823F040027B68DA6000BFF4
:101DC0000C37BD465DF8047B704780B483B000AF2C
:101DD00078607B68DB6823F480427B68DA6000BF50
:101DE0000C37BD465DF8047B704780B483B000AF0C
:101DF00078607B681B6843F001027B681A6000BF53
:101E00000C37BD465DF8047B704780B483B000AFEB
:101E100078607B685B6823F490427B685A607B68DB
:101E20009B6823F02A027B689A6000BF0C37BD468E
:101E30005DF8047B704780B483B000AF78607B6846
:101E40009B6823F480627B689A6000BF0C37BD46B4
:101E50005DF8047B704780B489B000AFF860B9606A
:101E60007A60FB681A68BB687B617B6993FAA3F3AD
:101E70003B613B69B3FA83F3DBB25B00032101FAF8
:101E800003F3DB431A40BB68FB61FB6993FAA3F3DE
:101E9000BB61BB69B3FA83F3DBB25B00796801FA1B
:101EA00003F31A43FB681A6000BF2437BD465DF890
:101EB000047B704780B489B000AFF860B9607A6085
:101EC000FB68DA68BB687B617B6993FAA3F33B61CB
:101ED0003B69B3FA83F3DBB25B00032101FA03F33E
:101EE000DB431A40BB68FB61FB6993FAA3F3BB6158
:101EF000BB69B3FA83F3DBB25B00796801FA03F3E1
:101F00001A43FB68DA6000BF2437BD465DF8047BE6
:101F1000704780B483B000AF786039607B683A68FE
:101F20009A6200BF0C37BD465DF8047B704780B5F0
:101F300000AF01F02FF800F01FF800F0EDFE00F008
:101F4000E1FE00F08BFE00F06FF800F069F900F0A0
:101F500035FA00F00FFB00F0BFFC00F043FC00F08E
:101F60002FFD00F0D3FB00F0E3FD00F0ABFD02F02D
:101F70009FFF0023184680BD80B500AF0220FFF709
:101F80004FFC00BFFFF760FC0346022BFAD1FFF7BE
:101F900087FA00BFFFF794FA0346012BFAD110200D
:101FA000FFF7A0FA00224FF4E0114FF40040FFF7D2
:101FB00069FBFFF743FB00BFFFF750FB0346012B14
:101FC000FAD10020FFF7C6FA4FF48060FFF7D6FA87
:101FD0000020FFF7E7FA0220FFF79AFA00BFFFF7A9
:101FE000ABFA0346082BFAD10E4802F043FF0F204C
:101FF00000F0E6FF0346002B01D000F0EFFE4FF0AB
:102000008050FFF7E3FA4FF00060FFF7FBFA4FF064
:102010000040FFF7F7FA4FF00840FFF7F3FA00BF70
:1020200080BD00BF00A24A0480B594B000AF07F1A4
:10203000400300221A605A609A6007F128030022C8
:102040001A605A609A60DA601A615A6107F11803DF
:1020500000221A605A609A60DA603B4600221A60D9
:102060005A609A60DA601A615A614FF08050FFF747
:1020700029FB4FF40020FFF725FB01233B600323DE
:102080007B6000233B613B4619465B4801F0AFFE95
:10209000002201215948FFF705F94FF44052012170
:1020A0005648FFF7D9F9202201215448FFF720F9BB
:1020B000002201215148FFF73FF9802201214F48BA
:1020C000FFF75EF94FF4807201214C48FFF77CF96D
:1020D0004FF4806201214948FFF79AF900233B64DD
:1020E00000237B640023BB6407F1400319464FF0D3
:1020F000A04001F07FFA4FF4A063BB620123FB62B2
:1021000000233B6300237B630323BB634FF48053B3
:10211000FB6307F1280319464FF0A04001F090FA45
:102120004FF0A040FFF77DF8354B1B689B09354AFF
:10213000A2FB03239A0913469B0013445B001A4633
:10214000314BA3FB0223DB08FB6402E0FB6C013B89
:10215000FB64FB6C002BF9D14FF40033BB6100230F
:10216000FB6107F118031946284801F0E5F94FF41F
:1021700080614FF0A040FEF732FF254A25494FF01D
:10218000A040FEF7E7FF002340F6FF7221494FF021
:10219000A040FFF719F84FF0A040FFF75CF81E4A87
:1021A00006214FF0A040FEF72DFF00221A494FF004
:1021B000A040FEF75EFF7F2217494FF0A040FEF7D8
:1021C000A5FF4FF480011148FEF7F6FE134A0C21DB
:1021D0004FF0A040FEF716FF002210494FF0A0403C
:1021E000FEF747FF7F220D494FF0A040FEF78EFF1C
:1021F00000BF5037BD4680BD0008004800000240C7
:1022000000000020632D3E05CDCCCCCC0003005057
:102210000000C4C80000C07D000084CB400020192D
:1022200080B590B000AF07F1300300221A605A6009
:102230009A6007F1180300221A605A609A60DA6007
:102240001A615A613B4600221A605A609A60DA604D
:102250001A615A614FF08050FFF734FA4FF40020B2
:10226000FFF730FA02233B6003237B6000233B61CE
:102270003B461946474801F0BAFD00220321464873
:10228000FFF710F84FF4405203214348FFF7E4F8FA
:10229000202203214048FFF72BF8002203213E486B
:1022A000FFF74AF8802203213B48FFF769F84FF413
:1022B000807203213848FFF787F84FF480620321CA
:1022C0003548FFF7A5F83548FFF744FA00233B638C
:1022D00000237B630023BB6307F1300319463048BA
:1022E00001F088F94FF4A063BB610023FB61002378
:1022F0003B6200237B620323BB624FF48053FB628B
:1023000007F118031946264801F09AF94FF0A0404A
:10231000FEF787FF234B1B689B09234AA2FB03237D
:102320009A0913469B0013445B001A461F4BA3FBFC
:102330000223DB08FB6302E0FB6B013BFB63FB6BEF
:10234000002BF9D14FF480611548FEF748FE184A7A
:1023500018491348FEF7FEFE002340F6FF721549A8
:102360000F48FEF731FF0E48FEF775FF124A0621AF
:102370000B48FEF747FE00220F490948FEF779FE99
:102380007F220D490648FEF7C1FE00BF4037BD461B
:1023900080BD00BF000800480004024000010100A9
:1023A0000001005000000020632D3E05CDCCCCCCB8
:1023B0008000C01C0000C07D8000501D80B594B01E
:1023C00000AF07F1400300221A605A609A6007F1DB
:1023D000280300221A605A609A60DA601A615A6112
:1023E00007F1180300221A605A609A60DA603B46CF
:1023F00000221A605A609A60DA601A615A614FF0DE
:102400000050FFF75FF94FF48020FFF75BF90123DD
:102410003B6003237B6000233B613B4619464B48EE
:1024200001F0E5FC002205214948FEF73BFF4FF48F
:10243000405205214648FFF70FF800220521444885
:10244000FEF756FF002205214148FEF775FF802266
:1024500005213F48FEF794FF4FF4807205213C4868
:10246000FEF7B2FF4FF4806205213948FEF7D0FF36
:1024700000233B6400237B640023BB6407F140031B
:102480001946344801F0B6F84FF4D863BB62002314
:10249000FB6200233B6300237B630323BB634FF496
:1024A0008053FB6307F1280319462A4801F0C8F856
:1024B0004FF0A040FEF7B5FE274B1B689B09274A4B
:1024C000A2FB03239A0913469B0013445B001A46A0
:1024D000234BA3FB0223DB08FB6402E0FB6C013B04
:1024E000FB64FB6C002BF9D14FF40033BB6100237C
:1024F000FB6107F1180319461A4801F01DF84FF463
:1025000080611448FEF76BFD174A18491148FEF721
:1025100021FE002340F6FF7214490E48FEF754FED8
:102520000C48FEF798FE124A06210A48FEF76AFD9B
:1025300000220F490748FEF79CFD7F220C49054801
:10254000FEF7E4FD00BF5037BD4680BD00040048E3
:10255000000402400004005000000020632D3E05EE
:10256000CDCCCCCC000700500010C0300000C07DA6
:102570000010603280B590B000AF07F13003002248
:102580001A605A609A6007F1180300221A605A60B4
:102590009A60DA601A615A613B4600221A605A60FA
:1025A0009A60DA601A615A614FF00050FFF78AF8BA
:1025B0004FF48020FFF786F84FF480433B600323FD
:1025C0007B6000233B613B461946474801F00FFC06
:1025D000002204214548FEF765FE4FF440520421D5
:1025E0004248FEF739FF202204214048FEF780FED2
:1025F000002204213D48FEF79FFE802204213B4833
:10260000FEF7BEFE4FF4807204213848FEF7DCFE70
:102610004FF4806204213548FEF7FAFE3448FFF794
:1026200099F800233B6300237B630023BB6307F11E
:10263000300319462F4800F0DDFF4FF4D863BB612B
:102640000023FB6100233B6200237B620323BB6208
:102650004FF48053FB6207F118031946254800F038
:10266000EFFF4FF0A040FEF7DCFD234B1B689B09FA
:10267000224AA2FB03239A0913469B0013445B00E2
:102680001A461F4BA3FB0223DB08FB6302E0FB6B34
:10269000013BFB63FB6B002BF9D14FF480611548C4
:1026A000FEF79DFC174A18491248FEF753FD002318
:1026B00040F6FF7214490F48FEF786FD0D48FEF7FD
:1026C000CAFD104A06210B48FEF79CFC00220D496A
:1026D0000848FEF7CEFC7F220A490648FEF716FDA1
:1026E00000BF4037BD4680BD0004004800040240E2
:1026F000000101000005005000000020632D3E0590
:10270000CDCCCCCC1000C0100000C07D80B58AB00C
:1027100000AF07F1180300221A605A609A60DA606D
:102720003B4600221A605A609A60DA601A615A6168
:102730004FF00050FEF7DEFF4FF40030FEF7C2FF0F
:1027400010233B6003237B6000233B613B4619461B
:102750004FF0904001F04BFB102203211D48FEF783
:10276000A1FD4FF4005203211A48FEF775FE202206
:1027700003211848FEF7BCFD002203211548FEF78F
:10278000DBFD802203211348FEF7FAFD4FF480722F
:1027900003211048FEF718FE4FF4806203210D4814
:1027A000FEF736FE0C48FEF7F3FF0023BB61002363
:1027B000FB6100237B6207F118031A4607490848AA
:1027C00000F0A7FF05490648FEF755FD00BF283772
:1027D000BD4680BD00000240002020000100100224
:1027E0000074004080B594B000AF07F13C030022B4
:1027F0001A605A609A60DA601A6107F11C0320229D
:10280000002118460FF022FC3B1D00221A605A607E
:102810009A60DA601A615A610120FEF76BFF0023AB
:10282000BB8700233B644FF47A737B640023BB6453
:1028300007F13C0319464FF0804001F067FE4FF06E
:102840008040FFF71FF800214FF08040FFF72AFA81
:102850004FF480714FF08040FFF776F86023FB6102
:1028600000233B6200237B620023BB620023FB62E8
:1028700007F11C031A464FF480714FF0804001F0BD
:10288000DDFE4FF480714FF08040FFF70BF8102110
:102890004FF08040FFF71BFA4FF08040FFF765FADA
:1028A0004FF48020FEF70EFF4FF480637B6002231D
:1028B000BB600023FB6000233B6100237B6101239D
:1028C000BB613B1D1946034801F091FA00BF503728
:1028D000BD4680BD0004004880B58EB000AF07F152
:1028E000240300221A605A609A60DA601A613B1D64
:1028F0002022002118460FF0A9FB0220FEF7FAFE65
:10290000002206212C48FEF7CDFC4FF44052062150
:102910002948FEF7A1FD202206212748FEF7E8FC02
:10292000002206212448FEF707FD802206212248C6
:10293000FEF726FD4FF4807206211F48FEF744FD86
:102940004FF4806206211C48FEF762FD4FF47A7353
:10295000BB840023BB624823FB6200233B6307F177
:1029600024031946154801F0D1FD1448FEF77AFFFB
:1029700000211248FFF796F900237B600023BB601B
:102980000023FB6000233B6100237B613B1D1A4653
:1029900001210A4801F052FE01210848FEF782FF9A
:1029A00020210648FFF793F90448FFF7EEF900BF2E
:1029B0003837BD4680BD00BF000002400004004023
:1029C00080B594B000AF07F13C0300221A605A6052
:1029D0009A60DA601A6107F11C0320220021184670
:1029E0000FF034FB3B1D00221A605A609A60DA60D7
:1029F0001A615A610420FEF77DFE4FF47A73BB879B
:102A000000233B6449237B640023BB6407F13C0340
:102A100019462A4801F07AFD2848FEF723FF0021D5
:102A20002648FFF73FF94FF480712448FEF78CFFEA
:102A30006023FB6100233B6200237B620023BB62B7
:102A40000023FB6207F11C031A464FF480711B48F8
:102A500001F0F4FD4FF480711848FEF723FF1021B8
:102A60001648FFF76FF906211448FFF756F9134887
:102A7000FFF79BF91148FFF7A8F920210F48FFF74E
:102A800026F90E48FFF781F94FF48020FEF71AFE71
:102A90004FF480737B600223BB600023FB60002344
:102AA0003B6100237B610223BB613B1D1946044847
:102AB00001F09DF900BF5037BD4680BD00080040C1
:102AC0000004004880B584B000AF3B1D00221A60AE
:102AD0005A609A60144B154A1A60134B00225A60D0
:102AE000114B00229A60104B4FF6FF72DA600E4BCA
:102AF00000229A610C4800F078FB0346002B01D0BD
:102B000000F06CF920237B600023FB603B1D19461D
:102B1000054800F05FFC0346002B01D000F05EF991
:102B200000BF1037BD4680BD70040020001000407B
:102B300080B58CB000AF07F11C0300221A605A6008
:102B40009A60DA601A613B1D00221A605A609A602E
:102B5000DA601A615A614FF40050FEF7E3FD4FF45A
:102B60000020FEF7AFFD4FF400737B600223BB60D3
:102B70000023FB6000233B6100237B610423BB61D6
:102B80003B1D1946324801F032F90022022131483A
:102B9000FEF788FB4FF4005202212E48FEF75CFC42
:102BA000002202212B48FEF7A3FB00220221294824
:102BB000FEF7C2FB802202212648FEF7E1FB4FF41C
:102BC000807202212348FEF7FFFB4FF4806202214E
:102BD0002048FEF71DFC0023BB8300233B624FF619
:102BE000FF737B620023BB620023FB6207F11C03BF
:102BF0001946194801F08AFC1748FEF743FE0021E8
:102C00001548FFF764F800211348FFF773F81248DE
:102C1000FFF7BBF84FF480324FF480510E48FEF7B7
:102C2000E3FE00224FF480510B48FEF737FF0022ED
:102C30004FF480510848FEF78BFF00224FF480517B
:102C40000548FEF7DFFF00BF3037BD4680BD00BF3F
:102C500000080048000402400034014080B58EB0F6
:102C600000AF07F11C0300221A605A609A60DA6014
:102C70001A615A619A613B1D00221A605A609A607B
:102C8000DA601A615A614FF40030FEF733FD4FF4F9
:102C90000030FEF717FD0C237B600223BB6000238E
:102CA000FB6000233B6100237B610723BB613B1D6D
:102CB00019464FF0904001F09AF84FF4E133FB6170
:102CC00000233B6200237B620023BB620C23FB6278
:102CD00000233B6300237B6307F11C03194608486C
:102CE00002F04AF80648FFF7A6F80548FFF78DF806
:102CF0000348FFF77AF800BF3837BD4680BD00BFF4
:102D00000044004080B500AF0120FEF7DBFC02204C
:102D1000FEF7D8FC00BF80BD80B58AB000AF07F1D8
:102D20001C0300221A605A609A603B1D00221A6040
:102D30005A609A60DA601A615A614FF40020FEF717
:102D4000C1FC4FF48000FEF7BDFC4FF40030FEF7ED
:102D5000B9FC4FF48020FEF7B5FC20214FF09040E5
:102D6000FFF7D7F81B490220FEF72CFD00224FF495
:102D700000511948FFF79EF800224FF40051164801
:102D8000FFF769F84FF40053FB6100233B62012316
:102D900087F82430002387F82530022387F826306F
:102DA00007F11C03184600F035FE20237B60012349
:102DB000BB600023FB6000233B6100237B613B1D64
:102DC00019464FF0904001F012F800BF2837BD4679
:102DD00080BD00BF0300F0000008004880B400AFD1
:102DE00000BFBD465DF8047B7047000080B582B02F
:102DF00000AF114B9B69104A43F0010393610E4BE6
:102E00009B6903F001037B607B680B4BDB690A4A1B
:102E100043F08053D361084BDB6903F080533B6080
:102E20003B6800220F216FF0010000F0B6F900BFEF
:102E30000837BD4680BD00BF0010024080B485B099
:102E400000AF78607B681B680A4A93420BD10A4B3B
:102E5000DB69094A43F01003D361074BDB6903F0D8
:102E60001003FB60FB6800BF1437BD465DF8047BB0
:102E7000704700BF001000400010024080B400AF57
:102E800000BFBD465DF8047B704780B400AFFEE72D
:102E900080B400AFFEE780B400AFFEE780B400AFBF
:102EA000FEE780B400AF00BFBD465DF8047B70470D
:102EB00080B586B000AF7860144A154BD31A7B6199
:102EC0007B693B61134B1B68002B02D1114B124AEB
:102ED0001A60104B1A687B6813443A699A4207D209
:102EE0000FF042F802460C2313604FF0FF3309E065
:102EF000084B1B68FB60074B1A687B681344054A44
:102F00001360FB6818461837BD4680BD00000120DD
:102F1000000400001402002030E3002080B400AF61
:102F2000064BD3F88830054A43F47003C2F8883062
:102F300000BFBD465DF8047B704700BF00ED00E0B8
:102F4000DFF834D00D480E490E4A002302E0D45871
:102F5000C4500433C4188C42F9D30B4A0B4C0023E1
:102F600001E013600432A242FBD3FFF7D7FF0FF05A
:102F700001F8FEF7DCFFFEE7000001200000002062
:102F8000F8010020A05B0108F801002030E30020D8
:102F9000FEE7000080B500AF084B1B68074A43F00E
:102FA00010031360032000F0EDF80F2000F008F884
:102FB000FFF71CFF0023184680BD00BF0020024021
:102FC00080B582B000AF7860124B1A68124B1B7844
:102FD00019464FF47A73B3FBF1F3B2FBF3F31846DF
:102FE00000F0F7F80346002B01D001230EE07B68C8
:102FF0000F2B0AD8002279684FF0FF3000F0CDF88F
:10300000064A7B681360002300E001231846083756
:10301000BD4680BD00000020080000200400002004
:1030200080B485B000AF78607B6803F00703FB6075
:103030000C4BDB68BB60BA684FF6FF031340BB6004
:10304000FB681A02BB68134343F0BF6343F40033C9
:10305000BB60044ABB68D36000BF1437BD465DF84F
:10306000047B704700ED00E080B400AF044BDB68E8
:103070001B0A03F007031846BD465DF8047B704742
:1030800000ED00E080B483B000AF03463960FB710F
:1030900097F90730002B0ADB3B68DAB20C4997F945
:1030A00007301201D2B20B4483F800230AE03B68D8
:1030B000DAB20849FB7903F00F03043B1201D2B2E4
:1030C0000B441A7600BF0C37BD465DF8047B704791
:1030D00000E100E000ED00E080B489B000AFF860EE
:1030E000B9607A60FB6803F00703FB61FB69C3F119
:1030F0000703042B28BF0423BB61FB690433062BA1
:1031000002D9FB69033B00E000237B614FF0FF32F3
:10311000BB6902FA03F3DA43BB681A407B699A4041
:103120004FF0FF317B6901FA03F3D9437B680B4011
:10313000134318462437BD465DF8047B70470000F2
:1031400080B582B000AF78607B68013BB3F1807FCF
:1031500001D301230FE00A4A7B68013B53600F2132
:103160004FF0FF30FFF78EFF054B00229A60044BB3
:1031700007221A60002318460837BD4680BD00BFED
:1031800010E000E080B582B000AF78607868FFF7AB
:1031900047FF00BF0837BD4680BD80B586B000AF91
:1031A0000346B9607A60FB7300237B61FFF75CFF25
:1031B00078617A68B9687869FFF78EFF024697F9F7
:1031C0000F3011461846FFF75DFF00BF1837BD46A8
:1031D00080BD80B582B000AF78607868FFF7B0FF3F
:1031E000034618460837BD4680BD80B582B000AFA3
:1031F00078607B68002B01D1012349E07B6893F85C
:103200003D30DBB2002B06D17B68002283F83C20E6
:103210007868FFF713FE7B68022283F83D207B6805
:103220001A687B6804331946104600F035F87B684D
:10323000012283F848207B68012283F83E207B68C6
:10324000012283F83F207B68012283F840207B68BD
:10325000012283F841207B68012283F842207B68A9
:10326000012283F843207B68012283F844207B6895
:10327000012283F845207B68012283F846207B6881
:10328000012283F847207B68012283F83D20002338
:1032900018460837BD4680BD80B485B000AF786061
:1032A00039607B681B68FB607B68424A934213D09D
:1032B0007B68B3F1804F0FD07B683F4A93420BD0BD
:1032C0007B683E4A934207D07B683D4A934203D0D5
:1032D0007B683C4A934208D1FB6823F07003FB6093
:1032E0003B685B68FA681343FB607B68314A934232
:1032F0001FD07B68B3F1804F1BD07B682E4A93426E
:1033000017D07B682D4A934213D07B682C4A934296
:103310000FD07B682C4A93420BD07B682B4A934298
:1033200007D07B682A4A934203D07B68254A9342A0
:1033300008D1FB6823F44073FB603B68DB68FA68E4
:103340001343FB60FB6823F080023B685B69134317
:10335000FB607B68FA681A603B689A687B68DA628F
:103360003B681A687B689A627B68124A934213D062
:103370007B68134A93420FD07B68134A93420BD069
:103380007B68124A934207D07B68114A934203D06C
:103390007B680C4A934203D13B681A697B681A63C5
:1033A0007B6801225A6100BF1437BD465DF8047B7B
:1033B000704700BF002C014000040040000800409E
:1033C00000340140005001400040014000440140F1
:1033D0000048014080B485B000AF786039607B68F8
:1033E00093F83C30012B01D102236DE07B68012270
:1033F00083F83C207B68022283F83D207B681B68B1
:103400005B68FB607B681B689B68BB607B681B68B4
:10341000304A934209D07B681B682F4A934204D0FC
:103420007B681B682D4A934208D1FB6823F4700324
:10343000FB603B685B68FA681343FB60FB6823F042
:103440007003FB603B681B68FA681343FB607B6892
:103450001B68FA685A607B681B681E4A93421DD03D
:103460007B681B68B3F1804F18D07B681B681C4ACF
:10347000934213D07B681B681A4A93420ED07B6834
:103480001B68154A934209D07B681B68164A934211
:1034900004D07B681B68114A93420CD1BB6823F0AF
:1034A0008003BB603B689B68BA681343BB607B6862
:1034B0001B68BA689A607B68012283F83D207B68AC
:1034C000002283F83C20002318461437BD465DF8DF
:1034D000047B7047002C0140003401400050014043
:1034E00000040040000800400040014080B483B068
:1034F00000AF786039607B681B6B23F00F023B687C
:103500001A437B681A6300BF0C37BD465DF8047B25
:10351000704780B483B000AF78607B689B6803F02D
:103520000103012B0CBF01230023DBB218460C372B
:10353000BD465DF8047B704790B585B000AF7860FC
:1035400039600023FB737B68254A93420FD14FF00B
:10355000A040FFF7DEFF04462248FFF7DAFF0346EC
:103560002343002B0CBF01230023DBB20DE01E48D8
:10357000FFF7CFFF04461D48FFF7CBFF0346234369
:10358000002B0CBF01230023DBB2002B20D03B68B3
:103590005B68002B12D07B689A68154B13403A6821
:1035A00011683A68526811433A68926811433A6860
:1035B000D2680A431A437B689A600BE07B689A687A
:1035C0000B4B13403A6812681A437B689A6001E01B
:1035D0000123FB73FB7B18461437BD4690BD00BF2B
:1035E000000300500001005000040050000500508E
:1035F000E030FCFF80B584B000AF78603960002314
:10360000FB737868FFF785FF0346002B11D17B68B9
:10361000DB6823F4804323F038033A6811683A6882
:10362000526811433A6892680A431A437B68DA6029
:1036300001E00123FB73FB7B18461037BD4680BDBC
:1036400080B584B000AF786039600023FB73786880
:10365000FFF75FFF0346002B32D13B685B68002B0E
:1036600015D07B68DA681A4B13403A6811683A68DB
:10367000926811433A68D26811433A68126911435B
:103680003A6852690A431A437B68DA6011E07B6842
:10369000DA680F4B13403A6811683A68D2681143F0
:1036A0003A68126911433A6852690A431A437B68BF
:1036B000DA603B685B6819467868FFF717FF01E03E
:1036C0000123FB73FB7B18461037BD4680BD00BF4E
:1036D0003CC0F0FF80B483B000AF786039607B6895
:1036E0001A683B6803F01003012101FA03F31A4042
:1036F0003B6803F01003012101FA03F39A420CBF67
:1037000001230023DBB218460C37BD465DF8047B6D
:10371000704780B586B000AFF860B9607A6000236A
:10372000FB75B968F868FFF7D5FF0346002B3AD15F
:103730007B685B68002B1ED0FB681A68BB6803F0CF
:10374000100340F6FA7101FA03F3DB431A407B6879
:1037500019687B685B6819437B689B6819437B68C1
:10376000DB681943BB6803F0100301FA03F31A4343
:10377000FB681A6019E0FB681A68BB6803F0100365
:10378000FA2101FA03F3DB431A407B6819687B686E
:10379000DB681943BB6803F0100301FA03F31A4313
:1037A000FB681A6001E00123FB75FB7D18461837A2
:1037B000BD4680BD80B483B000AF7860054B1A6809
:1037C00004497B6813430B6000BF0C37BD465DF8AE
:1037D000047B70470004014080B483B000AF786080
:1037E000054B1A6A04497B6813430B6200BF0C3710
:1037F000BD465DF8047B70470004014080B483B08F
:1038000000AF7860064B1A687B68DB4304491340BD
:103810000B6000BF0C37BD465DF8047B704700BFEE
:103820000004014080B483B000AF7860064B1A6A90
:103830007B68DB43044913400B6200BF0C37BD4675
:103840005DF8047B704700BF0004014080B483B082
:1038500000AF7860054B5A6804497B6813434B609E
:1038600000BF0C37BD465DF8047B70470004014083
:1038700080B483B000AF7860054B5A6A04497B6816
:1038800013434B6200BF0C37BD465DF8047B7047A5
:103890000004014080B483B000AF7860064B5A68E2
:1038A0007B68DB43044913404B6000BF0C37BD46C7
:1038B0005DF8047B704700BF0004014080B483B012
:1038C00000AF7860064B5A6A7B68DB4304491340BB
:1038D0004B6200BF0C37BD465DF8047B704700BFEC
:1038E0000004014080B483B000AF7860054B9A6853
:1038F00004497B6813438B6000BF0C37BD465DF8FD
:10390000047B70470004014080B483B000AF78604E
:10391000054B9A6A04497B6813438B6200BF0C37DE
:10392000BD465DF8047B70470004014080B483B05D
:1039300000AF7860064B9A687B68DB43044913400C
:103940008B6000BF0C37BD465DF8047B704700BF3D
:103950000004014080B483B000AF7860064B9A6ADF
:103960007B68DB43044913408B6200BF0C37BD46C4
:103970005DF8047B704700BF0004014080B483B051
:1039800000AF7860054BDA6804497B681343CB606D
:1039900000BF0C37BD465DF8047B70470004014052
:1039A00080B483B000AF7860054BDA6A04497B6865
:1039B0001343CB6200BF0C37BD465DF8047B7047F4
:1039C0000004014080B483B000AF7860064BDA6831
:1039D0007B68DB4304491340CB6000BF0C37BD4616
:1039E0005DF8047B704700BF0004014080B483B0E1
:1039F00000AF7860064BDA6A7B68DB43044913400A
:103A0000CB6200BF0C37BD465DF8047B704700BF3A
:103A10000004014080B584B000AF78600023FB73E0
:103A20007B681B7A002B00F0C2807B681B68002B30
:103A30005BD07B685B7A012B0ED0022B17D0002B5A
:103A400020D17B681B681846FFF724FF7B681B6842
:103A50001846FFF7AFFE18E07B681B681846FFF7B3
:103A6000CDFE7B681B681846FFF7F0FE0DE07B6813
:103A70001B681846FFF79EFE7B681B681846FFF719
:103A8000E5FE02E00123FB7300BF7B689B7A002BFD
:103A90002BD07B689B7A022B0ED0032B17D0012BE7
:103AA00020D17B681B681846FFF78CFF7B681B687A
:103AB0001846FFF717FF19E07B681B681846FFF7E9
:103AC00035FF7B681B681846FFF758FF0EE07B68E0
:103AD0001B681846FFF706FF7B681B681846FFF750
:103AE0004DFF03E00123FB7300E000BF7B685B68D0
:103AF000002B71D07B685B7A012B0ED0022B17D084
:103B0000002B20D17B685B681846FFF7D7FE7B68E7
:103B10005B681846FFF760FE18E07B685B68184634
:103B2000FFF780FE7B685B681846FFF7A1FE0DE09B
:103B30007B685B681846FFF74FFE7B685B6818463A
:103B4000FFF796FE02E00123FB7300BF7B689B7AC0
:103B5000002B41D07B689B7A022B0ED0032B17D011
:103B6000012B20D17B685B681846FFF73FFF7B681D
:103B70005B681846FFF7C8FE2FE07B685B68184655
:103B8000FFF7E8FE7B685B681846FFF709FF24E053
:103B90007B685B681846FFF7B7FE7B685B68184672
:103BA000FFF7FEFE19E00123FB7300BF15E07B6801
:103BB0001B681846FFF722FE7B681B681846FFF754
:103BC00069FE7B685B681846FFF72CFE7B685B68C4
:103BD0001846FFF773FE00E000BFFB7B1846103766
:103BE000BD4680BD80B489B000AFF860B9607A602E
:103BF000FB681A68BB687B617B6993FAA3F33B613E
:103C00003B69B3FA83F3DBB25B00032101FA03F3F0
:103C1000DB431A40BB68FB61FB6993FAA3F3BB610A
:103C2000BB69B3FA83F3DBB25B00796801FA03F393
:103C30001A43FB681A6000BF2437BD465DF8047B59
:103C4000704780B485B000AFF860B9607A60FB68F7
:103C50005A68BB68DB431A40BB68796801FB03F311
:103C60001A43FB685A6000BF1437BD465DF8047BF9
:103C7000704780B489B000AFF860B9607A60FB68C3
:103C80009A68BB687B617B6993FAA3F33B613B69EC
:103C9000B3FA83F3DBB25B00032101FA03F3DB43E6
:103CA0001A40BB68FB61FB6993FAA3F3BB61BB6974
:103CB000B3FA83F3DBB25B00796801FA03F31A43CA
:103CC000FB689A6000BF2437BD465DF8047B7047EF
:103CD00080B489B000AFF860B9607A60FB68DA68D8
:103CE000BB687B617B6993FAA3F33B613B69B3FAE1
:103CF00083F3DBB25B00032101FA03F3DB431A40D9
:103D0000BB68FB61FB6993FAA3F3BB61BB69B3FAC0
:103D100083F3DBB25B00796801FA03F31A43FB68B3
:103D2000DA6000BF2437BD465DF8047B704780B47D
:103D300089B000AFF860B9607A60FB681A6ABB6846
:103D40007B617B6993FAA3F33B613B69B3FA83F32D
:103D5000DBB29B000F2101FA03F3DB431A40BB687F
:103D6000FB61FB6993FAA3F3BB61BB69B3FA83F30D
:103D7000DBB29B00796801FA03F31A43FB681A620D
:103D800000BF2437BD465DF8047B704780B489B01E
:103D900000AFF860B9607A60FB685A6ABB681B0ABA
:103DA0007B617B6993FAA3F33B613B69B3FA83F3CD
:103DB000DBB29B000F2101FA03F3DB431A40BB681F
:103DC0001B0AFB61FB6993FAA3F3BB61BB69B3FAFE
:103DD00083F3DBB29B00796801FA03F31A43FB68B3
:103DE0005A6200BF2437BD465DF8047B704780B53A
:103DF00088B000AF786039603B681B687B617B6985
:103E000093FAA3F33B613B69B3FA83F3DBB2FB6143
:103E100051E03B681A680121FB6901FA03F3134082
:103E2000BB61BB69002B43D03B685B68012B03D0AF
:103E30003B685B68022B0ED13B689B681A46B969E8
:103E40007868FFF716FF3B6819683B68DB681A461D
:103E50007868FFF7F6FE3B681B691A46B96978680F
:103E6000FFF736FF3B685B68022B1AD1BB69FB602A
:103E7000FB6893FAA3F3BB60BB68B3FA83F3DBB2CE
:103E8000072B07D83B685B691A46B9697868FFF762
:103E90004EFF06E03B685B691A46B9697868FFF730
:103EA00075FF3B685B681A46B9697868FFF79AFE48
:103EB000FB690133FB613B681A68FB6922FA03F373
:103EC000002BA6D1002318462037BD4680BD000038
:103ED00080B400AF064B1B6803F00203022B0CBF3B
:103EE00001230023DBB21846BD465DF8047B704712
:103EF0000010024080B400AF064B1B6A03F00203BF
:103F0000022B0CBF01230023DBB21846BD465DF82F
:103F1000047B70470010024080B400AF044B5B6824
:103F200003F00C031846BD465DF8047B704700BFE4
:103F30000010024080B400AF044B5B6803F0F00354
:103F40001846BD465DF8047B704700BF0010024074
:103F500080B400AF044B5B6803F4E0631846BD46D1
:103F60005DF8047B704700BF0010024080B400AFD2
:103F7000044B5B6803F460531846BD465DF8047B50
:103F8000704700BF0010024080B483B000AF78607B
:103F9000074B1A6B03217B6801FA03F31A407B6815
:103FA0001B06134318460C37BD465DF8047B70476B
:103FB0000010024080B483B000AF7860064B1A6BEB
:103FC0007B681A407B681B0A134318460C37BD46B2
:103FD0005DF8047B704700BF0010024080B400AF62
:103FE000044B5B6803F4C0331846BD465DF8047BA0
:103FF000704700BF0010024080B400AF044B5B6804
:1040000003F470131846BD465DF8047B704700BF8B
:104010000010024080B400AF044BDB6A03F00F03D2
:104020001846BD465DF8047B704700BF0010024093
:1040300080B584B000AF78600023FB607B68002B04
:104040002AD17868FFF7A0FF0346022B0FD0032B7D
:1040500005D0012B14D100F02BF9F86021E0FFF717
:1040600037FF0346002B19D0464BFB6016E0FFF7E5
:1040700041FF0346002B13D04FF40043FB600FE0D9
:1040800000F016F90346184600F034F903461846C6
:1040900000F05AF9F86004E000BF02E000BF00E061
:1040A00000BF7B68102B2DD17868FFF76DFF0346AA
:1040B000354A934211D0354A934206D0344A93424E
:1040C00014D100F0F5F8F86021E0FFF701FF034696
:1040D000002B19D02B4BFB6016E0FFF70BFF0346BC
:1040E000002B13D04FF40043FB600FE000F0E0F82A
:1040F0000346184600F0FEF80346184600F010F993
:10410000F86004E000BF02E000BF00E000BF7B6891
:10411000122B2DD17868FFF737FF03461D4A9342D3
:1041200011D01D4A934206D01C4A934214D100F08C
:10413000BFF8F86021E0FFF7CBFE0346002B19D053
:10414000104BFB6016E0FFF7D5FE0346002B13D0A3
:104150004FF40043FB600FE000F0AAF80346184656
:1041600000F0C8F80346184600F0DAF8F86004E0FA
:1041700000BF02E000BF00E000BFFB681846103738
:10418000BD4680BD00127A0000000210000003103E
:10419000000001100000081200000C1200000412C0
:1041A00080B584B000AF78600023FB607B68B3F516
:1041B000401F2DD17868FFF7FDFE0346354A934234
:1041C00011D0354A934206D0344A934214D100F0BC
:1041D0006FF8F86021E0FFF77BFE0346002B19D053
:1041E0002F4BFB6016E0FFF785FE0346002B13D034
:1041F0004FF40043FB600FE000F05AF80346184606
:1042000000F078F80346184600F08AF8F86004E0F9
:1042100000BF02E000BF00E000BF7B68B3F5400FC5
:104220002DD17868FFF7C6FE03461E4A934211D08F
:104230001D4A934206D01D4A934214D100F038F82B
:10424000F86021E0FFF744FE0346002B19D0144B21
:10425000FB6016E0FFF74EFE0346002B13D04FF431
:104260000043FB600FE000F023F80346184600F01F
:1042700041F80346184600F053F8F86004E000BF28
:1042800002E000BF00E000BFFB6818461037BD46E3
:1042900080BD00BF00302000003030000030100032
:1042A00000127A0000C0800000C0C00000C04000C2
:1042B00080B582B000AF00237B60FFF72DFE034680
:1042C000042B06D0082B07D0002B09D1084B7B60AC
:1042D00009E0074B7B6006E000F04AF8786002E0F6
:1042E000034B7B6000BF7B6818460837BD4680BD26
:1042F00000127A0080B582B000AF7860FFF71AFE36
:1043000003461B0903F00F03044AD35C1A467B687B
:10431000D34018460837BD4680BD00BFB0550108E0
:1043200080B582B000AF7860FFF712FE03461B0A2B
:10433000044AD35C1A467B68D34018460837BD460A
:1043400080BD00BFC055010880B582B000AF786065
:10435000FFF70CFE0346DB0A044AD35C1A467B686F
:10436000D34018460837BD4680BD00BFC055010880
:1043700090B585B000AF0023FB600023BB60FFF762
:104380002DFEB860BB68B3F5004F03D0B3F5803F96
:1043900003D005E0144BFB6005E0134BFB6002E02B
:1043A000114BFB6000BFFFF735FE034603F00F0320
:1043B0000133FA68B2FBF3F4FFF71EFE034603F481
:1043C00070134FF470127A607A6892FAA2F23A602F
:1043D0003A68B2FA82F2D2B2D340023303FB04F35A
:1043E00018461437BD4690BD00127A0080B483B0E1
:1043F00000AF786039607B683A689A6200BF0C371A
:10440000BD465DF8047B704780B483B000AF786030
:1044100039607B683A68DA6200BF0C37BD465DF8E8
:10442000047B704780B483B000AF786039607B68EC
:104430003A681A6300BF0C37BD465DF8047B7047CD
:1044400080B483B000AF786039607B683A685A63A3
:1044500000BF0C37BD465DF8047B704780B483B065
:1044600000AF786039607B683A689A6300BF0C37A8
:10447000BD465DF8047B704780B483B000AF7860C0
:1044800039607B683A68DA6300BF0C37BD465DF877
:10449000047B704780B483B000AF786039607B687C
:1044A0003A681A6400BF0C37BD465DF8047B70475C
:1044B00080B483B000AF786039607B689B6D7B68A7
:1044C0003A689A6500BF0C37BD465DF8047B7047BB
:1044D00080B483B000AF786039607B683A68DA6591
:1044E00000BF0C37BD465DF8047B704780B483B0D5
:1044F00000AF78607B685B6943F001027B685A61BA
:1045000000BF0C37BD465DF8047B704780B584B0B2
:1045100000AF786039607B681B68FB607B683F4A4E
:10452000934213D07B68B3F1804F0FD07B683C4A35
:1045300093420BD07B683B4A934207D07B683A4A50
:10454000934203D07B68394A934206D1FB6823F03B
:1045500070023B685B681343FB607B682F4A9342A1
:104560001FD07B68B3F1804F1BD07B682C4A9342ED
:1045700017D07B682B4A934213D07B682A4A934218
:104580000FD07B682A4A93420BD07B68294A93421A
:1045900007D07B68284A934203D07B68234A934222
:1045A00006D1FB6823F440723B68DB681343FB6071
:1045B0007B68FA681A603B689B6819467868FFF761
:1045C00023FF3B681B8819467868FFF70FFF7B685D
:1045D000124A934213D07B68134A93420FD07B68F0
:1045E000134A93420BD07B68124A934207D07B68F0
:1045F000114A934203D07B680C4A934205D13B6831
:104600001B6919467868FFF70DFF7868FFF76EFFA2
:10461000002318461037BD4680BD00BF002C014066
:1046200000040040000800400034014000500140F8
:1046300000400140004401400048014080B586B080
:1046400000AFF860B9607A600123FB75BB68B3F511
:10465000807F1FD0B3F5807F04D8012B0CD0102BA6
:1046600011D033E0B3F5803F22D0B3F5801F26D0C0
:10467000B3F5805F15D029E07968F86800F02CF870
:104680000346FB7522E07968F86800F0ABF8034652
:10469000FB751BE07968F86800F02EF90346FB759E
:1046A00014E07968F86800F0B1F90346FB750DE095
:1046B0007968F86800F01CFA0346FB7506E0796833
:1046C000F86800F07FFA0346FB7500BFFB7D1846D3
:1046D0001837BD4680BD000080B586B000AF786059
:1046E00039607B681B6A23F001027B681A627B6871
:1046F0001B6A7B617B685B683B617B689B69FB60D5
:10470000FB6823F00303FB60FB6823F4803323F092
:1047100070033A6812681343FB607B6923F002025E
:104720003B681B6913437B617B6923F001023B6893
:104730005B6813437B617B68244A934213D07B6898
:10474000234A93420FD07B68224A93420BD07B6866
:10475000214A934207D07B68204A934203D07B686A
:104760001F4A93421ED17B6923F008023B685B69B4
:104770009B0013437B617B6923F004023B689B68C9
:104780009B0013437B613B6923F480723B689B6908
:1047900013433B613B6923F400723B68DB695B00B8
:1047A00013433B617B683A695A607B68FA689A6197
:1047B0003B68DB6819467868FFF742FE7B687A69D8
:1047C0001A62002318461837BD4680BD002C0140F0
:1047D00000340140004001400044014000480140D5
:1047E0000050014080B586B000AF786039607B68CA
:1047F0001B6A23F010027B681A627B681B6A7B616C
:104800007B685B683B617B689B69FB60FB6823F4AA
:104810004073FB60FB6823F0807323F4E0433A6845
:10482000126812021343FB607B6923F020023B688D
:104830001B691B0113437B617B6923F010023B68FA
:104840005B681B0113437B617B68254A934213D04D
:104850007B68244A93420FD07B68234A93420BD053
:104860007B68224A934207D07B68214A934203D057
:104870007B68204A93421FD17B6923F080023B680A
:104880005B699B0113437B617B6923F040023B68BA
:104890009B689B0113437B613B6923F480623B6807
:1048A0009B699B0013433B613B6923F400623B68B7
:1048B000DB69DB0013433B617B683A695A607B68C4
:1048C000FA689A613B68DB6819467868FFF7C6FDAD
:1048D0007B687A691A62002318461837BD4680BD86
:1048E000002C0140003401400040014000440140E0
:1048F000004801400050014080B586B000AF7860AC
:1049000039607B681B6A23F480727B681A627B685B
:104910001B6A7B617B685B683B617B68DB69FB6072
:10492000FB6823F00303FB60FB6823F4803323F070
:1049300070033A6812681343FB607B6923F40072CA
:104940003B681B691B0213437B617B6923F4807204
:104950003B685B681B0213437B617B68254A93427B
:1049600013D07B68244A93420FD07B68234A93423A
:104970000BD07B68224A934207D07B68214A93423E
:1049800003D07B68204A93421FD17B6923F40062E5
:104990003B685B699B0213437B617B6923F4806204
:1049A0003B689B689B0213437B613B6923F4805205
:1049B0003B689B691B0113433B613B6923F4005235
:1049C0003B68DB695B0113433B617B683A695A6072
:1049D0007B68FA68DA613B68DB6819467868FFF73C
:1049E0004BFD7B687A691A62002318461837BD466A
:1049F00080BD00BF002C0140003401400040014058
:104A000000440140004801400050014080B586B09C
:104A100000AF786039607B681B6A23F480527B6842
:104A20001A627B681B6A3B617B685B687B617B68A1
:104A3000DB69FB60FB6823F44073FB60FB6823F0D9
:104A4000807323F4E0433A68126812021343FB6058
:104A50003B6923F400523B681B691B0313433B6112
:104A60003B6923F480523B685B681B0313433B6143
:104A70007B68194A934213D07B68184A93420FD03F
:104A80007B68174A93420BD07B68164A934207D043
:104A90007B68154A934203D07B68144A934207D13E
:104AA0007B6923F480423B689B699B0113437B61D4
:104AB0007B687A695A607B68FA68DA613B68DB6810
:104AC00019467868FFF7E6FC7B683A691A620023AA
:104AD00018461837BD4680BD002C01400034014007
:104AE00000400140004401400048014000500140A6
:104AF00080B584B000AF786039607B681B6A23F4AE
:104B000080327B681A627B681B6AFB607B685B6D26
:104B1000BB60BB6823F4803323F070033A681268EB
:104B20001343BB60FB6823F400323B681B691B0422
:104B30001343FB60FB6823F480323B685B681B0413
:104B40001343FB607B68194A934213D07B68184A71
:104B500093420FD07B68174A93420BD07B68164A6A
:104B6000934207D07B68154A934203D07B68144A6E
:104B7000934209D17B685B6823F480323B689B6970
:104B80001B021A437B685A607B68BA685A653B68A7
:104B9000DB6819467868FFF78BFC7B68FA681A6255
:104BA000002318461037BD4680BD00BF002C0140D1
:104BB00000340140004001400044014000480140F1
:104BC0000050014080B584B000AF786039607B68E8
:104BD0001B6A23F480127B681A627B681B6AFB6085
:104BE0007B685B6DBB60BB6823F0807323F4E0439C
:104BF0003A68126812021343BB60FB6823F4001288
:104C00003B681B691B051343FB60FB6823F48012A0
:104C10003B685B681B051343FB607B68184A934243
:104C200013D07B68174A93420FD07B68164A934291
:104C30000BD07B68154A934207D07B68144A934295
:104C400003D07B68134A934209D17B685B6823F4E5
:104C500080223B689B699B021A437B685A607B6891
:104C6000BA685A653B68DB6819467868FFF730FC1C
:104C70007B68FA681A62002318461037BD4680BD6B
:104C8000002C01400034014000400140004401403C
:104C9000004801400050014080B483B000AF78600C
:104CA0007B681B6803F00103012B01D1012300E0A5
:104CB000002318460C37BD465DF8047B704780B46E
:104CC00083B000AF786039607B685B6823F4405242
:104CD0003B681A437B685A6000BF0C37BD465DF8DD
:104CE000047B704780B483B000AF786039607B6824
:104CF0009B6823F440723B681A437B689A6000BF4C
:104D00000C37BD465DF8047B704780B487B000AFB8
:104D1000F860B9607A603B607B68B3F5004F1AD1E8
:104D2000BB685A003B685B081A443B68B2FBF3F36C
:104D30009BB27B617A694FF6F07313403B617B69EC
:104D40005B089BB203F007033A6913433B61FB68BE
:104D50003A69DA600AE03B685A08BB681A443B6863
:104D6000B2FBF3F39BB21A46FB68DA6000BF1C3754
:104D7000BD465DF8047B704780B584B000AF7860B5
:104D800039600123FB730023BB607868FFF784FF61
:104D90000346002B5CD17B681A68304B13403A689D
:104DA00051683A68D26811433A68126911433A6807
:104DB00092690A431A437B681A603B689B681946EC
:104DC0007868FFF77CFF3B685B6919467868FFF7F6
:104DD00089FF7B68224A934204D10020FFF728F91B
:104DE000B86024E07B681F4A934204D11020FFF78B
:104DF0001FF9B8601BE07B681B4A934204D1122064
:104E0000FFF716F9B86012E07B68184A934205D1A3
:104E10004FF44010FFF7C4F9B86008E07B68144A0B
:104E2000934204D14FF44000FFF7BAF9B860BB6871
:104E3000002B0DD03B681B68002B09D00023FB73AF
:104E40003B689A693B681B68B9687868FFF75DFF43
:104E5000FB7B18461037BD4680BD00BFF369FFEFEE
:104E6000003801400044004000480040004C004031
:104E70000050004080B483B000AF7860044A7B6883
:104E8000136000BF0C37BD465DF8047B704700BF60
:104E90000000002080B400AF044B4AF6AA221A603A
:104EA00000BFBD465DF8047B704700BF0030004086
:104EB00080B584B004AF72B603230093444B002244
:104EC000002101200BF07AFC0246424B1A600323BA
:104ED0000093414B0022002101200BF06FFC0246A1
:104EE0003E4B1A603E4901200BF00FFD02463D4B40
:104EF0001A60384B1B68002B03D13B213A4807F05E
:104F000092F8364B1B68002B03D13C21364807F042
:104F10008AF8344B1B68002B03D13D21324807F03F
:104F200082F8324B0293324B019303230093002308
:104F30004022304930480CF098F80346002B03D14A
:104F40003F21294807F06FF82C4B02932C4B01931B
:104F500001230093002340222A492B480CF085F8B6
:104F60000346002B03D140211F4807F05CF8274B74
:104F70000293274B019304230093002340222549E9
:104F800025480CF072F80346002B03D14121164846
:104F900007F049F8214B0293214B01930223009320
:104FA00000234FF400721F491F480CF05EF80346BF
:104FB000002B03D142210C4807F035F862B60CF003
:104FC000E7F94821084807F02EF800BFBD4680BD2C
:104FD000BC04002050D6002054D600209CD60020CF
:104FE000E8E00020D0CC0020F84D0108A407002004
:104FF000E8DF0020244E01082D500008A0DF00202B
:1050000004050020284E010871500008BCD500207E
:10501000D4CC00202C4E0108E150000808D6002016
:10502000A0D70020304E01086D51000880B582B035
:1050300000AF786002E002200CF05CF9094B1B78AD
:10504000DBB2002BF7D0FFF725FF074B03F54443F6
:1050500030331B681946054804F020F90A200CF08B
:1050600049F9F0E718020020EC070020C0CC00202E
:1050700080B582B000AF786002E002200CF03AF90F
:10508000134B1B78DBB2002BF7D0124B1B684FF091
:10509000FF3118460BF0D8FD0346012B03D06021E9
:1050A0000D4806F0C0FF0D4802F010FC094B1868CF
:1050B0000023002200210BF043FC0346012B03D008
:1050C0006421054806F0AFFF05200CF013F9DCE77A
:1050D00018020020D0CC0020F84D0108EC07002079
:1050E00080B582B000AF786002E002200CF002F9D7
:1050F000194B1B78DBB2002BF7D0184B1B684FF015
:10510000FF3118460BF0A0FD0346012B03D071219F
:10511000134806F088FF134B1B684FF0FF31184609
:105120000BF092FD0346012B03D072210C4806F0D0
:105130007AFF0D4802F044FF0A4B18680023002252
:1051400000210BF0FDFB0346012BD6D0762104484D
:1051500006F069FFD1E700BF180200209CD60020AE
:10516000F84D0108D0CC0020EC07002080B586B0B7
:1051700004AF78603E4806F075F83E4804F011F838
:105180003D4800F0D3F93D4800F0EAFC3C4800F00F
:1051900045FF01213A4801F07BFF394B03F54443B9
:1051A00030331B684FF4FA720321324804F05CF884
:1051B000344806F01DFA01230293012301933223A0
:1051C0000093192319224FF47A71294806F06AF8DE
:1051D0004FF47A72DFED2C0A9FED2C0A0121294849
:1051E00006F024FA00BF002004F032FD0346B3F1BC
:1051F000FF3FF8D0264B01221A70264B1B684FF058
:10520000FF3118460BF020FD0346012B03D09621F9
:10521000214806F008FF214B1B684FF0FF3118466C
:105220000BF012FD0346012B03D097211A4806F01C
:10523000FAFE124800F000FD0346002B09D0104B87
:1052400003F5444330331B6832220121094804F03E
:105250000BF8124B18680023002200210BF070FBA2
:105260000346012BC9D09D210B4806F0DCFEC4E7A4
:10527000A0D60020C0CC002004060020D0D60020FC
:10528000EC070020D4CD002000007A440000C84282
:105290001802002050D60020F84D0108D0CC002084
:1052A00080B400AF044BDB681B0A03F00703184609
:1052B000BD465DF8047B704700ED00E080B483B02C
:1052C00000AF0346FB7197F90730002B0BDBFB792E
:1052D00003F01F02074997F907305B09012000FA24
:1052E00002F241F8232000BF0C37BD465DF8047B75
:1052F000704700BF00E100E080B483B000AF034618
:10530000FB7197F90730002B10DBFB7903F01F02CC
:10531000094997F907305B09012000FA02F22033AE
:1053200041F82320BFF34F8FBFF36F8F00BF0C37BF
:10533000BD465DF8047B704700E100E080B483B0B7
:1053400000AF03463960FB7197F90730002B0ADB89
:105350003B68DAB20C4997F907301201D2B20B441C
:1053600083F800230AE03B68DAB20849FB7903F0CE
:105370000F03043B1201D2B20B441A7600BF0C3764
:10538000BD465DF8047B704700E100E000ED00E001
:1053900080B489B000AFF860B9607A60FB6803F050
:1053A0000703FB61FB69C3F10703042B28BF042338
:1053B000BB61FB690433062B02D9FB69033B00E0A8
:1053C00000237B614FF0FF32BB6902FA03F3DA433B
:1053D000BB681A407B699A404FF0FF317B6901FA44
:1053E00003F3D9437B680B40134318462437BD466B
:1053F0005DF8047B7047000080B483B000AF786034
:1054000039603B68013B064AD35C1A467B6813440B
:105410005B689BB218460C37BD465DF8047B70474D
:105420000856010880B483B000AF78607B681B68C1
:1054300043F001027B681A6000BF0C37BD465DF87F
:10544000047B704780B483B000AF78607B681B68D2
:1054500023F001027B681A6000BF0C37BD465DF87F
:10546000047B704780B483B000AF786039607B689C
:105470001A6A3B681A437B681A6200BF0C37BD4644
:105480005DF8047B704780B483B000AF786039600A
:105490007B681A6A3B68DB431A407B681A6200BF6C
:1054A0000C37BD465DF8047B704780B483B000AF15
:1054B00078607B68DB6843F001027B68DA6000BFDC
:1054C0000C37BD465DF8047B704780B483B000AFF5
:1054D00078607B68DB6843F010027B68DA6000BFAD
:1054E0000C37BD465DF8047B704780B483B000AFD5
:1054F00078607B68DB6843F480527B68DA6000BFC9
:105500000C37BD465DF8047B704780B483B000AFB4
:1055100078607B68DB6823F480527B68DA6000BFC8
:105520000C37BD465DF8047B7047000080B586B03F
:1055300004AF78607B684FF00002C3F898217B6865
:105540000022C3F89C217B68002283F894217B68A9
:105550000022C3F890217B68C822002118460CF075
:1055600075FD7B68C833C822002118460CF06EFD1B
:105570007B681A46002303934FF4806302934FF431
:105580008073019364230093134602221349144845
:1055900004F0CEF8FFF784FE0346002201211846EE
:1055A000FFF7F6FE034619461920FFF7C7FEFFF77F
:1055B00077FE0346002201211846FFF7E9FE034665
:1055C00019461B20FFF7BAFE0648FFF77EFF054885
:1055D000FFF76BFF00BF0837BD4680BD00040240E7
:1055E000403401400034014080B582B000AF7860A3
:1055F0000B46FB70FB78002B14D07868FFF796FF02
:105600001548FFF772FF1B20FFF758FE1920FFF720
:1056100055FE1148FFF706FF4FF480510E48FFF783
:1056200021FF10E00C48FFF70DFF4FF480510A48AE
:10563000FFF729FF1B20FFF75FFE1920FFF75CFE35
:105640000548FFF762FF7B68FA7883F8942100BF72
:105650000837BD4680BD00BF0034014080B58AB028
:1056600000AF786039603B6803F5444330331B6812
:10567000FB610023BB6101217868FFF7B5FF0221C0
:105680004348FFF7B9FE0346BB613B6803F544435B
:1056900030331A68FB69D31A7B617B69B3F5FA6F03
:1056A00003D8BB69002B00D0E9E700217868FFF739
:1056B0009BFFBB69C3F16403BB61BB69012B5FDD69
:1056C00000237B6200233B627B68D3F89031012B7F
:1056D0000EDD7B68D3F890315A1E7B68643233F854
:1056E00012301A467B68B3F8C830D31A013B7B628C
:1056F0007B68D3F89031002B0FDD7B681B88C3F5E6
:105700007F43FF33BA69511E7A6832F8112013447F
:105710001A463B6A13443B620CE0BB695A1E7B6825
:1057200033F812301A467B681B88D31A1A463B6A34
:1057300013443B627A6A13461B049A1A3B6A134469
:1057400007EE903AF8EE677AC7ED047ABB69013B41
:1057500007EE903AB8EEE77AD7ED046AC6EE877A9C
:10576000C7ED047ADFED0B6A97ED047AC6EE877A0F
:10577000C7ED037A7B68FA68C3F89821FB6800E0FC
:10578000054B07EE903AB0EE670A2837BD4680BD5C
:10579000000402404054894C000080BF80B400AF38
:1057A000044BDB681B0A03F007031846BD465DF88F
:1057B000047B704700ED00E080B483B000AF034687
:1057C000FB7197F90730002B0BDBFB7903F01F020D
:1057D000074997F907305B09012000FA02F241F806
:1057E000232000BF0C37BD465DF8047B704700BF27
:1057F00000E100E080B483B000AF03463960FB7184
:1058000097F90730002B0ADB3B68DAB20C4997F9AD
:1058100007301201D2B20B4483F800230AE03B6840
:10582000DAB20849FB7903F00F03043B1201D2B24C
:105830000B441A7600BF0C37BD465DF8047B7047F9
:1058400000E100E000ED00E080B489B000AFF86056
:10585000B9607A60FB6803F00703FB61FB69C3F181
:105860000703042B28BF0423BB61FB690433062B09
:1058700002D9FB69033B00E000237B614FF0FF325C
:10588000BB6902FA03F3DA43BB681A407B699A40AA
:105890004FF0FF317B6901FA03F3D9437B680B407A
:1058A000134318462437BD465DF8047B704780B427
:1058B00083B000AF78607B68DB6903F08003802BE6
:1058C00001D1012300E0002318460C37BD465DF8E6
:1058D000047B704780B483B000AF78607B681B683E
:1058E00043F020027B681A6000BF0C37BD465DF8AC
:1058F000047B704780B483B000AF78600B46FB70C8
:10590000FB789AB27B681A8500BF0C37BD465DF8FC
:10591000047B704780B584B000AFF860B9607A60EE
:10592000FB68D3F8D4307A68B968184600F0B0F94B
:10593000034618461037BD4680BD80B483B000AF23
:105940007860012318460C37BD465DF8047B70472C
:1059500090B59DB000AF786039603B681BB21C46C3
:105960003B681BB2184607F01FF8034607F1080012
:10597000224609490CF072FBF8667B68D3F8D430F4
:1059800007F10801FA6E184600F082F90023184664
:105990007437BD4690BD00BF744F010880B59EB0FE
:1059A00002AF78600B46FB7013463B800023FB661A
:1059B000FB78012B08D13A883B8807F108000F4992
:1059C0000CF04CFBF8660AE0FA7839883B8807F15E
:1059D000080000930B460A490CF040FBF8667B6810
:1059E000D3F8D43007F10801FA6E184600F050F9E8
:1059F000012318467037BD4680BD00BF884F01089F
:105A00009C4F010880B582B000AF78607B68D3F806
:105A1000D43009220449184600F03AF90123184607
:105A20000837BD4680BD00BFB84F010890B585B0AE
:105A300000AF78600023FB6039E07A68FB682033B0
:105A40009B0013445B68002B29D0FB68BB60FB689C
:105A5000012B09D17B68D3F8D43093F8CC30002BDC
:105A600002D00423BB6004E0FB68012B01D10523B5
:105A7000BB607A68BB6820339B0013445C687A681B
:105A8000BB6820339B0013445B681846FAF7B2FBEF
:105A900003461A462146786808F0F2FE04E0012227
:105AA0000749786808F0ECFEFB680133FB60FB688F
:105AB000032BC2DD012318461437BD4690BD00BF3D
:105AC000C44F010880B584B000AF78600023FB604C
:105AD00009E0FB687A6813441B78184600F00EF85A
