:020000040800F2
:100000000050002029160008CD150008CF15000863
:10001000D1150008D3150008D51500080000000010
:10002000000000000000000000000000497B000804
:10003000D7150008000000004D7B0008257B000854
:100040007116000871160008711600087116000874
:100050007116000871160008D96E0008196D0008A5
:10006000896D0008F96D0008696E000871160008B6
:100070007116000871160008711600087116000844
:100080007116000871160008856C000871160008CA
:10009000D9150008711600087116000871160008BD
:1000A00071160008494B0008711600087116000807
:1000B0007116000871160008711600087116000804
:1000C00071160008711600087116000871160008F4
:1000D00071160008354E00087116000871160008E8
:1000E0007116000871160008711600080000000063
:1000F0000000000000000000000000000000000000
:0C01000000000000000000005FF808F1A3
:1001100010B5054C237833B9044B13B10448AFF341
:1001200000800123237010BD800300200000000028
:10013000FCBD000808B5034B1BB103490348AFF3EE
:10014000008008BD0000000084030020FCBD000802
:10015000034613F8012B002AFBD1181A0138704707
:1001600081F0004102E000BF83F0004330B54FEA68
:1001700041044FEA430594EA050F08BF90EA020FD5
:100180001FBF54EA000C55EA020C7FEA645C7FEA68
:10019000655C00F0E2804FEA5454D4EB5555B8BF8B
:1001A0006D420CDD2C4480EA020281EA030382EAFC
:1001B000000083EA010180EA020281EA0303362D8E
:1001C00088BF30BD11F0004F4FEA01314FF4801C61
:1001D0004CEA113102D0404261EB410113F0004F73
:1001E0004FEA03334CEA133302D0524263EB43032A
:1001F00094EA050F00F0A780A4F10104D5F1200EC8
:100200000DDB02FA0EFC22FA05F2801841F1000122
:1002100003FA0EF2801843FA05F359410EE0A5F1F6
:1002200020050EF1200E012A03FA0EFC28BF4CF027
:10023000020C43FA05F3C01851EBE37101F00045DD
:1002400007D54FF0000EDCF1000C7EEB00006EEBEA
:100250000101B1F5801F1BD3B1F5001F0CD3490874
:100260005FEA30004FEA3C0C04F101044FEA4452CB
:1002700012F5800F80F09A80BCF1004F08BF5FEA52
:10028000500C50F1000041EB045141EA050130BD32
:100290005FEA4C0C404141EB010111F4801FA4F1D5
:1002A0000104E9D191F0000F04BF01460020B1FA2A
:1002B00081F308BF2033A3F10B03B3F120020CDA62
:1002C0000C3208DD02F1140CC2F10C0201FA0CF040
:1002D00021FA02F10CE002F11402D8BFC2F1200CA5
:1002E00001FA02F120FA0CFCDCBF41EA0C0190405B
:1002F000E41AA2BF01EB0451294330BD6FEA0404A4
:100300001F3C1CDA0C340EDC04F11404C4F120028E
:1003100020FA04F001FA02F340EA030021FA04F3A0
:1003200045EA030130BDC4F10C04C4F1200220FAF7
:1003300002F001FA04F340EA0300294630BD21FA35
:1003400004F0294630BD94F0000F83F4801306BFFB
:1003500081F480110134013D4EE77FEA645C18BFEF
:100360007FEA655C29D094EA050F08BF90EA020F86
:1003700005D054EA000C04BF1946104630BD91EA7E
:10038000030F1EBF0021002030BD5FEA545C05D181
:100390004000494128BF41F0004130BD14F58004C0
:1003A0003CBF01F5801130BD01F0004545F0FE4134
:1003B00041F470014FF0000030BD7FEA645C1ABF69
:1003C000194610467FEA655C1CBF0B46024650EAA0
:1003D000013406BF52EA033591EA030F41F40021CC
:1003E00030BD00BF90F0000F04BF0021704730B552
:1003F0004FF4806404F132044FF000054FF0000127
:1004000050E700BF90F0000F04BF0021704730B5E7
:100410004FF4806404F1320410F0004548BF4042BC
:100420004FF000013EE700BF42004FEAE2014FEA11
:1004300031014FEA02701FBF12F07F4393F07F4FEC
:1004400081F06051704732F07F4208BF704793F0EF
:100450007F4F04BF41F40021704730B54FF4607402
:1004600001F0004521F000411CE700BF50EA010205
:1004700008BF704730B54FF000050AE050EA0102AE
:1004800008BF704730B511F0004502D5404261EB1E
:1004900041014FF4806404F132045FEA915C3FF45F
:1004A000D8AE4FF003025FEADC0C18BF03325FEAFC
:1004B000DC0C18BF033202EBDC02C2F1200300FAAD
:1004C00003FC20FA02F001FA03FE40EA0E0021FAD2
:1004D00002F11444BDE600BF70B54FF0FF0C4CF4C0
:1004E000E06C1CEA11541DBF1CEA135594EA0C0F72
:1004F00095EA0C0F00F0DEF82C4481EA030621EAAD
:100500004C5123EA4C5350EA013518BF52EA0335E7
:1005100041F4801143F4801338D0A0FB02CE4FF099
:100520000005E1FB02E506F00042E0FB03E54FF0C9
:100530000006E1FB03569CF0000F18BF4EF0010EC1
:10054000A4F1FF04B6F5007F64F5407404D25FEABD
:100550004E0E6D4146EB060642EAC62141EA555170
:100560004FEAC52040EA5E504FEACE2EB4F1FD0CB2
:1005700088BFBCF5E06F1ED8BEF1004F08BF5FEA30
:10058000500E50F1000041EB045170BD06F00046E2
:1005900046EA010140EA020081EA0301B4EB5C048F
:1005A000C2BFD4EB0C0541EA045170BD41F4801187
:1005B0004FF0000E013C00F3AB8014F1360FDEBFAC
:1005C000002001F0004170BDC4F10004203C35DA88
:1005D0000C341BDC04F11404C4F1200500FA05F30B
:1005E00020FA04F001FA05F240EA020001F00042AC
:1005F00021F0004110EBD37021FA04F642EB060122
:100600005EEA430E08BF20EAD37070BDC4F10C044B
:10061000C4F1200500FA04F320FA05F001FA04F20F
:1006200040EA020001F0004110EBD37041F10001FB
:100630005EEA430E08BF20EAD37070BDC4F1200506
:1006400000FA05F24EEA020E20FA04F301FA05F26E
:1006500043EA020321FA04F001F0004121FA04F216
:1006600020EA020000EBD3705EEA430E08BF20EAE6
:10067000D37070BD94F0000F0FD101F00046400020
:1006800041EB010111F4801F08BF013CF7D041EAA2
:10069000060195F0000F18BF704703F000465200A6
:1006A00043EB030313F4801F08BF013DF7D043EA77
:1006B0000603704794EA0C0F0CEA135518BF95EA2D
:1006C0000C0F0CD050EA410618BF52EA4306D1D1B4
:1006D00081EA030101F000414FF0000070BD50EAD3
:1006E000410606BF1046194652EA430619D094EA5D
:1006F0000C0F02D150EA013613D195EA0C0F05D147
:1007000052EA03361CBF104619460AD181EA03019A
:1007100001F0004141F0FE4141F470014FF0000052
:1007200070BD41F0FE4141F4780170BD70B54FF0ED
:10073000FF0C4CF4E06C1CEA11541DBF1CEA13556D
:1007400094EA0C0F95EA0C0F00F0A7F8A4EB05044F
:1007500081EA030E52EA03354FEA013100F0888046
:100760004FEA03334FF0805545EA131343EA12630F
:100770004FEA022245EA111545EA10654FEA0026C4
:100780000EF000419D4208BF964244F1FD0404F57D
:10079000407402D25B084FEA3202B61A65EB0305D9
:1007A0005B084FEA32024FF480104FF4002CB6EB96
:1007B000020E75EB030E22BFB61A754640EA0C0016
:1007C0005B084FEA3202B6EB020E75EB030E22BF56
:1007D000B61A754640EA5C005B084FEA3202B6EB97
:1007E000020E75EB030E22BFB61A754640EA9C0056
:1007F0005B084FEA3202B6EB020E75EB030E22BF26
:10080000B61A754640EADC0055EA060E18D04FEAE3
:10081000051545EA16754FEA06164FEAC30343EA83
:1008200052734FEAC2025FEA1C1CC0D111F4801F50
:100830000BD141EA00014FF000004FF0004CB6E749
:1008400011F4801F04BF01430020B4F1FD0C88BFE8
:10085000BCF5E06F3FF6AFAEB5EB030C04BFB6EBF3
:10086000020C5FEA500C50F1000041EB045170BDE6
:100870000EF0004E4EEA113114EB5C04C2BFD4EB13
:100880000C0541EA045170BD41F480114FF0000E97
:10089000013C90E645EA060E8DE60CEA135594EA13
:1008A0000C0F08BF95EA0C0F3FF43BAF94EA0C0F16
:1008B0000AD150EA01347FF434AF95EA0C0F7FF48B
:1008C00025AF104619462CE795EA0C0F06D152EADF
:1008D00003353FF4FDAE1046194622E750EA4106C3
:1008E00018BF52EA43067FF4C5AE50EA41047FF4D4
:1008F0000DAF52EA43057FF4EBAE12E74FF0FF3C39
:1009000006E000BF4FF0010C02E000BF4FF0010C09
:100910004DF804CD4FEA410C7FEA6C5C4FEA430C82
:1009200018BF7FEA6C5C1BD001B050EA410C0CBFD1
:1009300052EA430C91EA030F02BF90EA020F002033
:10094000704710F1000F91EA030F58BF994208BF9A
:1009500090422CBFD8176FEAE37040F00100704757
:100960004FEA410C7FEA6C5C02D150EA013C07D1AE
:100970004FEA430C7FEA6C5CD6D152EA033CD3D0F9
:100980005DF8040B704700BF8446104662468C46F3
:100990001946634600E000BF01B5FFF7B7FF002826
:1009A00048BF10F1000F01BD4DF808EDFFF7F4FF4F
:1009B0000CBF012000205DF808FB00BF4DF808EDDA
:1009C000FFF7EAFF34BF012000205DF808FB00BFFD
:1009D0004DF808EDFFF7E0FF94BF012000205DF81F
:1009E00008FB00BF4DF808EDFFF7CEFF94BF0120D4
:1009F00000205DF808FB00BF4DF808EDFFF7C4FFCD
:100A000034BF012000205DF808FB00BF4FEA41021F
:100A100012F5001215D211D56FF47873B3EB625250
:100A200012D94FEAC12343F0004343EA505311F077
:100A3000004F23FA02F018BF404270474FF0000009
:100A4000704750EA013005D111F0004008BF6FF047
:100A5000004070474FF00000704700BF4A0011D2BD
:100A600012F5001211D20DD56FF47873B3EB625208
:100A70000ED44FEAC12343F0004343EA505323FA14
:100A800002F070474FF00000704750EA013002D189
:100A90004FF0FF3070474FF0000070474FEA4102BF
:100AA000B2F1E04324BFB3F5001CDCF1FE5C0DD9CC
:100AB00001F0004C4FEAC0024CEA5070B2F1004F16
:100AC00040EB830008BF20F00100704711F0804F19
:100AD00021D113F13872BCBF01F00040704741F4DE
:100AE00080114FEA5252C2F11802C2F1200C10FAE2
:100AF0000CF320FA02F018BF40F001004FEAC123C6
:100B00004FEAD32303FA0CFC40EA0C0023FA02F369
:100B10004FEA4303CCE77FEA625307D150EA01333F
:100B20001EBF4FF0FE4040F44000704701F000400F
:100B300040F0FE4040F40000704700BF4FF0FF3C23
:100B400006E000BF4FF0010C02E000BF4FF0010CC7
:100B50004DF804CD4FEA40024FEA41037FEA226C90
:100B600018BF7FEA236C11D001B052EA530C18BFB2
:100B700090EA010F58BFB2EB030088BFC81738BF17
:100B80006FEAE17018BF40F0010070477FEA226C05
:100B900002D15FEA402C05D17FEA236CE4D15FEA01
:100BA000412CE1D05DF8040B704700BF8446084635
:100BB0006146FFE70FB5FFF7C9FF002848BF10F1F6
:100BC000000F0FBD4DF808EDFFF7F4FF0CBF01203B
:100BD00000205DF808FB00BF4DF808EDFFF7EAFFC5
:100BE00034BF012000205DF808FB00BF4DF808ED80
:100BF000FFF7E0FF94BF012000205DF808FB00BF75
:100C00004DF808EDFFF7D2FF94BF012000205DF8FA
:100C100008FB00BF4DF808EDFFF7C8FF34BF012007
:100C200000205DF808FB00BF4FEA4002B2F1FE4F22
:100C30000FD34FF09E03B3EB12620DD94FEA00239E
:100C400043F0004310F0004F23FA02F018BF404277
:100C500070474FF00000704712F1610F01D142025E
:100C600005D110F0004008BF6FF0004070474FF012
:100C700000007047D0B500220D4B06460F46FFF727
:100C80002BFCFFF7EBFE0446FFF7ACFB0022094B01
:100C9000FFF722FC02460B4630463946FFF764FA5E
:100CA000FFF7DCFE0022234610431946D0BD00BFEB
:100CB0000000F03D0000F041054B82B0DA690243CC
:100CC000DA61DB6918400190019B02B0704700BFF8
:100CD00000100240054B82B09A6902439A619B69F9
:100CE00018400190019B02B0704700BF0010024005
:100CF00030B54FF4407393FAA3F34FF40074B3FA92
:100D000083F31F25DC402C3050F8243001F01F0104
:100D10008D4002F01F0223EA05038A401A4340F87F
:100D2000242030BDF0B54FF0007696FAA6F6B6FA5C
:100D300086F301F00076DE400C3050F8264001F0DA
:100D4000F8714FF0F87393FAA3F5B5FA85F593FAB5
:100D5000A3F30727B3FA83F321FA05F507FA05F59C
:100D6000D94024EA050402FA01F1214340F8261093
:100D7000F0BD0000274B10B51A6822F0070242F0C0
:100D800002021A601A6802F00702022AFAD1224C03
:100D9000236843F48033236023689A03FCD52368D7
:100DA00043F400232360636823F47C1343F4E813C3
:100DB0006360236843F08073236023689B01FCD544
:100DC000636823F0F0036360636823F4E06343F433
:100DD00080636360636823F460536360636823F037
:100DE000030343F002036360636803F00C03082B02
:100DF000FAD10A4802F040FB0F2000F03BFC636888
:100E000023F4404343F400436360636823F48003A6
:100E1000636010BD002002400010024000A24A049E
:100E20002DE9F04F9DB072B6142500F047FCFFF796
:100E3000A1FF2A46002114A80AF070FA1020FFF73B
:100E400049FF2020FFF746FF0420FFF743FF08205B
:100E5000FFF740FF4FF4005300244FF0010A022631
:100E6000D24814A90361D24BCDE91664CDE9143AF6
:100E700001F034FBCF4B21465A690EA842EA0A0220
:100E80005A615B692A4603EA0A030393039BCDE98F
:100E9000094404940AF042FA2A46214614A80AF0AA
:100EA0003DFA4FF40070FFF715FF0420FFF712FF23
:100EB00041F61E63C04F14A93846CDE9143401F041
:100EC0000DFBBE4BDFF820831A680DF1700922F488
:100ED000804222F010021A601A6809A942F44052B6
:100EE0001A601A68404642F020021A601A68DFF859
:100EF000FCB222F040021A601A6842F080021A60C6
:100F00001A6822F4407242F480721A601A6822F45D
:100F1000406242F480621A604FF4807309940A932D
:100F200001F050FA49F8604D4946404601F02EFA6A
:100F30004FF400224FF40013CDE90E234FF48073D9
:100F40000EA940461293CDE9104401F050FAD8F8AA
:100F500004309B4A40461A409A4B4FF400711343A9
:100F6000C8F80430D8F82430974A6FEA13336FEA90
:100F70000333C8F82430536823F47F6323F00F034E
:100F80005360D8F804305A4643F04003C8F80430A0
:100F9000FFF7AEFE594640460622FFF7C3FED8F8DB
:100FA0000830DFF84CB243F40003C8F808305A4662
:100FB000404640F20521FFF79BFE5946DFF834B268
:100FC00040460622FFF7AEFE5A46404640F20A214E
:100FD000FFF78EFE59464FF0200B40460622FFF7E2
:100FE000A1FE02F05FFF2A46214609A80AF096F901
:100FF0005A46214614A80AF091F92A4621460EA81D
:101000000AF08CF950464FF08048FFF755FE4FF438
:101010007A7309A94FF08040CDE90B34ADF8244034
:101020000A9401F035FBD8F8003014AA23F08003AD
:10103000C8F80030D8F80830514623F4804323F034
:101040000703C8F80830D8F81830404643F00803C2
:10105000C8F818306023CDE91644CDE9143418944B
:1010600001F04EFBD8F81830042043F00403C8F810
:101070001830D8F8043023F0700343F01003C8F898
:101080000430D8F8083043F08003C8F80830FFF780
:1010900021FE09234D493846CDE90E1303230EA93D
:1010A000CDE9103401F01AFA494A2146536814A8D0
:1010B00023F0E06323F4407343F0E06343F4807370
:1010C00053601C220AF02AF92A4621460EA80AF08B
:1010D00025F94FF48040FFF7FDFD0420FFF7FAFDEE
:1010E00009233C484FF00408CDE90E0303230EA961
:1010F0003846CDE9103401F0F1F9374B0EA93846E6
:10110000CDE90E3801F0EAF94FF4E133CDE91434BA
:101110000C23CDE91834314B14A918460193CDE9BD
:1011200016441A9401F0CEFB019B21461A690EA8C1
:1011300022F490421A615A6922F02A025A61DA684E
:1011400042F40052DA602A460AF0E8F85A4621468C
:1011500014A80AF0E3F83046FFF7AEFD204B214E0D
:101160001A68304622F4804222F010021A601A688F
:101170000EA942F440521A601A6842EA0B021A6041
:101180001A6822F040021A601A6842F080021A605F
:101190001A6822F440721A601A6822F440621A60D7
:1011A0004FF47A73ADF8383026E000BF00100140EC
:1011B0002000200400100240000801400800024006
:1011C000E0FD3FFF010280002424014080008004F4
:1011D0000000014002000204040004040038014041
:1011E0006C000240000400400024014011005081C6
:1011F000010030020200600248230F941093019313
:10120000119401F045FA3268304642F080023260B3
:10121000B268514622F4804222F00702B26014AA5A
:10122000CDE91444CDE91644189401F069FAB26985
:10123000214622F00402B261726809A822F070020D
:1012400042EA0B027260B26822F08002B2602A4663
:101250000AF064F85A46214614A80AF05FF82A46B4
:1012600021460EA80AF05AF84046FFF725FD4FF434
:101270007A7306F58066ADF82430019B09A93046E3
:10128000CDE90B340A9401F003FA336814AA43F051
:1012900080033360B368514623F4804323F007038F
:1012A000B360B369304643F00803B3616023CDE90E
:1012B0001644CDE91434189401F022FAB3690820D9
:1012C00043EA0803B361B36823F0700343F01003EB
:1012D000B360B36823F0070343F00603B360F36819
:1012E00023F04003F360F36823F48043F3607368F2
:1012F00023F0700343EA0B037360B36823F08003A9
:10130000B360FFF7E7FC44F2400C0923CDE90EC3BC
:1013100003230EA99348CDE9103401F0DFF82A46E3
:101320002146484609F0FAFF5A46214614A809F01A
:10133000F5FF214618220EA809F0F0FF2A462146A3
:1013400009A809F0EBFF4FF40060FFF7C3FC40462B
:10135000FFF7C0FC844B09A93846CDE9093801F0F4
:10136000BDF8824B06F592361A68494622F480424F
:1013700022F010021A601A68304622F4405242F4F9
:1013800000521A601A6822F020021A601A6822F0CD
:1013900040021A601A6842F080021A601A6822F449
:1013A000407242F480721A601A6822F4406242F479
:1013B00080621A605A6922F4804222F010025A6157
:1013C0005A6922F4405242F400525A615A6922F09A
:1013D00020025A615A6922F040025A615A6942F069
:1013E00080025A615A6922F4407242F480725A6152
:1013F0005A6922F4406242F480625A614FF6FF73E8
:10140000ADF81040CDE906340594089401F040F998
:10141000336814AA23F080033360B3684FF48071FB
:1014200023F4804323F00703B3603046CDE914442E
:10143000CDE91644CDE91844CDE91A4401F060F92C
:101440004B4A0EA95368304623F004035360736877
:1014500023F070037360B36823F08003B360B36953
:1014600023F0030343EA0A03B361B36923F00C03D7
:10147000B361B36923F0F003B361336A23F00A0365
:101480003362B36923F4407343F40073B361B36907
:1014900023F44063B361B36923F47043B361336AE7
:1014A00023F0A00333624FF40053CDE90E44CDE99D
:1014B000123410948DF84440ADF8464001F0E8F93C
:1014C0002A4621460EA8CDE9094409F027FF2A46FD
:1014D000214614A809F022FF4FF48060FFF7FAFBC1
:1014E0004046FFF7F7FB40F2011314A93846CDE957
:1014F000143400F0F3FF4FF480731E4D09A9284601
:101500000A93099400F05EFF4FF4602E4FF48013AD
:101510000EA92846CDE90EE3CDE91044129400F05F
:1015200066FF28464FF000724FF40071FFF7E0FBB2
:10153000224628464FF00071FFF7F4FB28464FF093
:10154000007240F20521FFF7D3FB284622464FF0F8
:101550000071FFF7E7FB03F083F820461DB0BDE8FC
:10156000F08F00BF000C0140010001041C0002408C
:10157000182C01400028014070470000114B07B5AE
:101580009A690F2142F001029A619A696FF0010095
:1015900002F001020092009ADA6942F08052DA61A8
:1015A000DB69002203F080530193019B00F0B6F841
:1015B000054A536823F0E06343F00073536003B0BF
:1015C0005DF804FB00100240000001407047FEE798
:1015D000FEE7FEE7FEE77047014800F09DB900BF57
:1015E000F43C00200B4B10B51968024609B90A49B2
:1015F0001960186809490A4C0244091B8A4206D935
:1016000009F01AFE0C2303604FF0FF3010BD1A6082
:10161000FCE700BF9C030020004C0020005000208D
:101620000003000070470000002103E00B4B5B58F3
:10163000435004310A480B4B42189A42F6D30A4AE7
:1016400002E0002342F8043B084B9A42F9D3FFF72B
:10165000E9FF09F0F7FDFFF7E3FB7047C4C9000895
:10166000000000207C03002080030020004C0020AC
:10167000FEE7000038B50E4B054618784FF47A7334
:10168000B3FBF0F30B4A1068B0FBF3F000F088F8FE
:10169000044658B90F2D09D8024629464FF0FF30AD
:1016A00000F03CF82046044B1D6038BD0120FCE7EB
:1016B000040000200000002008000020074A08B5B0
:1016C0001368032043F01003136000F015F80F2097
:1016D000FFF7D0FFFFF752FF002008BD00200240B7
:1016E000034A044B11681B780B441360704700BF1A
:1016F0003408002004000020074A0002D36800F4E8
:10170000E06023F4E0631B041B0C43F0BF6343F46D
:1017100000330343D360704700ED00E0174B70B512
:10172000DC684FF0FF36C4F30224C4F10705042D32
:1017300004F1040328BF0425062B98BF002406FAF1
:1017400005F388BF033C21EA0303A34006FA04F42F
:1017500022EA0404002843EA0403A8BF00F1604021
:101760004FEA0313B8BF064ADBB2ABBF00F56140D6
:1017700000F00F0080F80033135470BD00ED00E05E
:1017800014ED00E0002808DB0123420900F01F00EF
:1017900003FA00F0014B43F82200704700E100E03B
:1017A0000138B0F1807F0AD2F021064B064A58601A
:1017B00082F823100020072298601A6070470120E9
:1017C000704700BF10E000E000ED00E0F0B5044617
:1017D00087B010B390F8A93203F0FF021BB980F86C
:1017E000A82202F0B1FC254603236E4655F8100BE3
:1017F00084F8A93201F0C8F80FCD0FC62B68254632
:101800003360271D97E80E0055F8100B01F0ACF877
:10181000064620B1022384F8A93201254BE0014697
:10182000206801F0BBF830464FF0010E2826014633
:10183000D4F804C0C2B2944500F1010018D80023C6
:1018400028261946D8B2844503F101031DD80FCDCF
:101850006E460FC62B68336097E80E00206801F0D3
:101860009FF801230546F8B1022284F8A922D4E7A3
:1018700006FB024383F829E083F82820DA8683F800
:101880002B10C3E90E111964D4E706FB004282F85D
:10189000691182F8680182F86B11C2F87811C2F8F8
:1018A0007C11C2F88011CDE784F8240084F8A932B5
:1018B000206801F0F4FA284607B0F0BD38B590F87A
:1018C000A8320446012B10D0012580F8A8520068E8
:1018D00001F051F82946204602F067FD206801F02A
:1018E000DCFA002084F8A80238BD0220FCE790F85A
:1018F000A82210B5012A04460BD0012280F8A822A4
:1019000084F82410006801F0C2FA002084F8A802CC
:1019100010BD0220FCE700002DE9F04F044685B021
:10192000006801F0BEFA020409D5DFF82898DFF854
:1019300028882068B0F844301B0400F1BC8020687F
:1019400001F0AFFA43050FD522682046B2F84430C3
:1019500023F480631B041B0CA2F8443002F02FFC1C
:1019600000212046FFF7C3FF206801F09AFA4704E0
:1019700008D52268B2F8443023F480431B041B0CC2
:10198000A2F84430206801F08CFA860408D5226859
:10199000B2F8443023F400531B041B0CA2F844306B
:1019A000206801F07EFAC5041CD522682046B2F8F2
:1019B000403023F004031B041B0CA2F84030B2F8A3
:1019C000403023F008031B041B0CA2F8403002F047
:1019D00019FC2268B2F8443023F480531B041B0C1A
:1019E000A2F84430206801F05CFA000541D50022DD
:1019F000236833F822102DF812100132082AF8D18A
:101A0000B3F8402042F00102A3F84020B3F8402090
:101A100022F001021204120CA3F84020B3F8442073
:101A20005105FBD5B3F8442022F480621204120C55
:101A3000A3F8442000223DF8121023F822100132AE
:101A4000082AF8D1B3F84020204642F00802A3F853
:101A50004020B3F8442022F400621204120CA3F8D0
:101A60004420B3F8402042F00402A3F8402002F0E2
:101A7000B9FB206801F015FA82050BD522682046D3
:101A8000B2F8443023F400731B041B0CA2F844305A
:101A900002F091FB206801F004FAC30508D5226822
:101AA000B2F8443023F480731B041B0CA2F84430BA
:101AB00005B0BDE8F08FB0F8441089B211F00F0600
:101AC00040F0B18011F0100103882AD109EA030324
:101AD00043F400430380B0F8503094F8282003EB1F
:101AE000C20300EB4300B0F80434E26BC3F3090314
:101AF00063641344E363204602F055FB94F82430FA
:101B0000002B3FF416AF226C002A7FF412AF94F83A
:101B10002430216843F08003A1F84C3084F824205D
:101B200007E79BB213F4006520D0B0F8503094F86A
:101B3000682104F52C7103EBC20300EB4303B3F8F7
:101B40000C34B4F86E21C3F30903C4F8843101F0F6
:101B500069FC22682046138823F070031B051B0DC7
:101B600043F08003138002F00FFBE2E61F047FF5D1
:101B7000E0AE038823F070031B051B0D43F08003C8
:101B80000380B0F8503094F8682103EBC20300EBF7
:101B90004303B3F80C34C3F30903C4F884318BB1A5
:101BA000D4F87C1171B1B4F86E2101F03BFCD4F88B
:101BB0007C31D4F8842129461344C4F87C31204672
:101BC00002F0E8FA2168D4F87851B1F8503001F207
:101BD0000C409BB2BDB9C25A22F4F8421204120C56
:101BE000C252C25A48EA020292B2C2520B8823F48D
:101BF000804323F0700383F4405343F4004343F0E5
:101C000080030B8095E63E2D05D86A08EE0748BF95
:101C100001329202E8E76A09ED0608BF02F1FF32DD
:101C200048EA8222E0E730F82670BFB2390440F17A
:101C3000F280282130F8263001FB064123F07003A2
:101C40001B051B0D43F0800320F8263091F87431FA
:101C500000F5806CABB9B0F8503091F868210633CC
:101C600003EBC2033CF81350C5F30905002D00F047
:101C7000B6802B46B1F86E21D1F87C1101F0D2FB71
:101C8000ADE091F86B3191F86821022B40F089802A
:101C900017F4804A4FEAC205D1F8803107F0400EB0
:101CA0003ED0B0F850A0554402353CF81550C5F36D
:101CB00009059D428CBF00235B1BC1F8803128239E
:101CC00003FB0643D3F880316BB930F8223023F49C
:101CD000804323F0700383F4005343F4004343F044
:101CE000800320F82230BEF1000F10D0282303FB20
:101CF000064393F8682130F8223023F0F0031B05E7
:101D00001B0D43F4004343F0C00320F82230002DA4
:101D100065D0282101FB06412B46B1F87021ABE7C5
:101D2000B0F850B05D4406353CF81550C5F30905D0
:101D30009D429CBF5B1BC1F880314FF0280303FB21
:101D4000064388BFC1F880A1D3F880316BB930F861
:101D5000223023F4804323F0700383F4005343F4D0
:101D6000004343F0800320F82230BEF1000F10D171
:101D7000282303FB064393F8682130F8223023F030
:101D8000F0031B051B0D43F4004343F0C00320F890
:101D9000223025B3282101FB06412B46B1F87221E0
:101DA0006AE730F8223023F0F0031B051B0D43F4E3
:101DB000004343F0C00320F8223091F8683130F836
:101DC0002320DB0012F4804FB0F850205ED00232A6
:101DD00013443CF81350C5F30905002D9CD128216C
:101DE00071436318D3F884212A44C3F88421D3F8BB
:101DF0007C212A44C3F87C21D3F880211AB1D3F87E
:101E000078319D424BD2282303FB0643204693F8AA
:101E1000681102F0BFF93A067FF58BAD28252068DE
:101E200005FB064530F8263000F5806209EA030319
:101E300043F4004320F8263095F82B3095F828100D
:101E4000022B01D1FB053DD42823B0F850E003FB61
:101E5000064C0EF1020E0EEBC10132F81120DCF837
:101E60004070C2F30902974292BF0021BF1ACCF81A
:101E7000407003FB064798BFCCF84010396CA9B9F5
:101E800095F82810204602F08EF952E506321344E8
:101E90003CF81350C5F30905002DA0D07DE701F5EE
:101EA000B4712144206801F011F8B4E7F96B06FB26
:101EB00003331144F963796C0A447A64E11801F040
:101EC00005F836E517F0400E4FEAC10C2B6C07F40D
:101ED000804700F09E80B0F850E0BFB2F4440CF1AF
:101EE000020C32F81CC0CCF3090C9C452CBF00231B
:101EF000A3EB0C032B64282303FB06431B6CABB939
:101F0000204602F050F9002F00F0A18095F828102B
:101F1000226832F8213023F0F0031B051B0D43F437
:101F2000404343F0800322F8213090E05FB130F865
:101F3000213023F0F0031B051B0D43F4404343F015
:101F4000800320F82130282303FB064393F84C201C
:101F5000012A7CD15A6CD96B62445A649F6C9A6B8B
:101F600061449742D96325D3BF1A9F6495F82970BD
:101F700093B2002F41D1B0F8507000F2044CBC4431
:101F800095F828703F0102BB3CF8072022F4F84284
:101F90001204120C2CF807203CF8072048EA020231
:101FA00092B22CF80720282202FB0646328E00F05F
:101FB0007DFF4CE01FB983F84C706246D6E70022E3
:101FC00083F84C209A643A46D0E73E2A0CD84FEA70
:101FD000520ED20748BF0EF1010E4FEA8E2E1FFAA5
:101FE0008EFE2CF807E0DEE74FEA521ED20608BF4D
:101FF0000EF1FF3E48EA8E2EF1E7012FD3D1B0F863
:10200000502000F20447174495F828201201BB52D3
:10201000C9E7B0F850A0BFB2D4440CF1060C32F8B6
:102020001CC0CCF3090C9C459CBFA3EB0C032B6498
:102030004FF0280303FB064388BFC5F840E01B6C44
:10204000BBB9204602F0AFF8002F3FF45FAF95F820
:102050002810226832F8213023F4E04323F04003B3
:1020600083F0300343F4004343F0800322F821302F
:102070005FE45FB930F8213023F0F0031B051B0D3E
:1020800043F4404343F0800320F82130282303FB2E
:10209000064393F84C20012AD9D15A6CD96B62447B
:1020A0005A649F6C9A6B61449742D96323D3BF1AD9
:1020B0009F6495F8297093B2002F3FD1B0F850700B
:1020C00000F20C4CBC4495F828703F01F2B93CF882
:1020D000072022F4F8421204120C2CF807203CF8D6
:1020E000072048EA020292B22CF80720282202FBBD
:1020F0000646728E5BE71FB983F84C706246D8E7DC
:1021000000229A6483F84C203A46D2E73E2A0CD843
:102110004FEA520ED20748BF0EF1010E4FEA8E2E43
:102120001FFA8EFE2CF807E0E0E74FEA521ED206B7
:1021300008BF0EF1FF3E48EA8E2EF1E7012FD5D100
:10214000B0F8502000F20C47174495F828201201EF
:10215000BB52CBE70F8FFFFF0080FFFF11F0800F16
:1021600070B501F0070504464FF028011CD005FBAF
:1021700001110144012048700A614A780D70CB704A
:1021800002B1CD81022B04BF00230B7194F8A83259
:10219000012B13D00123206884F8A83200F014FC2E
:1021A000002084F8A80270BD002601FB05F000F5B0
:1021B000B4712044214480F86961DDE70220F2E730
:1021C00011F0800F10B501F0070204464FF028010E
:1021D00013D0012302FB011101444B700A7094F8E3
:1021E000A832012B13D00123206884F8A83200F014
:1021F00029FD002084F8A80210BD01FB02F303F5BD
:10220000B47101440344002083F86901E6E7022029
:10221000F2E770B52824002601F007014C430519A8
:1022200085F8681104F5B4710144C5F87C21C5F83E
:102230008031C5F8846185F86961006800F046FE68
:10224000304670BD282301F0070103FB0101D1F8DE
:102250008401704770B5282501F0070105FB0104D2
:102260000026C4E90F23012201FB055584F828103C
:1022700084F84C204119A364666484F8292000681E
:1022800000F024FE304670BD38B5436801F0070504
:102290009D42044628D811F0800F4FF028031AD031
:1022A00005FB0333C11801234B7001230D708B70A4
:1022B00094F8A8229A4219D084F8A832206800F035
:1022C00087FD25B904F52C71206800F0EDFD002094
:1022D00084F8A80238BD00224B4303F5B4710344CF
:1022E000014483F86921E0E70120F3E70220F1E7E8
:1022F00038B5436801F00F029A42044626D811F01F
:10230000800F01F007024FF0280115D0012302FBD6
:10231000011101444B7000250A708D7094F8A832A9
:10232000012B15D00123206884F8A83200F06CFD41
:10233000284684F8A85238BD01FB02F303F5B471B6
:1023400001440344002083F86901E4E70120F2E737
:102350000220F0E710B5282411F0800F1BBF01F018
:10236000070101FB044104FB0100401808BF00F510
:10237000B47099B21AB90273C180002010BD012255
:102380001B0C027301814381F7E700000C4B9A6834
:1023900003F580639B68134313F001020ED10B68B1
:1023A00033B1416821F470210B43436010467047FC
:1023B000426822F47022426018467047012070473C
:1023C00000240140836810B513F001030DD1426869
:1023D0004C6822F48072224342608268096822F4C9
:1023E00000620A438260184610BD0120FCE7836842
:1023F00010B5DB071BD443684A6823F4684312B165
:102400008C6813432343436083680C6823F4602380
:1024100023F481732343CC68096923430B4383600E
:10242000C36A23F470031343C362002010BD01206C
:10243000FCE7000002460368007910B500283DD093
:10244000002B44D0517901291ED003D3022924D076
:10245000012008E02049486820EA03004860086835
:1024600018430860002092796AB1022A19D0032A21
:1024700020D0012A2DD1184AD16821EA0301D16068
:1024800091680B43936010BD1349086820EA03006C
:102490000860486818434860E4E70F490868184333
:1024A000F6E70D4A916821EA03019160D1680B4378
:1024B000D360E8E7084A91681943F6E7DC43064A27
:1024C000116821401160536823405360DBE71846D0
:1024D000D9E70120D7E700BF000401402DE9F04F04
:1024E0000C68C4F30F2494FAA4F24FF00F0AB2FA66
:1024F00082F24FF0030904274FF0011C40F2011E45
:1025000034FA02F302D11846BDE8F08F012393405C
:1025100023425ED0072A85BFA2F108030CFA03F319
:102520000EFA02F343F08063C5681E0A96FAA6F815
:10253000B8FA88F825EA06060D6905FA08F5354364
:10254000C5604FEA136893FAA3F6B6FA86F693FAD3
:10255000A3FBBBFA8BFBB6000AFA06F550F808603D
:102560004FEA8B0B26EA05064D6805FA0BFB46EA97
:102570000B0640F808604D6825F00805012D28D1AC
:1025800093FAA3F5B5FA85F593FAA3FBBBFA8BFB97
:10259000AD0009FA05F526EA05068D684FEA8B0BB2
:1025A00005FA0BFB46EA0B0640F8086093FAA3F520
:1025B000B5FA85F593FAA3F3B3FA83F3AD0007FAFE
:1025C00005F526EA0505CE689B009E402E4340F89F
:1025D0000860013294E70000034B044A5B68C3F3D0
:1025E0000313D35CD84070470010024018BE0008A7
:1025F000034B044A5B68C3F30223D35CD8407047A3
:102600000010024028BE0008034B044A5B68C3F375
:10261000C223D35CD84070470010024028BE000897
:10262000094B5A6802F4803262B15868074AC0F315
:1026300040400130B2FBF0F05B68C3F383430233E8
:10264000584370470248F7E70010024000127A0032
:1026500000093D00044B5B6803F00C03082B01D11B
:10266000FFF7DEBF014870470010024000127A00F9
:1026700008B50146FFF7EEFF0860FFF7ADFF4860C1
:10268000FFF7B6FF88604868FFF7BEFFC86008BD67
:102690001A4A036890420AD0B0F1804F07D0A2F5E1
:1026A0009432904203D002F58062904215D14A687C
:1026B00023F070031343114A90420AD0B0F1804FC7
:1026C00007D0A2F59432904203D002F58062904286
:1026D00003D1CA6823F44073134303608B68C36259
:1026E0000B888362054B984204BF0B6903634369FF
:1026F00043F0010343610020704700BF002C0140FC
:10270000102930B55FD003D801292CD0012059E021
:10271000B1F5807F00F08980B1F5805FF6D1036A62
:10272000156823F480530362036A4468C16923F483
:10273000005321F4E64141EA0521156943EA0533D6
:10274000556823F4805343EA0533504DA84204BF33
:10275000956924F48044D26808BF44EA8514446033
:10276000C16102642CE0036A156823F0010303626F
:10277000036A4168846923F0020324F073042C4344
:1027800015692B43556823F001032B433F4DA842A5
:1027900012D1556923F0080343EA8503956823F0B5
:1027A000040343EA8503956921F480712943D569BF
:1027B00021F4007141EA4501D268416084614263BD
:1027C0000362002030BD036A156823F01003036222
:1027D000036A4168846923F0200324F4E64444EA50
:1027E0000524156943EA0513556823F0100343EAED
:1027F0000513264DA84213D1556923F0800343EAFF
:102800008513956823F0400343EA8513956921F405
:10281000806141EA8501D56921F4006141EAC50181
:10282000D268416084618263CAE7036A156823F451
:1028300080730362036A4168C46923F4007324F05F
:1028400073042C43156943EA0523556823F4807308
:1028500043EA05230D4DA84213D1556923F40063C3
:1028600043EA8523956823F4806343EA85239569C9
:1028700021F4805141EA0511D56921F4005141EA62
:102880004511D2684160C461C26399E7002C0140E0
:102890008A680B7B13434A6823F4806313430A68F6
:1028A00023F400631343CA8923F4805313430A6952
:1028B00023F4005313434A6923F44043134343640E
:1028C0000020704730B5C36885B09B0404460D46B0
:1028D00002D5012005B030BD4B68C968C2680B4302
:1028E000296922F4B0520B4322F00C021343C36057
:1028F0000369AA6823F440531343036143696A6977
:1029000023F44073134343616846FFF7B1FE134B52
:102910009C4219D103990029DBD02A68002AD8D01B
:1029200019234B439200B3FBF2F36422B3FBF2F1A1
:1029300002FB11331B013233B3FBF2F303EB011340
:102940009BB2A3600020C5E7054B9C4201D10299D0
:10295000E1E7044B9C42BCD1F9E700BF00380140DD
:10296000004400400048004084B001A880E80E0008
:1029700004B00020704700234FF43F42A0F84430D9
:10298000A0F8402018467047B0F8403023F47C533C
:102990005B045B0CA0F840300020704700207047BB
:1029A00084B010B503AC84E80E00BDE810400123EC
:1029B000A0F84030002304B0A0F84030A0F8443024
:1029C000A0F8503018467047F0B50C78034630F840
:1029D0002420C87822F4EC4222F07002032803D8A5
:1029E000DFE800F042494446012048F280052A43CE
:1029F00023F824200E78904A33F8264035431440BB
:102A00002C4323F826400D7B0C78002D40F082806B
:102A1000CD884E786D086D0003EB041476B3B3F8DF
:102A200050603444A4F800540D7833F8254067060C
:102A300008D533F82540224042F4004242F0C0025B
:102A400023F82520CA780C78012A33F824107B4A11
:102A500002EA010218BF82F0200242F4004242F072
:102A6000800223F82420F0BD42F400720020BCE76D
:102A700042F4C062FAE742F48062F7E7B3F850200C
:102A80000E691444A4F808540A78B3F8504003EBD4
:102A90000212A4B202F20C4256BB155B25F4F845B3
:102AA0002D042D0C1553155B45F4004515530C787A
:102AB00033F8242057040BD533F8242022F0F002F9
:102AC0001205120D42F4404242F0800223F8242005
:102AD000097833F8212022F4804222F0700282F437
:102AE000405242F4004242F0800223F82120BAE72B
:102AF0003E2E06D87508F60748BF0135AD02ADB2C7
:102B0000D4E77709F5064E4D08BF07F1FF3745EAD0
:102B10008725F4E733F82450154045F4014545F086
:102B2000800523F824500C780D89B3F8506003EB2E
:102B300004146D08B6B204F580646D00A5530C78DA
:102B40004D89B3F8506003EB04146D0804F58164FB
:102B50006D00B6B2A5534C780D78B4BB33F8254060
:102B6000660408D533F82540224042F4404242F042
:102B7000800223F825200C7833F8242055060BD545
:102B800033F8242022F0F0021205120D42F4004224
:102B900042F0C00223F8242048F280040D7833F874
:102BA000252022F4804222F0700282F44052224317
:102BB00023F82520097833F8212022F4E04222F07E
:102BC0004002144323F821404DE733F825406404C4
:102BD00008D533F82540224042F4404242F08002BA
:102BE00023F825200C7833F8242052060BD533F82F
:102BF000242022F0F0021205120D42F4004242F0AD
:102C0000C00223F82420CA780C78012A33F8245013
:102C10000A4A02EA050218BF82F0200242F400428A
:102C200042F0800223F82420097833F8212022F092
:102C3000F0029204920C54E78F8FFFFFBF8FFFFFCB
:102C40000080FFFF10B50C7B4A780B78BCBBF2B15B
:102C500030F8232052060BD530F8232022F0F00262
:102C60001205120D42F4004242F0C00220F8232067
:102C70000A7830F8223023F0C0031B051B0D43F403
:102C8000004343F0800320F82230002010BD30F8CC
:102C9000232054040BD530F8232022F0F002120533
:102CA000120D42F4404242F0800220F823200A78BC
:102CB00030F8223023F0F0039B049B0CDFE7002A5E
:102CC00044D130F8232052040BD530F8232022F0D1
:102CD000F0021205120D42F4404242F0800220F848
:102CE00023200A7830F822305C060BD530F82230E9
:102CF00023F0F0031B051B0D43F4004343F0C00316
:102D000020F822300A7830F8223023F0F0031B0537
:102D10001B0D43F4004343F0C00320F8223048F277
:102D200080020C7830F8243023F4804323F07003C1
:102D3000134320F82430097830F8213023F4E0439D
:102D400023F040031A4320F821209EE730F8232087
:102D500052040BD530F8232022F0F0021205120D98
:102D600042F4404242F0800220F823200A7830F8F2
:102D700022305B060BD530F8223023F0F0031B0520
:102D80001B0D43F4004343F0C00320F822300A78BF
:102D900030F8223023F0F0031B051B0D43F44043B1
:102DA00043F0800320F8223048F280020C7830F89B
:102DB000243023F4E04323F04003134320F824306D
:102DC000097830F8213023F4804323F07003B9E709
:102DD0004B780A787BB130F8223023F4E04323F0BB
:102DE000400383F0100343F4004343F0800320F8D2
:102DF00022300020704730F8223023F4804323F043
:102E0000700383F48053EEE70B7B23BB4B780A7887
:102E10001BB330F822305B060BD530F8223023F09C
:102E2000F0031B051B0D43F4004343F0C00320F8DF
:102E30002230CB78012B0ED00A7830F8223023F4E0
:102E4000E04323F0400383F0200343F4004343F0C6
:102E5000800320F822300020704730F822305B04D5
:102E60000BD530F8223023F0F0031B051B0D43F483
:102E7000404343F0800320F822300A7830F82230B3
:102E800023F4804323F0700383F44053DDE711B94A
:102E90008023A0F84C3000207047002070470020AD
:102EA0007047B0F8440070470020704700EB4202C2
:102EB000013302F580625B0802EB83039A4200D182
:102EC000704731F8020B22F8040BF7E7F8B50C460F
:102ED000497805460129277B40F083812269A6694C
:102EE0006169964228BF1646EFB9B6B23346E2880A
:102EF000FFF7DCFFB5F85010227805F20443120109
:102F00000B44D652227835F8223023F4E04323F0E4
:102F1000400383F03003002043F4004343F0800378
:102F200025F82230F8BDE3782778022B40F0248181
:102F3000236A9A4230F8272022F4F8724FEA0252AC
:102F40004FEA125280F0078142F4014242F08002BF
:102F500020F8272022789B1B30F82200236210F0F3
:102F6000400FB3B260787CD000284DD1B5F8500046
:102F700005F20C4707441201002E31D1B85A20F453
:102F8000F8400004000CB852B85A40F40040B8525F
:102F900062892846FFF78AFF226A236961699A429B
:102FA00089BF921B0023226232466078314498BF69
:102FB0002362616193B2002848D1B5F850002778A8
:102FC00005F204463F01064442BBBA5B22F4F842D4
:102FD0001204120CBA53BA5B42F40042BA5326E010
:102FE0003E2E07D8700816F0010F18BF013080027E
:102FF00080B2CCE74FEA561CF006974808BF0CF1A8
:10300000FF3C40EA8C20F3E70128C1D1B5F85070AD
:1030100005F20C40384412018352B9E73E2A0BD81E
:103020005008D20748BF0130800280B2B8532289CD
:103030002846FFF73BFF65E75009D206864A08BFDE
:1030400000F1FF3042EA802292B2C7E70128EED1B8
:10305000B5F85060207805F20442000132448352F2
:10306000E5E700284DD1B5F8500005F204470744C4
:103070001201002E31D1B85A20F4F8400004000C9F
:10308000B852B85A40F40040B85222892846FFF797
:103090000DFF226A236961699A4289BF921B00234E
:1030A000226232466078314498BF2362616193B2F4
:1030B000002845D1B5F85000277805F20C463F01AD
:1030C000064442BBBA5B22F4F8421204120CBA5313
:1030D000BA5B42F40042BA5326E03E2E07D870088D
:1030E00016F0010F18BF0130800280B2CCE74FEA22
:1030F000561CF006584808BF0CF1FF3C40EA8C20F3
:10310000F3E70128C1D1B5F8507005F20440384406
:1031100012018352B9E73E2A08D85008D20748BFA7
:103120000130800280B2B853628981E75009D2062B
:10313000494A08BF00F1FF3042EA802292B2CAE752
:103140000128F1D1B5F85060207805F20C42000159
:1031500032448352E8E742F4004242F0800220F811
:103160002720B0F85070267800F204423A44360125
:103170009BB2B35222895CE730F82720B0F85000A8
:1031800052064BBF05F20C4205F204421218121807
:10319000B3B24FEA07174BBFD353D3536289228987
:1031A0002846FFF783FE6378227863B935F822302A
:1031B00023F0F0031B051B0D43F4004343F0C00351
:1031C00025F822309EE6012B7FF49CAE35F82230A4
:1031D00023F0F0031B051B0D43F4404343F0800331
:1031E000EEE7002F3AD1A269236905F20C419A4219
:1031F00092BF1346D21AA261B0F85020207898BF2F
:10320000A7610001114453B9435A23F4F8431B0446
:103210001B0C4352435A43F40043435208E03E2BF5
:1032200010D85A08DF0748BF0132920292B24252C8
:10323000227835F8223023F4804323F0700383F49E
:10324000405368E65A09DE06034B08BF02F1FF321D
:1032500043EA82239BB2E0E70080FFFFE378022B82
:1032600074D199B9B0F8503000F204422178206945
:1032700009011A4400283AD18B5A23F4F8431B045D
:103280001B0C8B528B5A43F400438B526278237889
:10329000002A50D1B5F85020206905F20C411144A4
:1032A0001B01002835D1CA5A22F4F8421204120C2C
:1032B000CA52CA5A42F40042CA52E369002BB7D03C
:1032C00044F24001227835F822300B408B4201D085
:1032D000002BADD135F8223023F0F0031B051B0D78
:1032E00043F4004343F0C00325F82230A0E73E2812
:1032F00006D84308C00748BF01339B029BB2C4E70E
:103300004609C706464B08BF06F1FF3643EA862347
:10331000F4E73E2806D84208C00748BF01329202AF
:1033200092B2C9E74609C7063D4A08BF06F1FF3613
:1033300042EA8622F4E7012ABFD1B5F8501005F21F
:103340000C420A44218A1B01D152B6E7012B64D1F9
:10335000A26923699A4295BF0023D21AA361A26190
:1033600098BF134689B9B0F85020207805F204417F
:1033700000011144FBB9425A22F4F8421204120C23
:103380004252425A42F40042425261782278002965
:1033900037D1B5F8501005F20C4008441201E3B9DA
:1033A000835A23F4F8431B041B0C8352835A43F4BF
:1033B000004383523CE73E2B06D85A08DE0748BF3D
:1033C0000132920292B2DFE75E09DF06144A08BFBB
:1033D00006F1FF3642EA8622F4E73E2B07D8590869
:1033E000DE0748BF0131890289B2815220E75909BD
:1033F000DB060B4B08BF01F1FF3143EA81239BB28F
:10340000D7E701297FF414AFB5F8500005F20C415D
:10341000014412019BB28B520AE7012082E500BFF2
:103420000080FFFF00EB4202F0B502F580625D080C
:10343000084617462E46023036B9DB0744BF32F83D
:10344000253001F81530F0BD37F8044B013EA4B229
:1034500000F8024C240A00F8014CECE74FF47A73B0
:10346000B0FBF3F00022034B013858609A6005224C
:103470001A60704710E000E0014B1860704700BF11
:1034800000000020D0F8BC3210B56BB1D0F8B842C3
:1034900094F80002FF2807D09B6894F80122214687
:1034A0009847FF2384F80032002010BD4323038097
:1034B00000487047440000204323038000487047C1
:1034C000880000204323038000487047D800002074
:1034D0000A23038000487047CC00002038B5054619
:1034E000D0F8B84200F058FFD5F8B832C4F80C0252
:1034F0004BB1D5F8BC3204F50371DB68D4F8040293
:103500009847002038BD0220FCE7F8B5D0F8B86233
:10351000D6B1142303FB0103DD698DB12827D0F850
:10352000C04207FB0142926BB5FBF2F402FB14545C
:1035300034B9DC612246234600F012FF2046F8BD74
:103540000020C6F81402FAE70220F8E72DE9F74355
:103550004FF000080A78054612F060040E46D0F8D5
:10356000B8728DF80580ADF8068028D0202C45D1A2
:10357000CC884B78E4B1120611D5D0F8BC2239467C
:10358000D2F8089018462246C847F288394628469D
:1035900000F045FC4446204603B0BDE8F08387F8C0
:1035A000003287F801422246394600F04DFCF1E72F
:1035B000D0F8BC22184695682246A847EBE74F781A
:1035C0000A2F0DD00B2F15D0C7B990F89C32032BC2
:1035D00014D102220DF1060100F021FC3C46DAE78D
:1035E00090F89C32032B09D101220DF1050100F066
:1035F00016FCD0E790F89C32032BCCD031462846FD
:1036000000F0E6FB0224C6E738B504460025812118
:1036100000F05CFE0121E562204600F057FEC4F890
:103620006C518221204600F051FED4F8B832256456
:103630004BB1D4F8BC325B689847D4F8B80200F0BC
:10364000B3FEC4F8B852002038BD037C2DE9F04128
:103650000446CBBB4FF4007302228121012500F008
:1036600025FE4FF40073E56229460222204600F051
:103670001DFEC4F86C510125082303228221204637
:1036800000F014FE25644FF4077000F089FE064632
:10369000C4F8B80250B30027D4F8BC321B6898476E
:1036A00094F81080C6F81472C6F81872B8F1000FBA
:1036B00013D14FF40073D6F804222946204600F0B7
:1036C0005DFE4046BDE8F0810125402302228121B4
:1036D00000F0ECFDE5624023C6E74023D6F8042263
:1036E0002946204600F04AFE3846EBE72846E9E73F
:1036F00019B1C0F8BC120020704702207047D0F802
:10370000B8320020C3F80812C3F810227047D0F86E
:10371000B8320020C3F804127047D0F8B82210B5B0
:1037200082B1D2F81442012374B9C2F81432D2F82B
:10373000103281210363D2F808229BB200F010FE00
:10374000204610BD0220FCE71846FAE7D0F8B82260
:1037500010B562B1047CD2F8042234B94FF400737E
:10376000012100F00BFE002010BD4023F8E70220ED
:10377000FAE708B580B1D0F8B43213B10023C0F82D
:10378000B43209B1C0F8B0120123027080F89C3243
:1037900000F03CFD002008BD0220FCE719B1C0F894
:1037A000B412002070470220704708B500F070FD89
:1037B000002008BD08B5D0F8B4320BB9022008BD0E
:1037C0001B6898470028FAD0F8E708B5D0F8B4325B
:1037D0005B689847002008BD38B500F52A75044697
:1037E000284600F0E1FA012394F8A812C4F89432B4
:1037F000B4F8AE32C4F8983201F01F03012B0ED09A
:1038000007D3022B10D001F08001204600F06CFDA0
:1038100003E02946204600F0F5F8002038BD29468F
:10382000204600F013FAF8E72946204600F033FA64
:10383000F3E770B50546164649BBD0F89432032B22
:103840001ED1D0F86031D0F8642193420BD99B1A75
:103850009A42C0F860318CBF9AB292B2314600F001
:1038600002FB002070BDD0F8B4321B6923B190F880
:103870009C22032A00D19847284600F0FCFAF0E782
:10388000052BEED1C5F8941200F02EFDE9E7D0F833
:10389000B4329B692BB190F89C22032A01D198473E
:1038A000DFE70220DEE770B5134604460E46002926
:1038B00047D1D0F89422022A3CD1D0E9085295424F
:1038C00013D9AA1A0262194692B200F0B5FA334629
:1038D0001A461946204600F051FD94F8A032002007
:1038E000012B01D184F8A00270BDC369B3FBF2F5CE
:1038F00002FB153565B99A420AD8D0F8982293424E
:1039000006D22A4600F098FAC4F898522B46DFE710
:10391000D4F8B432DB682BB194F89C22032A01D18D
:10392000204698478021204600F0DEFC204600F02B
:10393000ADFAD2E732F00403CFD1802100F0D4FCFD
:10394000CBE7D0F8B4325B6933B190F89C22032AFC
:1039500002D198470020C7E70220C5E7002270B5D2
:103960000446012540261146402300F09FFC3346C3
:103970008021C4F85851C4F864610022204600F048
:1039800095FC0021D4F8B832A561666284F89C5297
:10399000C4F894126160C4F8A41223B1D4F8B4320C
:1039A00020465B689847002070BD01740020704776
:1039B00090F89C3280F89D32042380F89C320020DD
:1039C000704790F89C32042B04BF90F89D3280F829
:1039D0009C320020704708B590F89C22032A04D13D
:1039E000D0F8B432DB6903B19847002008BD10B5A8
:1039F0000446802100F078FC2046BDE810400021FC
:103A000000F072BC37B50B78044603F06003202B3E
:103A10000D4612D0402B10D0002B5BD14B78092BD8
:103A200058D8DFE813F0E90005015700FE00570001
:103A3000840013005700D200A000D4F8B432294605
:103A40009B6820469847002003B030BD0023ADF8A6
:103A500006304B881A0A013A062A3BD8DFE802F002
:103A600004202D3A3A525C00D0F8B0321B680DF1B8
:103A70000601207C9847BDF8062052B1EB8843B17F
:103A80009A4228BF1A4601462046ADF8062000F0AB
:103A9000C6F9EB88002BD6D1204600F0ECF9D2E72E
:103AA000027CD0F8B43232B99B6A0DF10600984717
:103AB00002234370DFE7DB6AF7E7DBB2052B09D8A7
:103AC000DFE803F0030C1014181CD0F8B0325B6868
:103AD000002BCCD12046FFF78AFFB4E7D0F8B032F4
:103AE0009B68F5E7D0F8B032DB68F1E7D0F8B03288
:103AF0001B69EDE7D0F8B0325B69E9E7D0F8B03286
:103B00009B69E5E7037C002BE4D1D0F8B4320DF1DA
:103B100006005B6B9847AEE7037C002BDAD1D0F848
:103B2000B4320DF106001B6B98470723C1E78B8861
:103B3000002BCFD1CB88002BCCD14D887F2DC9D87D
:103B400090F89C32032BC5D0E9B280F89E1200F0A9
:103B5000F9FB204600F08FF91DB1022384F89C3256
:103B600071E70123FAE78978374D01292970B1D827
:103B700090F89C32022B08D0032B14D0FFF737FFAC
:103B800029782046FFF721FE5DE7002984D0012136
:103B90000323416080F89C322046FFF70BFE022889
:103BA0007FF47AAF96E731B90223416080F89C3206
:103BB000FFF70BFE70E7416801293FF46DAFC9B212
:103BC000FFF703FE29786160E6E7CA88012A81D100
:103BD00090F89C32002B3FF47DAF022B04D9032BCD
:103BE0007FF478AF011D03E00146002341F8083F50
:103BF000204600F014F926E790F89C32013B022B96
:103C00003FF668AFCB88022B7FF464AF0123C3601B
:103C1000D0F8A4320BB10323C360022204F10C01DB
:103C2000E6E74B88012B7FF40EAFC4F8A43233E7EC
:103C300090F89C32013B022B3FF64CAF4B88012B96
:103C40007FF401AF0023F0E7A003002038B50B7824
:103C5000044603F06003202B0D4602D0402B00D019
:103C6000ABB994F89C32013B022B10D82B79012B75
:103C70000DD8D4F8B43229469B6820469847EB8883
:103C80001BB910B9204600F0F6F8002038BD2046D8
:103C9000FFF7ADFEF9E738B50A78044602F0600296
:103CA000202A0B4614D0402A12D06AB95A788D883F
:103CB000012AE9B220D036D3032A05D190F89C22FC
:103CC000022A27D0032A0BD02046FFF790FE05E0FA
:103CD000D4F8B4221946926820469047002038BD97
:103CE0005A882AB94A0603D0DB880BB900F0FCFADF
:103CF000204600F0C0F8F1E790F89C22022A09D093
:103D0000032AE1D15B88002BE8D14D06F0D000F00A
:103D1000F9FAEDE74B06D7D000F0E6FA802120460D
:103D200000F0E2FADAE790F89C32022B18D0032B6D
:103D3000CAD1142301F00F0215F0800F03FB020219
:103D40001FD09269002ABFD001F07F0505FB033523
:103D5000054411F07F031FD12B60022229460CE09D
:103D60004A06B1D12B064FF000034FF002024CBFC0
:103D700000F1140100F5AA710B60204600F04FF825
:103D8000ACE7D2F85821002A9ED001F07F0503FB52
:103D9000050505F5AA75DCE7204600F0C1FA08B173
:103DA0000123D9E72860D8E70B7803704B7843707C
:103DB000CA788B7803EB022343804A790B7903EBB3
:103DC00002238380CA798B7903EB0223C380704777
:103DD00010B50446802100F087FA2046BDE8104067
:103DE000002100F081BA30B588B105462B1A15F8CC
:103DF000014BDBB2002CF9D101335B0013800B7057
:103E000003234B700223013810F8015F05B930BD60
:103E10005A1CCD54D2B20233DBB28C54F4E71346B1
:103E2000022210B5C0F89422C0E907330A460021E7
:103E300000F096FA002010BD08B513460A4600218E
:103E400000F08EFA002008BD1346032210B5C0F81A
:103E50009422C0F85C310A46C0F86031002100F0BD
:103E60008DFA002010BD08B513460A46002100F067
:103E700085FA002008BD08B50423C0F89432002359
:103E80001A46194600F06CFA002008BD08B5052353
:103E9000C0F8943200231A46194600F06FFA002049
:103EA00008BD000008B500220E490F48FFF761FC6D
:103EB00008B1FDF761FB0D490B48FFF76FFC08B136
:103EC000FDF75AFB0A490848FFF712FC08B1FDF755
:103ED00053FB0548FFF769FC18B1BDE80840FDF742
:103EE0004BBB08BD2C010020380800200C0000202E
:103EF0001C01002000207047002070472DE9F74387
:103F0000344C054694F89C32032B61D100285FD0D5
:103F10000E68002E5CD029462046FFF7F8FB0028EB
:103F2000F9D12C4C2046FFF711FC0028FAD12A4C7D
:103F300094F894311BB1002003B0BDE8F08394F8ED
:103F4000C930002BF7D1254FDFF89480DFF894902B
:103F50002E44B542EFD094F8CA202846531CDBB259
:103F600084F8CA302978C62BA1544FF000024FF0D4
:103F7000010188BF84F8CA2084F8932184F8C8100E
:103F800003780D440A2BE4D194F8CA308B42E0D96F
:103F9000234413F8023C0D2BDBD184F8C91002A98D
:103FA00041F8042D386806F008FA012804D040F2E0
:103FB0003B11484604F022F8019B002BC9D04FF07A
:103FC0008053C8F80030BFF34F8FBFF36F8FC0E747
:103FD0000220B1E73808002048380020A43700202C
:103FE00004ED00E030BE000810B5064C0022064982
:103FF0002046FFF784FB05492046FFF788FB002099
:1040000010BD00BF38080020F03A0020283A0020F8
:10401000044BD3F8B832D3F81402003018BF012093
:10402000704700BF3808002010B5094C0A46D4F884
:10403000B832D3F8143243B901462046FFF75FFB8C
:104040002046BDE81040FFF768BB012010BD00BF4F
:1040500038080020122301480B80704748010020D7
:10406000042301480B8070475C010020002370B5D9
:104070001E46050FECB2092D94BF3034373401F8D9
:10408000134001EB430401336670DCB2A2424FEAF5
:104090000010EED870BD00001A2310B50B80094B3C
:1040A000186808331B68C0180AD0074B08221C6820
:1040B0000649FFF7DBFF042205492046FFF7D6FF3C
:1040C000044810BDE8F7FF1FECF7FF1F6201002056
:1040D000720100206001002010B5044C0A4604481B
:1040E0002146FFF780FE204610BD00BFF43A0020B5
:1040F00069BE000810B5044C0A4604482146FFF783
:1041000072FE204610BD00BFF43A002079BE0008C0
:1041100010B5044C0A4604482146FFF764FE2046C9
:1041200010BD00BFF43A002050BE000810B5044C8A
:104130000A4604482146FFF756FE204610BD00BF40
:10414000F43A00205BBE000807B50E4B02689A42A5
:1041500015D103F5DA33DA69072142F40002DA6196
:10416000DB69002203F4000301931420019BFDF797
:10417000D5FA142003B05DF804EBFDF703BB03B0E0
:104180005DF804FB005C004000F52C71D0F8E802FB
:10419000FFF722BB282303FB0103D0F8E802D3F882
:1041A0007C21FFF746BB282303FB0103D0F8E8027C
:1041B000DA6BFFF778BBD0F8E802FFF70CBC836836
:1041C00010B5022B044601D0FDF7D6F9D4F8E80269
:1041D0000121FFF7EAFBD4F8E802BDE81040FFF741
:1041E000BDBB000010B50446D0F8E802FFF7E0FBC5
:1041F000A36923B1024A136943F00603136110BD9A
:1042000000ED00E0D0F8E802FFF7DBBB082310B5B3
:104210001D4A04461D48C0E9002302238360002391
:10422000C0F8E842C4F8C002C0E906330362FDF7F3
:10423000CDFA08B1FDF7A0F9002218231146D4F8F1
:10424000C002FEF787F8582300228021D4F8C0026C
:10425000FEF780F8C02300228121D4F8C002FEF7C7
:1042600079F84FF4887300220121D4F8C002FEF7D8
:1042700071F84FF4807300228221D4F8C002FEF757
:1042800069F8002010BD00BF005C0040F43C002035
:1042900008B5D0F8C002FDF711FB032896BF024B0A
:1042A0000220185C08BD00BF93BE000810B51C4674
:1042B000D0F8C00213462246FDF750FF032896BFF0
:1042C000014B0220185C10BD93BE000808B5D0F861
:1042D000C002FDF775FF032896BF024B0220185C51
:1042E00008BD00BF93BE000808B5D0F8C002FDF7B6
:1042F000CBFF032896BF024B0220185C08BD00BF0D
:1043000093BE000808B5D0F8C002FDF7F1FF0328FE
:1043100096BF024B0220185C08BD00BF93BE000888
:10432000282211F0800FD0F8C0021BBF01F07F03DC
:1043300003FB022102FB0101091814BF887891F8E0
:104340006A01704708B5D0F8C002FDF7D0FA03281B
:1043500096BF024B0220185C08BD00BF93BE000848
:1043600008B5D0F8C002FDF775FF032896BF024BD1
:104370000220185C08BD00BF93BE000808B5D0F845
:10438000C002FDF746FF032896BF024B0220185CCF
:1043900008BD00BF93BE0008D0F8C002FDF752BFB1
:1043A00000487047A40300207047704780B50D4C4B
:1043B000237893B14AF6AA270B4E0C4D0C4C37606C
:1043C0002968204603F0FAFB0A2006F09FFB002034
:1043D00006F0B8FC074B1860F1E7022006F096FBE8
:1043E000E6E700BFC40500200030004098360020FA
:1043F000483700207C01002008B5164C23782BB3E9
:10440000154C164D26464FF0FF31206806F034F863
:10441000012803D08121284603F0F0FD104802F066
:10442000C9FD002330681A46194605F0FFFE012831
:1044300003D08521284603F0E1FD052006F066FB48
:10444000002006F07FFC074B1860DCE7022006F036
:104450005DFBD3E7C4050020A0370020C8BE0008DC
:10446000800E00208001002008B51A4C23786BB321
:10447000194C1A4D26464FF0FF31286805F0FCFF15
:10448000012803D09621164803F0B8FD4FF0FF3104
:10449000206805F0F1FF012803D09721104803F0B0
:1044A000ADFD104802F0CEFF002330681A461946D1
:1044B00005F0BCFE012803D09B21094803F09EFDB6
:1044C000002006F03FFC084B1860D4E7022006F0FD
:1044D0001DFBCBE7C4050020A0370020F0370020EB
:1044E000C8BE0008800E0020840100207FB5394836
:1044F00003F0BDFC384803F02BFB384C384800F083
:104500004DFA384800F064FB204601F053FF0121CA
:10451000204602F0A3FA42F618034FF4FA72E35869
:1045200003212D4803F040FB0123CDE90133322361
:104530004FF47A7100931A46264803F0B5FC002028
:1045400000F044FE01303ED0274D01222E46274B7D
:10455000244C1A70264B4FF0FF31186805F08CFF81
:10456000012803D0C721234803F048FD4FF0FF3155
:10457000286805F081FF012803D0C8211D4803F0F9
:104580003DFD204600F08CFB0128014605D11A4B69
:1045900032221B68104803F007FB002330681A46DC
:1045A000194684F8943184F8C93005F03FFE01289B
:1045B00003D0D0210F4803F021FD002006F0C2FBFC
:1045C0000E4B1860C6E742F2107300BF013BFCD1EE
:1045D000B5E700BFF837002048370020800E0020E4
:1045E000480B002048380020A0370020C4050020D8
:1045F000A4370020C8BE000898360020880100209B
:1046000008B5124C2378E3B1114D124E4FF0FF3133
:10461000286805F031FF012803D0DF210E4803F0A0
:10462000EDFC0E4C94F82033002BEFD0204600F028
:1046300013FA322006F06AFA002006F083FB30609D
:10464000F0E7022006F062FADCE700BFC4050020B4
:10465000FC0A00208C010020C8BE0008480B002086
:10466000F0B585B072B600245A4E5B4BF2685B4DD4
:1046700022F4E0621204120C1343F360584BAC6056
:104680001868FEF7EBFEF02386F8233003262B682C
:10469000224643F002032B6021460096514B012035
:1046A00005F07CFD504F22463860214600964F4B66
:1046B000012005F073FD4E4D224628604D4B2146EA
:1046C0000096012005F06AFD4B4C4C49206001200A
:1046D00005F05EFE4A4B3A682E46186025461C4699
:1046E0001AB95321474803F089FC33681BB9542198
:1046F000444803F083FC2B681BB95521414803F063
:104700007DFC23681BB956213E4803F077FC3E4BE5
:10471000282202933D4B3E49019303233D480093D9
:10472000002305F0C7FF18B95921364803F066FC8D
:10473000394B41220293394B3949019301233948BE
:104740000093002305F0B6FF18B95A212D4803F055
:1047500055FC354B37220293344B354901930523E1
:1047600034480093002305F0A5FF18B95B212548C4
:1047700003F044FC304B4FF4A07202932F4B3049AE
:10478000019302232F480093002305F093FF18B9EB
:104790005C211C4803F032FC2B4B372202932B4B3D
:1047A0002B49019304232B480093002305F082FF3B
:1047B00018B95D21134803F021FC62B60122264B93
:1047C0001A7006F057F865210E4805B0BDE8F040B4
:1047D00003F014BC00ED00E00003FA0510E000E077
:1047E00000000020000B0020A4370020A837002084
:1047F000F037002058370020FC0A0020E039002064
:10480000A0370020C8BE00081842002054490020EC
:1048100097BE0008AD430008FC4800203840002047
:104820009ABE0008F94300084C4300207042002063
:10483000A5BE000869440008A4430020FC430020F2
:10484000B5BE0008ED440008E03F00203C410020D8
:10485000C3BE000801460008C40500202DE9FF4141
:104860000025044690F8327329467A1E534253417C
:1048700080F83333A0F8305304F5C8764FF4C8728B
:1048800006F04CFD29464FF4C872304606F046FD4E
:10489000012F0CBFC8231E234FF480774FF480688C
:1048A00003950093CDE90178234602222449254847
:1048B00003F0DCF994F833332348AB4214BFC82328
:1048C0001E23CDE90285CDE90037032233461C497A
:1048D00003F0CCF91D4BD968C1F30221C1F10703E4
:1048E000042B01F1040228BF0423062A88BFCD1E31
:1048F0004FF0FF319940C94301F00101A940144B29
:104900000901C9B283F81913124BDA6842F00102A7
:10491000DA600022DA635A6294F833239969002A34
:1049200014BF0C20002021F00C01014399619A6909
:1049300022F4406242EA00229A6104B0BDE8F081AC
:1049400000000240342C01403C2C014000ED00E00E
:1049500000E100E0002C014008B5FFF77FFF4FF0B9
:1049600000710C4BDA6842F40072DA60DA6842F4E3
:104970008062DA60084A11601A6A42F001021A6223
:104980001A6A42F010021A621A6842F001021A60B2
:1049900008BD00BF002C014000E100E030B400245D
:1049A000064D00F54A72C2E9004530BC002280F88D
:1049B0002023A0F83223FFF751BF00BF0000F0BF53
:1049C00030B490F8203380F8322380F8201373B984
:1049D000012914D100240B4D00F54A70C0E90045AF
:1049E00030BC09481A461946006805F01FBC31B9A9
:1049F000012B04D130BC044B186805F03DBD30BC20
:104A0000704700BF0000F0BFFC0A002009B1FFF7AB
:104A1000A3BF4FF000710E4B1A6822F001021A601A
:104A20001A6A22F001021A621A6A22F010021A624D
:104A3000084AC2F88010BFF34F8FBFF36F8FDA6858
:104A400022F40072DA60DA6822F48062DA60704779
:104A5000002C014000E100E02DE9F8430025044668
:104A60002F46FFF779FFDFF8DC80D8F80460B7F550
:104A70007A7FB6B203DD0A2006F048F80A35B5F5AC
:104A8000FA6F07F1010701DC002EEED1002120466C
:104A9000FFF7BCFF94F83353002D0CBF1E23C8232F
:104AA0009B1B012B3AD904EB4302B4F890015E1E24
:104AB000B2F88E3132F8022C1B1A9BB220883BB31D
:104AC000C0F57F40FF30013B10449BB2C3EB034372
:104AD0001844FBF787FC804630468946FBF782FC8A
:104AE00002460B4640464946FBF720FE02460B466F
:104AF0000FA1D1E90001FBF719FE002265B10E4BB1
:104B0000FBF7EAFC04F54A74C4E90001BDE8F88348
:104B10009042FBD2101AD9E7084BF1E70022084B6C
:104B200004F54A74C4E90023F0E700BFAFF3008046
:104B300000000000882A9141000020400000F03F62
:104B40000000F0BF1C000240074A1369DB0707D5CD
:104B50000649B1F8303301339BB2A1F83033D36347
:104B60006FF0010313617047002C0140480B0020D7
:104B7000012070472DE9F04105460024DFF84C8004
:104B800000F1840656F8043BEBB1012C19D1D5F89D
:104B9000383193F89431002B14BF0423052305EB1F
:104BA0008303D3F884703846FBF7D2FA39460246BD
:104BB0002846013404F0BEFB042CE3D10120BDE8FB
:104BC000F0812346EBE701224146F1E767C7000881
:104BD000254B10B51860002401238AB080F893415A
:104BE00080F8944180F8954180F8C84080F8C94029
:104BF00080F8CA4007931D4B08900693C82305937D
:104C00001B4B1C4A04931C4B1C4903931C4B1D4813
:104C100002931D4B01931D4B00931D4B04F0E6FACC
:104C20001C4AD36843F02003D3601B4BDB68C3F3FB
:104C30000223C3F10702042A03F1040128BF04225E
:104C4000062988BFDC1E4FF0FF339340DB4303F09F
:104C50000603A340114A1B01DBB282F8253320234F
:104C600053600AB010BD00BF30080020F84B002090
:104C7000304B00209001002067C700088CBF00085F
:104C800086BF0008F449002079BE000869BE00080C
:104C9000D0C700080038014000ED00E000E100E06E
:104CA00070B590F894510446012D11D100F1CB0656
:104CB00090F895213146114804F0C8FEC822002121
:104CC000304606F02BFB002384F89531284670BD52
:104CD00090F8C950012D0ED190F8CA20014607481E
:104CE00004F0B4FEC8220021204606F017FB002382
:104CF00084F8CA30EAE70025E8E700BFF44900205D
:104D0000F8B590F893310E46012B14460DD10B46A1
:104D1000114A991BA14201DB2046F8BD13F8011B83
:104D200010680006FCD55160F3E790F8C830012BFD
:104D30000FD10A4D97B239463046FFF775F9012871
:104D400001D1013DF7D1FFF763F90028E4D000BF9E
:104D5000F9E70024E0E700BF0038014040420F00BF
:104D6000D0F83801FFF7CCBF30B50CB29BB0054688
:104D7000204603F031FC22460346064901A806F00E
:104D8000D5FA01A90246D5F83801FFF7B9FF00208E
:104D90001BB030BD6CBF000810B501299CB00446A3
:104DA00013460CD1094903A806F0C0FA024603A92C
:104DB000D4F83801FFF7A4FF01201CB010BD009209
:104DC00003A80A46024906F0B1FAEFE740BF00081F
:104DD00053BF000808B509220349D0F83801FFF78E
:104DE0008FFF012008BD00BF7CBF000830B5002345
:104DF00005460846114689B001ACC25C1A5501331C
:104E0000082BFAD12C230A220DF10D008DF80C305D
:104E100003F08FF90D2208AB034403F8132C0A2288
:104E2000214603F8122C00F10B022846FFF768FF19
:104E300009B030BD294B37B51A68920647D55A6874
:104E4000274B93F89411002943D193F8C940002CC3
:104E50003FD193F89501D2B2411CC9B2184483F8EE
:104E60009511C62980F8CB204FF001014FF00000CA
:104E70006FF0200588BF83F89541184C0A2A83F803
:104E8000931183F8C800256021D193F895218A42B7
:104E90001DD91A4492F8C9200D2A18D183F894110B
:104EA000104B02A941F8040D186805F086FA012894
:104EB00003D02C210C4803F0A1F8019B3BB14FF02B
:104EC00080520A4B1A60BFF34F8FBFF36F8F03B04E
:104ED00030BD3121044803F091F8F8E70038014073
:104EE00048380020A4370020A8C2000804ED00E0E4
:104EF00010B586B0002305AA04A9044604F032FCCC
:104F00000021214801F020FB01211F4801F0A6FDEE
:104F100001211D4801F018FB059901291BD1049BB3
:104F20001B78532B0ED10022174801F0EDF9002118
:104F3000154801F093FD1549204604F011FA0120AF
:104F400006B010BD4C2B06D10A460F48002101F0D7
:104F5000DBF90221ECE701220B48114601F0D4F9FC
:104F600000220B481146FFF72BFD0A4802F08BFF89
:104F70000123CDE9013332234FF47A7100931A46AD
:104F8000044802F091FFD6E7800E002046C30008D7
:104F9000480B0020F837002073B5012301AA6946A9
:104FA000054604F0DFFB80B3019C052C10D122469E
:104FB0001749009806F007FA10BB0021154801F0C8
:104FC0004DFD1549284604F0CBF9012002B070BD13
:104FD000042C02D122461149EBE7022C10D1009E8D
:104FE00022460F49304606F0EEF908B90121E5E7FF
:104FF00022460C49304606F0E6F908B92146DDE7BD
:105000006FF0DF01284603F0E3FA4FF0FF30DDE7F1
:105010001BC40008800E002046C3000821C40008FD
:1050200026C4000829C4000808B542F62403064A2D
:10503000D35C23B9054904F093F9012008BD012B85
:105040000CBF03490349F6E7800E00201BC400088B
:1050500026C4000829C400080322042130B5B3B0D7
:10506000CDE91021012402220546CDE90E420A2095
:105070004FF47A72CDE90C204FF4FA62DFF860C089
:105080004FF4967ECDE90A2C6422CDE9082E13AAAE
:10509000059212AACDE903420D490E4A0023CDE93B
:1050A000012142F21072CDE9063300920A490B4AFF
:1050B00014A8ADF84830ADF84C3006F037F914A913
:1050C0000246284604F036F9204633B030BD00BF12
:1050D0000051250249794E00E4C3000800350C0058
:1050E000404B4C0010B5124BA2B00793114B124A23
:1050F0000693124B04460593114BCDE9033342F658
:105100000C03D058FBF790FD482301930D4B029000
:1051100000930D4A0D4B0E4909A806F007F909A99D
:105120000246204604F006F9012022B010BD00BF5F
:10513000B4C30008B6C30008800E0020BDC3000839
:10514000C0C30008CCC300088FC3000889C300088F
:1051500096C3000842F61803164A30B5D158164ACD
:105160004EF66023B1FBF2F2144D044605FB021526
:1051700095FBF3F34FF47A70114989B001FB0355A5
:1051800095FBF0F00F49DBB201FB0051642591FB68
:10519000F5F1C0B2C9B2019100900B4903A806F025
:1051A000C5F803A90246204604F0C4F8012009B05E
:1051B00030BD00BF800E002080EE36008011C9FF98
:1051C000A015FFFF18FCFFFF2CC4000842F62403C3
:1051D0002DE9F04F9F4AC3B0D35C8346012B924622
:1051E00040F0368100220F92002800F09F800FA926
:1051F00004F0B5FA002200230F9CCDE91023012C06
:10520000CDE91223CDE91423CDE91623CDE91823E6
:1052100008D04FF0FF35002C40F08A8042F6200382
:105220004AF8035005210D468B4BBAF80620586802
:1052300080B2101A013848BF02F1FF3090FBF5F33D
:1052400003EB8303C31A042B05D0013848BF02F1D6
:10525000FF300139F2D1012C0AD142F62005052692
:105260005AF8053090FBF6F15C1C69D14AF805103C
:1052700018AB059316AB049314AB039312AB0293D4
:1052800010AB019342F2D6731AF803300521009354
:10529000DAF8003002F0B3FE42F614035AF80300C5
:1052A000FBF7C2F8DDE9108900226C4B06460F4679
:1052B000FBF712F942464B46FBF738FA0022684BDF
:1052C000FBF734FADDE9122304460D464046494611
:1052D000CDE90623DDE91423CDE90823DDE9162312
:1052E000CDE90A23DDE91823CDE90C23FBF7D6FB32
:1052F00042F6080300224AF803002946584B20468C
:10530000FBF7EAF8FBF7CAFB42F60C034AF8030086
:10531000BBF1000F35D15349FBF77CFC002814BFCB
:1053200001204FF0FF3043B0BDE8F08F0F9361E7ED
:105330006FF0DF01584603F04BF94FF0FF30F2E712
:105340008B4205D14849584604F00AF80120EAE7A3
:10535000BAF8081042F2D47091FBF6F13AF8000066
:10536000013301448B424AF80530A4BF00234AF8B8
:10537000053042F620035AF8030000EB80000430A9
:1053800076E74FF004080DF1680922462B46CDF868
:1053900000803649484603F021F8DDE9060122463F
:1053A0002B46FBF799F832463B46FBF7BFF9CDF8A1
:1053B000008002460B461DA82C4903F00FF8DDE9DA
:1053C000080122462B46FBF787F832463B46FBF79F
:1053D000ADF9CDF8008002460B4620A8234902F023
:1053E000FDFFDDE90A0122462B46FBF775F8324640
:1053F0003B46FBF79BF90DF18C0A02460B46CDF8B4
:1054000000801A49504602F0E9FFDDE90C0122460E
:105410002B46FBF761F832463B46FBF787F926AC93
:1054200002460B46CDF800801049204602F0D6FF18
:105430001DAACDE90149CDF800A020AB0C4929A84F
:1054400005F074FF29A90246584603F073FF7DE773
:10545000084970E7800E00200800024000C092401A
:1054600000408F400080BB4440C4000819C30008BE
:10547000A5C300088CFEFFFF42F62402F0B5274BBF
:1054800087B09A5C07461C46002A40D142F66A0261
:105490009B5C23B9224903F063FF01203CE042F208
:1054A000D47342F2C172E05A42F2D673A15C42F266
:1054B000C272E35C1B4E0C2B33784FF000050B449B
:1054C000A15C42F2C3720B44A15CCDE90355029585
:1054D00000F10A001944236808BF4000CDE90053D9
:1054E00041432B462A46384604F021F842F68C0305
:1054F000E55042F66A03E55242F63003E35C022BC4
:10550000CBD00121A6F51F5001F01EF8C5E70649D2
:1055100003F05EF84FF0FF3007B0F0BD800E0020C2
:1055200052C30008403600208CFEFFFF0000000040
:1055300042F624032DE9F047A74EA4B0F35C0546DC
:10554000002B40F03E81012203A904F008F910B9B4
:105550004FF0FF3017E1012204A9284604F0FFF8BC
:105560000028F5D0012205A9284604F0F8F8002803
:10557000EED001230CAA09A9284604F0F3F800286C
:10558000E6D0012206A9284604F0E9F80028DFD079
:10559000012207A9284604F0E2F80028D8D0012308
:1055A0000DAA0AA9284604F0DDF80028D0D001236E
:1055B0000EAA0BA9284604F0D5F80028C8D001226D
:1055C00008A9284604F0CBF80028C1D00C9B042B76
:1055D00028D10D9B012B25D10E9B012B22D1099B9C
:1055E0001A78303A012A1DD85A78303A012A19D847
:1055F0009A78303A012A15D8DB78303B012B11D844
:105600000A9B1B78522B01D0462B0BD10B9B1C788D
:10561000413CE3B2122B05D8704CDC40E44314F05B
:10562000010405D06FF0DF01284602F0D1FF8FE7BB
:105630006B4FA7F168023B46A7F11401A7F1800068
:1056400000F046FE2146A7F5215000F07DFFA7F5AA
:10565000215000F047FF01230321A7F5215007F84F
:105660001B3C00F0F1FF9DF80C10A7F5215001F054
:105670005BF88246099883784278A3F1300C059B49
:1056800001780193C078303A3038C0B230395FFACF
:105690008CF3D2B20090C9B2A7F5215001F014F9F1
:1056A00005998046A7F5215001F086F8BDF8101045
:1056B0008146A7F5215000F0C7FF0A9B07461B78DB
:1056C0000699522B9DF81C2060D0462B14BF022354
:1056D00001230B98007841285AD04E285AD05328DD
:1056E00014BF03200220089CCDE900043A4801F0D1
:1056F0008BFF0AEB07034B444344181850D142F682
:105700002503F054364BA3F16802A3F11401A3F171
:10571000800000F0DDFD01212F4800F015FF42F66A
:105720001003F058FAF780FE2E4B0022FAF71CFD0A
:1057300042F2D673F35C0C2B2ED123A3D3E90023C2
:10574000FAF7F4FF0022284BFAF70EFD0124024677
:105750000B46009425490FA802F040FE0623009353
:10576000234B2249D3E9002313A802F037FE13ABE1
:105770000FAA204918A805F0D9FD18A90246284605
:1057800003F0D8FD204624B0BDE8F0872346A0E70B
:105790000020A8E70120A6E70DA3D3E90023CFE767
:1057A000012442F6240300210B48F45401F056F979
:1057B00042F62503002221460748F25400F0C4FEB9
:1057C00030E70D4931E700BF5CF1B7C6BD864E3FFB
:1057D000AA6367F9F4CD453F800E0020092004003C
:1057E000C03600200000E03F00408F4019C3000891
:1057F000483600205DC300088CFEFFFF000000005B
:1058000042F62403F0B55C4CB3B0E35C0746002BD2
:1058100040F0A18004F51F531B78002B14BF3123E7
:1058200030238DF8303042F2C173E35C002B14BF9B
:10583000312330238DF8313042F2C273E35C002B08
:1058400014BF312330238DF8323042F2C373E35C4E
:10585000002B14BF312330238DF8333042F631034F
:10586000E35C002B6DD0012B0CBF462342238DF847
:10587000283042F63003E35C002B64D0012B64D067
:10588000022B0CBF532344238DF82C3000238DF8BA
:1058900034308DF829308DF82D3042F61003E05861
:1058A000FAF7C2FD354B0022FAF75EFC42F2D673DE
:1058B000E35C0C2B4BD02CA3D3E90023FAF736FF83
:1058C00000222F4BFAF750FC03230EAD0246009343
:1058D00028460B462B4902F081FD062300932A4BF4
:1058E00012AED3E900232749304602F077FD42F695
:1058F0002C01615842F2D47306910BA905910AA9B3
:10590000049142F63C01615842F2D672039142F68C
:1059100034016158E35A02910CA9019142F2D0710D
:105920006158A25C0091CDE90756184917A805F007
:10593000FDFC17A90246384603F0FCFC012033B0F9
:10594000F0BD522393E741239EE74E239CE708A333
:10595000D3E90023B2E70E4902F03AFE4FF0FF30E0
:10596000EDE700BFAFF30080AA6367F9F4CD453FD0
:105970005CF1B7C6BD864E3F800E00200000E03FC0
:1059800000408F4019C300084836002068C3000853
:105990008CFEFFFF42F6240370B52E4C0546E35CF7
:1059A0002BB12D4902F014FE4FF0FF3070BD42F6CE
:1059B000BA03E35C012B0AD042F66A03E35C012BD5
:1059C00005D042F63003E35C032B00D01BB96FF423
:1059D000BA712846E6E742F62603E65C1EB90121C5
:1059E000204600F0B1FD42F68C03E25842F69003E7
:1059F000E3589A4200DB0EB91849EAE742F66A0317
:105A0000012200211348E25400F09EFD42F6A40357
:105A1000E358D98842F6A803E258114B134413F80F
:105A2000012C42F6AC03E35813445A6842F678035B
:105A300092B28A1A013A48BF01F1FF32E250094B93
:105A400009491868FFF7D2F90849284603F088FC8D
:105A50000120ABE7800E00208CFEFFFF8AFEFFFFD7
:105A6000E2C200083008002049C3000846C300080D
:105A700042F6240310B5134CE35C022B1BD142F613
:105A80006A03E25C22B9104903F06AFC012017E0C6
:105A9000002242F68C01E2526250E288216803F053
:105AA00037FD42F63003E35C022BEFD001212046A4
:105AB00000F04AFDEAE7054902F08AFD4FF0FF30A9
:105AC00010BD00BF800E002052C300088CFEFFFFF7
:105AD00042F624032DE9F047734E98B0F35C054677
