:020000040800F2
:1000000000000120B51D0008591D00085B1D0008F7
:100010005D1D00085F1D0008611D00080000000054
:100020000000000000000000000000009D860008A5
:10003000631D000800000000A18600087986000802
:10004000FD1D0008FD1D0008FD1D0008FD1D000828
:10005000FD1D0008FD1D0008117800087D780008CE
:10006000E978000855790008C1790008FD1D0008ED
:10007000FD1D0008FD1D0008FD1D0008FD1D0008F8
:10008000FD1D0008FD1D000811770008FD1D00087A
:10009000651D0008FD1D0008FD1D0008FD1D000870
:1000A000FD1D000881530008FD1D0008FD1D00080E
:1000B000FD1D0008FD1D0008FD1D0008FD1D0008B8
:1000C000FD1D0008FD1D0008FD1D0008FD1D0008A8
:1000D000FD1D00086D560008FD1D0008FD1D0008EF
:1000E000FD1D0008FD1D0008FD1D0008FD1D000888
:1000F000FD1D0008FD1D0008FD1D0008A577000876
:10010000FD1D0008FD1D0008FD1D0008FD1D000867
:10011000FD1D0008FD1D0008FD1D0008FD1D000857
:10012000FD1D0008FD1D0008FD1D0008FD1D000847
:1001300000000000000000000000000000000000BF
:1001400000000000000000000000000000000000AF
:10015000000000000000000000000000000000009F
:10016000000000000000000000000000000000008F
:10017000000000000000000000000000000000007F
:10018000000000000000000000000000000000006F
:10019000000000000000000000000000000000005F
:1001A000000000000000000000000000000000004F
:1001B000000000000000000000000000000000003F
:1001C000000000000000000000000000000000002F
:1001D000000000000000000000000000000000001F
:0401E0005FF8E0F1F3
:1001F00010B5054C237833B9044B13B10448AFF361
:1002000000800123237010BD800300200000000047
:1002100020E0000808B5034B1BB103490348AFF3C6
:10022000008008BD000000008403002020E00008DA
:10023000034613F8012B002AFBD1181A0138704726
:1002400081F0004102E000BF83F0004330B54FEA87
:1002500041044FEA430594EA050F08BF90EA020FF4
:100260001FBF54EA000C55EA020C7FEA645C7FEA87
:10027000655C00F0E2804FEA5454D4EB5555B8BFAA
:100280006D420CDD2C4480EA020281EA030382EA1B
:10029000000083EA010180EA020281EA0303362DAD
:1002A00088BF30BD11F0004F4FEA01314FF4801C80
:1002B0004CEA113102D0404261EB410113F0004F92
:1002C0004FEA03334CEA133302D0524263EB430349
:1002D00094EA050F00F0A780A4F10104D5F1200EE7
:1002E0000DDB02FA0EFC22FA05F2801841F1000142
:1002F00003FA0EF2801843FA05F359410EE0A5F116
:1003000020050EF1200E012A03FA0EFC28BF4CF046
:10031000020C43FA05F3C01851EBE37101F00045FC
:1003200007D54FF0000EDCF1000C7EEB00006EEB09
:100330000101B1F5801F1BD3B1F5001F0CD3490893
:100340005FEA30004FEA3C0C04F101044FEA4452EA
:1003500012F5800F80F09A80BCF1004F08BF5FEA71
:10036000500C50F1000041EB045141EA050130BD51
:100370005FEA4C0C404141EB010111F4801FA4F1F4
:100380000104E9D191F0000F04BF01460020B1FA49
:1003900081F308BF2033A3F10B03B3F120020CDA81
:1003A0000C3208DD02F1140CC2F10C0201FA0CF05F
:1003B00021FA02F10CE002F11402D8BFC2F1200CC4
:1003C00001FA02F120FA0CFCDCBF41EA0C0190407A
:1003D000E41AA2BF01EB0451294330BD6FEA0404C3
:1003E0001F3C1CDA0C340EDC04F11404C4F12002AE
:1003F00020FA04F001FA02F340EA030021FA04F3C0
:1004000045EA030130BDC4F10C04C4F1200220FA16
:1004100002F001FA04F340EA0300294630BD21FA54
:1004200004F0294630BD94F0000F83F4801306BF1A
:1004300081F480110134013D4EE77FEA645C18BF0E
:100440007FEA655C29D094EA050F08BF90EA020FA5
:1004500005D054EA000C04BF1946104630BD91EA9D
:10046000030F1EBF0021002030BD5FEA545C05D1A0
:100470004000494128BF41F0004130BD14F58004DF
:100480003CBF01F5801130BD01F0004545F0FE4153
:1004900041F470014FF0000030BD7FEA645C1ABF88
:1004A000194610467FEA655C1CBF0B46024650EABF
:1004B000013406BF52EA033591EA030F41F40021EB
:1004C00030BD00BF90F0000F04BF0021704730B571
:1004D0004FF4806404F132044FF000054FF0000146
:1004E00050E700BF90F0000F04BF0021704730B507
:1004F0004FF4806404F1320410F0004548BF4042DC
:100500004FF000013EE700BF42004FEAE2014FEA30
:1005100031014FEA02701FBF12F07F4393F07F4F0B
:1005200081F06051704732F07F4208BF704793F00E
:100530007F4F04BF41F40021704730B54FF4607421
:1005400001F0004521F000411CE700BF50EA010224
:1005500008BF704730B54FF000050AE050EA0102CD
:1005600008BF704730B511F0004502D5404261EB3D
:1005700041014FF4806404F132045FEA915C3FF47E
:10058000D8AE4FF003025FEADC0C18BF03325FEA1B
:10059000DC0C18BF033202EBDC02C2F1200300FACC
:1005A00003FC20FA02F001FA03FE40EA0E0021FAF1
:1005B00002F11444BDE600BF70B54FF0FF0C4CF4DF
:1005C000E06C1CEA11541DBF1CEA135594EA0C0F91
:1005D00095EA0C0F00F0DEF82C4481EA030621EACC
:1005E0004C5123EA4C5350EA013518BF52EA033507
:1005F00041F4801143F4801338D0A0FB02CE4FF0B9
:100600000005E1FB02E506F00042E0FB03E54FF0E8
:100610000006E1FB03569CF0000F18BF4EF0010EE0
:10062000A4F1FF04B6F5007F64F5407404D25FEADC
:100630004E0E6D4146EB060642EAC62141EA55518F
:100640004FEAC52040EA5E504FEACE2EB4F1FD0CD1
:1006500088BFBCF5E06F1ED8BEF1004F08BF5FEA4F
:10066000500E50F1000041EB045170BD06F0004601
:1006700046EA010140EA020081EA0301B4EB5C04AE
:10068000C2BFD4EB0C0541EA045170BD41F48011A6
:100690004FF0000E013C00F3AB8014F1360FDEBFCB
:1006A000002001F0004170BDC4F10004203C35DAA7
:1006B0000C341BDC04F11404C4F1200500FA05F32A
:1006C00020FA04F001FA05F240EA020001F00042CB
:1006D00021F0004110EBD37021FA04F642EB060141
:1006E0005EEA430E08BF20EAD37070BDC4F10C046B
:1006F000C4F1200500FA04F320FA05F001FA04F22F
:1007000040EA020001F0004110EBD37041F100011A
:100710005EEA430E08BF20EAD37070BDC4F1200525
:1007200000FA05F24EEA020E20FA04F301FA05F28D
:1007300043EA020321FA04F001F0004121FA04F235
:1007400020EA020000EBD3705EEA430E08BF20EA05
:10075000D37070BD94F0000F0FD101F0004640003F
:1007600041EB010111F4801F08BF013CF7D041EAC1
:10077000060195F0000F18BF704703F000465200C5
:1007800043EB030313F4801F08BF013DF7D043EA96
:100790000603704794EA0C0F0CEA135518BF95EA4C
:1007A0000C0F0CD050EA410618BF52EA4306D1D1D3
:1007B00081EA030101F000414FF0000070BD50EAF2
:1007C000410606BF1046194652EA430619D094EA7C
:1007D0000C0F02D150EA013613D195EA0C0F05D166
:1007E00052EA03361CBF104619460AD181EA0301BA
:1007F00001F0004141F0FE4141F470014FF0000072
:1008000070BD41F0FE4141F4780170BD70B54FF00C
:10081000FF0C4CF4E06C1CEA11541DBF1CEA13558C
:1008200094EA0C0F95EA0C0F00F0A7F8A4EB05046E
:1008300081EA030E52EA03354FEA013100F0888065
:100840004FEA03334FF0805545EA131343EA12632E
:100850004FEA022245EA111545EA10654FEA0026E3
:100860000EF000419D4208BF964244F1FD0404F59C
:10087000407402D25B084FEA3202B61A65EB0305F8
:100880005B084FEA32024FF480104FF4002CB6EBB5
:10089000020E75EB030E22BFB61A754640EA0C0035
:1008A0005B084FEA3202B6EB020E75EB030E22BF75
:1008B000B61A754640EA5C005B084FEA3202B6EBB6
:1008C000020E75EB030E22BFB61A754640EA9C0075
:1008D0005B084FEA3202B6EB020E75EB030E22BF45
:1008E000B61A754640EADC0055EA060E18D04FEA03
:1008F000051545EA16754FEA06164FEAC30343EAA3
:1009000052734FEAC2025FEA1C1CC0D111F4801F6F
:100910000BD141EA00014FF000004FF0004CB6E768
:1009200011F4801F04BF01430020B4F1FD0C88BF07
:10093000BCF5E06F3FF6AFAEB5EB030C04BFB6EB12
:10094000020C5FEA500C50F1000041EB045170BD05
:100950000EF0004E4EEA113114EB5C04C2BFD4EB32
:100960000C0541EA045170BD41F480114FF0000EB6
:10097000013C90E645EA060E8DE60CEA135594EA32
:100980000C0F08BF95EA0C0F3FF43BAF94EA0C0F35
:100990000AD150EA01347FF434AF95EA0C0F7FF4AA
:1009A00025AF104619462CE795EA0C0F06D152EAFE
:1009B00003353FF4FDAE1046194622E750EA4106E2
:1009C00018BF52EA43067FF4C5AE50EA41047FF4F3
:1009D0000DAF52EA43057FF4EBAE12E74FF0FF3C58
:1009E00006E000BF4FF0010C02E000BF4FF0010C29
:1009F0004DF804CD4FEA410C7FEA6C5C4FEA430CA2
:100A000018BF7FEA6C5C1BD001B050EA410C0CBFF0
:100A100052EA430C91EA030F02BF90EA020F002052
:100A2000704710F1000F91EA030F58BF994208BFB9
:100A300090422CBFD8176FEAE37040F00100704776
:100A40004FEA410C7FEA6C5C02D150EA013C07D1CD
:100A50004FEA430C7FEA6C5CD6D152EA033CD3D018
:100A60005DF8040B704700BF8446104662468C4612
:100A70001946634600E000BF01B5FFF7B7FF002845
:100A800048BF10F1000F01BD4DF808EDFFF7F4FF6E
:100A90000CBF012000205DF808FB00BF4DF808EDF9
:100AA000FFF7EAFF34BF012000205DF808FB00BF1C
:100AB0004DF808EDFFF7E0FF94BF012000205DF83E
:100AC00008FB00BF4DF808EDFFF7CEFF94BF0120F3
:100AD00000205DF808FB00BF4DF808EDFFF7C4FFEC
:100AE00034BF012000205DF808FB00BF4FEA41023F
:100AF00012F5001215D211D56FF47873B3EB625270
:100B000012D94FEAC12343F0004343EA505311F096
:100B1000004F23FA02F018BF404270474FF0000028
:100B2000704750EA013005D111F0004008BF6FF066
:100B3000004070474FF00000704700BF4A0011D2DC
:100B400012F5001211D20DD56FF47873B3EB625227
:100B50000ED44FEAC12343F0004343EA505323FA33
:100B600002F070474FF00000704750EA013002D1A8
:100B70004FF0FF3070474FF0000070474FEA4102DE
:100B8000B2F1E04324BFB3F5001CDCF1FE5C0DD9EB
:100B900001F0004C4FEAC0024CEA5070B2F1004F35
:100BA00040EB830008BF20F00100704711F0804F38
:100BB00021D113F13872BCBF01F00040704741F4FD
:100BC00080114FEA5252C2F11802C2F1200C10FA01
:100BD0000CF320FA02F018BF40F001004FEAC123E5
:100BE0004FEAD32303FA0CFC40EA0C0023FA02F389
:100BF0004FEA4303CCE77FEA625307D150EA01335F
:100C00001EBF4FF0FE4040F44000704701F000402E
:100C100040F0FE4040F40000704700BF80F000400C
:100C200002E000BF81F0004142001FBF5FEA4103C4
:100C300092EA030F7FEA226C7FEA236C6AD04FEAC4
:100C40001262D2EB1363C1BFD21841404840414009
:100C5000B8BF5B42192B88BF704710F0004F40F4BB
:100C6000000020F07F4018BF404211F0004F41F4D7
:100C7000000121F07F4118BF494292EA030F3FD0A3
:100C8000A2F1010241FA03FC10EB0C00C3F12003B6
:100C900001FA03F100F0004302D5494260EB400045
:100CA000B0F5000F13D3B0F1807F06D340084FEAB0
:100CB000310102F10102FE2A51D2B1F1004F40EBA5
:100CC000C25008BF20F0010040EA0300704749000D
:100CD00040EB000010F4000FA2F10102EDD1B0FAD8
:100CE00080FCACF1080CB2EB0C0200FA0CF0AABFCD
:100CF00000EBC25052421843BCBFD040184370476B
:100D000092F0000F81F4000106BF80F40000013270
:100D1000013BB5E74FEA41037FEA226C18BF7FEA47
:100D2000236C21D092EA030F04D092F0000F08BF89
:100D30000846704790EA010F1CBF0020704712F070
:100D40007F4F04D1400028BF40F00040704712F1AF
:100D500000723CBF00F50000704700F0004343F014
:100D6000FE4040F4000070477FEA226216BF08464A
:100D70007FEA23630146420206BF5FEA412390EA0D
:100D8000010F40F4800070474FF0000304E000BF03
:100D900010F0004348BF40425FEA000C08BF7047B4
:100DA00043F0964301464FF000001CE050EA010278
:100DB00008BF70474FF000030AE000BF50EA01028D
:100DC00008BF704711F0004302D5404261EB41017A
:100DD0005FEA010C02BF84460146002043F0B6439F
:100DE00008BFA3F18053A3F50003BCFA8CF2083AC4
:100DF000A3EBC25310DB01FA02FC634400FA02FCCD
:100E0000C2F12002BCF1004F20FA02F243EB0200D3
:100E100008BF20F00100704702F1200201FA02FC35
:100E2000C2F1200250EA4C0021FA02F243EB020028
:100E300008BF20EADC7070474FF0FF0C1CEAD0526C
:100E40001EBF1CEAD15392EA0C0F93EA0C0F6FD02D
:100E50001A4480EA010C400218BF5FEA41211ED00B
:100E60004FF0006343EA501043EA5111A0FB0131F7
:100E70000CF00040B1F5000F3EBF490041EAD371CC
:100E80005B0040EA010062F17F02FD2A1DD8B3F148
:100E9000004F40EBC25008BF20F00100704790F0B7
:100EA000000F0CF0004C08BF49024CEA502040EA09
:100EB00051207F3AC2BFD2F1FF0340EAC2507047CF
:100EC00040F400004FF00003013A5DDC12F1190F0D
:100ED000DCBF00F000407047C2F10002410021FA7F
:100EE00002F1C2F1200200FA02FC5FEA310040F197
:100EF000000053EA4C0308BF20EADC70704792F010
:100F0000000F00F0004C02BF400010F4000F013A47
:100F1000F9D040EA0C0093F0000F01F0004C02BF42
:100F2000490011F4000F013BF9D041EA0C018FE7B1
:100F30000CEAD15392EA0C0F18BF93EA0C0F0AD0B7
:100F400030F0004C18BF31F0004CD8D180EA0100DD
:100F500000F00040704790F0000F17BF90F0004F76
:100F6000084691F0000F91F0004F14D092EA0C0F58
:100F700001D142020FD193EA0C0F03D14B0218BFEB
:100F8000084608D180EA010000F0004040F0FE4031
:100F900040F40000704740F0FE4040F440007047CD
:100FA0004FF0FF0C1CEAD0521EBF1CEAD15392EA4C
:100FB0000C0F93EA0C0F69D0A2EB030280EA010C3C
:100FC00049024FEA402037D04FF0805343EA1111D5
:100FD00043EA10130CF000408B4238BF5B0042F133
:100FE0007D024FF4000C8B4224BF5B1A40EA0C00D8
:100FF000B3EB510F24BFA3EB510340EA5C00B3EB0A
:10100000910F24BFA3EB910340EA9C00B3EBD10FF7
:1010100024BFA3EBD10340EADC001B0118BF5FEA49
:101020001C1CE0D1FD2A3FF650AF8B4240EBC25072
:1010300008BF20F0010070470CF0004C4CEA502033
:101040007F32C2BFD2F1FF0340EAC250704740F482
:1010500000004FF00003013A37E792F0000F00F074
:10106000004C02BF400010F4000F013AF9D040EAF2
:101070000C0093F0000F01F0004C02BF490011F486
:10108000000F013BF9D041EA0C0195E70CEAD1537E
:1010900092EA0C0F08D142027FF47DAF93EA0C0F65
:1010A0007FF470AF084676E793EA0C0F04D14B0249
:1010B0003FF44CAF08466EE730F0004C18BF31F0FB
:1010C000004CCAD130F000427FF45CAF31F00043F5
:1010D0007FF43CAF5FE700BF4FF0FF3C06E000BF8E
:1010E0004FF0010C02E000BF4FF0010C4DF804CDB1
:1010F0004FEA40024FEA41037FEA226C18BF7FEAC1
:10110000236C11D001B052EA530C18BF90EA010FC2
:1011100058BFB2EB030088BFC81738BF6FEAE17051
:1011200018BF40F0010070477FEA226C02D15FEAED
:10113000402C05D17FEA236CE4D15FEA412CE1D059
:101140005DF8040B704700BF844608466146FFE720
:101150000FB5FFF7C9FF002848BF10F1000F0FBD02
:101160004DF808EDFFF7F4FF0CBF012000205DF8FB
:1011700008FB00BF4DF808EDFFF7EAFF34BF012080
:1011800000205DF808FB00BF4DF808EDFFF7E0FF19
:1011900094BF012000205DF808FB00BF4DF808ED6A
:1011A000FFF7D2FF94BF012000205DF808FB00BFCD
:1011B0004DF808EDFFF7C8FF34BF012000205DF8AF
:1011C00008FB00BF4FEA4002B2F1FE4F0FD34FF0D1
:1011D0009E03B3EB12620DD94FEA002343F00043A4
:1011E00010F0004F23FA02F018BF404270474FF052
:1011F0000000704712F1610F01D1420205D110F0D9
:10120000004008BF6FF0004070474FF0000070478B
:1012100042000ED2B2F1FE4F0BD34FF09E03B3EB60
:10122000126209D44FEA002343F0004323FA02F08C
:1012300070474FF00000704712F1610F01D1420278
:1012400002D14FF0FF3070474FF00000704700BFF1
:10125000D0B500220D4B06460F46FFF7ADF9FFF75C
:101260006DFC0446FFF72EF90022094BFFF7A4F9A5
:1012700002460B4630463946FEF7E6FFFFF75EFCB6
:101280000022234610431946D0BD00BF0000F03DA8
:101290000000F041054B194411F8011C435823F498
:1012A000804323F010031A434250704738E000088F
:1012B000044B194411F8011C435823F020031A432E
:1012C0004250704738E00008044B194411F8011CE3
:1012D000435823F440731A434250704738E00008E3
:1012E000044B194411F8011C435823F440631A437A
:1012F0004250704738E00008044B194411F8011CB3
:10130000435823F440531A434250704738E00008D2
:10131000054B82B0DA690243DA61DB69184001905B
:10132000019B02B0704700BF00100240054B82B025
:101330009A6902439A619B6918400190019B02B02F
:10134000704700BF0010024030B54FF4407393FA6D
:10135000A3F34FF40074B3FA83F31F25DC402C3061
:1013600050F8243001F01F018D4002F01F0223EAE3
:1013700005038A401A4340F8242030BD044B194429
:1013800011F8012C835843F080038350704700BF4D
:1013900038E00008044B194411F8012C835823F05D
:1013A00040038350704700BF38E0000830B54FF06D
:1013B000007393FAA3F3B3FA83F301F0007222FAF5
:1013C00003F30C3050F823204FF0F87494FAA4F58E
:1013D000B5FA85F52140E940072505FA01F122EA31
:1013E000010194FAA4F440F8231030BD254B10B548
:1013F0001A6822F0070242F002021A601A6802F02C
:101400000702022AFAD1204C236843F48033236078
:1014100023689A03FCD5636823F47C1343F4E81330
:101420006360236843F08073236023689B01FCD5CD
:10143000636823F0F0036360636823F4E06343F4BC
:1014400080636360636823F460536360636823F0C0
:10145000030343F002036360636803F00C03082B8B
:10146000FAD10A4802F026FC0F2000F0C9FC63689C
:1014700023F4404343F400436360636823F4800330
:10148000636010BD002002400010024000A24A0428
:101490002DE9F04F9DB072B614274FF4005600248A
:1014A0004FF001084FF002094FF0200A00F0CCFC89
:1014B000FFF79CFF3A46002114A80BF057F81020C4
:1014C000FFF734FF2020FFF731FF0420FFF72EFF46
:1014D0000820FFF72BFFDA48DA4B066114A9CDE9A3
:1014E0001438CDE9169401F0EBFBD74B21465A692D
:1014F00004A842EA08025A615A69D44D02EA080275
:101500000392039A5A69DFF868B342EA09025A6102
:101510005B693A4603EA09030293029B0BF026F843
:101520005246214614A80BF021F8214618220EA895
:101530000BF01CF83A46214609A80BF017F84FF4B7
:101540000060FFF7F3FE0420FFF7F0FE0423C04A1B
:1015500009A9C048CDE9092301F0B2FB284622467B
:101560004946FFF797FE32464946FFF7C5FE224639
:101570004946FFF79DFE4946FFF70CFF4946FFF736
:10158000FDFE49464FF48072FFF79EFE49464FF438
:101590008062FFF7A5FE22460321FFF77BFE32465D
:1015A0000321FFF7A9FE22460321FFF781FE032155
:1015B000FFF7F0FE0321FFF7E1FE4FF480720321F5
:1015C000FFF782FE4FF480620321FFF789FE4FF69A
:1015D000FF7304A95846CDE90634ADF810400594D0
:1015E000089401F047FCDBF8003014AA23F08003D4
:1015F000CBF80030DBF808304FF4807123F48043DF
:1016000023F00703CBF808305846CDE91444CDE960
:101610001644CDE91844CDE91A4401F077FC8E4A0E
:101620000EA95368584623F004035360DBF80430D6
:1016300023F07003CBF80430DBF8083023F080038C
:10164000CBF80830DBF8183023F0030343EA080333
:10165000CBF81830DBF8183023F00C03CBF8183037
:10166000DBF8183023F0F003CBF81830DBF820302B
:1016700023F00A03CBF82030DBF8183023F4407352
:1016800043F40073CBF81830DBF8183023F44063D0
:10169000CBF81830DBF8183023F47043CBF818304F
:1016A000DBF8203023F0A003CBF82030CDE9126422
:1016B000CDE90E4410948DF84440ADF8464001F059
:1016C000FDFC21461C2214A80AF050FF3A46214690
:1016D0000EA80AF04BFF4FF48040FFF727FE0420CE
:1016E000FFF724FE09234FF0030B5C495948CDE96D
:1016F0000E130EA9CDE910B401F0E2FA0423584804
:101700000EA9CDE90E03534801F0DAFA4FF4E133A4
:10171000CDE914340C23534E14A93046CDE91834C6
:10172000CDE916441A9401F0E3FC33693A4623F4F8
:10173000904333617369214623F02A037361F36890
:101740000EA843F40053F360CDE9094404940AF071
:101750000DFF3A46214614A80AF008FF4FF4007026
:10176000FFF7E4FD0420FFF7E1FD40F2033314A985
:101770003848CDE9143401F0A3FA28462246414600
:10178000FFF788FD41464FF44052FFF7B5FD524642
:101790004146FFF78DFD4146FFF7FCFD4146FFF74F
:1017A000EDFD41464FF48072FFF78EFD4FF48062ED
:1017B0004146FFF795FD4FF48073A6F5A05609A9A1
:1017C00030460A93099401F0C7F904A930460494FD
:1017D00001F0A2F94FF4602C4FF40013CDE90EC3D1
:1017E0004FF480730EA930461293CDE9104401F0F6
:1017F000C8F973681C4A23F4400323F4077323F0E9
:10180000030343F4000343F400737360736A3046C8
:1018100023F47F6323F00F03736253684FF4007166
:1018200023F47F6323F00F035360736823F04003B6
:1018300073600E4B1A460193FFF786FD1AE000BF56
:10184000001001402000200400100240000002406F
:101850000100010400080140182C014002000204AC
:101860000400040400380140242401401100508188
:10187000002C0140019B30461946FFF797FDB368E5
:101880004FF0007243F40003B360304640F205218C
:10189000FFF75AFD30464FF00071FFF787FDD44B3C
:1018A00030461A4640F20A210193FFF74DFD019B95
:1018B00030461946FFF77AFD214610220EA80AF09D
:1018C00055FE3A46214614A80AF050FE4FF000504B
:1018D000FFF71EFD0420FFF729FD41F2100314A9B4
:1018E00006F56046C348CDE9143401F0E9F9304605
:1018F00059461022FFF7CEFC59464FF48052FFF7AD
:10190000FBFC52465946FFF7D3FC5946FFF742FD10
:101910005946FFF733FD59464FF40072FFF7D4FCE8
:101920005946DFF8E4B24FF40062FFF7D9FC0EAA83
:10193000B1495846CDE90E44119401F044F9DBF861
:1019400000303A4643F00403CBF80030214609A8A2
:101950000AF00CFE5246214614A80AF007FE3A4649
:1019600021460EA80AF002FE4046FFF7D1FC4FF4D4
:101970007A734FF0804B09A94FF080400B9301938D
:10198000ADF824400A940C9401F074FA6023DBF85B
:101990000020414622F08002CBF80020DBF808202E
:1019A000584622F4804222F00702CBF80820DBF8E8
:1019B000182042F00802CBF8182014AACDE91434FC
:1019C000CDE91644189401F0A1FADBF818200420A0
:1019D00042F00402CBF81820DBF8042022F0700259
:1019E00042F01002CBF80420DBF8082042F080021D
:1019F000CBF80820FFF79AFC09234FF0480B7F4AE9
:101A00000EA97C48CDE90E23CDE9109401F058F9D8
:101A10007B490EA84A6822F0E06222F4407242F04C
:101A2000E06242F480724A603A4621460AF09EFD26
:101A30005246214614A80AF099FD4846FFF768FC73
:101A4000284622460621FFF725FC4FF44052062186
:101A5000FFF752FC52460621FFF72AFC0621FFF74A
:101A600099FC0621FFF78AFC22460621FFF72CFC91
:101A700022460621A5F5FE35FFF732FC019B2846DC
:101A80000EA9ADF838300F94CDE910B401F0F2F999
:101A90002A68284642F080022A60AA68414622F459
:101AA000804222F00702AA6014AACDE91444CDE9CD
:101AB0001644189401F02AFAAA69214622F0040279
:101AC000AA616A6809A822F070026A60AA6822F016
:101AD0008002AA603A460AF049FD5246214614A8FF
:101AE0000AF044FD3A4621460EA80AF03FFD0420C4
:101AF000FFF70EFC05F58065019B284609A9ADF8A6
:101B00002430CDE90A4B0C9401F0B4F92B68284637
:101B100043F080032B60AB6814AA23F4804323F0C6
:101B20000703AB60AB69414643F00803AB61602338
:101B3000CDE91644CDE91434189401F0E7F9AB6906
:101B4000082043F00403AB61AB6823F0700343F05B
:101B50001003AB60AB6823F0070343F00603AB60F0
:101B6000EB6823F04003EB60EB6823F48043EB6009
:101B70006B6823F0700343EA0A036B60AB6823F0E1
:101B80008003AB60FFF7D2FB44F2400E09230EA99D
:101B90001C48CDE90EE3CDE9109401F091F83A46E6
:101BA000214614A80AF0E2FC1020FFF7B1FB4FF623
:101BB000FF7305F5006514A928461693ADF850404B
:101BC000159401F057F92B683A4623F080032B60F7
:101BD0006B68214623F0700343EA0A036B60AB682D
:101BE00014A823F08003AB60CDE90E440EE000BFE3
:101BF0000100300200080140010010028000800452
:101C000000000140000C0140007400400AF0AEFCEE
:101C10004FF40040FFF78AFB0420FFF787FB40F6F4
:101C20000C4314A93248CDE9143401F049F8304688
:101C300022460521FFF72EFB4FF440520521FFF706
:101C40005BFB52460521FFF733FB0521FFF7A2FBA3
:101C50000521FFF793FB4FF480720521FFF734FB5A
:101C60004FF480620521FFF73BFB4FF4807305F5CD
:101C700096350EA928460F930E9400F06DFF6A6802
:101C80001C4B22F4400222F4077222F00302134399
:101C90006B606B6A184A23F47F6323F00F036B6257
:101CA0005368164E23F47F6323F00F0353606B6871
:101CB000324623F040036B6028464FF40071FFF773
:101CC00043FB31460E4E2846FFF770FB324628464E
:101CD00040F20521FFF738FB28463146FFF766FB47
:101CE00002F0FEFC03F0D4F820461DB0BDE8F08FF2
:101CF0000008014002028000243C01400200600212
:101D00000300900270470000114B07B59A690F213C
:101D100042F001029A619A696FF0010002F001023B
:101D20000092009ADA6942F08052DA61DB6900229F
:101D300003F080530193019B00F0B6F8054A536805
:101D400023F0E06343F00073536003B05DF804FBDD
:101D500000100240000001407047FEE7FEE7FEE78A
:101D6000FEE77047014800F09DB900BF0CE9002074
:101D70000B4B10B51968024609B90A491960186871
:101D800009490A4C0244091B8A4206D90AF07CFB25
:101D90000C2303604FF0FF3010BD1A60FCE700BF5A
:101DA0009C03002018F80020000001200003000020
:101DB00070470000002103E00B4B5B584350043197
:101DC0000A480B4B42189A42F6D30A4A02E0002313
:101DD00042F8043B084B9A42F9D3FFF7E9FF0AF0B7
:101DE00059FBFFF755FB704720EE0008000000206C
:101DF0007C0300208003002018F80020FEE700008C
:101E000038B50E4B054618784FF47A73B3FBF0F3F0
:101E10000B4A1068B0FBF3F000F088F8044658B99C
:101E20000F2D09D8024629464FF0FF3000F03CF84C
:101E30002046044B1D6038BD0120FCE70400002053
:101E40000000002008000020074A08B5136803209E
:101E500043F01003136000F015F80F20FFF7D0FFD8
:101E6000FFF752FF002008BD00200240034A044B48
:101E700011681B780B441360704700BF34080020C2
:101E800004000020074A0002D36800F4E06023F455
:101E9000E0631B041B0C43F0BF6343F400330343B4
:101EA000D360704700ED00E0174B70B5DC684FF071
:101EB000FF36C4F30224C4F10705042D04F1040322
:101EC00028BF0425062B98BF002406FA05F388BF17
:101ED000033C21EA0303A34006FA04F422EA0404C3
:101EE000002843EA0403A8BF00F160404FEA03134F
:101EF000B8BF064ADBB2ABBF00F5614000F00F008F
:101F000080F80033135470BD00ED00E014ED00E0E4
:101F1000002808DB0123420900F01F0003FA00F04B
:101F2000014B43F82200704700E100E00138B0F1B6
:101F3000807F0AD2F021064B064A586082F82310AF
:101F40000020072298601A6070470120704700BF88
:101F500010E000E000ED00E0F0B5044687B010B3FB
:101F600090F8A93203F0FF021BB980F8A82202F012
:101F700009FD254603236E4655F8100B84F8A93257
:101F800001F020F90FCD0FC62B6825463360271DC1
:101F900097E80E0055F8100B01F004F9064620B141
:101FA000022384F8A93201254BE00146206801F0A4
:101FB00013F930464FF0010E28260146D4F804C02C
:101FC000C2B2944500F1010018D800232826194612
:101FD000D8B2844503F101031DD80FCD6E460FC65C
:101FE0002B68336097E80E00206801F0F7F80123B2
:101FF0000546F8B1022284F8A922D4E706FB024381
:1020000083F829E083F82820DA8683F82B10C3E9C7
:102010000E111964D4E706FB004282F8691182F8B8
:10202000680182F86B11C2F87811C2F87C11C2F80D
:102030008011CDE784F8240084F8A932206801F0EB
:102040004CFB284607B0F0BD38B590F8A8320446DE
:10205000012B10D0012580F8A852006801F0A9F8E2
:102060002946204602F0BFFD206801F034FB002025
:1020700084F8A80238BD0220FCE790F8A82210B529
:10208000012A04460BD0012280F8A82284F82410EB
:10209000006801F01AFB002084F8A80210BD02209D
:1020A000FCE700002DE9F04F044685B0006801F020
:1020B00016FB020409D5DFF82898DFF82888206885
:1020C000B0F844301B0400F1BC80206801F007FB2D
:1020D00043050FD522682046B2F8443023F48063CC
:1020E0001B041B0CA2F8443002F087FC00212046A0
:1020F000FFF7C3FF206801F0F2FA470408D5226811
:10210000B2F8443023F480431B041B0CA2F8443083
:10211000206801F0E4FA860408D52268B2F8443059
:1021200023F400531B041B0CA2F84430206801F078
:10213000D6FAC5041CD522682046B2F8403023F0F8
:1021400004031B041B0CA2F84030B2F8403023F00B
:1021500008031B041B0CA2F8403002F071FC22683B
:10216000B2F8443023F480531B041B0CA2F8443013
:10217000206801F0B4FA000541D50022236833F845
:1021800022102DF812100132082AF8D1B3F840209D
:1021900042F00102A3F84020B3F8402022F00102EF
:1021A0001204120CA3F84020B3F844205105FBD5CB
:1021B000B3F8442022F480621204120CA3F84420E5
:1021C00000223DF8121023F822100132082AF8D11B
:1021D000B3F84020204642F00802A3F84020B3F8AC
:1021E000442022F400621204120CA3F84420B3F835
:1021F000402042F00402A3F8402002F011FC2068C5
:1022000001F06DFA82050BD522682046B2F8443001
:1022100023F400731B041B0CA2F8443002F0E9FB0A
:10222000206801F05CFAC30508D52268B2F8443092
:1022300023F480731B041B0CA2F8443005B0BDE8E6
:10224000F08FB0F8441089B211F00F0640F0B18061
:1022500011F0100103882AD109EA030343F4004373
:102260000380B0F8503094F8282003EBC20300EB51
:102270004300B0F80434E26BC3F30903636413440E
:10228000E363204602F0ADFB94F82430002B3FF4CA
:1022900016AF226C002A7FF412AF94F82430216824
:1022A00043F08003A1F84C3084F8242007E79BB268
:1022B00013F4006520D0B0F8503094F8682104F58C
:1022C0002C7103EBC20300EB4303B3F80C34B4F8F6
:1022D0006E21C3F30903C4F8843101F0C1FC226804
:1022E0002046138823F070031B051B0D43F0800369
:1022F000138002F067FBE2E61F047FF5E0AE03887F
:1023000023F070031B051B0D43F080030380B0F81E
:10231000503094F8682103EBC20300EB4303B3F899
:102320000C34C3F30903C4F884318BB1D4F87C11A5
:1023300071B1B4F86E2101F093FCD4F87C31D4F87B
:10234000842129461344C4F87C31204602F040FB26
:102350002168D4F87851B1F8503001F20C409BB2AA
:10236000BDB9C25A22F4F8421204120CC252C25A27
:1023700048EA020292B2C2520B8823F4804323F04F
:10238000700383F4405343F4004343F080030B8015
:1023900095E63E2D05D86A08EE0748BF0132920245
:1023A000E8E76A09ED0608BF02F1FF3248EA822237
:1023B000E0E730F82670BFB2390440F1F2802821FE
:1023C00030F8263001FB064123F070031B051B0D7E
:1023D00043F0800320F8263091F8743100F5806CCA
:1023E000ABB9B0F8503091F86821063303EBC20363
:1023F0003CF81350C5F30905002D00F0B6802B46BC
:10240000B1F86E21D1F87C1101F02AFCADE091F811
:102410006B3191F86821022B40F0898017F4804AD3
:102420004FEAC205D1F8803107F0400E3ED0B0F837
:1024300050A0554402353CF81550C5F309059D429E
:102440008CBF00235B1BC1F88031282303FB0643AC
:10245000D3F880316BB930F8223023F4804323F075
:10246000700383F4005343F4004343F0800320F8E7
:102470002230BEF1000F10D0282303FB064393F84F
:10248000682130F8223023F0F0031B051B0D43F4C4
:10249000004343F0C00320F82230002D65D02821EE
:1024A00001FB06412B46B1F87021ABE7B0F850B004
:1024B0005D4406353CF81550C5F309059D429CBFA7
:1024C0005B1BC1F880314FF0280303FB064388BF34
:1024D000C1F880A1D3F880316BB930F8223023F4F1
:1024E000804323F0700383F4005343F4004343F02C
:1024F000800320F82230BEF1000F10D1282303FB07
:10250000064393F8682130F8223023F0F0031B05CE
:102510001B0D43F4004343F0C00320F8223025B3E1
:10252000282101FB06412B46B1F872216AE730F8F9
:10253000223023F0F0031B051B0D43F4004343F04E
:10254000C00320F8223091F8683130F82320DB00F6
:1025500012F4804FB0F850205ED0023213443CF8A1
:102560001350C5F30905002D9CD128217143631830
:10257000D3F884212A44C3F88421D3F87C212A4447
:10258000C3F87C21D3F880211AB1D3F878319D4269
:102590004BD2282303FB0643204693F8681102F030
:1025A00017FA3A067FF58BAD2825206805FB06450E
:1025B00030F8263000F5806209EA030343F4004353
:1025C00020F8263095F82B3095F82810022B01D1F1
:1025D000FB053DD42823B0F850E003FB064C0EF178
:1025E000020E0EEBC10132F81120DCF84070C2F38C
:1025F0000902974292BF0021BF1ACCF8407003FB3A
:10260000064798BFCCF84010396CA9B995F8281046
:10261000204602F0E6F952E5063213443CF8135026
:10262000C5F30905002DA0D07DE701F5B471214463
:10263000206801F069F8B4E7F96B06FB0333114435
:10264000F963796C0A447A64E11801F05DF836E5C3
:1026500017F0400E4FEAC10C2B6C07F4804700F0D6
:102660009E80B0F850E0BFB2F4440CF1020C32F896
:102670001CC0CCF3090C9C452CBF0023A3EB0C031E
:102680002B64282303FB06431B6CABB9204602F0E6
:10269000A8F9002F00F0A18095F82810226832F8E0
:1026A000213023F0F0031B051B0D43F4404343F09E
:1026B000800322F8213090E05FB130F8213023F020
:1026C000F0031B051B0D43F4404343F0800320F847
:1026D0002130282303FB064393F84C20012A7CD1A8
:1026E0005A6CD96B62445A649F6C9A6B61449742EE
:1026F000D96325D3BF1A9F6495F8297093B2002F30
:1027000041D1B0F8507000F2044CBC4495F82870E8
:102710003F0102BB3CF8072022F4F8421204120CDD
:102720002CF807203CF8072048EA020292B22CF865
:102730000720282202FB0646328E00F0D5FF4CE02F
:102740001FB983F84C706246D6E7002283F84C200C
:102750009A643A46D0E73E2A0CD84FEA520ED20786
:1027600048BF0EF1010E4FEA8E2E1FFA8EFE2CF896
:1027700007E0DEE74FEA521ED20608BF0EF1FF3E29
:1027800048EA8E2EF1E7012FD3D1B0F8502000F2A5
:102790000447174495F828201201BB52C9E7B0F846
:1027A00050A0BFB2D4440CF1060C32F81CC0CCF3DC
:1027B000090C9C459CBFA3EB0C032B644FF0280332
:1027C00003FB064388BFC5F840E01B6CBBB920463D
:1027D00002F007F9002F3FF45FAF95F82810226848
:1027E00032F8213023F4E04323F0400383F0300338
:1027F00043F4004343F0800322F821305FE45FB9E3
:1028000030F8213023F0F0031B051B0D43F4404347
:1028100043F0800320F82130282303FB064393F87C
:102820004C20012AD9D15A6CD96B62445A649F6CEE
:102830009A6B61449742D96323D3BF1A9F6495F87A
:10284000297093B2002F3FD1B0F8507000F20C4CB9
:10285000BC4495F828703F01F2B93CF8072022F4F7
:10286000F8421204120C2CF807203CF8072048EA22
:10287000020292B22CF80720282202FB0646728E32
:102880005BE71FB983F84C706246D8E700229A6470
:1028900083F84C203A46D2E73E2A0CD84FEA520E33
:1028A000D20748BF0EF1010E4FEA8E2E1FFA8EFEA0
:1028B0002CF807E0E0E74FEA521ED20608BF0EF1FF
:1028C000FF3E48EA8E2EF1E7012FD5D1B0F8502017
:1028D00000F20C47174495F828201201BB52CBE7B1
:1028E0000F8FFFFF0080FFFF11F0800F70B501F028
:1028F000070504464FF028011CD005FB01110144D7
:10290000012048700A614A780D70CB7002B1CD8108
:10291000022B04BF00230B7194F8A832012B13D0B3
:102920000123206884F8A83200F06CFC002084F8B1
:10293000A80270BD002601FB05F000F5B47120442B
:10294000214480F86961DDE70220F2E711F0800F91
:1029500010B501F0070204464FF0280113D00123FF
:1029600002FB011101444B700A7094F8A832012B4C
:1029700013D00123206884F8A83200F081FD0020E4
:1029800084F8A80210BD01FB02F303F5B471014401
:102990000344002083F86901E6E70220F2E770B5FE
:1029A0002824002601F007014C43051985F8681119
:1029B00004F5B4710144C5F87C21C5F88031C5F82F
:1029C000846185F86961006800F09EFE304670BD44
:1029D000282301F0070103FB0101D1F884017047AE
:1029E00070B5282501F0070105FB01040026C4E9A4
:1029F0000F23012201FB055584F8281084F84C2090
:102A00004119A364666484F82920006800F07CFE04
:102A1000304670BD38B5436801F007059D42044655
:102A200028D811F0800F4FF028031AD005FB03338C
:102A3000C11801234B7001230D708B7094F8A822EC
:102A40009A4219D084F8A832206800F0DFFD25B939
:102A500004F52C71206800F045FE002084F8A802DF
:102A600038BD00224B4303F5B4710344014483F89D
:102A70006921E0E70120F3E70220F1E738B5436878
:102A800001F00F029A42044626D811F0800F01F09F
:102A900007024FF0280115D0012302FB0111014468
:102AA0004B7000250A708D7094F8A832012B15D058
:102AB0000123206884F8A83200F0C4FD284684F879
:102AC000A85238BD01FB02F303F5B471014403447D
:102AD000002083F86901E4E70120F2E70220F0E733
:102AE00010B5282411F0800F1BBF01F0070101FB76
:102AF000044104FB0100401808BF00F5B47099B20E
:102B00001AB90273C180002010BD01221B0C027390
:102B100001814381F7E700000D4B984209BF03F59F
:102B200080630C4B82689B6814BF9B681343DB4334
:102B300003F0010353B142680B6822F470221BB109
:102B400013434360002070474260FBE70120704759
:102B500000240140003C0140836810B513F00103DC
:102B60000DD142684C6822F4807222434260826830
:102B7000096822F400620A438260184610BD0120F1
:102B8000FCE7836810B5DB071BD443684A6823F46D
:102B9000684312B18C6813432343436083680C6815
:102BA00023F4602323F481732343CC68096923430E
:102BB0000B438360C36A23F470031343C362002092
:102BC00010BD0120FCE7012370B501F0100105687C
:102BD00003FA01F4AC431DD0D2E90043D6687BB1BF
:102BE000234340F6FA7492683343056813438B40DD
:102BF00004FA01F125EA010119430160002070BDCA
:102C0000FA2502688D40344322EA050204FA01F1F4
:102C10001143F2E71846F2E702460368007910B55F
:102C200000283DD0002B44D0517901291ED003D378
:102C3000022924D0012008E02049486820EA030046
:102C40004860086818430860002092796AB1022A37
:102C500019D0032A20D0012A2DD1184AD16821EA9F
:102C60000301D16091680B43936010BD134908685C
:102C700020EA03000860486818434860E4E70F4909
:102C800008681843F6E70D4A916821EA030191604C
:102C9000D1680B43D360E8E7084A91681943F6E727
:102CA000DC43064A11682140116053682340536099
:102CB000DBE71846D9E70120D7E700BF0004014051
:102CC0002DE9F04F0C68C4F30F2494FAA4F24FF0EE
:102CD0000F0AB2FA82F24FF0030904274FF0011CE9
:102CE00040F2011E34FA02F302D11846BDE8F08F1B
:102CF0000123934023425ED0072A85BFA2F1080337
:102D00000CFA03F30EFA02F343F08063C5681E0A5F
:102D100096FAA6F8B8FA88F825EA06060D6905FAC3
:102D200008F53543C5604FEA136893FAA3F6B6FA7F
:102D300086F693FAA3FBBBFA8BFBB6000AFA06F5FC
:102D400050F808604FEA8B0B26EA05064D6805FA35
:102D50000BFB46EA0B0640F808604D6825F00805B5
:102D6000012D28D193FAA3F5B5FA85F593FAA3FBC3
:102D7000BBFA8BFBAD0009FA05F526EA05068D685E
:102D80004FEA8B0B05FA0BFB46EA0B0640F808608E
:102D900093FAA3F5B5FA85F593FAA3F3B3FA83F39F
:102DA000AD0007FA05F526EA0505CE689B009E40B2
:102DB0002E4340F80860013294E70000034B044AB8
:102DC0005B68C3F30313D35CD84070470010024024
:102DD0003FE00008034B044A5B68C3F30223D35C63
:102DE000D8407047001002404FE00008034B044AEF
:102DF0005B68C3F3C223D35CD84070470010024025
:102E00004FE00008094B5A6802F4803262B15868FA
:102E1000074AC0F340400130B2FBF0F05B68C3F3F7
:102E200083430233584370470248F7E700100240DB
:102E300000127A0000093D00044B5B6803F00C03AC
:102E4000082B01D1FFF7DEBF014870470010024098
:102E500000127A0008B50146FFF7EEFF0860FFF7A1
:102E6000ADFF4860FFF7B6FF88604868FFF7BEFF18
:102E7000C86008BD244A0368904212D002F500627F
:102E800090420ED0B0F1804F0BD0A2F59832904214
:102E900007D002F58062904203D002F58062904232
:102EA0001DD14A6823F070031343174A904212D091
:102EB00002F5006290420ED0B0F1804F0BD0A2F527
:102EC0009832904207D002F58062904203D002F51A
:102ED0008062904203D1CA6823F4407313430360B5
:102EE0008B68C3620B888362074B984203D003F55B
:102EF0000063984201D10B690363436943F0010306
:102F000043610020704700BF002C0140102930B5FC
:102F100066D003D801292FD0012060E0B1F5807F71
:102F200000F09480B1F5805FF6D1036A156823F450
:102F300080530362036A4468C16923F4005321F497
:102F4000E64141EA0521156943EA0533556823F452
:102F5000805343EA0533584DA84203D005F5006578
:102F6000A84204D1956924F4804444EA8514D268C7
:102F70004460C161026430E0036A156823F0010314
:102F80000362036A4168846923F0020324F0730436
:102F90002C4315692B43556823F001032B43464D01
:102FA000A84203D005F50065A84212D1556923F067
:102FB000080343EA8503956823F0040343EA850385
:102FC000956921F480712943D56921F4007141EAA2
:102FD0004501D2684160846142630362002030BDD4
:102FE000036A156823F010030362036A4168846969
:102FF00023F0200324F4E64444EA0524156943EA57
:103000000513556823F0100343EA05132A4DA8421F
:1030100003D005F50065A84213D1556923F080035C
:1030200043EA8513956823F0400343EA85139569C5
:1030300021F4806141EA8501D56921F4006141EA0A
:10304000C501D268416084618263C6E7036A15687E
:1030500023F480730362036A4168C46923F4007334
:1030600024F073042C43156943EA0523556823F4BF
:10307000807343EA0523104DA84203D005F500658F
:10308000A84213D1556923F4006343EA8523956868
:1030900023F4806343EA8523956921F4805141EA52
:1030A0000511D56921F4005141EA4511D26841600A
:1030B000C461C26391E700BF002C01408A680B7BAA
:1030C00013434A6823F4806313430A6823F40063BC
:1030D0001343CA8923F4805313430A6923F400532A
:1030E00013434A6923F44043134343640020704769
:1030F00030B5C36885B09B0404460D4602D5012057
:1031000005B030BD4B68C968C2680B43296922F419
:10311000B0520B4322F00C021343C3600369AA6848
:1031200023F440531343036143696A6923F44073F2
:10313000134343616846FFF78DFE174B9C4219D13C
:1031400003990029DBD02A68002AD8D019234B43E1
:103150009200B3FBF2F36422B3FBF2F102FB1133F2
:103160001B013233B3FBF2F303EB01139BB2A360F9
:103170000020C5E7094B9C4201D10299E1E7084BC9
:103180009C42FAD003F580639C42F6D003F580633D
:103190009C42B4D1F1E700BF003801400044004038
:1031A0000048004084B001A880E80E0004B0002070
:1031B000704700234FF43F42A0F84430A0F840206D
:1031C00018467047B0F8403023F47C535B045B0C26
:1031D000A0F84030002070470020704784B010B540
:1031E00003AC84E80E00BDE810400123A0F8403095
:1031F000002304B0A0F84030A0F84430A0F85030CC
:1032000018467047F0B50C78034630F82420C8788B
:1032100022F4EC4222F07002032803D8DFE800F029
:1032200042494446012048F280052A4323F82420DD
:103230000E78904A33F82640354314402C4323F847
:1032400026400D7B0C78002D40F08280CD884E7892
:103250006D086D0003EB041476B3B3F8506034448A
:10326000A4F800540D7833F82540670608D533F8E4
:103270002540224042F4004242F0C00223F82520BB
:10328000CA780C78012A33F824107B4A02EA01023A
:1032900018BF82F0200242F4004242F0800223F87C
:1032A0002420F0BD42F400720020BCE742F4C0626A
:1032B000FAE742F48062F7E7B3F850200E6914444D
:1032C000A4F808540A78B3F8504003EB0212A4B2F1
:1032D00002F20C4256BB155B25F4F8452D042D0C6B
:1032E0001553155B45F4004515530C7833F824202D
:1032F00057040BD533F8242022F0F0021205120DEA
:1033000042F4404242F0800223F82420097833F846
:10331000212022F4804222F0700282F4405242F4D2
:10332000004242F0800223F82120BAE73E2E06D860
:103330007508F60748BF0135AD02ADB2D4E777098D
:10334000F5064E4D08BF07F1FF3745EA8725F4E73C
:1033500033F82450154045F4014545F0800523F825
:1033600024500C780D89B3F8506003EB04146D08F9
:10337000B6B204F580646D00A5530C784D89B3F89E
:10338000506003EB04146D0804F581646D00B6B25F
:10339000A5534C780D78B4BB33F82540660408D5A6
:1033A00033F82540224042F4404242F0800223F8A4
:1033B00025200C7833F8242055060BD533F824202B
:1033C00022F0F0021205120D42F4004242F0C00257
:1033D00023F8242048F280040D7833F8252022F4C5
:1033E000804222F0700282F44052224323F82520CA
:1033F000097833F8212022F4E04222F040021443FD
:1034000023F821404DE733F82540640408D533F80C
:103410002540224042F4404242F0800223F8252019
:103420000C7833F8242052060BD533F8242022F0F0
:10343000F0021205120D42F4004242F0C00223F8DD
:103440002420CA780C78012A33F824500A4A02EA68
:10345000050218BF82F0200242F4004242F08002CE
:1034600023F82420097833F8212022F0F002920476
:10347000920C54E78F8FFFFFBF8FFFFF0080FFFF8D
:1034800010B50C7B4A780B78BCBBF2B130F8232026
:1034900052060BD530F8232022F0F0021205120D4F
:1034A00042F4004242F0C00220F823200A7830F8AB
:1034B000223023F0C0031B051B0D43F4004343F0EF
:1034C000800320F82230002010BD30F8232054045F
:1034D0000BD530F8232022F0F0021205120D42F431
:1034E000404242F0800220F823200A7830F822304F
:1034F00023F0F0039B049B0CDFE7002A44D130F853
:10350000232052040BD530F8232022F0F0021205BC
:10351000120D42F4404242F0800220F823200A7843
:1035200030F822305C060BD530F8223023F0F0035F
:103530001B051B0D43F4004343F0C00320F8223069
:103540000A7830F8223023F0F0031B051B0D43F4FA
:10355000004343F0C00320F8223048F280020C7888
:1035600030F8243023F4804323F07003134320F811
:103570002430097830F8213023F4E04323F040036D
:103580001A4320F821209EE730F8232052040BD55F
:1035900030F8232022F0F0021205120D42F44042CE
:1035A00042F0800220F823200A7830F822305B06AF
:1035B0000BD530F8223023F0F0031B051B0D43F42C
:1035C000004343F0C00320F822300A7830F822305C
:1035D00023F0F0031B051B0D43F4404343F080032D
:1035E00020F8223048F280020C7830F8243023F49E
:1035F000E04323F04003134320F82430097830F8E7
:10360000213023F4804323F07003B9E74B780A7824
:103610007BB130F8223023F4E04323F0400383F001
:10362000100343F4004343F0800320F822300020CD
:10363000704730F8223023F4804323F0700383F482
:103640008053EEE70B7B23BB4B780A781BB330F833
:1036500022305B060BD530F8223023F0F0031B0537
:103660001B0D43F4004343F0C00320F82230CB7815
:10367000012B0ED00A7830F8223023F4E04323F0F7
:10368000400383F0200343F4004343F0800320F819
:1036900022300020704730F822305B040BD530F820
:1036A000223023F0F0031B051B0D43F4404343F08D
:1036B000800320F822300A7830F8223023F4804347
:1036C00023F0700383F44053DDE711B98023A0F8A1
:1036D0004C30002070470020704700207047B0F841
:1036E000440070470020704700EB4202013302F5AE
:1036F00080625B0802EB83039A4200D1704731F885
:10370000020B22F8040BF7E7F8B50C46497805469A
:103710000129277B40F083812269A669616996426D
:1037200028BF1646EFB9B6B23346E288FFF7DCFF92
:10373000B5F85010227805F2044312010B44D6521A
:10374000227835F8223023F4E04323F0400383F05D
:103750003003002043F4004343F0800325F8223077
:10376000F8BDE3782778022B40F02481236A9A423F
:1037700030F8272022F4F8724FEA02524FEA125230
:1037800080F0078142F4014242F0800220F82720B5
:1037900022789B1B30F82200236210F0400FB3B256
:1037A00060787CD000284DD1B5F8500005F20C4768
:1037B00007441201002E31D1B85A20F4F840000419
:1037C000000CB852B85A40F40040B85262892846FA
:1037D000FFF78AFF226A236961699A4289BF921BB7
:1037E0000023226232466078314498BF23626161CF
:1037F00093B2002848D1B5F85000277805F2044666
:103800003F01064442BBBA5B22F4F8421204120C98
:10381000BA53BA5B42F40042BA5326E03E2E07D8B0
:10382000700816F0010F18BF0130800280B2CCE79B
:103830004FEA561CF006974808BF0CF1FF3C40EADF
:103840008C20F3E70128C1D1B5F8507005F20C4087
:10385000384412018352B9E73E2A0BD85008D207E8
:1038600048BF0130800280B2B85322892846FFF752
:103870003BFF65E75009D206864A08BF00F1FF30DA
:1038800042EA802292B2C7E70128EED1B5F8506033
:10389000207805F20442000132448352E5E7002813
:1038A0004DD1B5F8500005F2044707441201002E2F
:1038B00031D1B85A20F4F8400004000CB852B85A7C
:1038C00040F40040B85222892846FFF70DFF226AD3
:1038D000236961699A4289BF921B002322623246A2
:1038E0006078314498BF2362616193B2002845D16A
:1038F000B5F85000277805F20C463F01064442BB5C
:10390000BA5B22F4F8421204120CBA53BA5B42F4C6
:103910000042BA5326E03E2E07D8700816F0010F79
:1039200018BF0130800280B2CCE74FEA561CF00687
:10393000584808BF0CF1FF3C40EA8C20F3E701280F
:10394000C1D1B5F8507005F20440384412018352D9
:10395000B9E73E2A08D85008D20748BF0130800294
:1039600080B2B853628981E75009D206494A08BF3C
:1039700000F1FF3042EA802292B2CAE70128F1D179
:10398000B5F85060207805F20C42000132448352B1
:10399000E8E742F4004242F0800220F82720B0F825
:1039A0005070267800F204423A4436019BB2B3527A
:1039B00022895CE730F82720B0F8500052064BBF50
:1039C00005F20C4205F2044212181218B3B24FEA83
:1039D00007174BBFD353D353628922892846FFF779
:1039E00083FE6378227863B935F8223023F0F00340
:1039F0001B051B0D43F4004343F0C00325F82230A0
:103A00009EE6012B7FF49CAE35F8223023F0F003C4
:103A10001B051B0D43F4404343F08003EEE7002FEA
:103A20003AD1A269236905F20C419A4292BF13462A
:103A3000D21AA261B0F85020207898BFA761000187
:103A4000114453B9435A23F4F8431B041B0C43524B
:103A5000435A43F40043435208E03E2B10D85A081F
:103A6000DF0748BF0132920292B24252227835F803
:103A7000223023F4804323F0700383F4405368E63C
:103A80005A09DE06034B08BF02F1FF3243EA8223E4
:103A90009BB2E0E70080FFFFE378022B74D199B975
:103AA000B0F8503000F204422178206909011A442C
:103AB00000283AD18B5A23F4F8431B041B0C8B5279
:103AC0008B5A43F400438B5262782378002A50D1FA
:103AD000B5F85020206905F20C4111441B01002863
:103AE00035D1CA5A22F4F8421204120CCA52CA5AE8
:103AF00042F40042CA52E369002BB7D044F24001BD
:103B0000227835F822300B408B4201D0002BADD10A
:103B100035F8223023F0F0031B051B0D43F400435E
:103B200043F0C00325F82230A0E73E2806D843081A
:103B3000C00748BF01339B029BB2C4E74609C706D2
:103B4000464B08BF06F1FF3643EA8623F4E73E28DA
:103B500006D84208C00748BF0132920292B2C9E7B4
:103B60004609C7063D4A08BF06F1FF3642EA8622EB
:103B7000F4E7012ABFD1B5F8501005F20C420A440F
:103B8000218A1B01D152B6E7012B64D1A2692369B6
:103B90009A4295BF0023D21AA361A26198BF13462F
:103BA00089B9B0F85020207805F204410001114491
:103BB000FBB9425A22F4F8421204120C4252425A01
:103BC00042F40042425261782278002937D1B5F898
:103BD000501005F20C4008441201E3B9835A23F453
:103BE000F8431B041B0C8352835A43F40043835253
:103BF0003CE73E2B06D85A08DE0748BF0132920246
:103C000092B2DFE75E09DF06144A08BF06F1FF360D
:103C100042EA8622F4E73E2B07D85908DE0748BF60
:103C20000131890289B2815220E75909DB060B4B29
:103C300008BF01F1FF3143EA81239BB2D7E7012995
:103C40007FF414AFB5F8500005F20C4101441201A5
:103C50009BB28B520AE7012082E500BF0080FFFF84
:103C600000EB4202F0B502F580625D080846174697
:103C70002E46023036B9DB0744BF32F8253001F852
:103C80001530F0BD37F8044B013EA4B200F8024CE9
:103C9000240A00F8014CECE74FF47A73B0FBF3F020
:103CA0000022034B013858609A6005221A60704761
:103CB00010E000E0014B1860704700BF00000020DA
:103CC000D0F8BC3210B56BB1D0F8B84294F800020D
:103CD000FF2807D09B6894F8012221469847FF23CC
:103CE00084F80032002010BD432303800048704751
:103CF00044000020432303800048704788000020D0
:103D00004323038000487047D80000200A23038023
:103D100000487047CC00002038B50546D0F8B842BE
:103D200000F058FFD5F8B832C4F80C024BB1D5F802
:103D3000BC3204F50371DB68D4F804029847002014
:103D400038BD0220FCE7F8B5D0F8B862D6B114232C
:103D500003FB0103DD698DB12827D0F8C04207FBC2
:103D60000142926BB5FBF2F402FB145434B9DC61EE
:103D70002246234600F012FF2046F8BD0020C6F878
:103D80001402FAE70220F8E72DE9F7434FF00008A4
:103D90000A78054612F060040E46D0F8B8728DF825
:103DA0000580ADF8068028D0202C45D1CC884B78F2
:103DB000E4B1120611D5D0F8BC223946D2F80890E9
:103DC00018462246C847F2883946284600F045FC86
:103DD0004446204603B0BDE8F08387F8003287F8F8
:103DE00001422246394600F04DFCF1E7D0F8BC22F2
:103DF000184695682246A847EBE74F780A2F0DD062
:103E00000B2F15D0C7B990F89C32032B14D1022286
:103E10000DF1060100F021FC3C46DAE790F89C32F7
:103E2000032B09D101220DF1050100F016FCD0E7AA
:103E300090F89C32032BCCD03146284600F0E6FBAC
:103E40000224C6E738B504460025812100F05CFE57
:103E50000121E562204600F057FEC4F86C51822132
:103E6000204600F051FED4F8B83225644BB1D4F8A6
:103E7000BC325B689847D4F8B80200F0B3FEC4F8CF
:103E8000B852002038BD037C2DE9F0410446CBBB7D
:103E90004FF4007302228121012500F025FE4FF42A
:103EA0000073E56229460222204600F01DFEC4F898
:103EB0006C510125082303228221204600F014FEC4
:103EC00025644FF4077000F089FE0646C4F8B80276
:103ED00050B30027D4F8BC321B68984794F8108080
:103EE000C6F81472C6F81872B8F1000F13D14FF467
:103EF0000073D6F804222946204600F05DFE4046B5
:103F0000BDE8F081012540230222812100F0ECFD73
:103F1000E5624023C6E74023D6F80422294620461E
:103F200000F04AFE3846EBE72846E9E719B1C0F849
:103F3000BC120020704702207047D0F8B832002031
:103F4000C3F80812C3F810227047D0F8B832002026
:103F5000C3F804127047D0F8B82210B582B1D2F875
:103F60001442012374B9C2F81432D2F810328121FC
:103F70000363D2F808229BB200F010FE204610BD69
:103F80000220FCE71846FAE7D0F8B82210B562B173
:103F9000047CD2F8042234B94FF40073012100F0FC
:103FA0000BFE002010BD4023F8E70220FAE708B519
:103FB00080B1D0F8B43213B10023C0F8B43209B1E3
:103FC000C0F8B0120123027080F89C3200F03CFD72
:103FD000002008BD0220FCE719B1C0F8B41200208F
:103FE00070470220704708B500F070FD002008BD42
:103FF00008B5D0F8B4320BB9022008BD1B68984749
:104000000028FAD0F8E708B5D0F8B4325B689847D2
:10401000002008BD38B500F52A750446284600F092
:10402000E1FA012394F8A812C4F89432B4F8AE323D
:10403000C4F8983201F01F03012B0ED007D3022BD6
:1040400010D001F08001204600F06CFD03E029460D
:10405000204600F0F5F8002038BD2946204600F043
:1040600013FAF8E72946204600F033FAF3E770B573
:104070000546164649BBD0F89432032B1ED1D0F822
:104080006031D0F8642193420BD99B1A9A42C0F850
:1040900060318CBF9AB292B2314600F002FB002030
:1040A00070BDD0F8B4321B6923B190F89C22032A6A
:1040B00000D19847284600F0FCFAF0E7052BEED136
:1040C000C5F8941200F02EFDE9E7D0F8B4329B69F0
:1040D0002BB190F89C22032A01D19847DFE70220F8
:1040E000DEE770B5134604460E46002947D1D0F8E6
:1040F0009422022A3CD1D0E90852954213D9AA1A37
:104100000262194692B200F0B5FA33461A461946D1
:10411000204600F051FD94F8A0320020012B01D17F
:1041200084F8A00270BDC369B3FBF2F502FB15353C
:1041300065B99A420AD8D0F89822934206D22A4604
:1041400000F098FAC4F898522B46DFE7D4F8B4325E
:10415000DB682BB194F89C22032A01D120469847B2
:104160008021204600F0DEFC204600F0ADFAD2E7C8
:1041700032F00403CFD1802100F0D4FCCBE7D0F89B
:10418000B4325B6933B190F89C22032A02D198477C
:104190000020C7E70220C5E7002270B504460125CC
:1041A00040261146402300F09FFC33468021C4F88E
:1041B0005851C4F864610022204600F095FC0021AB
:1041C000D4F8B832A561666284F89C52C4F894129F
:1041D0006160C4F8A41223B1D4F8B43220465B68FD
:1041E0009847002070BD01740020704790F89C3201
:1041F00080F89D32042380F89C320020704790F8AC
:104200009C32042B04BF90F89D3280F89C32002031
:10421000704708B590F89C22032A04D1D0F8B43234
:10422000DB6903B19847002008BD10B50446802122
:1042300000F078FC2046BDE81040002100F072BC80
:1042400037B50B78044603F06003202B0D4612D0DF
:10425000402B10D0002B5BD14B78092B58D8DFE8CE
:1042600013F0E90005015700FE0057008400130019
:104270005700D200A000D4F8B43229469B682046EB
:104280009847002003B030BD0023ADF806304B88BE
:104290001A0A013A062A3BD8DFE802F004202D3A38
:1042A0003A525C00D0F8B0321B680DF10601207C58
:1042B0009847BDF8062052B1EB8843B19A4228BF17
:1042C0001A4601462046ADF8062000F0C6F9EB88F4
:1042D000002BD6D1204600F0ECF9D2E7027CD0F8D2
:1042E000B43232B99B6A0DF106009847022343703D
:1042F000DFE7DB6AF7E7DBB2052B09D8DFE803F07D
:10430000030C1014181CD0F8B0325B68002BCCD111
:104310002046FFF78AFFB4E7D0F8B0329B68F5E794
:10432000D0F8B032DB68F1E7D0F8B0321B69EDE7C6
:10433000D0F8B0325B69E9E7D0F8B0329B69E5E7C5
:10434000037C002BE4D1D0F8B4320DF106005B6B96
:104350009847AEE7037C002BDAD1D0F8B4320DF1E8
:1043600006001B6B98470723C1E78B88002BCFD132
:10437000CB88002BCCD14D887F2DC9D890F89C32AA
:10438000032BC5D0E9B280F89E1200F0F9FB20465D
:1043900000F08FF91DB1022384F89C3271E70123EC
:1043A000FAE78978374D01292970B1D890F89C3205
:1043B000022B08D0032B14D0FFF737FF29782046B3
:1043C000FFF721FE5DE7002984D00121032341602E
:1043D00080F89C322046FFF70BFE02287FF47AAF6C
:1043E00096E731B90223416080F89C32FFF70BFE5B
:1043F00070E7416801293FF46DAFC9B2FFF703FED2
:1044000029786160E6E7CA88012A81D190F89C3258
:10441000002B3FF47DAF022B04D9032B7FF478AF40
:10442000011D03E00146002341F8083F204600F04B
:1044300014F926E790F89C32013B022B3FF668AF57
:10444000CB88022B7FF464AF0123C360D0F8A43281
:104450000BB10323C360022204F10C01E6E74B8891
:10446000012B7FF40EAFC4F8A43233E790F89C32EE
:10447000013B022B3FF64CAF4B88012B7FF401AF81
:104480000023F0E7A003002038B50B78044603F0C2
:104490006003202B0D4602D0402B00D0ABB994F81E
:1044A0009C32013B022B10D82B79012B0DD8D4F86C
:1044B000B43229469B6820469847EB881BB910B94F
:1044C000204600F0F6F8002038BD2046FFF7ADFE8C
:1044D000F9E738B50A78044602F06002202A0B4654
:1044E00014D0402A12D06AB95A788D88012AE9B2CC
:1044F00020D036D3032A05D190F89C22022A27D057
:10450000032A0BD02046FFF790FE05E0D4F8B42232
:104510001946926820469047002038BD5A882AB92B
:104520004A0603D0DB880BB900F0FCFA204600F005
:10453000C0F8F1E790F89C22022A09D0032AE1D1C1
:104540005B88002BE8D14D06F0D000F0F9FAEDE7DA
:104550004B06D7D000F0E6FA8021204600F0E2FAC0
:10456000DAE790F89C32022B18D0032BCAD114231F
:1045700001F00F0215F0800F03FB02021FD09269B9
:10458000002ABFD001F07F0505FB0335054411F07B
:104590007F031FD12B60022229460CE04A06B1D1CD
:1045A0002B064FF000034FF002024CBF00F1140144
:1045B00000F5AA710B60204600F04FF8ACE7D2F886
:1045C0005821002A9ED001F07F0503FB050505F563
:1045D000AA75DCE7204600F0C1FA08B10123D9E74B
:1045E0002860D8E70B7803704B784370CA788B78D3
:1045F00003EB022343804A790B7903EB0223838088
:10460000CA798B7903EB0223C380704710B5044647
:10461000802100F087FA2046BDE81040002100F01C
:1046200081BA30B588B105462B1A15F8014BDBB2BB
:10463000002CF9D101335B0013800B7003234B7006
:104640000223013810F8015F05B930BD5A1CCD5462
:10465000D2B20233DBB28C54F4E71346022210B517
:10466000C0F89422C0E907330A46002100F096FA08
:10467000002010BD08B513460A46002100F08EFA4E
:10468000002008BD1346032210B5C0F89422C0F8DC
:104690005C310A46C0F86031002100F08DFA00203C
:1046A00010BD08B513460A46002100F085FA002027
:1046B00008BD08B50423C0F8943200231A461946F1
:1046C00000F06CFA002008BD08B50523C0F894324C
:1046D00000231A46194600F06FFA002008BD0000BA
:1046E00008B500220E490F48FFF761FC08B1FDF73D
:1046F00009FB0D490B48FFF76FFC08B1FDF702FB02
:104700000A490848FFF712FC08B1FDF7FBFA054813
:10471000FFF769FC18B1BDE80840FDF7F3BA08BD22
:104720002C010020380800200C0000201C01002073
:1047300000207047002070472DE9F743344C0546B0
:1047400094F89C32032B61D100285FD00E68002EB4
:104750005CD029462046FFF7F8FB0028F9D12C4C05
:104760002046FFF711FC0028FAD12A4C94F8943126
:104770001BB1002003B0BDE8F08394F8C930002BD2
:10478000F7D1254FDFF89480DFF894902E44B5429E
:10479000EFD094F8CA202846531CDBB284F8CA3004
:1047A0002978C62BA1544FF000024FF0010188BFB9
:1047B00084F8CA2084F8932184F8C81003780D4443
:1047C0000A2BE4D194F8CA308B42E0D9234413F881
:1047D000023C0D2BDBD184F8C91002A941F8042D4D
:1047E000386806F010FF012804D040F23B1148461B
:1047F00004F02CFD019B002BC9D04FF08053C8F86A
:104800000030BFF34F8FBFF36F8FC0E70220B1E7D7
:104810003808002060E40020BCE3002004ED00E044
:1048200057E0000810B5064C002206492046FFF765
:1048300084FB05492046FFF788FB002010BD00BF20
:104840003808002008E7002040E60020044BD3F899
:10485000B832D3F81402003018BF0120704700BFEF
:104860003808002010B5094C0A46D4F8B832D3F8FD
:10487000143243B901462046FFF75FFB2046BDE8EE
:104880001040FFF768BB012010BD00BF38080020B2
:10489000122301480B80704748010020042301487F
:1048A0000B8070475C010020002370B51E46050F89
:1048B000ECB2092D94BF3034373401F8134001EBCA
:1048C000430401336670DCB2A2424FEA0010EED816
:1048D00070BD00001A2310B50B80094B186808330F
:1048E0001B68C0180AD0074B08221C680649FFF74E
:1048F000DBFF042205492046FFF7D6FF044810BD20
:10490000E8F7FF1FECF7FF1F620100207201002093
:104910006001002010B5044C0A4604482146FFF708
:1049200080FE204610BD00BF0CE7002090E000088C
:1049300010B5044C0A4604482146FFF772FE204693
:1049400010BD00BF0CE70020A0E0000810B5044C2B
:104950000A4604482146FFF764FE204610BD00BF0A
:104960000CE7002077E0000810B5044C0A46044824
:104970002146FFF756FE204610BD00BF0CE7002081
:1049800082E0000807B50E4B02689A4215D103F584
:10499000DA33DA69072142F40002DA61DB690022C6
:1049A00003F4000301931420019BFDF77DFA14200A
:1049B00003B05DF804EBFDF7ABBA03B05DF804FBA0
:1049C000005C004000F52C71D0F8E802FFF722BB34
:1049D000282303FB0103D0F8E802D3F87C21FFF77A
:1049E00046BB282303FB0103D0F8E802DA6BFFF78C
:1049F00078BBD0F8E802FFF70CBC836810B5022B37
:104A0000044601D0FDF77EF9D4F8E8020121FFF752
:104A1000EAFBD4F8E802BDE81040FFF7BDBB000098
:104A200010B50446D0F8E802FFF7E0FBA36923B114
:104A3000024A136943F00603136110BD00ED00E064
:104A4000D0F8E802FFF7DBBB082310B51D4A044687
:104A50001D48C0E90023022383600023C0F8E84218
:104A6000C4F8C002C0E906330362FDF775FA08B165
:104A7000FDF748F9002218231146D4F8C002FEF7CA
:104A80002FF8582300228021D4F8C002FEF728F81E
:104A9000C02300228121D4F8C002FEF721F84FF490
:104AA000887300220121D4F8C002FEF719F84FF4F0
:104AB000807300228221D4F8C002FEF711F8002092
:104AC00010BD00BF005C00400CE9002008B5D0F824
:104AD000C002FDF7B9FA032896BF024B0220185C0A
:104AE00008BD00BFA5E0000810B51C46D0F8C00204
:104AF00013462246FDF7F8FE032896BF014B02201D
:104B0000185C10BDA5E0000808B5D0F8C002FDF79C
:104B10001DFF032896BF024B0220185C08BD00BF92
:104B2000A5E0000808B5D0F8C002FDF773FF032820
:104B300096BF024B0220185C08BD00BFA5E000082C
:104B400008B5D0F8C002FDF799FF032896BF024BC5
:104B50000220185C08BD00BFA5E00008282211F063
:104B6000800FD0F8C0021BBF01F07F0303FB0221BE
:104B700002FB0101091814BF887891F86A01704797
:104B800008B5D0F8C002FDF778FA032896BF024BAB
:104B90000220185C08BD00BFA5E0000808B5D0F8E9
:104BA000C002FDF71DFF032896BF024B0220185CD0
:104BB00008BD00BFA5E0000808B5D0F8C002FDF7A9
:104BC000EEFE032896BF024B0220185C08BD00BF12
:104BD000A5E00008D0F8C002FDF7FABE0048704713
:104BE000A40300207047704780B50D4C237893B123
:104BF0004AF6AA270B4E0C4D0C4C3760296820460C
:104C000003F086FD0A2007F0A7F8002007F0C0F99E
:104C1000074B1860F1E7022007F09EF8E6E700BFB7
:104C2000C405002000300040D8D2002098D30020D6
:104C30007C01002008B5164C23782BB3154C164D7B
:104C400026464FF0FF31206806F03CFD012803D0D6
:104C50008121284604F0FAFA104802F02BFF0023C5
:104C600030681A46194606F007FC012803D0852152
:104C7000284604F0EBFA052007F06EF8002007F054
:104C800087F9074B1860DCE7022007F065F8D3E7E7
:104C9000C4050020F0D30020DAE00008800E0020D8
:104CA0008001002008B51A4C23786BB3194C1A4DBB
:104CB00026464FF0FF31286806F004FD012803D096
:104CC0009621164804F0C2FA4FF0FF31206806F032
:104CD000F9FC012803D09721104804F0B7FA1048D6
:104CE00003F054F9002330681A46194606F0C4FB55
:104CF000012803D09B21094804F0A8FA002007F0FE
:104D000047F9084B1860D4E7022007F025F8CBE7F5
:104D1000C4050020F0D3002008E40020DAE00008F9
:104D2000800E00208401002070B5354803F045FE58
:104D3000344803F0B7FC344C344800F029FA3448C6
:104D400000F062FB204602F01DF80121204602F02F
:104D5000CBFB4CF258432B48E3584FF4FA72032133
:104D600003F0CCFC2B4803F08FFF002000F040FE46
:104D700001303ED0284D01222E46284B244C1A707B
:104D8000274B4FF0FF31186806F09CFC012803D038
:104D9000C721244804F05AFA4FF0FF31286806F082
:104DA00091FC012803D0C8211E4804F04FFA204688
:104DB00000F092FB0128014605D11B4B32221B68F3
:104DC000104803F09BFC002330681A46194684F80B
:104DD000943184F8C93006F04FFB012803D0D0216C
:104DE000104804F033FA002007F0D2F80F4B186097
:104DF000C6E742F2107300BF013BFCD1B5E700BF2C
:104E000010E4002098D30020800E0020480B0020E2
:104E100060E40020F8D30020F0D30020C405002077
:104E2000BCE30020DAE00008D8D20020880100208E
:104E300008B5124C2378E3B1114D124E4FF0FF31FB
:104E4000286806F03FFC012803D0DF210E4804F05B
:104E5000FDF90E4C94F82033002BEFD0204600F0E3
:104E600017FA322006F078FF002007F091F8306042
:104E7000F0E7022006F070FFDCE700BFC405002069
:104E8000FC0A00208C010020DAE00008480B00201A
:104E9000F0B585B072B600245A4E5B4BF2685B4D9C
:104EA00022F4E0621204120C1343F360584BAC601E
:104EB0001868FEF7F1FEF02386F8233003262B68EE
:104EC000224643F002032B6021460096514B0120FD
:104ED00006F08AFA504F22463860214600964F4B22
:104EE000012006F081FA4E4D224628604D4B2146A6
:104EF0000096012006F078FA4B4C4C4920600120C6
:104F000006F06CFB4A4B3A682E46186025461C4654
:104F10001AB95321474804F099F933681BB9542151
:104F2000444804F093F92B681BB95521414804F01B
:104F30008DF923681BB956213E4804F087F93E4B92
:104F4000282202933D4B3E49019303233D480093A1
:104F5000002306F0D5FC18B95921364804F076F93B
:104F6000394B41220293394B394901930123394886
:104F70000093002306F0C4FC18B95A212D4804F010
:104F800065F9354B37220293344B3549019305239C
:104F900034480093002306F0B3FC18B95B21254880
:104FA00004F054F9304B4FF4A07202932F4B304968
:104FB000019302232F480093002306F0A1FC18B9A7
:104FC0005C211C4804F042F92B4B372202932B4BF7
:104FD0002B49019304232B480093002306F090FCF7
:104FE00018B95D21134804F031F962B60122264B4D
:104FF0001A7006F065FD65210E4805B0BDE8F04069
:1050000004F024B900ED00E00003FA0510E000E030
:1050100000000020000B0020BCE30020C0E30020C3
:1050200008E40020A8D30020FC0A0020F8E50020B6
:10503000F0D30020DAE0000830EE00206CF500200C
:10504000A9E00008E94B000814F5002050EC00200E
:10505000ACE00008354C000864EF002088EE00202A
:10506000B7E00008A54C0008BCEF002014F00020B9
:10507000C7E00008294D0008F8EB002054ED00209F
:10508000D5E00008314E0008C40500202DE9FF419D
:105090000025044690F8327329467A1E5342534144
:1050A00080F8333304F5C876A0F830534FF4C87253
:1050B00007F05CFA29464FF4C872304607F056FAFA
:1050C000012F0CBFC8231E234FF480774FF4806854
:1050D000009303952346CDE9017802221749184829
:1050E00003F06EFB94F833331648AB4214BFC82369
:1050F0001E23CDE90285CDE90037032233460F494F
:1051000003F05EFB104BDA6842F00102DA60DD6307
:105110005D6294F833239969AA4214BF0C20284693
:1051200021F00C01014399619A6922F4406242EA3C
:1051300000229A6104B0BDE8F08100BF0000024087
:10514000342C01403C2C0140002C014008B5FFF7F5
:105150009DFF4FF000710C4BDA6842F40072DA6088
:10516000DA6842F48062DA60084A11601A6A42F032
:1051700001021A621A6A42F010021A621A6842F0B8
:1051800001021A6008BD00BF002C014000E100E0F0
:1051900030B40024144D00F54A73C3E900450023E0
:1051A000124A80F82033A0F83233D268C2F30222C8
:1051B000C2F10701141D042928BF0421062C98BF41
:1051C0001A464FF0FF3303FA01F36FEA030388BF77
:1051D000033A03F0040393401B01054ADBB282F853
:1051E000193330BCFFF752BF0000F0BF00ED00E004
:1051F00000E100E030B490F8203380F8322380F8EA
:10520000201373B9012914D100240B4D00F54A7005
:10521000C0E9004530BC09481A461946006806F046
:105220002BB931B9012B04D130BC044B186806F0FE
:1052300049BA30BC704700BF0000F0BFFC0A002034
:1052400009B1FFF783BF4FF000710E4B1A6822F0CF
:1052500001021A601A6A22F001021A621A6A22F026
:1052600010021A62084AC2F88010BFF34F8FBFF3D2
:105270006F8FDA6822F40072DA60DA6822F48062F2
:10528000DA607047002C014000E100E000000000FF
:105290002DE9F843002504462F46FFF757FFDFF8B6
:1052A000DC80D8F80460B7F57A7FB6B203DD0A2057
:1052B00006F052FD0A35B5F5FA6F07F1010701DC7A
:1052C000002EEED100212046FFF7BAFF94F83353A9
:1052D000002D0CBF1E23C8239B1B012B3AD904EBC6
:1052E0004302B4F890015E1EB2F88E3132F8022CFF
:1052F0001B1A9BB220883BB3C0F57F40FF30013BB7
:1053000010449BB2C3EB03431844FBF7DBF8804621
:1053100030468946FBF7D6F802460B4640464946DA
:10532000FBF774FA02460B460FA1D1E90001FBF727
:105330006DFA002265B10E4BFBF73EF904F54A7495
:10534000C4E90001BDE8F8839042FBD2101AD9E706
:10535000084BF1E70022084B04F54A74C4E9002326
:10536000F0E700BFAFF3008000000000882A914101
:10537000000020400000F03F0000F0BF1C00024091
:10538000074A1369DB0707D50649B1F83033013303
:105390009BB2A1F83033D3636FF001031361704700
:1053A000002C0140480B0020012070472DE9F041FE
:1053B00005460024DFF84C8000F1840656F8043BD3
:1053C000EBB1012C19D1D5F8383193F89431002B79
:1053D00014BF0423052305EB8303D3F884703846F8
:1053E000FAF726FF394602462846013405F0C8F888
:1053F000042CE3D10120BDE8F0812346EBE7012234
:105400004146F1E7E7E90008254B10B51860002494
:1054100001238AB080F8934180F8944180F8954147
:1054200080F8C84080F8C94080F8CA4007931D4BF7
:1054300008900693C82305931B4B1C4A04931C4BEE
:105440001C4903931C4B1D4802931D4B01931D4B9C
:1054500000931D4B04F0F2FF1C4AD36843F0200375
:10546000D3601B4BDB68C3F30223C3F10702042A9A
:1054700003F1040128BF0422062988BFDC1E4FF077
:10548000FF339340DB4303F00603A340114A1B01A3
:10549000DBB282F82533202353600AB010BD00BF71
:1054A000B8E3002010F8002048F700209001002009
:1054B000E7E90008B4E1000896E100080CF60020D6
:1054C0009CE1000890E0000850EA00080038014024
:1054D00000ED00E000E100E070B590F89451044662
:1054E000012D11D100F1CB0690F8952131461148DC
:1054F00005F0D2FBC8220021304607F037F8002320
:1055000084F89531284670BD90F8C950012D0ED110
:1055100090F8CA200146074805F0BEFBC8220021CA
:10552000204607F023F8002384F8CA30EAE7002574
:10553000E8E700BF0CF60020F8B590F893310E466E
:10554000012B14460DD10B46114A991BA14201DBD8
:105550002046F8BD13F8011B10680006FCD5516009
:10556000F3E790F8C830012B0FD10A4D97B23946B6
:105570003046FFF777F9012801D1013DF7D1FFF758
:1055800065F90028E4D000BFF9E70024E0E700BF98
:105590000038014040420F00D0F83801FFF7CCBF7F
:1055A00030B50CB29BB00546204604F03DF92246CA
:1055B0000346064901A806F0E1FF01A90246D5F815
:1055C0003801FFF7B9FF00201BB030BD7CE10008B7
:1055D00010B501299CB0044613460CD1094903A813
:1055E00006F0CCFF024603A9D4F83801FFF7A4FF68
:1055F00001201CB010BD009203A80A46024906F023
:10560000BDFFEFE750E1000863E1000808B509229B
:105610000349D0F83801FFF78FFF012008BD00BF14
:105620008CE1000830B5002305460846114689B0D4
:1056300001ACC25C1A550133082BFAD12C230A2283
:105640000DF10D008DF80C3003F09BFE0D2208AB20
:10565000034403F8132C0A22214603F8122C00F10C
:105660000B022846FFF768FF09B030BD274B37B55E
:105670001A68920647D55A68254B93F89411002969
:1056800041D193F8C940002C3DD193F89501D2B295
:10569000411CC9B2184483F89511C62980F8CB2063
:1056A0004FF001014FF000006FF0200588BF83F834
:1056B0009541164C0A2A83F8931183F8C800256097
:1056C00021D193F895218A421DD91A4492F8C92014
:1056D0000D2A18D183F894110E4B02A941F8040D3C
:1056E000186805F090FF012803D02C210A4803F028
:1056F000ADFD019B3BB14FF08052084B1A60BFF3E8
:105700004F8FBFF36F8F03B030BD00BF0038014033
:1057100060E40020BCE30020D0E4000804ED00E0D9
:1057200013B5002301AA6946044605F041F900219A
:105730001D4801F0EFFB01211B4801F0D5FE0121BE
:10574000194801F0E7FB019901291BD1009B1B7847
:10575000532B0ED10022144801F0BEFA002112484A
:1057600001F0C2FE1149204604F020FF012002B0E2
:1057700010BD4C2B06D10A460B48002101F0ACFAB3
:105780000221ECE701220848114601F0A5FA0022A7
:1057900007481146FFF72EFD064803F01AF90648A0
:1057A00003F036FDDEE700BF800E00206EE5000846
:1057B000480B002010E40020F8D3002073B501232B
:1057C00001AA6946054605F0F3F880B3019C052C53
:1057D00010D122461749009806F01DFF10BB00218A
:1057E000154801F081FE1549284604F0DFFE01202E
:1057F00002B070BD042C02D122461149EBE7022C05
:1058000010D1009E22460F49304606F004FF08B929
:105810000121E5E722460C49304606F0FCFE08B9B6
:105820002146DDE76FF0DF01284603F0F9FF4FF076
:10583000FF30DDE766E60008800E00206EE5000818
:105840006CE6000871E6000874E6000808B54CF242
:105850006443064AD35C23B9054904F0A7FE01203E
:1058600008BD012B0CBF03490349F6E7800E002059
:1058700066E6000871E6000874E6000802220321CB
:1058800030B5B3B0CDE9102105460A214FF47A7046
:105890000124CDE90C0109916421CDE9074113A947
:1058A000059112A9CDE90321DFF850E0104A002349
:1058B000CDE9012E4FF4FA604CF25032DFF840C0CF
:1058C0000693CDE90A0C00920A490B4A14A8ADF8D8
:1058D0004830ADF84C30CDE90E3406F04FFE14A937
:1058E0000246284604F04CFE204633B030BD00BFCF
:1058F00049794E002FE6000800350C0000512502C2
:1059000020AA440010B5124BA2B00793114B124AC3
:105910000693124B04460593114BCDE903334CF229
:105920004C43D058FBF74EFC482301930D4B02909B
:1059300000930D4A0D4B0E4909A806F01FFE09A958
:105940000246204604F01CFE012022B010BD00BF1C
:10595000FCE50008FFE50008800E002006E60008D0
:1059600009E6000815E60008D7E50008D1E50008BB
:10597000DEE500084CF25843164A30B5D158164AB5
:105980004EF66023B1FBF2F2144D044605FB0215FE
:1059900095FBF3F34FF47A70114989B001FB03557D
:1059A00095FBF0F00F49DBB201FB0051642591FB40
:1059B000F5F1C0B2C9B2019100900B4903A806F0FD
:1059C000DDFD03A90246204604F0DAFD012009B0FE
:1059D00030BD00BF800E002080EE36008011C9FF70
:1059E000A015FFFF18FCFFFF77E60008000000008D
:1059F0004CF264432DE9F04FA54CC3B0E35C05467F
:105A0000012B40F03D8100220F92002800F0AA8077
:105A10000FA904F0CAFF002200230F9ECDE9102336
:105A2000012ECDE91223CDE91423CDE91623CDE9CA
:105A3000182307D04FF0FF37002E40F095804CF22E
:105A40006043E75003210F46924BE288586880B2CA
:105A5000101A013848BF02F1FF3090FBF7F303EB57
:105A60004303C31A022B05D0013848BF02F1FF30AF
:105A70000139F2D14FF0030E012E90FBFEF707D152
:105A80004CF2604C54F80C30591C75D144F80C7031
:105A900000264CF2164814ABCDE90466039312AB12
:105AA000029310AB019314F808300321009323688C
:105AB00003F0CDFB628A18ABCDE90466029316AB06
:105AC0000396019314F8083078000093E3680221EC
:105AD000013003F0BCFBDDE910896BA1D1E90001C5
