:020000040800F2
:1000000000000120E91B0008891B00088B1B000869
:100010008D1B00088F1B0008911B000800000000CA
:100020000000000000000000000000004D66000815
:10003000931B000800000000516600082D660008B0
:10004000391C0008391C0008391C0008391C00083C
:10005000391C0008391C000891570008FD5700089A
:1000600069580008D558000841590008391C000893
:10007000391C0008391C0008391C0008391C00080C
:10008000391C0008391C000845560008391C0008B6
:10009000391C0008391C0008391C0008391C0008EC
:1000A000391C0008391C0008391C0008391C0008DC
:1000B000391C0008391C0008391C0008391C0008CC
:1000C000391C0008391C0008391C0008391C0008BC
:1000D000391C00088D340008391C0008391C000840
:1000E000391C0008391C0008391C0008391C00089C
:1000F000E9310008391C0008391C0008D1560008F5
:10010000391C00080000000000000000391C000835
:10011000391C0008391C0008391C0008391C00086B
:10012000391C0008391C0008391C0008391C00085B
:10013000391C0008315700080000000000000000D2
:10014000391C0008391C0008391C00080000000098
:10015000000000000000000000000000000000009F
:10016000391C0008391C0008391C0008391C00081B
:10017000391C0008391C0008391C0008391C00080B
:10018000391C0008391C00080000000000000000B5
:04019000391C00080E
:1001A00010B5054C237833B9044B13B10448AFF3B1
:1001B00000800123237010BD100200200000000009
:1001C00064C1000808B5034B1BB103490348AFF3F2
:1001D000008008BD000000001402002064C1000877
:1001E000034613F8012B002AFBD1181A0138704777
:1001F00001F0FF01102A2BDB10F0070F08D010F8D8
:10020000013B013A8B422DD010F0070F42B3F6D1DB
:10021000F0B441EA012141EA014122F007047FF0F4
:1002200000070023F0E80256083C85EA010586EA4B
:10023000010685FA47F5A3FA87F586FA47F6A5FA87
:1002400087F68EB9EED1F0BC01F0FF0102F0070293
:1002500032B110F8013B013A83EA010313B1F8D13E
:100260000020704701387047002D06BF354603381F
:10027000073815F0010F07D1013015F4807F02BF58
:10028000013015F4C03F0130F0BC0138704700BFA9
:1002900081F0004102E000BF83F0004330B54FEA37
:1002A00041044FEA430594EA050F08BF90EA020FA4
:1002B0001FBF54EA000C55EA020C7FEA645C7FEA37
:1002C000655C00F0E2804FEA5454D4EB5555B8BF5A
:1002D0006D420CDD2C4480EA020281EA030382EACB
:1002E000000083EA010180EA020281EA0303362D5D
:1002F00088BF30BD11F0004F4FEA01314FF4801C30
:100300004CEA113102D0404261EB410113F0004F41
:100310004FEA03334CEA133302D0524263EB4303F8
:1003200094EA050F00F0A780A4F10104D5F1200E96
:100330000DDB02FA0EFC22FA05F2801841F10001F1
:1003400003FA0EF2801843FA05F359410EE0A5F1C5
:1003500020050EF1200E012A03FA0EFC28BF4CF0F6
:10036000020C43FA05F3C01851EBE37101F00045AC
:1003700007D54FF0000EDCF1000C7EEB00006EEBB9
:100380000101B1F5801F1BD3B1F5001F0CD3490843
:100390005FEA30004FEA3C0C04F101044FEA44529A
:1003A00012F5800F80F09A80BCF1004F08BF5FEA21
:1003B000500C50F1000041EB045141EA050130BD01
:1003C0005FEA4C0C404141EB010111F4801FA4F1A4
:1003D0000104E9D191F0000F04BF01460020B1FAF9
:1003E00081F308BF2033A3F10B03B3F120020CDA31
:1003F0000C3208DD02F1140CC2F10C0201FA0CF00F
:1004000021FA02F10CE002F11402D8BFC2F1200C73
:1004100001FA02F120FA0CFCDCBF41EA0C01904029
:10042000E41AA2BF01EB0451294330BD6FEA040472
:100430001F3C1CDA0C340EDC04F11404C4F120025D
:1004400020FA04F001FA02F340EA030021FA04F36F
:1004500045EA030130BDC4F10C04C4F1200220FAC6
:1004600002F001FA04F340EA0300294630BD21FA04
:1004700004F0294630BD94F0000F83F4801306BFCA
:1004800081F480110134013D4EE77FEA645C18BFBE
:100490007FEA655C29D094EA050F08BF90EA020F55
:1004A00005D054EA000C04BF1946104630BD91EA4D
:1004B000030F1EBF0021002030BD5FEA545C05D150
:1004C0004000494128BF41F0004130BD14F580048F
:1004D0003CBF01F5801130BD01F0004545F0FE4103
:1004E00041F470014FF0000030BD7FEA645C1ABF38
:1004F000194610467FEA655C1CBF0B46024650EA6F
:10050000013406BF52EA033591EA030F41F400219A
:1005100030BD00BF90F0000F04BF0021704730B520
:100520004FF4806404F132044FF000054FF00001F5
:1005300050E700BF90F0000F04BF0021704730B5B6
:100540004FF4806404F1320410F0004548BF40428B
:100550004FF000013EE700BF42004FEAE2014FEAE0
:1005600031014FEA02701FBF12F07F4393F07F4FBB
:1005700081F06051704732F07F4208BF704793F0BE
:100580007F4F04BF41F40021704730B54FF46074D1
:1005900001F0004521F000411CE700BF50EA0102D4
:1005A00008BF704730B54FF000050AE050EA01027D
:1005B00008BF704730B511F0004502D5404261EBED
:1005C00041014FF4806404F132045FEA915C3FF42E
:1005D000D8AE4FF003025FEADC0C18BF03325FEACB
:1005E000DC0C18BF033202EBDC02C2F1200300FA7C
:1005F00003FC20FA02F001FA03FE40EA0E0021FAA1
:1006000002F11444BDE600BF70B54FF0FF0C4CF48E
:10061000E06C1CEA11541DBF1CEA135594EA0C0F40
:1006200095EA0C0F00F0DEF82C4481EA030621EA7B
:100630004C5123EA4C5350EA013518BF52EA0335B6
:1006400041F4801143F4801338D0A0FB02CE4FF068
:100650000005E1FB02E506F00042E0FB03E54FF098
:100660000006E1FB03569CF0000F18BF4EF0010E90
:10067000A4F1FF04B6F5007F64F5407404D25FEA8C
:100680004E0E6D4146EB060642EAC62141EA55513F
:100690004FEAC52040EA5E504FEACE2EB4F1FD0C81
:1006A00088BFBCF5E06F1ED8BEF1004F08BF5FEAFF
:1006B000500E50F1000041EB045170BD06F00046B1
:1006C00046EA010140EA020081EA0301B4EB5C045E
:1006D000C2BFD4EB0C0541EA045170BD41F4801156
:1006E0004FF0000E013C00F3AB8014F1360FDEBF7B
:1006F000002001F0004170BDC4F10004203C35DA57
:100700000C341BDC04F11404C4F1200500FA05F3D9
:1007100020FA04F001FA05F240EA020001F000427A
:1007200021F0004110EBD37021FA04F642EB0601F0
:100730005EEA430E08BF20EAD37070BDC4F10C041A
:10074000C4F1200500FA04F320FA05F001FA04F2DE
:1007500040EA020001F0004110EBD37041F10001CA
:100760005EEA430E08BF20EAD37070BDC4F12005D5
:1007700000FA05F24EEA020E20FA04F301FA05F23D
:1007800043EA020321FA04F001F0004121FA04F2E5
:1007900020EA020000EBD3705EEA430E08BF20EAB5
:1007A000D37070BD94F0000F0FD101F000464000EF
:1007B00041EB010111F4801F08BF013CF7D041EA71
:1007C000060195F0000F18BF704703F00046520075
:1007D00043EB030313F4801F08BF013DF7D043EA46
:1007E0000603704794EA0C0F0CEA135518BF95EAFC
:1007F0000C0F0CD050EA410618BF52EA4306D1D183
:1008000081EA030101F000414FF0000070BD50EAA1
:10081000410606BF1046194652EA430619D094EA2B
:100820000C0F02D150EA013613D195EA0C0F05D115
:1008300052EA03361CBF104619460AD181EA030169
:1008400001F0004141F0FE4141F470014FF0000021
:1008500070BD41F0FE4141F4780170BD70B54FF0BC
:10086000FF0C4CF4E06C1CEA11541DBF1CEA13553C
:1008700094EA0C0F95EA0C0F00F0A7F8A4EB05041E
:1008800081EA030E52EA03354FEA013100F0888015
:100890004FEA03334FF0805545EA131343EA1263DE
:1008A0004FEA022245EA111545EA10654FEA002693
:1008B0000EF000419D4208BF964244F1FD0404F54C
:1008C000407402D25B084FEA3202B61A65EB0305A8
:1008D0005B084FEA32024FF480104FF4002CB6EB65
:1008E000020E75EB030E22BFB61A754640EA0C00E5
:1008F0005B084FEA3202B6EB020E75EB030E22BF25
:10090000B61A754640EA5C005B084FEA3202B6EB65
:10091000020E75EB030E22BFB61A754640EA9C0024
:100920005B084FEA3202B6EB020E75EB030E22BFF4
:10093000B61A754640EADC0055EA060E18D04FEAB2
:10094000051545EA16754FEA06164FEAC30343EA52
:1009500052734FEAC2025FEA1C1CC0D111F4801F1F
:100960000BD141EA00014FF000004FF0004CB6E718
:1009700011F4801F04BF01430020B4F1FD0C88BFB7
:10098000BCF5E06F3FF6AFAEB5EB030C04BFB6EBC2
:10099000020C5FEA500C50F1000041EB045170BDB5
:1009A0000EF0004E4EEA113114EB5C04C2BFD4EBE2
:1009B0000C0541EA045170BD41F480114FF0000E66
:1009C000013C90E645EA060E8DE60CEA135594EAE2
:1009D0000C0F08BF95EA0C0F3FF43BAF94EA0C0FE5
:1009E0000AD150EA01347FF434AF95EA0C0F7FF45A
:1009F00025AF104619462CE795EA0C0F06D152EAAE
:100A000003353FF4FDAE1046194622E750EA410691
:100A100018BF52EA43067FF4C5AE50EA41047FF4A2
:100A20000DAF52EA43057FF4EBAE12E74FF0FF3C07
:100A300006E000BF4FF0010C02E000BF4FF0010CD8
:100A40004DF804CD4FEA410C7FEA6C5C4FEA430C51
:100A500018BF7FEA6C5C1BD001B050EA410C0CBFA0
:100A600052EA430C91EA030F02BF90EA020F002002
:100A7000704710F1000F91EA030F58BF994208BF69
:100A800090422CBFD8176FEAE37040F00100704726
:100A90004FEA410C7FEA6C5C02D150EA013C07D17D
:100AA0004FEA430C7FEA6C5CD6D152EA033CD3D0C8
:100AB0005DF8040B704700BF8446104662468C46C2
:100AC0001946634600E000BF01B5FFF7B7FF0028F5
:100AD00048BF10F1000F01BD4DF808EDFFF7F4FF1E
:100AE0000CBF012000205DF808FB00BF4DF808EDA9
:100AF000FFF7EAFF34BF012000205DF808FB00BFCC
:100B00004DF808EDFFF7E0FF94BF012000205DF8ED
:100B100008FB00BF4DF808EDFFF7CEFF94BF0120A2
:100B200000205DF808FB00BF4DF808EDFFF7C4FF9B
:100B300034BF012000205DF808FB00BF4FEA4102EE
:100B400012F5001215D211D56FF47873B3EB62521F
:100B500012D94FEAC12343F0004343EA505311F046
:100B6000004F23FA02F018BF404270474FF00000D8
:100B7000704750EA013005D111F0004008BF6FF016
:100B8000004070474FF00000704700BF4A0011D28C
:100B900012F5001211D20DD56FF47873B3EB6252D7
:100BA0000ED44FEAC12343F0004343EA505323FAE3
:100BB00002F070474FF00000704750EA013002D158
:100BC0004FF0FF3070474FF0000070474FEA41028E
:100BD000B2F1E04324BFB3F5001CDCF1FE5C0DD99B
:100BE00001F0004C4FEAC0024CEA5070B2F1004FE5
:100BF00040EB830008BF20F00100704711F0804FE8
:100C000021D113F13872BCBF01F00040704741F4AC
:100C100080114FEA5252C2F11802C2F1200C10FAB0
:100C20000CF320FA02F018BF40F001004FEAC12394
:100C30004FEAD32303FA0CFC40EA0C0023FA02F338
:100C40004FEA4303CCE77FEA625307D150EA01330E
:100C50001EBF4FF0FE4040F44000704701F00040DE
:100C600040F0FE4040F40000704700BFD0B50022C5
:100C70000D4B06460F46FFF7C7FCFFF787FF0446FC
:100C8000FFF748FC0022094BFFF7BEFC02460B466B
:100C900030463946FFF700FBFFF778FF0022234676
:100CA00010431946D0BD00BF0000F03D0000F041E8
:100CB000054B194411F8011C435823F4804323F0D9
:100CC00010031A434250704780C10008044B194476
:100CD00011F8011C435823F020031A434250704777
:100CE00080C10008044B194411F8011C435823F437
:100CF00040731A434250704780C10008044B1944A6
:100D000011F8011C435823F440631A4342507047C2
:100D100080C10008044B194411F8011C435823F406
:100D200040531A434250704780C10008054B5A692E
:100D300002435A615B6982B018400190019B02B086
:100D4000704700BF00100240054BDA690243DA61C8
:100D5000DB6982B018400190019B02B0704700BF70
:100D60000010024010B54FF4407393FAA3F31F2410
:100D7000036B8C40C2F3846223EA040302FA01F19C
:100D80001943016310BD0000044B194411F8012CF4
:100D9000835843F080038350704700BF80C1000830
:100DA000044B194411F8012C835823F0400383505D
:100DB000704700BF80C100084FF0A042936823F045
:100DC00040539360936823F0104323F03F0343F0B4
:100DD0008053936070474FF4401393FAA3F3036A70
:100DE00003F0F02343F07F6343F470230362704702
:100DF0004FF4401393FAA3F3C368044A23F0FB4370
:100E000023F480030A401343C36070470000C07D91
:100E100030B54FF0007393FAA3F301F00072B3FA08
:100E200083F322FA03F314304FF0F87450F82320C0
:100E300094FAA4F5B5FA85F52140E940072505FAAD
:100E400001F122EA010194FAA4F440F8231030BD24
:100E5000304B1A6822F0070242F0020210B51A6005
:100E60001A6802F00702022AFAD12B4C236843F4D5
:100E70008033236023689A03FCD5636823F47613D8
:100E800043F4E8136360E36A23F00F03E36223682B
:100E900043F08073236023689B01FCD5636823F0D3
:100EA000F0036360636823F4E06343F4806363608A
:100EB000636823F460536360636823F0030343F0C3
:100EC00002036360636803F00C03082BFAD1134834
:100ED00001F0BCFD0F2000F0B1FE236B23F00303F3
:100EE0002363236B43F400732363236B23F080732A
:100EF0002363236B23F000732363E36A23F4F87303
:100F000043F48073E362E36A23F4785343F40053B9
:100F1000E36210BD002002400010024000A24A041B
:100F20002DE9F04FA1B000240DF1580A00F0AAFEFF
:100F3000FFF78EFF214618225046CDE90E4410944B
:100F400009F098FB4FF40020FFF7F0FE4FF480000B
:100F5000FFF7ECFE4FF40030FFF7E8FE4FF480207F
:100F6000FFF7E4FE4FF090422023E44993624A6980
:100F7000F02393FAA3F30220B3FA83F322F0F002F2
:100F800000FA03F31343DE484B61C2684FF4005587
:100F900095FAA5F3B3FA83F303265B0006FA03F38D
:100FA00022EA030395FAA5F2C360026895FAA5F355
:100FB000B3FA83F35B0006FA03F322EA030395FA1C
:100FC000A5F2012703604FF002030EA8CDE90E54ED
:100FD0008DF840708DF842308DF8414001F034F8C2
:100FE0000C220223CDE91623514607234FF09040EF
:100FF0001B93CDE918441A9401F0C0F82023514600
:101000004FF09040CDE91637CDE918441A9401F01D
:10101000B5F83846FFF78AFE0220FFF787FE214623
:1010200018220EA8CDE90344059409F023FB2146BC
:10103000102208A809F01EFB18222146504609F08C
:1010400019FB4FF08050FFF771FEDFF8C882DFF820
:10105000C8B2DFF8C8924FF40020FFF767FE514690
:10106000A7481A94CDE9167601F088F84046224642
:101070003946FFF71DFE39464FF44052FFF74AFE4E
:1010800020223946FFF722FE3946FFF789FE39460E
:10109000FFF77AFE39464FF48072FFF723FE4FF4D4
:1010A00080623946FFF72AFE03AB19464FF0A04095
:1010B000CDE90344059400F063FF4FF4A0630E9361
:1010C00001934FF4805313930EAB19464FF0A04099
:1010D0004FF0A045CDE90F74CDE9114600F066FF51
:1010E000FFF76AFE08AB19465846CDE9084400F000
:1010F0001DFFEA68834922F4406242F48062284678
:10110000EA60FFF775FEFFF766FE6A6842F080024C
:101110006A6006217C4AFFF725FE7B49FFF778FECF
:10112000D5F8B02022F48022C5F8B020DBF80820E2
:1011300022F0E07242F480022846CBF808200C210D
:101140004A46FFF70FFE4946FFF762FED5F8B0208A
:10115000DFF8CC9122F04002C5F8B02021461822D9
:101160000EA8CDE908440A9409F084FA1822214611
:10117000504609F07FFA4FF08050FFF7D7FD05F198
:1011800070454FF40020FFF7D1FD05F5013502232E
:1011900051465B481A94CDE9163600F0EFFF284619
:1011A00022463146FFF784FD31464FF44052FFF7A7
:1011B000B1FD20223146FFF789FD3146FFF7F0FDF2
:1011C0003146FFF7E1FD31464FF48072FFF78AFDAB
:1011D00031464FF48062FFF791FD48490A6808AB39
:1011E00042F4807248460A601946CDE908440A94E0
:1011F00000F0C6FE019B1296CDE90E374FF48053E6
:1012000013930EAB48461946CDE9104400F0CEFECC
:10121000FFF7D2FDD9F80C303C4923F4406343F486
:1012200080634846C9F80C30FFF7E2FDFFF7D3FDB5
:10123000D9F80430344A43F08003C9F80430062159
:10124000FFF790FD3049FFF7E3FDD9F8B03023F404
:101250008023C9F8B030DBF8083023F0E07343F4A2
:101260008003CBF80830DFF8BCB048465A460C2162
:10127000FFF778FD5946FFF7CBFDD9F8B030DFF81E
:10128000A8B023F08003C9F8B030214618220EA878
:10129000CDE90344059409F0EDF92146102208A890
:1012A00009F0E8F918222146504609F0E3F94FF019
:1012B0000050FFF73BFD4FF48020FFF737FD51460C
:1012C00013481A94CDE9167600F058FF28462246B6
:1012D0000521FFF7EDFC4FF440520521FFF71AFD01
:1012E00020220521FFF7F2FC0521FFF759FD05211A
:1012F000FFF74AFD4FF4807218E000BF0000014084
:10130000000800480000C4C8000084CB8000C01C56
:101310000004004800000240000300504000201973
:10132000000100508000501D000700500521FFF70C
:10133000D9FC4FF48062052109F54079FFF7DEFC06
:1013400003AB48461946CDE90344059400F018FE66
:101350004FF4D863CDE90E374FF4805313930EAB9F
:1013600048461946CDE91044129600F01FFEFFF7DB
:1013700023FD08AB19465846CDE9084400F0D6FDD8
:10138000D9F80C30E84923F4406343F480634846BD
:10139000C9F80C30FFF72CFDFFF71DFDD9F804301C
:1013A000E24A43F08003C9F804300621FFF7DAFC73
:1013B000DE49FFF72DFDD9F8B03023F48023C9F8BA
:1013C000B030DBF8083023F0E07343F48003CBF84F
:1013D0000830D74B019348461A460C21FFF7C2FC50
:1013E000019B1946FFF714FDD9F8B03023F4805360
:1013F000C9F8B030214618220EA8CDE908440A9455
:1014000009F038F918222146504609F033F94FF017
:101410000050FFF78BFC4FF48020FFF787FC4FF460
:1014200080435146C3481A94CDE9163600F0A6FE13
:10143000284622460421FFF73BFC4FF4405204218A
:10144000FFF768FC20220421FFF740FC0421FFF78E
:10145000A7FC0421FFF798FC4FF480720421FFF7EA
:1014600041FC4FF480620421FFF748FCB24A136844
:1014700009F5807943F48073136008A94846CDE9E3
:1014800008440A9400F07CFD4FF4D863CDE90E3790
:101490000EA94FF4805348461393CDE91044129699
:1014A00000F084FDFFF788FCD9F80C3023F440638A
:1014B00043F48063C9F80C30A04B019319464846A9
:1014C000FFF796FCFFF787FCD9F8042042F0800272
:1014D000C9F804200621954AFFF744FC9349FFF719
:1014E00097FCD9F8B020019B22F48022C9F8B020E3
:1014F000DBF8082022F0E07242F480024846CBF884
:1015000008200C211A46FFF72DFC019BDFF830B2B2
:101510001946FFF77DFCD9F8B03023F01003C9F865
:10152000B030214614220EA809F0A4F8214620224A
:10153000504609F09FF80220FFF706FC404622467D
:101540000621FFF7B5FB4FF440520621FFF7E2FBFF
:1015500020220621FFF7BAFB0621FFF721FC062116
:10156000DFF8E091FFF710FC4FF480720621FFF7DF
:10157000B9FB4FF480620621FFF7C0FB4FF47A738A
:1015800048220EA94846ADF838300193CDE9102421
:101590000F9400F09FFFD9F8002042F08002C9F8B4
:1015A0000020D9F8082022F4A03222F00702C9F85E
:1015B0000820394652464846CDE91644CDE918443C
:1015C0001A9400F0EFFFD9F8182022F00402C9F8AD
:1015D0001820D9F8042022F0700242F02002C9F845
:1015E0000420D9F8082022F08002C9F808202146FA
:1015F000142208A809F03EF821462022504609F09E
:1016000039F8182221460EA809F034F838464FF070
:101610008049FFF799FB019BADF8204008A94FF0E6
:101620008040CDE90A34099400F054FFD9F8002035
:1016300022F08002C9F80020D9F8082022F4A03254
:1016400022F00702C9F80820DBF804201A9442F0BF
:10165000080248466023CBF804204FF480715246BC
:10166000CDE91634CDE9184400F09CFFDBF80420E6
:1016700042F00402CBF80420D9F8042022F07002D2
:1016800042F01002C9F80420D9F8082042F0800284
:10169000C9F808204FF48020FFF748FB02234FF4DD
:1016A0008061CDE90E1323480EA9CDE91247CDE99B
:1016B000106400F063FD2146142208A808F0DAFF48
:1016C00021462022504608F0D5FF182221460EA8B8
:1016D00008F0D0FF042009F50069FFF735FB019BF6
:1016E000ADF8203008A949234846CDE90A340994C9
:1016F00000F0F0FED9F8003043F08003C9F8003064
:10170000D9F8083023F4A03323F00703C9F80830D0
:10171000DBF804381A9443F008035246CBF8043837
:101720004FF4807160230FE00010C030000084CBC4
:101730000010603200040048000001401000C0109A
:1017400018000040000400404846CDE91634CDE9B9
:10175000184400F027FFDBF8043843F00403CBF80B
:101760000438D9F8083023F0700343F01003C9F8A7
:101770000830D9F8083023F4803323F0070343F00E
:101780000603C9F80830D9F80C3023F04003C9F833
:101790000C30D9F80C3023F48043C9F80C30D9F858
:1017A000043023F0700343F02003C9F80430D9F863
:1017B000083023F080030DF1380BC9F808304FF4DE
:1017C00080204FF00209FFF7B1FA4FF480735946B9
:1017D000CB48CDE90E39CDE91064CDE9124900F0CE
:1017E000CDFCC84A136843F48023136021461022BD
:1017F000584608F03FFF18222146504608F03AFFAD
:101800004FF00050FFF7A0FA4FF40030FFF78EFAC8
:10181000102351464FF09040CDE916361A9400F04F
:10182000ADFC404631461022FFF742FA31464FF4F4
:101830000052FFF76FFA20223146FFF747FA314690
:10184000FFF7AEFA3146FFF79FFA31464FF40072C8
:10185000FFF748FA31464FF40062FFF74FFAA94A02
:10186000A9491368A8F5C63843F4005313604046ED
:101870005A46CDE90E44119400F0BCFBD8F8003074
:1018800043F00403C8F8003021464FF0200814222A
:1018900003A808F0EFFE42462146584608F0EAFE4B
:1018A00021462822504608F0E5FE214618220DEB7D
:1018B000080008F0DFFE954B9A6942F400529A61E5
:1018C0009A69019302F4005202924FF40020029AA6
:1018D000FFF72CFA4FF40072CDE908290DEB08014F
:1018E00004228B480D92CDE90A640C9400F046FC6A
:1018F000284622464946FFF7DBF949464FF4805215
:10190000FFF708FA22464946FFF7E0F94946FFF794
:1019100047FA4946FFF738FA49464FF48072FFF715
:10192000E1F949464FF48062FFF7E8F9224639466B
:10193000FFF7BEF939464FF48052FFF7EBF9224624
:101940003946FFF7C3F93946FFF72AFA3946FFF758
:101950001BFA39464FF48072A5F55045FFF7C2F9DE
:101960004FF480623946FFF7C9F94FF6FF7703A9B4
:101970002846ADF80C400494CDE90574079400F0B6
:10198000A9FD2A6822F080022A60AA6822F4A03207
:1019900022F00702AA6010215A462846CDE90E44DB
:1019A000CDE91044CDE91244CDE9144400F0FAFD2C
:1019B000AA6922F48062AA616A6822F070026A60F1
:1019C0006A6822F470026A60AA6822F08002AA6043
:1019D000504A516821F0030141EA09015160516800
:1019E00021F00C015160516821F0F0015160296A29
:1019F00021F420612962516821F4407141F4807121
:101A00005160516821F440615160516821F4704186
:101A100051602A6A22F420422A624FF40053514650
:101A20004FF0007228463C4D1894CDE91A34CDE9A8
:101A300016448DF86440ADF866401C94CDE91D2431
:101A40001F9400F049FF354AAC612846C5E90024DF
:101A5000C5E902471694CAE9014400F0EBF9514682
:101A60002846CDF85880189400F014FA21461C221C
:101A7000504608F0FFFD21461822584608F0FAFDAE
:101A8000019B274D9A6942F480429A619B6903F455
:101A9000804308934FF40020089BFFF747F9302359
:101AA000CDE90E395946072319481393CDE910643F
:101AB000129400F063FB4FF4E133CDE91634514644
:101AC0000C232846CDE91A34CDE918441C9400F0C3
:101AD00047FFAB6823F48063AB606B6823F49043EB
:101AE0006B60AB6823F02A03AB602B6843F0010303
:101AF0002B6001F005F9204621B0BDE8F08F00BF52
:101B000000040048000001400100100200100240E3
:101B10000008004818340140A005002000100040D3
:101B2000003801400D4B9A6942F001029A619A69AE
:101B300082B002F001020092009ADA6942F080520B
:101B4000DA61DB6903F080530193019B00220F21CE
:101B50006FF0010002B000F0B9B800BF0010024001
:101B60000268084B9A4282B00AD103F50033DA6961
:101B700042F01002DA61DB6903F010030193019B6C
:101B800002B07047001000407047FEE7FEE7FEE736
:101B9000FEE770470B4B196810B5024609B90A49B0
:101BA0001960186809490A4C0244091B8A4206D97F
:101BB00008F0EEFC0C2303604FF0FF3010BD1A60FC
:101BC000FCE700BF2C020020F8F4002000000120F8
:101BD00000040000034AD2F8883043F47003C2F8CE
:101BE0008830704700ED00E0DFF834D00D480E4932
:101BF0000E4A002302E0D458C4500433C4188C4267
:101C0000F9D30B4A0B4C002301E013600432A242CB
:101C1000FBD3FFF7DFFF08F0C1FCFFF781F9FEE718
:101C200000000120000000200C02002038CF000836
:101C300010020020F4F40020FEE7000038B50E4A40
:101C40000E4B054618784FF47A73B3FBF0F3106827
:101C5000B0FBF3F000F06EF8044658B90F2D09D828
:101C6000024629464FF0FF3000F030F8044B204682
:101C70001D6038BD0120FCE70000002004000020AA
:101C800008000020074A08B5136843F010031360EA
:101C9000032000F009F80F20FFF7D0FFFFF742FF05
:101CA000002008BD00200240074AD36823F4E06307
:101CB0001B041B0C43F0BF63000243F4003300F429
:101CC000E0600343D360704700ED00E0174B70B550
:101CD000DC68C4F30224C4F10705042D04F10403F5
:101CE00028BF04254FF0FF36062B06FA05F38CBFFC
:101CF000033C002421EA0303A34006FA04F422EA89
:101D00000404002843EA0403A8BF00F160404FEA3E
:101D10000313BCBF00F00F00054ADBB2AABF00F5F9
:101D20006140135480F8003370BD00BF00ED00E047
:101D300014ED00E00138B0F1807F0AD2064B074A6B
:101D40005860F02182F823100020072298601A6062
:101D500070470120704700BF10E000E000ED00E098
:101D6000324A0368904212D0B0F1804F0FD0A2F5F2
:101D7000943290420BD002F58062904207D002F577
:101D80009632904203D002F5E052904215D14A6853
:101D900023F070031343254A90421DD0B0F1804FC9
:101DA0001AD0A2F59432904216D002F58062904289
:101DB00012D002F5963290420ED01D4A90420BD0BE
:101DC00002F58062904207D002F58062904203D013
:101DD00002F50062904203D1CA6823F440731343B2
:101DE0004A6923F08003134303608B68C3620B6866
:101DF00083620E4B984213D003F5006398420FD0D4
:101E000003F5406398420BD003F58063984207D0F6
:101E100003F58063984203D003F50063984201D133
:101E20000B69036301234361704700BF002C01402D
:101E30000040014010B5044650B390F83D3003F027
:101E4000FF021BB980F83C20FFF78AFE022384F8CA
:101E50003D302068211DFFF783FF012384F84830BF
:101E6000002084F83E3084F83F3084F8403084F815
:101E7000413084F8423084F8433084F8443084F8A8
:101E8000453084F8463084F8473084F83D3010BD42
:101E90000120FCE790F83C30012B30B54FF00203F5
:101EA00040D080F83D30204D03680122AB4280F8DD
:101EB0003C205A689C6807D005F50065AB4203D00A
:101EC00005F5E055AB4203D14D6822F470022A4378
:101ED0000D6822F070022A435A60134A934216D0CA
:101EE000B3F1804F13D0A2F5943293420FD002F594
:101EF000806293420BD002F59632934207D002F5EE
:101F00004062934203D002F58052934204D1896823
:101F100024F080020A439A60012380F83D300023B8
:101F200080F83C30184630BD002C0140114B9842DF
:101F30000CBF4FF0A043104B9A6803F5807330B587
:101F40009B681343DB4303F001038BB1D1E90043EA
:101F50000A4D82682A4043B1234313438A681343DE
:101F6000CA6813438360002030BD22438260FAE7D1
:101F70000120F9E70003005000040050E030FCFFAE
:101F8000836813F0010330B50DD1D1E90025C46891
:101F900089682A430A4324F4804121F038010A4326
:101FA000C260184630BD0120FCE700008368DB07F3
:101FB000F0B51BD4D1E90032D1E903474E690C4D8D
:101FC000234372B1C46889683B4333432C402343A5
:101FD0000B43C360036B23F00F0313430363002021
:101FE000F0BDC1683B4333432940F1E70120F7E7E7
:101FF0003CC0F0FF70B501F010010568012303FA41
:1020000001F4AC431DD0D2E90043D6687BB1234331
:10201000926805683343134340F6FA748B4004FA20
:1020200001F125EA010119430160002070BD026839
:10203000FA258D40344322EA050204FA01F11143E6
:10204000F2E71846F2E700000146D0E90032007AD4
:1020500030B500287DD0002B44D0487A012827D005
:1020600003D302282DD0012008E04348446824EA25
:102070000304446004681C43046000208C7A6CB143
:10208000022C22D0032C29D0012C2DD13A4CE5680A
:1020900025EA0305E560A5682B43A360002A3DD02F
:1020A0004B7A012B3BD021D3022B41D0012025E0DC
:1020B0003148046824EA0304046044681C43446013
:1020C000DBE72D4804681C43F6E72B4CA56825EA9E
:1020D0000305A560E5682B43E360DFE7264CA568B0
:1020E0001D43F6E71846D9E70120D7E7224B5C6A83
:1020F00024EA02045C621C6A14431C628B7A6BB192
:10210000022B19D0032B20D0012B32D11A4BD96AC4
:1021100021EA0201D962996A0A439A6230BD164BDC
:102120001C6A24EA02041C625C6A14435C62E5E7F0
:10213000114B1C6A1443F6E70F4B996A21EA02011E
:102140009962D96A0A43DA62E8E70B4B996A11434C
:10215000F6E709490C68DB431C400C604C682340DF
:102160004B600B6AD24313400B624B6A1A404A62BF
:10217000D4E70120D2E700BF000401402DE9F04F71
:1021800002460D6895FAA5F44FF0010EB4FA84F4F6
:1021900003264FF00F0C6FEA050835FA04F001D161
:1021A000BDE8F08F0EFA04F32B406CD04868471E50
:1021B000012F1ED8976893FAA3F9B9FA89F993FA0F
:1021C000A3FA4FEA490906FA09F927EA0909BAFA0E
:1021D0008AFA8F684FEA4A0A07FA0AF749EA0707B4
:1021E0009760576808EA0709CF686F4349EA07070D
:1021F0005760D76893FAA3F9B9FA89F993FAA3FA61
:102200004FEA490906FA09F927EA0909BAFA8AFAE6
:102210000F694FEA4A0A07FA0AF749EA070702284C
:10222000D7601DD193FAA3F7B7FA87F7072FD1F834
:1022300014A02ADCD2F820B093FAA3F7B7FA87F7F4
:1022400093FAA3F9B9FA89F9BF000CFA07F74FEA34
:1022500089092BEA07070AFA09FA47EA0A07176207
:10226000D2F8009093FAA3F7B7FA87F793FAA3F39B
:10227000B3FA83F37F0006FA07F75B0029EA070742
:10228000984007431760013487E7D2F824B04FEA3B
:10229000132999FAA9F7B7FA87F799FAA9F9B9FAB8
:1022A00089F9BF000CFA07F74FEA89092BEA0707FB
:1022B0000AFA09FA47EA0A075762D1E7024B186897
:1022C000C0F34000704700BF00100240034B044AB7
:1022D0005B68C3F30313D35CD8407047001002401F
:1022E00087C10008034B044A5B68C3F30223D35C35
:1022F000D84070470010024097C10008034B044AC1
:102300005B68C3F3C223D35CD8407047001002401F
:1023100097C100080A4B5A68D86A5B684FF470127C
:1023200092FAA2F2B2FA82F203F47013D3400233AB
:1023300000F00F0003490130B1FBF0F05843704743
:102340000010024000127A00044B5B6803F00C039B
:10235000082B01D1FFF7DEBF014870470010024093
:1023600000127A0008B5024620BB2E490B6B03F021
:102370000303022B0FD0032B05D0012B12D1BDE894
:102380000840FFF7E1BFFFF799FF274B002818BF70
:102390001A4610462CE00B6A13F0020F18BF4FF4D8
:1023A0000042F6E7FFF7D0FFFFF790FFBDE80840D7
:1023B000FFF7A4BF10281CD11A4A1C49136B03F461
:1023C000403343F080538B4224D0194A93420BD0C0
:1023D000A2F500329342D2D0FFF7B6FFFFF776FFA7
:1023E000BDE80840FFF77EBFFFF768FFC0B90020D7
:1023F00008BD1228FBD10B4A0E49136B03F440238E
:1024000043F090538B4205D00B4A9342ECD0A2F597
:102410000022DFE7136A9B07E9D54FF40040E7E7A6
:102420000148E5E70010024000127A0000000210A7
:10243000000003100000081200000C12B0F5401F4D
:1024400008B520D11D4A1E49136B03F4401343F411
:1024500040538B4229D01B4A934207D0A2F5001269
:10246000934208D1BDE80840FFF76EBFFFF726FF93
:1024700008BB002008BDFFF767FFFFF727FFBDE897
:102480000840FFF72FBFB0F5400FF2D10B4A0E49BD
:10249000136B03F4400343F440438B4205D00B4AD3
:1024A0009342E3D0A2F50002DAE7136A9B07E0D576
:1024B0004FF40040DEE70648DCE700BF00100240B2
:1024C000003020000030300000C0800000C0C0009C
:1024D00000127A00314A0368904212D0B0F1804F66
:1024E0000FD0A2F5943290420BD002F58062904258
:1024F00007D002F59632904203D002F5E0529042A6
:1025000015D14A6823F070031343244A90421DD02A
:10251000B0F1804F1AD0A2F59432904216D002F555
:102520008062904212D002F5963290420ED01C4A40
:1025300090420BD002F58062904207D002F5806293
:10254000904203D002F50062904203D1CA6823F49E
:102550004073134303608B68C3620B8883620F4B25
:10256000984213D003F5006398420FD003F54063FF
:1025700098420BD003F58063984207D003F580633F
:10258000984203D003F50063984201D10B690363BD
:10259000436943F00103436100207047002C014070
:1025A00000400140B1F5807F30B500F0DA8006D8F8
:1025B000012948D0102900F08C80012088E0B1F575
:1025C000803F00F01581B1F5801F00F04A81B1F520
:1025D000805FF2D1036A156823F480530362036AB3
:1025E0004468C16921F0807121F4E64141EA052186
:1025F000156923F4005343EA0533556823F48053E7
:1026000043EA0533B34DA84213D005F50065A8424F
:102610000FD005F54065A8420BD005F58065A842AE
:1026200007D005F58065A84203D005F50065A842EE
:1026300004D1956924F4804444EA8514D268446046
:10264000C161026442E0036A156823F0010303627A
:10265000036A4168846924F4803424F073042C43B1
:10266000156923F002032B43556823F001032B4324
:10267000984DA84213D005F50065A8420FD005F586
:102680004065A8420BD005F58065A84207D005F546
:102690008065A84203D005F50065A84212D15569AE
:1026A00023F0080343EA8503956823F0040343EA13
:1026B0008503956921F480712943D56921F400715E
:1026C00041EA4501D26841608461426303620020AF
:1026D00030BD036A156823F010030362036A416882
:1026E000846924F0807424F4E64444EA05241569DE
:1026F00023F0200343EA0513556823F0100343EA4F
:102700000513744DA84213D005F50065A8420FD0FB
:1027100005F54065A8420BD005F58065A84207D0B5
:1027200005F58065A84203D005F50065A84213D1E0
:10273000556923F0800343EA8513956823F040032D
:1027400043EA8513956921F4806141EA8501D569E1
:1027500021F4006141EAC501D2684160846182636D
:10276000B4E7036A156823F480730362036A41685F
:10277000C46924F4803424F073042C43156923F4D1
:10278000007343EA0523556823F4807343EA052365
:10279000504DA84213D005F50065A8420FD005F5AD
:1027A0004065A8420BD005F58065A84207D005F525
:1027B0008065A84203D005F50065A84213D155698C
:1027C00023F4006343EA8523956823F4806343EA96
:1027D0008523956921F4805141EA0511D56921F4D9
:1027E000005141EA4511D2684160C461C2636DE79E
:1027F000036A146823F480330362036A416D21F491
:10280000803121F070010C43116923F4003343EA55
:102810000143516823F4803343EA01432D49884240
:1028200013D001F5006188420FD001F54061884264
:102830000BD001F58061884207D001F580618842A4
:1028400003D001F50061884206D14168956921F401
:10285000803141EA052141604465D268816D82651D
:1028600034E7036A146823F480130362036A416D3A
:1028700021F0807121F4E04141EA0424116923F43C
:10288000001343EA0153516823F4801343EA0153D0
:102890001049884213D001F5006188420FD001F53C
:1028A000406188420BD001F58061884207D001F574
:1028B0008061884203D001F50061884206D14168F9
:1028C000956921F4802141EA85214160D2684465FF
:1028D000C265FBE6002C01408A680B7B13434A6803
:1028E00023F4806313430A6823F40063134323F43F
:1028F0008052CB8913430A6923F4005313434A6A75
:1029000023F440431343144A904210B506D0134CAD
:10291000A04203D004F5E054A04219D14C6923F43D
:102920007023904243EA040306D00C4A904203D03D
:1029300002F5E05290420BD10A6A23F4700313436C
:102940008A6923F080731343CA6923F00073134329
:102950004364002010BD00BF002C01400034014042
:1029600038B50446006810F001000D4601D0012082
:1029700038BDEA686B68216813432A691343AA6962
:102980001343254A0A40134323606368AA6823F46B
:10299000405313436360A3686A6923F4407313438D
:1029A000A3601E4B9C4219D1FFF7DCFC0028DED04F
:1029B0002A68002ADBD0A969B1F5004F4FEA52031B
:1029C00024D103EB40004FF6F073B0FBF2F003406C
:1029D000C0F342001843E0600020C9E7104B9C425E
:1029E00001D11020E0E70F4B9C4201D11220DBE720
:1029F0000D4B9C4204D14FF44010FFF71FFDD5E76B
:102A00000A4B9C42B3D14FF44000F6E71844B0FBA8
:102A1000F2F080B2DFE700BFF369FFEF003801405A
:102A20000044004000480040004C0040005000407E
:102A30004FF47A73B0FBF3F0034B00220138586077
:102A40009A6005221A60704710E000E0014B1860A0
:102A5000704700BF0000002080B50D4C237893B173
:102A60000C4E0D4D0D4C4AF6AA27376029682046BA
:102A700003F023FE0A2007F0A9F9002007F0C0FAAE
:102A8000074B1860F1E7022007F0A0F9E6E700BF66
:102A9000300200200030004060D3002020D400200D
:102AA0000C00002008B5164C23782BB3154C164D9E
:102AB00026464FF0FF31206806F03EFE012803D085
:102AC0008121284604F0F4FB104802F0D3FF0023D4
:102AD0001A461946306806F009FD012803D0852101
:102AE000284604F0E5FB052007F070F9002007F008
:102AF00087FA074B1860DCE7022007F067F9D3E795
:102B00003002002080060020D0C10008080F0020FD
:102B10001000002008B51A4C23786BB3194C1A4DDD
:102B200026464FF0FF31286806F006FE012803D044
:102B30009621164804F0BCFB4FF0FF31206806F0E8
:102B4000FBFD012803D09721104804F0B1FB104889
:102B500003F0EEF900231A461946306806F0C6FC69
:102B6000012803D09B21094804F0A2FB002007F0B4
:102B700047FA084B1860D4E7022007F027F9CBE7A3
:102B80003002002080060020D0060020D0C10008BE
:102B9000080F00201400002070B53548354C03F0B4
:102BA000EBFE354803F056FD344800F02BFA34486C
:102BB00000F05EFB204602F01FF80121204602F0E3
:102BC00021FC4CF258432C48E3584FF4FA7203218D
:102BD00003F069FD2B4804F047F8002000F018FED0
:102BE00001303ED0284B294D254C01221A702E462B
:102BF000274B4FF0FF31186806F09EFD012803D0E7
:102C0000C721244804F054FB4FF0FF31286806F038
:102C100093FD012803D0C8211E4804F049FB20463B
:102C200000F096FB0128014605D11B4B12481B689A
:102C3000322203F038FD00231A461946306884F822
:102C4000943184F8C93006F051FC012803D0D0211A
:102C5000104804F02DFB002007F0D2F90F4B18604C
:102C6000C6E742F2107300BF013BFCD1B5E700BFDD
:102C7000A8E60020080F002020D40020780B0020B8
:102C8000F8E6002030D60020300200208006002028
:102C900084060020D0C1000860D300201800002066
:102CA00008B5124C2378E3B1114D124E28684FF04D
:102CB000FF3106F041FD012803D0DF210E4804F06A
:102CC000F7FA0E4C94F82033002BEFD0204600F09A
:102CD00017FA322007F07AF8002007F091F93060F7
:102CE000F0E7022007F072F8DCE700BF30020020B6
:102CF000EC0500201C000020D0C10008780B00204B
:102D0000F0B585B072B65B4E5B4BF2685B4D5C4FC5
:102D100022F4E0621204120C13430024F360594BB6
:102D2000AC601868FFF784FEF02386F823302B6828
:102D3000032643F002032B60224621460096524BA5
:102D4000524D012006F08AFB22463860214600964B
:102D50004F4B012006F082FB224628604D4B009627
:102D60002146012006F07AFB4B4C4C4920600120A3
:102D700006F06EFC4A4B3A6818602E4625461C4603
:102D80001AB95321474804F093FA33681BB9542108
:102D9000444804F08DFA2B681BB95521414804F0D2
:102DA00087FA23681BB956213E4804F081FA3E4B4E
:102DB00002933E4B019303230093802200233C495E
:102DC0003C4806F0D7FD18B95921364804F070FA8E
:102DD000394B0293394B0193012300938022002346
:102DE0003749384806F0C6FD18B95A212D4804F075
:102DF0005FFA354B0293354B0193052300938022F4
:102E000000233349334806F0B5FD18B95B21254846
:102E100004F04EFA304B0293304B0193022300939F
:102E20004FF4007200232E492E4806F0A3FD18B976
:102E30005C211C4804F03CFA2B4B02932B4B019372
:102E4000042300938022002329492A4806F092FD9A
:102E500018B95D21134804F02BFA62B6264B012203
:102E60001A7006F067FE0F48652105B0BDE8F04016
:102E700004F01EBA00ED00E00003FA0510E000E0E7
:102E80008406002000000020F0050020D00600206D
:102E90008806002038060020EC050020D40600201B
:102EA00080060020D0C10008B00E0020E8F000200D
:102EB0009FC10008592A000890F0002078070020E0
:102EC000A2C10008A52A0008F0E5002030D40020A7
:102ED000ADC10008152B00084CE6002090E800204A
:102EE000BDC10008992B00082007002078090020A8
:102EF000CBC10008A12C0008300200202DE9FF41C1
:102F000090F832737A1E53424FF000055341044645
:102F100080F83333294604F5C876A0F830534FF4CF
:102F2000C87207F0A7FB29464FF4C872304607F075
:102F3000A1FB012F0CBFC8231E234FF480774FF451
:102F40008068009303952346CDE901780222184951
:102F5000184803F00DFC94F8333317481449AB427A
:102F600014BFC8231E23CDE90037CDE902853346BF
:102F7000012203F0FDFB114B1149DA6842F0010216
:102F8000DA609D635D6294F833334A68AB4214BFE4
:102F90000C20284622F4406242EA00224A604B6834
:102FA00023F00C0303434B6004B0BDE8F08100BF85
:102FB00000040240403401403834014000340140F4
:102FC0001834014008B5FFF799FF0C4BDA6842F45A
:102FD0008052DA60DA6842F40062DA60084A4FF43C
:102FE000805151601A6A0A431A621A6A42F4807266
:102FF0001A621A6842F001021A6008BD00340140EA
:1030000000E100E0154B0022C0E9CA230023144A66
:1030100080F82033A0F83233D268C2F30222C2F122
:10302000070110B4042902F1040428BF0421062C6E
:1030300098BF1A464FF0FF3303FA01F36FEA030318
:1030400088BF033A03F0040393401B01054ADBB237
:1030500082F82C335DF8044BFFF750BF0000F0BF3F
:1030600000ED00E000E100E030B490F8203380F89B
:10307000322380F8201363B9012912D10A4D0024AC
:10308000C0E9CA4509481A461946006830BC06F02E
:103090002DBA31B9012B04D1044B30BC186806F0AD
:1030A0004BBB30BC704700BF0000F0BFEC050020F8
:1030B00009B1FFF787BF0F4B1A6822F001021A60AF
:1030C0001A6A22F480521A621A6A22F480721A6210
:1030D000094A4FF48051C2F88410BFF34F8FBFF3F9
:1030E0006F8FDA6822F48052DA60DA6822F40062C4
:1030F000DA6070470034014000E100E000000000A9
:103100002DE9F8430446FFF75DFF0025DFF8D48082
:103110002F46D8F80460B7F57A7FB6B203DD0A20EF
:1031200006F054FE0A35B5F5FA6F07F1010701DC28
:10313000002EEED100212046FFF7BAFF94F833535A
:10314000002D0CBF1E23C8239B1B012B38D904EB79
:103150004302B4F890015E1EB2F88E3132F8022CB0
:103160001B1A9BB220882BB3C0F57F40FF30013B78
:1031700010449BB2C3EB03431844FDF7CBF98046E0
:1031800030468946FDF7C6F902460B464046494699
:10319000FDF764FB02460B4610A1D1E90001FDF7E3
:1031A0005DFB002255B10A4BFDF72EFAC4E9CA01B6
:1031B000BDE8F8839042FBD2101ADBE7054BF3E73A
:1031C000054B0022C4E9CA23F2E700BFAFF3008039
:1031D000000020400000F03F0000F0BF00000000B1
:1031E000882AA1411C040240074A1369DB0707D55E
:1031F0000649B1F8303301339BB2A1F83033936301
:103200006FF001031361704700340140780B002018
:10321000012070472DE9F041DFF85080054600F1AC
:103220008406002456F8043BEBB1012C19D1D5F8E3
:10323000383193F89431002B14BF0423052305EB98
:103240008303D3F884703846FCF7CAFF3946024638
:103250002846013405F0CEF9042CE3D10120BDE865
:10326000F0812346EBE701224146F1E7FFCA00085F
:1032700000B5002380F8933180F8943180F89531BF
:1032800080F8C83080F8C93080F8CA30224B234A11
:1032900018608BB001230793214B0693C823059335
:1032A000204B0493204B0393204B0293204B01931C
:1032B000204B089000932049204B214805F0F8F856
:1032C000204BDA69910225D5DA69520222D51A68B3
:1032D00042F020021A601C4BDB68C3F302231A1D64
:1032E000062AC3F107028CBFD91E0021042A28BF79
:1032F00004224FF0FF339340DB4303F006038B407F
:10330000124A1B01DBB282F82533202353600BB035
:103310005DF804FB00BFD4E748E600202000002051
:10332000ECF4002024F40020FFCA00088EC200083C
:1033300094C20008AEC20008C0C2000868CB0008F2
:10334000E8F200200038014000ED00E000E100E07C
:1033500070B590F89451012D044611D100F1CB06BF
:1033600090F895210748314605F0D0FCC82200218D
:10337000304607F07FF9002384F89531284670BD68
:103380000025FBE7E8F2002030B590F89331012BDF
:103390000ED1084C0B46581A824201DC104630BD53
:1033A00013F8010BE5692D06FCD580B22085F2E704
:1033B0000022F3E700380140D0F83801FFF7E4BFFE
:1033C00030B50CB29BB00546204604F065FA2246A3
:1033D0000346064901A807F055F901A90246D5F8A8
:1033E0003801FFF7D1FF00201BB030BD74C20008C8
:1033F00010B501299CB0044613460CD1094903A815
:1034000007F040F9024603A9D4F83801FFF7BCFFE2
:1034100001201CB010BD009203A80A46024907F023
:1034200031F9EFE748C200085BC2000808B509227D
:103430000349D0F83801FFF7A7FF012008BD00BFFE
:1034400084C2000830B589B005460023084601ACA7
:103450001146C25C1A550133082BFAD12C230A22DB
:103460000DF10D008DF80C3003F0BFFF08AB0344E5
:103470000D2203F8132C0A2203F8122C214600F126
:103480000B022846FFF780FF09B030BD264B37B549
:10349000DA69920646D59A8C244B93F8941192B22D
:1034A00000293FD193F8C940002C3BD193F89501F6
:1034B000411CC9B2C629184483F89511D2B288BFFD
:1034C00083F89541184C80F8CB20012100204FF45F
:1034D00000650A2A83F8931183F8C800256221D178
:1034E00093F895218A421DD91A4492F8C9200D2AD1
:1034F00018D183F8941102A90D4B41F8040D1868F6
:1035000006F0BBF8012803D02C210A4803F0D0FEB6
:10351000019B3BB1084B4FF080521A60BFF34F8FB5
:10352000BFF36F8F03B030BD00380140F8E60020D4
:1035300084060020DCC5000804ED00E013B500237C
:1035400001AA6946044605F06DFA00211D4801F004
:1035500031FC01211B4801F055FF0121194801F000
:1035600029FC019901291BD1009B1B78532B0ED1FB
:103570000022144801F0EAFA0021124801F042FF4B
:103580001149204605F04CF8012002B010BD4C2B2B
:1035900006D10A460B48002101F0D8FA0221ECE7D7
:1035A00001221146074801F0D1FA002211460748CE
:1035B000FFF75AFD064803F0EBF9064803F05AFE00
:1035C000DEE700BF080F00207AC60008780B002055
:1035D000A8E6002030D6002073B5012301AA694671
:1035E000054605F01FFA80B3019C052C10D118493F
:1035F0002246009807F093F810BB0021154801F00F
:1036000001FF1549284605F00BF8012002B070BDF6
:10361000042C02D122461149EBE7022C10D1009E66
:103620000F492246304607F07AF808B90121E5E74C
:1036300022460C49304607F072F808B92146DDE70A
:103640006FF0DF01284604F023F94FF0FF30DDE78B
:103650007AC70008080F00207AC6000880C7000853
:1036600085C7000888C7000808B5074A4CF26443BC
:10367000D35C23B9054904F0D3FF012008BD012B19
:103680000CBF03490349F6E7080F00207AC700087A
:1036900085C7000888C7000830B5B3B001240023EF
:1036A00002220321CDE91021ADF84830ADF84C30AD
:1036B000CDE90E344FF47A720A23CDE90C23099335
:1036C0006423CDE9074313AB059312AB0493114B6D
:1036D000DFF84CE006944FF0040CCDE9023C4CF2CC
:1036E0005033CDE9003E054603F597030A480B49E0
:1036F00003F5FE634FF4FA62CDE90A201A4614A8D6
:1037000006F0C0FF14A90246284604F073FF2046C5
:1037100033B030BD0051250220AA440043C7000841
:1037200092F29C0010B5A2B0114B0793114B069377
:10373000114B0593114B0493114B0393114B124AF8
:10374000D3ED007A1149FDEEE77A48230193104B3F
:10375000CDED027A0446009309A80E4B06F092FFC5
:1037600009A90246204604F045FF012022B010BD01
:1037700009C700080CC7000813C7000816C70008CF
:1037800022C7000854D30020E4C60008EBC6000896
:103790002FC70008DDC60008174A4CF2584330B561
:1037A000D158164D164AB1FBF2F205FB0215154928
:1037B0004EF6602395FBF3F301FB0355124989B0E4
:1037C00004464FF47A7095FBF0F001FB005164253C
:1037D000C0B291FBF5F1C9B201910090DBB20B4987
:1037E00003A806F04FFF03A90246204604F002FF9B
:1037F000012009B030BD00BF080F00208011C9FFB3
:1038000080EE3600A015FFFF18FCFFFF8BC70008F5
:103810002DE9F04F4CF26443B74D2DED028BEB5C7C
:10382000012BC3B0064640F0608100220F920028B1
:1038300000F0D3800FA905F0F2F80F9C00220023BE
:10384000012CCDE91023CDE91223CDE91423CDE9D4
:103850001623CDE9182307D04FF0FF37002C40F096
:10386000BE804CF26043EF50A44BEA88586880B2A7
:10387000101A013848BF02F1FF30002800F00103A0
:10388000B8BF5B42012B0ED0013848BF02F1FF30B8
:10389000002800F00103B8BF5B42012B03D00138C0
:1038A00048BF02F1FF30012C4FF0020790FBF7F701
:1038B00006D14CF260416B585C1C40F098806F5010
:1038C0000024CDE9044412AB4CF21648029310AB2D
:1038D0000394019315F8083000932B68022103F03C
:1038E000E8FC6A8ACDE90444CDE9024414AB0193B3
:1038F00015F808300093EB683846012103F0D9FC35
:10390000EA8BCDE90444CDE9024416AB019315F8E6
:1039100008300093AB693846012103F0CAFC6A8D78
:10392000CDE90444CDE9024418AB019315F8083001
:1039300000936B6A3846012103F0BBFC704B714F5A
:103940001888DDE91089FCF7E5FD69A3D3E90023B8
:10395000FCF75AFE42464B46FCF780FF9DED127B7A
:103960008DED067B9DED147B8DED087B9DED167B2B
:103970008DED0A7B9DED187B04460D464046494679
:103980008DED0C7BBB46FDF721F95BF80CA9CBF85C
:10399000000000225C4B20462946FCF735FEFDF76F
:1039A00015F908EE100A47F8080C002E39D100224C
:1039B000002340464946FDF7B7F8A8B1DFED537A3A
:1039C000B4EEE78AF1EE10FACCBF01204FF0FF30E1
:1039D00043B0BDEC028BBDE8F08F0F932DE76FF085
:1039E000DF01304603F054FF4FF0FF30F0E7BB42F9
:1039F00005D14749304604F013FE0120E8E74CF2B8
:103A000014402C89285A013300EB540083426B5038
:103A1000A4BF00236B504CF26043E85840000130D3
:103A20004EE75046FCF798FD1AAF8046894645ECB4
:103A3000104B04223749384603F030FE22462B460D
:103A4000DDE90601FCF7E0FD4B464246FCF706FFC8
:103A5000042241EC100B2F491DA803F01FFE224643
:103A60002B46DDE90801FCF7CFFD4B464246FCF74B
:103A7000F5FE042241EC100B264920A803F00EFEAF
:103A800022462B46DDE90A01FCF7BEFD4B464246C5
:103A9000FCF7E4FE0DF18C0A41EC100B04221D49E9
:103AA000504603F0FBFD22462B46DDE90C01FCF7F6
:103AB000ABFD4B464246FCF7D1FE26AC41EC100B69
:103AC00004221449204603F0E9FD1DAACDE901476F
:103AD000CDF800A020AB104929A806F0D3FD29A9F4
:103AE0000246304604F086FD87E70C497AE700BFBE
:103AF0006666666666660A40080F00200800024097
:103B0000BAF7FF1F5CD3002000408F400080BB4409
:103B10009FC700084DC60008FAC600088CFEFFFFCC
:103B200070B52D4B4CF2644286B09A5C06461C463A
:103B3000002A4AD14CF2AA429B5C23B9274904F0DF
:103B40006FFD012046E04CF216424CF21443A25C99
:103B5000E35A0C2A224A4CF201411278615C4CF281
:103B6000024003F10A034CF20345205C655D08BF87
:103B70005B00012A0CBF2268002201290CBFE1680A
:103B8000002101280CBFA0690020012D08BF656A33
:103B9000009318BF0025CDE90121CDE903051A46A0
:103BA0001946304604F023FE4CF2DC420023A350B9
:103BB0004CF2AA42A3524CF27043E35C022BC0D0F9
:103BC0000121054801F0F6F8BBE7064903F060FE65
:103BD0004FF0FF3006B070BD080F002086C6000809
:103BE00008D300208CFEFFFF2DE9F0474CF2644320
:103BF000A34EF35CA4B00546002B40F034810122B3
:103C000003A904F00CFF10B94FF0FF300DE10122C1
:103C100004A9284604F003FF0028F5D0012205A9D5
:103C2000284604F0FCFE0028EED001230CAA09A9C6
:103C3000284604F0F7FE0028E6D0012206A928460F
:103C400004F0EDFE0028DFD0012207A9284604F089
:103C5000E6FE0028D8D001230DAA0AA9284604F0C0
:103C6000E1FE0028D0D001230EAA0BA9284604F0BB
:103C7000D9FE0028C8D0012208A9284604F0CFFEAA
:103C80000028C1D00C9B042B28D10D9B012B25D1E2
:103C90000E9B012B22D1099B1A78303A012A1DD89C
:103CA0005A78303A012A19D89A78303A012A15D828
:103CB000DB78303B012B11D80A9B1B78522B01D0AB
:103CC000462B0BD10B9B1C78413CE3B2122B05D841
:103CD0006C4CDC40E44314F0010405D06FF0DF01CC
:103CE000284603F0D5FD8FE7674BA3F16802A3F1E7
:103CF0001401A3F1800000F00DFF2146604801F09F
:103D000059F85F4801F024F84CF265430122032181
:103D10005B48F25401F002F99DF80C10584801F08C
:103D2000C1F907460998837842780178A3F1300CED
:103D3000059B0193C0783038C0B2303A30395FFA11
:103D40008CF3D2B20090C9B24D4801F071FA0599D6
:103D500080464B4801F000FABDF8101081464848F3
:103D600001F0DCF80A9B06991B789DF81C20522B69
:103D700082465DD0462B14BF022301230B980078A6
:103D8000412857D04E2857D0532814BF0320022073
:103D9000089CCDE900043A4802F0ACF907EB0A03AD
:103DA0004B44434418184DD14CF26543F054364B04
:103DB000A3F16802A3F11401A3F1800000F0AAFEB0
:103DC00001212F4800F0F6FF304B1868FCF7C4FBC8
:103DD0002F4B0022FCF760FA4CF21643F35C0C2BDD
:103DE0002CD123A3D3E90023FCF738FD294B002273
:103DF000FCF752FA012241EC100B27490FA803F0FF
:103E00004DFC264B244993ED000B062213A803F02A
:103E100045FC13AB0FAA224918A806F033FC18A9D9
:103E20000246284604F0E6FB012024B0BDE8F087F6
:103E30002346A3E70020ABE70120A9E70EA3D3E9BF
:103E40000023D1E74CF26443012400210C48F454D0
:103E500001F0D8FA4CF26543002221460848F2549A
:103E600000F0A8FF3AE70F493BE700BFAFF300803F
:103E700045724CEA519E6C3F6FEDD0A91571643FBD
:103E8000080F00200920040088D3002058D3002008
:103E90000000E03F00408F404DC6000810D30020D6
:103EA00091C600088CFEFFFFF0B54CF264435A4CFB
:103EB000E35CB3B00746002B40F09E8004F544431A
:103EC0001B78002B14BF312330238DF830304CF297
:103ED0000143E35C002B14BF312330238DF83130D4
:103EE0004CF20243E35C002B14BF312330238DF8E6
:103EF00032304CF20343E35C002B14BF31233023F8
:103F00008DF833304CF27143E35C002B6AD0012B07
:103F10000CBF462342238DF828304CF27043E35CFB
:103F2000002B61D0012B61D0022B0CBF5323442303
:103F30008DF82C3000238DF834308DF829308DF831
:103F40002D30364B1868FCF707FB354B0022FCF789
:103F5000A3F94CF21643E35C0C2B49D02AA3D3E916
:103F60000023FCF77BFC2F4B0022FCF795F90EADEC
:103F700041EC100B03222C49284603F08FFB2B4BFE
:103F8000294912AE93ED000B0622304603F086FB62
:103F90004CF26C414CF21443615806910BA9059107
:103FA0000AA904914CF27C414CF2164261580391EB
:103FB0004CF27441E35A615802910CA901914CF200
:103FC0001041A25C61580091CDE90756184917A825
:103FD00006F058FB17A90246384604F00BFB0120F7
:103FE00033B0F0BD522396E74123A1E74E239FE76C
:103FF00007A3D3E90023B4E70E4903F049FC4FF0CF
:10400000FF30EDE7AFF300806FEDD0A91571643F8D
:1040100045724CEA519E6C3F080F002058D3002097
:104020000000E03F00408F404DC6000810D3002044
:104030009CC600088CFEFFFF70B54CF264432E4C0A
:10404000E35C05462BB12D4903F022FC4FF0FF3015
:1040500070BD4CF20A53E35C012B0AD04CF2AA4328
:10406000E35C012B05D04CF27043E35C032B00D0E2
:104070001BB96FF4BA712846E6E74CF26643E65C7A
:104080001EB90121204600F095FE4CF2DC43E258B7
:104090004CF2E043E3589A4200DB0EB91849EAE7D4
:1040A0004CF2AA43012200211348E25400F082FEA0
:1040B0004CF2F443E358D9884CF2F843E258114BE0
:1040C000134413F8012C4CF2FC43E35813445A6890
:1040D00092B28A1A013A4CF2B84348BF01F1FF325A
:1040E000E250094B09491868FFF7ACF9084928461E
:1040F00004F096FA0120ABE7080F00208CFEFFFFCA
:104100008AFEFFFF16C6000848E600207DC60008AC
:104110007AC6000810B54CF26443134CE35C022BE2
:104120001BD14CF2AA43E25C22B9104904F078FAA0
:10413000012017E04CF2DC4100226250E25221687B
:10414000E28804F045FB4CF27043E35C022BEFD0B5
:104150000121204600F02EFEEAE7054903F098FB16
:104160004FF0FF3010BD00BF080F002086C60008CA
:104170008CFEFFFF2DE9F0474CF26443734EF35C75
:10418000022B98B0054640F0DE80012203A904F01E
:1041900046FC10B94FF0FF30BBE0012204A92846CD
:1041A00004F03DFC0028F5D0012205A9284604F0C2
:1041B00036FC0028EED0012309AA07A9284604F0FE
:1041C00031FC0028E6D001230AAA08A9284604F0F9
:1041D00029FC0028DED0012206A9284604F01FFC95
:1041E0000028D7D0099B012B16D10A9B012B13D194
:1041F000079B1B78522B03D003F0FB03422B0BD100
:10420000089B1C78413CE3B2122B05D8504CDC4093
:10421000E44314F0010405D06FF0DF01284603F0F9
:1042200037FBB7E74B4BA3F16402A3F12801A3F1DD
:10423000940000F06FFC2146444800F0BBFD434869
:1042400000F086FD4CF265434FF0010803213F4822
:1042500006F8038000F062FE41463C4800F022FF71
:10426000049B4246CDE90083414643460746374812
:1042700000F0DEFF04998046344800F06DFFBDF881
:104280000C108146314800F049FE079B05991B78C8
:10429000522B824640D0462B14BF02230123089A9A
:1042A0001278412A3AD04E2A3AD0532A14BF032218
:1042B00002220698CDE900200022244801F01AFFCE
:1042C00007EB0A034B44434418182BD14CF26543C7
:1042D000F054204BA3F16402A3F12801A3F1940050
:1042E00000F018FC0121194800F064FD1A4B1B492D
:1042F00093ED000B06220BA803F0D0F90BAA184986
:1043000010A806F0BFF910A90246284604F072F979
:10431000012018B0BDE8F0872346C0E70022C8E7B7
:104320000122C6E74CF26443012402210748F454F9
:1043300001F068F84CF26543002221460348F2542C
:1043400000F038FD68E7074969E700BF080F002063
:10435000092004009CD3002010D300204DC6000883
:1043600048C600088CFEFFFF70B54CF264432B4C2E
:10437000E35C022BA8B006464AD14CF27143E35CE1
:10438000002B3FD0012B0CBF462342238DF8183061
:104390004CF27043E35C002B36D0012B36D0022B5D
:1043A0000CBF532344238DF81C3000238DF81930A3
:1043B0008DF81D301A4B1B4908AD93ED000B0622FA
:1043C000284603F06BF94CF214431749E25A04955E
:1043D0004CF26C430DA8E358039307AB029306AB72
:1043E00001934CF27443E35800934CF21043E358AA
:1043F00006F048F90DA90246304604F0FBF801200A
:1044000028B070BD5223C1E74123CCE74E23CAE751
:10441000064903F03DFA4FF0FF30F1E7080F0020A6
:1044200010D300204DC6000850C600088CFEFFFFC8
:1044300070B54CF264432F4CE35C022B054605D06B
:104440002D4903F025FA4FF0FF3070BD4CF20A53AE
:10445000E35C012B0AD04CF2AA43E35C012B05D0AC
:104460004CF27043E35C032B00D01BB96FF4BA71BC
:104470002846E6E74CF26643E65C1EB90121204679
:1044800000F098FC4CF2DC43E2584CF2E043E35875
:104490009A4200DB0EB91949EAE74CF2AA4301221D
:1044A00000211448E25400F085FC4CF2F443E35838
:1044B000D9884CF2F843E258114B134413F8012CFD
:1044C0004CF2FC43E35813445A6892B28A1A013AF8
:1044D0004CF2B84348BF01F1FF32E250094B0A49A0
:1044E0001868FEF7AFFF0949284604F099F8012043
:1044F000ABE700BF080F00208CFEFFFF8AFEFFFF26
:1045000016C6000848E600207DC600087AC60008E6
:1045100007B50E4B93F8202393F83233002A14BFCB
:10452000312230228DF80420002B4FF02C028DF820
:10453000052014BF31233023032201A98DF8063052
:1045400004F058F8012003B05DF804FB780B00205C
:1045500013B501226946044604F061FA18B94FF018
:10456000FF3002B010BD012201A9204604F057FA25
:104570000028F4D00099012902D8019A012A05D90E
:104580006FF0DF01204603F083F9E8E7D2B2C9B249
:104590000448FEF769FD0449204604F041F8012073
:1045A000DFE700BF780B00207AC60008000000009B
:1045B0002DE9F041584B93F82023A4B0804632B93E
:1045C0006FF4B97103F064F94FF0FF303BE0D3E9C9
:1045D000CA670022514B30463946FCF7A5FA00283D
:1045E00000F0868032463B4600204D49FCF736F904
:1045F000002204460D464B4B30463946FCF776FA0E
:1046000020B347EC106B4849032201A803F046F899
:104610000022434B20462946FCF77CFA002834D080
:1046200045EC104B4149032206A803F037F806ABCE
:1046300001AA3F490BA806F025F80BA902464046FF
:1046400003F0D8FF012024B0BDE8F0812AA3D3E90C
:10465000002330463946FCF749FA50B10022314B6D
:1046600030463946FCF7FAF8032241EC100B314989
:10467000CBE721A3D3E9002330463946FCF7EEF817
:10468000032241EC100B2C49BFE71DA3D3E9002303
:1046900020462946FCF73EFA50B10022214B204625
:1046A0002946FBF7B1FF032241EC100B2349BBE77E
:1046B00015A3D3E9002320462946FCF72BFA58B16D
:1046C0000DA3D3E9002320462946FBF79DFF0322D3
:1046D00041EC100B1A49A7E70DA3D3E900232046AC
:1046E0002946FBF791FF032241EC100B15499BE78C
:1046F0006FF4B671404665E70000000080842E41EB
:10470000FCA9F1D24D62503F8DEDB5A0F7C6B03E89
:104710000000000065CDCD41780B00200000F0BF07
:104720000000F03F00408F401DC6000831C6000861
:1047300096C6000823C600082AC6000836C6000828
:104740003CC6000842C6000870B51A4C9AB006462E
:10475000A069FBF7EFFE0B460246D4E90401FCF723
:104760007DF806AD41EC100B03221349284602F0F8
:1047700095FFA068FBF7F0FE0022104BFBF744FF0B
:10478000FCF7DCF9A36962680D49CDE9035323788E
:10479000029363780193E369009303460BA805F045
:1047A00071FF0BA90246304603F024FF01201AB026
:1047B00070BD00BF30D600204DC600080000244068
:1047C000C8C6000830B597B001226946044604F017
:1047D00026F940B920466FF0DF0103F059F84FF099
:1047E000FF3017B030BD012201A9204604F017F9AF
:1047F0000028EFD0012202A9204604F010F9002879
:10480000E8D0012203A9204604F009F90028E1D0EC
:10481000012204A9204604F002F90028DAD0234B33
:10482000009A9A42D6D8019BB3F57A7FD2D8029BE0
:10483000642BCFD8039B052BCCD8049B012BC9D864
:104840001B481B4D02F016FD049B012B11D1DDED21
:10485000017A9DED007A029A9DF80C10F8EE677AC5
:10486000B2EE040AF8EE470A87EE800A284602F004
:104870002BFAA869FBF75EFE0B460246D5E9040158
:10488000FBF7ECFF032241EC100B0A4905A802F0EC
:1048900005FFAB69084905AA0AA805F0F3FE0AA9B5
:1048A0000246204603F0A6FE01209AE720AA440013
:1048B00030D600204DC60008BDC600082DE9F043E3
:1048C000124C1349A76C94F8008094F828909BB080
:1048D00007AD94ED020B06460322284602F0DEFEE9
:1048E000E36B0093CDE90395D4E90423CDE9017886
:1048F00008490BA805F0C6FE0BA90246304603F096
:1049000079FE01201BB0BDE8F08300BFA8E60020BF
:104910004DC6000865C6000830B597B0012205A94C
:10492000044604F07CF8E8B1012206A9204604F010
:1049300076F8B8B1012207A9204604F070F888B1D2
:10494000012208A9204604F06AF858B1012209A9F9
:10495000204604F064F828B101220AA9204604F098
:104960005EF840B920466FF0DF0102F091FF4FF092
:10497000FF3017B030BD0A9B104D0293099B019385
:10498000089B00930599DDE90623284602F012F8FA
:104990000028E7D195ED020B032209490BA802F08C
:1049A0007DFE0BAA07490FA805F06CFE0FA9024671
:1049B000204603F01FFE0120DBE700BFA8E6002031
:1049C0004DC6000848C600082DE9F04784469DF80A
:1049D0002C000A9F0C280C46DDE908690CF1300117
:1049E0001FFA83FE4FF00A0528D105FB03254CF280
:1049F000F8380EEB8E035B0023813CF80830AAB236
:104A0000C81803EB4203206000212CF80830E28034
:104A1000A4F804E06A0005F02DFE4FF48063002244
:104A2000CDE90A324FF48073CDE9085323684A4632
:104A300039463046BDE8F04701F09ABE08281AD141
:104A400005FB03254CF2F8380EEB8E035B00238147
:104A50003CF80830AAB2C8181344206000212CF892
:104A60000830E280A4F804E02A4605F003FE0023A3
:104A7000CDE90A33D8E725814CF2F83502F10A086E
:104A80003CF805301FFA88F2C81813442060002152
:104A90002CF80530E280A4F804E0424605F0EAFD77
:104AA0000023CDE90A33CDE9088306222368BFE756
:104AB00000F00700C0F10702031D042A28BF0422EA
:104AC000062B4FF0FF3303FA02F36FEA03038CBFA8
:104AD0000338002003F0050303FA00F070470000DC
:104AE00083680B4A012903EA020303D143F004035C
:104AF0008360704743F0100383604FF4401393FAD0
:104B0000A3F3C36823F0FB4323F48003C36070471F
:104B1000C0FFFF7F10B504691461848A9482847D8C
:104B20009475047814704478547084789470C078C4
:104B3000D0700A691A61CA68DA608A689A604A792C
:104B40005A710A791A710A681A6010BD012930B5C4
:104B500027D14CF22843274CC4504CF22C434FF43D
:104B60007A74C4524CF22E430C24C4544CF21843B1
:104B700040F20114C4504CF29044322303514CF2E1
:104B80008C4440F2FF7505514CF2884401514CF2BF
:104B90008544002101554CF2844401554CF280417A
:104BA0004350012A24D14CF240431249C1504CF2E7
:104BB00044434FF4FA61C1524CF246434FF0013185
:104BC000C2544CF23043C1504CF2A4410023435034
:104BD0004CF2A04143504CF29C4142504CF299425D
:104BE00083544CF2984283544CF294433222C25084
:104BF00030BD00BFA086010038B5044600F0DCFEE1
:104C0000012211462046FFF7A1FF04F54442114658
:104C1000104604F544436C3380311830FFF77AFFB7
:104C20004CF264430025E5542946C4E9005525812A
:104C3000C4E90355A582C4E906552584C4E909558C
:104C4000A5854CF2503204F1300005F013FD4CF212
:104C5000F83304F54442E5524CF2F4433A49E55046
:104C60004CF26643E5544CF26543E55400239364EB
:104C700004F54442D36404F54442536504F54442C8
:104C800013654CF267434FF0FF32E5544CF2684332
:104C9000E5544CF25843E5504CF25C43E5504CF27D
:104CA0006043E2504023C1F88030BFF34F8FBFF321
:104CB0006F8F8023C1F88030BFF34F8FBFF36F8FAA
:104CC0004FF48073C1F88030BFF34F8FBFF36F8F05
:104CD0004FF40073C1F88030BFF34F8FBFF36F8F75
:104CE0001A4CE068C0F30220FFF7E2FE00014FF427
:104CF0008025C0B281F812030D60E068C0F3022085
:104D0000FFF7D6FE0001C0B281F812030D60E06823
:104D1000C0F30220FFF7CCFE00014FF40043C0B205
:104D200081F82F034B60E068C0F30220FFF7C0FE5C
:104D30000001C0B281F83D034FF000534B60BDE865
:104D4000384001F065BD00BF00E100E000ED00E08B
:104D50004CF2D843002110B5C1504CF2DC4304465C
:104D6000C1504CF2E843C1504CF2AA43C1524CF23C
:104D7000B043C1504CF2B443C1504CF2A843C154AB
:104D8000C28812B1006805F075FC628A1AB1002170
:104D9000E06805F06FFCE28B1AB10021A06905F014
:104DA00069FC628D2AB1606A0021BDE8104005F0FF
:104DB00061BC10BD70B504460D4621B9504A136858
:104DC00023F0010313604CF264424E49A35823F0D0
:104DD0007F4323F0FF038B4262D04CF2DC4100237F
:104DE00063504CF2B44163504CF2B04163504CF20A
:104DF000A94163544CF2AD416354A35C012B58D8D4
:104E0000002D4ED004F5444319784B1E59425941A8
:104E10004FF0A040FFF764FE002D44D04CF2014358
:104E2000E35C012B3FD14CF26743E15CB1FA81F1C5
:104E300049093548FFF754FE002D36D04CF20243A5
:104E4000E35C012B31D14CF26743E15CB1FA81F1B3
:104E500049092E48FFF744FE4DB34CF20343E35C8F
:104E6000012B24D14CF26743E15CB1FA81F149098D
:104E70002748FFF735FE42F2107300BF013BFCD11B
:104E8000012D01BF1E4A136843F0010313604CF269
:104E90005843E2584CF2D843E2504CF26643E55492
:104EA00070BD2946B4E70021C3E70021D1E7002106
:104EB000DEE704F54546336823B940F2AB211548D7
:104EC00002F0F6F90E4B012DDA6803D142F40072BC
:104ED000DA60D0E722F40072DA60326853B2002B55
:104EE000C9DB01215B0902F01F0201FA02F2203343
:104EF000094941F82320BFF34F8FBFF36F8FBAE703
:104F000000040040000101000001005000040050B6
:104F100000050050A5C7000800E100E02DE9FF41B1
:104F200004460D460021FFF745FF2046FFF710FF1E
:104F30004CF2F8330021C4E900112181C4E90311C6
:104F4000A182C4E906112184C4E90911A1854CF2AA
:104F50005032E15204F1300005F08CFB4CF2164364
:104F60004CF25030E15C46F2A8130C2908BF1846F9
:104F70004CF26443E35C022B72D004F54442127895
:104F8000012B14BF1346531C4CF2014214F802804B
:104F90004CF20242A75C4CF20342A65C03EB08020F
:104FA0003A443244002D6CD06A43824269DC6BB1D2
:104FB000DFF8E8E003910122CDE9012E324A0092A8
:104FC000214603FB05F22046FFF7FEFCB8F1000F77
:104FD00012D04CF21643DFF8B8C0E35C039303230E
:104FE000CDE9013C294B009308FB05F2434604F14F
:104FF0000C012046FFF7E8FC8FB14CF21643244821
:10500000E35C03930523CDE90130224B009307FBBA
:1050100005F23B4604F118012046FFF7D5FC8EB19E
:105020004CF216431A49E35C03930423CDE90131A2
:10503000194B009306FB05F2334604F12401204688
:10504000FFF7C2FC4CF214432046E55201F0D8FAB7
:1050500020460121FFF7AEFE002004B0BDE8F0813C
:105060006B1E9BB24CF24F3293420AD80B4A03910B
:105070000623CDE901320A4B00932A460423214638
:10508000DDE76FF00100E8E740000050400100500C
:10509000000402404004005040050050000002405F
:1050A0001008004838B501F0FB03082B04460D46F4
:1050B00001D001293ED14CF216430C2DE55404F5E4
:1050C000444303F154032FD11D4A1A604CF2644348
:1050D000E35C012B31D800212046FFF76BFE204610
:1050E000FFF736FE082D14BF0025102529464FF086
:1050F000A04001F03BFC2946124801F037FC29464C
:10510000114801F033FC2946104801F02FFC4CF205
:1051100014432046E15AFFF701FF012105462046CE
:10512000FFF748FE284638BD082D0CBF084A4FF04F
:105130007E52CAE74FF0FF35F4E70025F2E700BFE3
:1051400000F07F45000100500004005000050050B1
:1051500000007F43000000002DE9F0434CF264435F
:1051600085B0C55C00F5444304461B780E46002B11
:1051700049D06B1E584258410130FBF7DBF902461B
:105180000B4625A1D1E90001FBF768FB8046894663
:10519000002E3DDD3046FBF7CDF9022D03D10FF295
:1051A0008809D9E9008942464B46FBF7BDFC054614
:1051B00070BB4CF210430146E6502046FFF7FAFD63
:1051C0002046FFF7C5FD04A9012741F8047D144BD3
:1051D00000964FF6FF7202A8029702F0B1F804F5AC
:1051E000444383ED020B0F4B029A9A62039ADA62F0
:1051F000204601F005FA20463946FFF7DBFD284638
:1052000005B0BDE8F0830FF21009D9E90089BFE7C6
:105210004FF0FF30F4E700BF00000000D012534110
:1052200000A24A040004004000000040529E634176
:105230002DE9F04F1F4600F544432DED028B044647
:1052400019704CF201438FB0E2544CF202439DF8C6
:105250006890C7544CF203438B4600F803908B18B8
:105260003B4413EB090F92461B9E07D14FF0FF35CD
:1052700028460FB0BDEC028BBDE8F08F4CF26643C0
:10528000C55C012D40F09B800021FFF793FD204677
:10529000FFF75EFD04954CF26443E35C022B7ED085
:1052A000002EE3DD012B0CBF0123002309934E4B9D
:1052B0001D684E4B304693ED008A14BF0123022334
:1052C0000893FBF737F90B46024649490020FBF7E4
:1052D000C5FA4CF21643CDE90A01E35C0C2B71D1FF
:1052E0009FED3B7B8DED067B404B05930026059B98
:1052F00053F8048B05934046FBF72EF900223D4BF3
:10530000FAF7CCFFDDE90623FAF7C8FF32A3D3E9A9
:105310000023FBF779F9CDE90C010898FBF70AF9AE
:1053200002460B46DDE90C01FBF76EF9DDE90A23C5
:10533000FBF7DCFB38B12C4B53F826500136082E16
:1053400008EE108AD3D104F5444383ED148A099BF7
:105350000026CDE901533246334659464FF0A0406E
:10536000009601F07FFA33465246314622480096B5
:10537000CDE9015601F076FA3B46324631461F48E8
:105380000096CDE9015601F06DFACDE90156CDF850
:105390000090334632463146194801F063FA4CF228
:1053A00014432046E15AFFF7B9FD049B0546002B44
:1053B0003FF45EAF01212046FFF7FCFC58E70023D5
:1053C000049368E79FED067B8CE700BFAFF3008096
:1053D0000000000000002940C2C298567FD34D3E15
:1053E000000000000000214008C2000828C2000898
:1053F0000000F03F0000E03F0001005000040050BA
:10540000000500502DE9F0414CF2644388B0C35CC4
:1054100004468846002B68D100F5444300F5444219
:105420008033183204F544416C3104F54440FFF7F1
:1054300071FB00212046FFF7BDFC2046FFF788FCEA
:105440004CF265430126E6544CF26443B04504F83F
:10545000038053D8002702A9032572480797CDE996
:1054600005770296CDE90355FCF788FE022302A9D1
:105470006C480293FCF782FE02A96B480296FCF787
:105480007DFE4FF4804302A967480293FCF776FE45
:10549000B8F1000F00F08C8029462046FFF73EFD52
:1054A0004FF064080C212046FFF7FCFD33463246DE
:1054B0003146CDE900682046FFF7BAFE0A212046B2
:1054C000FFF72CFD41462046FFF746FE3223CDE98B
:1054D00000533A463B463946204600F00BFE4CF25C
:1054E00060434FF0FF32E25051E0022BA1D100F5B2
:1054F000444300F544429433303293E714220021B0
:1055000003A805F0B7F803250F2302A94548029325
:105510000495FCF733FE29462046FFF7FFFC4CF2CA
:1055200046434CF24045E15C2046FFF7BBFD605925
:1055300001904CF233404CF232434CF231424CF287
:105540003041205CA25CE35C615C00902046FFF788
:105550006FFE61592046FFF7FFFD4CF244432046A1
:10556000E15AFFF7DBFC4CF294414CF2994361584D
:1055700001914CF2A4424CF29841E35C615CA25C64
:1055800000914CF29C416158204600F0B3FD4CF272
:1055900065430022E25401212046FFF70BFC4CF248
:1055A0005843E2584CF25C43E25008B0BDE8F08149
:1055B00029462046FFF7B2FC4CF22E434CF2284518
:1055C000E15C2046FFF76EFD605901904CF21B40F4
:1055D0004CF21A434CF219424CF21841205CA25C86
:1055E000E35C615C00902046FFF722FE6159204693
:1055F000FFF7B2FD4CF22C432046E15AFFF78EFC38
:105600004CF280414CF28543615801914CF2844147
:105610004CF29042615C0091E35CA25C4CF28841E8
:10562000B1E700BF00080048000400484FF44013F1
:1056300093FAA3F3C36823F0FB4323F48003C3600E
:105640007047000038B51E4C4CF2F4434CF2105237
:10565000E358D9884CF2F843E0581A4B034413F846
:10566000010C4CF2FC43E35803445B689BB2CB1A39
:10567000013B48BF01F1FF33A3504FF0A0431B682B
:10568000180607D5104B1B68190603D516210F48BD
:1056900001F00EFE4FF0A0452B681A060AD54CF219
:1056A0000453E058FFF7C2FF054800F03DFB80239C
:1056B0002B6003E0044D2B681B06F0D438BD00BFFF
:1056C000080F002013C8000800010050DAC70008C6
:1056D000144A4CF2F44310B5D358134CD9884CF209
:1056E000F843D058114B034413F8010C4CF2FC431F
:1056F000D35803445B689BB2CB1A013B48BF01F10E
:10570000FF334CF21051535023681B0609D54CF25D
:105710000453D058FFF78AFF024800F005FB8023AE
:10572000236010BD080F00200004005013C80008BB
:10573000144A4CF2F44310B5D358134CD9884CF2A8
:10574000F843D058114B034413F8010C4CF2FC43BE
:10575000D35803445B689BB2CB1A013B48BF01F1AD
:10576000FF334CF21051535023681B0609D54CF2FD
:105770000453D058FFF75AFF024800F0D5FA8023AF
:10578000236010BD080F00200005005013C800085A
:10579000164A4CF2F44310B5D358154CD9884CF244
:1057A000F843D058134B034413F8013C03F18043F2
:1057B00003F500335B689BB2CB1A013B48BF01F194
:1057C000FF334CF2105153506269D3070AD50A4B8C
:1057D0004022C3F88020BFF34F8FBFF36F8F034881
:1057E00000F062FB0123636110BD00BF080F0020C1
:1057F0000004014013C8000800E100E0164A4CF222
:10580000F44310B5D358154CD9884CF2F843D0580E
:10581000134B034413F8013C03F1804303F50033B9
:105820005B689BB2CB1A013B48BF01F1FF334CF2DE
:1058300010515350626993070AD50A4B8022C3F86E
:105840008020BFF34F8FBFF36F8F034800F02CFB16
:105850000223636110BD00BF080F00200004014057
:1058600013C8000800E100E0164A4CF2F44310B5FA
:10587000D358154CD9884CF2F843D058134B0344F5
:1058800013F8013C03F1804303F500335B689BB2DE
:10589000CB1A013B48BF01F1FF334CF2105153507A
:1058A000626953070BD50A4B4FF48072C3F880200E
:1058B000BFF34F8FBFF36F8F024800F0F5FA042358
:1058C000636110BD080F00200004014013C80008E8
:1058D00000E100E0164A4CF2F44310B5D358154CE1
:1058E000D9884CF2F843D058134B034413F8013CC9
:1058F00003F1804303F500335B689BB2CB1A013B95
:1059000048BF01F1FF334CF2105153506269130745
:105910000BD50A4B4FF40072C3F88020BFF34F8FB2
:10592000BFF36F8F024800F0BFFA0823636110BD18
:10593000080F00200004014013C8000800E100E047
:10594000024B5A6910225A61704700BF000401409F
:1059500000280DDB4309012200F01F0002FA00F0CD
:105960002033044A42F82300BFF34F8FBFF36F8FF9
:10597000704700BF00E100E010B54FF4401393FA08
:10598000A3F3036A91FAA1F4B4FA84F423EA0101BF
:10599000A2400A43026210BD4FF4401393FAA3F3EE
:1059A000C368044A23F0FB4323F480030A401343F3
:1059B000C36070470000C07D4CF20C52002383503E
:1059C0004CF21052012183504CF2D84283504CF2D9
:1059D000DC4283504CF2E04283504CF2E44283506C
:1059E0004CF2E84283504CF2EC4283504CF2F042CD
:1059F00083504CF2F44283504CF2F84281504CF206
:105A0000FC421B49815000F54542062111604CF2D1
:105A100004524FF0A04181504CF2085283524CF294
:105A20000A5283544CF2A84283504CF2AC42835247
:105A30004CF2B04283504CF2B44283504CF2B84224
:105A400083504CF2BC4283504CF2C04283504CF223
:105A5000C44283504CF2C84283504CF2CC42835033
:105A60004CF2D04283504CF2D4428352704700BF74
:105A70000000024038B54CF266430446C35C012B7B
:105A800040F08D804CF258434CF2D842C3588258B3
:105A90009B1A4CF2DC4248BF03F1FF3383504CF2B7
:105AA000AD43C35C5BBB4CF2DC43C2584CF2E043F9
:105AB000C3589A4223DD4CF27043C35C032B1ED0C3
:105AC0004CF26443C35C002B3DD14CF2F043C3580D
:105AD0001BB94D21754801F0EBFB4CF2D443E25C5D
