:020000040800F2
:1000000000000120CD1B00086D1B00086F1B0008BD
:10001000711B0008731B0008751B0008000000001E
:10002000000000000000000000000000ED67000874
:10003000771B000800000000F1670008CD6700088A
:100040001D1C00081D1C00081D1C00081D1C0008AC
:100050001D1C00081D1C000851580008BD58000850
:100060002959000895590008015A00081D1C00086C
:100070001D1C00081D1C00081D1C00081D1C00087C
:100080001D1C00081D1C0008F55600081D1C00085A
:100090001D1C00081D1C00081D1C00081D1C00085C
:1000A0001D1C00081D1C00081D1C00081D1C00084C
:1000B0001D1C00081D1C00081D1C00081D1C00083C
:1000C0001D1C00081D1C00081D1C00081D1C00082C
:1000D0001D1C00081D1C00086D3400081D1C0008B4
:1000E0001D1C00081D1C00081D1C00081D1C00080C
:1000F000C93100081D1C00081D1C000871570008AC
:100100001D1C000800000000000000001D1C00086D
:100110001D1C00081D1C00081D1C00081D1C0008DB
:100120001D1C00081D1C00081D1C00081D1C0008CB
:100130001D1C0008E157000800000000000000003E
:100140001D1C00081D1C00081D1C000800000000EC
:10015000000000000000000000000000000000009F
:100160001D1C00081D1C00081D1C00081D1C00088B
:100170001D1C00081D1C00081D1C00081D1C00087B
:100180001D1C00081D1C00080000000000000000ED
:040190001D1C00082A
:1001A00010B5054C237833B9044B13B10448AFF3B1
:1001B00000800123237010BD100200200000000009
:1001C00024C3000808B5034B1BB103490348AFF330
:1001D000008008BD000000001402002024C30008B5
:1001E000034613F8012B002AFBD1181A0138704777
:1001F00001F0FF01102A2BDB10F0070F08D010F8D8
:10020000013B013A8B422DD010F0070F42B3F6D1DB
:10021000F0B441EA012141EA014122F007047FF0F4
:1002200000070023F0E80256083C85EA010586EA4B
:10023000010685FA47F5A3FA87F586FA47F6A5FA87
:1002400087F68EB9EED1F0BC01F0FF0102F0070293
:1002500032B110F8013B013A83EA010313B1F8D13E
:100260000020704701387047002D06BF354603381F
:10027000073815F0010F07D1013015F4807F02BF58
:10028000013015F4C03F0130F0BC0138704700BFA9
:1002900081F0004102E000BF83F0004330B54FEA37
:1002A00041044FEA430594EA050F08BF90EA020FA4
:1002B0001FBF54EA000C55EA020C7FEA645C7FEA37
:1002C000655C00F0E2804FEA5454D4EB5555B8BF5A
:1002D0006D420CDD2C4480EA020281EA030382EACB
:1002E000000083EA010180EA020281EA0303362D5D
:1002F00088BF30BD11F0004F4FEA01314FF4801C30
:100300004CEA113102D0404261EB410113F0004F41
:100310004FEA03334CEA133302D0524263EB4303F8
:1003200094EA050F00F0A780A4F10104D5F1200E96
:100330000DDB02FA0EFC22FA05F2801841F10001F1
:1003400003FA0EF2801843FA05F359410EE0A5F1C5
:1003500020050EF1200E012A03FA0EFC28BF4CF0F6
:10036000020C43FA05F3C01851EBE37101F00045AC
:1003700007D54FF0000EDCF1000C7EEB00006EEBB9
:100380000101B1F5801F1BD3B1F5001F0CD3490843
:100390005FEA30004FEA3C0C04F101044FEA44529A
:1003A00012F5800F80F09A80BCF1004F08BF5FEA21
:1003B000500C50F1000041EB045141EA050130BD01
:1003C0005FEA4C0C404141EB010111F4801FA4F1A4
:1003D0000104E9D191F0000F04BF01460020B1FAF9
:1003E00081F308BF2033A3F10B03B3F120020CDA31
:1003F0000C3208DD02F1140CC2F10C0201FA0CF00F
:1004000021FA02F10CE002F11402D8BFC2F1200C73
:1004100001FA02F120FA0CFCDCBF41EA0C01904029
:10042000E41AA2BF01EB0451294330BD6FEA040472
:100430001F3C1CDA0C340EDC04F11404C4F120025D
:1004400020FA04F001FA02F340EA030021FA04F36F
:1004500045EA030130BDC4F10C04C4F1200220FAC6
:1004600002F001FA04F340EA0300294630BD21FA04
:1004700004F0294630BD94F0000F83F4801306BFCA
:1004800081F480110134013D4EE77FEA645C18BFBE
:100490007FEA655C29D094EA050F08BF90EA020F55
:1004A00005D054EA000C04BF1946104630BD91EA4D
:1004B000030F1EBF0021002030BD5FEA545C05D150
:1004C0004000494128BF41F0004130BD14F580048F
:1004D0003CBF01F5801130BD01F0004545F0FE4103
:1004E00041F470014FF0000030BD7FEA645C1ABF38
:1004F000194610467FEA655C1CBF0B46024650EA6F
:10050000013406BF52EA033591EA030F41F400219A
:1005100030BD00BF90F0000F04BF0021704730B520
:100520004FF4806404F132044FF000054FF00001F5
:1005300050E700BF90F0000F04BF0021704730B5B6
:100540004FF4806404F1320410F0004548BF40428B
:100550004FF000013EE700BF42004FEAE2014FEAE0
:1005600031014FEA02701FBF12F07F4393F07F4FBB
:1005700081F06051704732F07F4208BF704793F0BE
:100580007F4F04BF41F40021704730B54FF46074D1
:1005900001F0004521F000411CE700BF50EA0102D4
:1005A00008BF704730B54FF000050AE050EA01027D
:1005B00008BF704730B511F0004502D5404261EBED
:1005C00041014FF4806404F132045FEA915C3FF42E
:1005D000D8AE4FF003025FEADC0C18BF03325FEACB
:1005E000DC0C18BF033202EBDC02C2F1200300FA7C
:1005F00003FC20FA02F001FA03FE40EA0E0021FAA1
:1006000002F11444BDE600BF70B54FF0FF0C4CF48E
:10061000E06C1CEA11541DBF1CEA135594EA0C0F40
:1006200095EA0C0F00F0DEF82C4481EA030621EA7B
:100630004C5123EA4C5350EA013518BF52EA0335B6
:1006400041F4801143F4801338D0A0FB02CE4FF068
:100650000005E1FB02E506F00042E0FB03E54FF098
:100660000006E1FB03569CF0000F18BF4EF0010E90
:10067000A4F1FF04B6F5007F64F5407404D25FEA8C
:100680004E0E6D4146EB060642EAC62141EA55513F
:100690004FEAC52040EA5E504FEACE2EB4F1FD0C81
:1006A00088BFBCF5E06F1ED8BEF1004F08BF5FEAFF
:1006B000500E50F1000041EB045170BD06F00046B1
:1006C00046EA010140EA020081EA0301B4EB5C045E
:1006D000C2BFD4EB0C0541EA045170BD41F4801156
:1006E0004FF0000E013C00F3AB8014F1360FDEBF7B
:1006F000002001F0004170BDC4F10004203C35DA57
:100700000C341BDC04F11404C4F1200500FA05F3D9
:1007100020FA04F001FA05F240EA020001F000427A
:1007200021F0004110EBD37021FA04F642EB0601F0
:100730005EEA430E08BF20EAD37070BDC4F10C041A
:10074000C4F1200500FA04F320FA05F001FA04F2DE
:1007500040EA020001F0004110EBD37041F10001CA
:100760005EEA430E08BF20EAD37070BDC4F12005D5
:1007700000FA05F24EEA020E20FA04F301FA05F23D
:1007800043EA020321FA04F001F0004121FA04F2E5
:1007900020EA020000EBD3705EEA430E08BF20EAB5
:1007A000D37070BD94F0000F0FD101F000464000EF
:1007B00041EB010111F4801F08BF013CF7D041EA71
:1007C000060195F0000F18BF704703F00046520075
:1007D00043EB030313F4801F08BF013DF7D043EA46
:1007E0000603704794EA0C0F0CEA135518BF95EAFC
:1007F0000C0F0CD050EA410618BF52EA4306D1D183
:1008000081EA030101F000414FF0000070BD50EAA1
:10081000410606BF1046194652EA430619D094EA2B
:100820000C0F02D150EA013613D195EA0C0F05D115
:1008300052EA03361CBF104619460AD181EA030169
:1008400001F0004141F0FE4141F470014FF0000021
:1008500070BD41F0FE4141F4780170BD70B54FF0BC
:10086000FF0C4CF4E06C1CEA11541DBF1CEA13553C
:1008700094EA0C0F95EA0C0F00F0A7F8A4EB05041E
:1008800081EA030E52EA03354FEA013100F0888015
:100890004FEA03334FF0805545EA131343EA1263DE
:1008A0004FEA022245EA111545EA10654FEA002693
:1008B0000EF000419D4208BF964244F1FD0404F54C
:1008C000407402D25B084FEA3202B61A65EB0305A8
:1008D0005B084FEA32024FF480104FF4002CB6EB65
:1008E000020E75EB030E22BFB61A754640EA0C00E5
:1008F0005B084FEA3202B6EB020E75EB030E22BF25
:10090000B61A754640EA5C005B084FEA3202B6EB65
:10091000020E75EB030E22BFB61A754640EA9C0024
:100920005B084FEA3202B6EB020E75EB030E22BFF4
:10093000B61A754640EADC0055EA060E18D04FEAB2
:10094000051545EA16754FEA06164FEAC30343EA52
:1009500052734FEAC2025FEA1C1CC0D111F4801F1F
:100960000BD141EA00014FF000004FF0004CB6E718
:1009700011F4801F04BF01430020B4F1FD0C88BFB7
:10098000BCF5E06F3FF6AFAEB5EB030C04BFB6EBC2
:10099000020C5FEA500C50F1000041EB045170BDB5
:1009A0000EF0004E4EEA113114EB5C04C2BFD4EBE2
:1009B0000C0541EA045170BD41F480114FF0000E66
:1009C000013C90E645EA060E8DE60CEA135594EAE2
:1009D0000C0F08BF95EA0C0F3FF43BAF94EA0C0FE5
:1009E0000AD150EA01347FF434AF95EA0C0F7FF45A
:1009F00025AF104619462CE795EA0C0F06D152EAAE
:100A000003353FF4FDAE1046194622E750EA410691
:100A100018BF52EA43067FF4C5AE50EA41047FF4A2
:100A20000DAF52EA43057FF4EBAE12E74FF0FF3C07
:100A300006E000BF4FF0010C02E000BF4FF0010CD8
:100A40004DF804CD4FEA410C7FEA6C5C4FEA430C51
:100A500018BF7FEA6C5C1BD001B050EA410C0CBFA0
:100A600052EA430C91EA030F02BF90EA020F002002
:100A7000704710F1000F91EA030F58BF994208BF69
:100A800090422CBFD8176FEAE37040F00100704726
:100A90004FEA410C7FEA6C5C02D150EA013C07D17D
:100AA0004FEA430C7FEA6C5CD6D152EA033CD3D0C8
:100AB0005DF8040B704700BF8446104662468C46C2
:100AC0001946634600E000BF01B5FFF7B7FF0028F5
:100AD00048BF10F1000F01BD4DF808EDFFF7F4FF1E
:100AE0000CBF012000205DF808FB00BF4DF808EDA9
:100AF000FFF7EAFF34BF012000205DF808FB00BFCC
:100B00004DF808EDFFF7E0FF94BF012000205DF8ED
:100B100008FB00BF4DF808EDFFF7CEFF94BF0120A2
:100B200000205DF808FB00BF4DF808EDFFF7C4FF9B
:100B300034BF012000205DF808FB00BF4FEA4102EE
:100B400012F5001215D211D56FF47873B3EB62521F
:100B500012D94FEAC12343F0004343EA505311F046
:100B6000004F23FA02F018BF404270474FF00000D8
:100B7000704750EA013005D111F0004008BF6FF016
:100B8000004070474FF00000704700BF4A0011D28C
:100B900012F5001211D20DD56FF47873B3EB6252D7
:100BA0000ED44FEAC12343F0004343EA505323FAE3
:100BB00002F070474FF00000704750EA013002D158
:100BC0004FF0FF3070474FF0000070474FEA41028E
:100BD000B2F1E04324BFB3F5001CDCF1FE5C0DD99B
:100BE00001F0004C4FEAC0024CEA5070B2F1004FE5
:100BF00040EB830008BF20F00100704711F0804FE8
:100C000021D113F13872BCBF01F00040704741F4AC
:100C100080114FEA5252C2F11802C2F1200C10FAB0
:100C20000CF320FA02F018BF40F001004FEAC12394
:100C30004FEAD32303FA0CFC40EA0C0023FA02F338
:100C40004FEA4303CCE77FEA625307D150EA01330E
:100C50001EBF4FF0FE4040F44000704701F00040DE
:100C600040F0FE4040F40000704700BFD0B50022C5
:100C70000D4B06460F46FFF7C7FCFFF787FF0446FC
:100C8000FFF748FC0022094BFFF7BEFC02460B466B
:100C900030463946FFF700FBFFF778FF0022234676
:100CA00010431946D0BD00BF0000F03D0000F041E8
:100CB000054B194411F8011C435823F4804323F0D9
:100CC00010031A434250704740C30008044B1944B4
:100CD00011F8011C435823F020031A434250704777
:100CE00040C30008044B194411F8011C435823F475
:100CF00040731A434250704740C30008044B1944E4
:100D000011F8011C435823F440631A4342507047C2
:100D100040C30008044B194411F8011C435823F444
:100D200040531A434250704740C30008054B5A696C
:100D300002435A615B6982B018400190019B02B086
:100D4000704700BF00100240054BDA690243DA61C8
:100D5000DB6982B018400190019B02B0704700BF70
:100D60000010024010B54FF4407393FAA3F31F2410
:100D7000036B8C40C2F3846223EA040302FA01F19C
:100D80001943016310BD0000044B194411F8012CF4
:100D9000835843F080038350704700BF40C300086E
:100DA000044B194411F8012C835823F0400383505D
:100DB000704700BF40C300084FF0A042936823F083
:100DC00040539360936823F0104323F03F0343F0B4
:100DD0008053936070474FF4401393FAA3F3036A70
:100DE00003F0F02343F07F6343F470230362704702
:100DF0004FF4401393FAA3F3C368044A23F0FB4370
:100E000023F480030A401343C36070470000C07D91
:100E100030B54FF0007393FAA3F301F00072B3FA08
:100E200083F322FA03F314304FF0F87450F82320C0
:100E300094FAA4F5B5FA85F52140E940072505FAAD
:100E400001F122EA010194FAA4F440F8231030BD24
:100E5000304B1A6822F0070242F0020210B51A6005
:100E60001A6802F00702022AFAD12B4C236843F4D5
:100E70008033236023689A03FCD5636823F47613D8
:100E800043F4E8136360E36A23F00F03E36223682B
:100E900043F08073236023689B01FCD5636823F0D3
:100EA000F0036360636823F4E06343F4806363608A
:100EB000636823F460536360636823F0030343F0C3
:100EC00002036360636803F00C03082BFAD1134834
:100ED00001F0AEFD0F2000F0A3FE236B23F440339E
:100EE0002363236B43F400732363236B43F080730A
:100EF0002363236B43F000732363E36A23F4F873E3
:100F000043F48073E362E36A23F4785343F40053B9
:100F1000E36210BD002002400010024000A24A041B
:100F20002DE9F04F0024A1B000F09EFEFFF790FFE6
:100F30002146182216A8CDE90E44109409F07AFC37
:100F40004FF40020FFF7F2FE4FF48000FFF7EEFEB3
:100F50004FF40030FFF7EAFE4FF48020FFF7E6FE83
:100F60004FF090422023E34993624A69F02393FAB9
:100F7000A3F30220B3FA83F322F0F00200FA03F3A2
:100F80001343DD484B61C2684FF4005595FAA5F351
:100F9000B3FA83F303265B0006FA03F322EA0303A2
:100FA00095FAA5F2C360026895FAA5F3B3FA83F344
:100FB0005B0006FA03F322EA030395FAA5F2012780
:100FC00003604FF002030EA8CDE90E548DF84230B5
:100FD0008DF840708DF8414001F028F82023CDE9CC
:100FE000163716AB19464FF09040CDE918441A94C5
:100FF00001F0B6F83846FFF799FE0220FFF796FE9B
:10100000214618220EA8CDE90344059409F012FCEC
:101010002146102208A809F00DFC1822214616A826
:1010200009F008FC4FF08050FFF780FE4FF40020DD
:10103000FFF77CFEDFF8D082AF481A9416AB194652
:10104000CDE9167601F08CF8404622463946FFF786
:101050002FFE39464FF44052FFF75CFE20223946FE
:10106000FFF734FE3946FFF79BFE3946FFF78CFE4B
:1010700039464FF48072FFF735FE4FF480623946EF
:10108000FFF73CFE03AB19464FF0A040CDE9034407
:10109000059400F067FF4FF4A0630E9301934FF4A3
:1010A000805313930EABDFF864B2DFF864A2DFF86D
:1010B000649219464FF0A0404FF0A045CDE911468B
:1010C000CDE90F7400F064FFFFF776FE08AB194618
:1010D0005846CDE9084400F01BFFEA68874922F42E
:1010E000406242F480622846EA60FFF781FEFFF723
:1010F00072FE6A6842F080026A6006215246FFF77B
:1011000031FE5146FFF784FED5F8B02022F480224C
:10111000C5F8B020DBF8082022F0E07242F480022B
:101120002846CBF808200C214A46FFF71BFE49460B
:10113000FFF76EFED5F8B020DFF8DC9122F0400218
:10114000C5F8B020214618220EA8CDE908440A941B
:1011500009F070FB1822214616A809F06BFB4FF02E
:101160008050FFF7E3FD4FF40020FFF7DFFD02237F
:10117000CDE9163605F1704516AB194605F5013572
:101180005D481A9400F0ECFF284622463146FFF7EE
:101190008FFD31464FF44052FFF7BCFD202231460F
:1011A000FFF794FD3146FFF7FBFD3146FFF7ECFDFD
:1011B00031464FF48072FFF795FD31464FF480625F
:1011C000FFF79CFD4B490A6808AB42F48072484621
:1011D0000A601946CDE908440A9400F0C3FE019B59
:1011E0001296CDE90E374FF4805313930EAB484659
:1011F0001946CDE9104400F0CBFEFFF7DDFDD9F82C
:101200000C303F4923F4406343F480634846C9F8F7
:101210000C30FFF7EDFDFFF7DEFDD9F8043043F0A9
:101220008003C9F8043052460621FFF79BFD514662
:10123000FFF7EEFDD9F8B03023F48023C9F8B030C1
:10124000DBF8083023F0E07343F48003CBF8083078
:10125000DFF8C8B048465A460C21FFF783FD5946CF
:10126000FFF7D6FDD9F8B030DFF8B4B023F0800333
:10127000C9F8B030214618220EA8CDE903440594E0
:1012800009F0D8FA2146102208A809F0D3FA18224A
:10129000214616A809F0CEFA4FF00050FFF746FDA0
:1012A0004FF48020FFF742FD16AB194615481A94FB
:1012B000CDE9167600F054FF284622460521FFF7B7
:1012C000F7FC4FF440520521FFF724FD20220521B1
:1012D000FFF7FCFC0521FFF763FD0521FFF754FD37
:1012E0004FF480720521FFF7FDFC4FF48062052169
:1012F00018E000BF00000140000800480000C4C81A
:101300008000C01C000400480000024000030050A0
:10131000000084CB40002019000100508000501DC7
:101320000007005009F54079FFF7E8FC03AB484699
:101330001946CDE90344059400F014FE4FF4D86338
:10134000CDE90E374FF4805313930EAB4846194640
:101350001296CDE9104400F01BFEFFF72DFD08ABFF
:1013600019465846CDE9084400F0D2FDD9F80C30B2
:10137000E74923F4406343F480634846C9F80C30DE
:10138000FFF736FDFFF727FDD9F8043043F080035F
:10139000C9F8043052460621FFF7E4FC5146FFF736
:1013A00037FDD9F8B03023F48023C9F8B030DBF82A
:1013B000083023F0E07343F48003CBF80830D54BBA
:1013C000019348461A460C21FFF7CCFC019B1946B5
:1013D000FFF71EFDD9F8B03023F48053C9F8B030C0
:1013E000214618220EA8CDE908440A9409F022FAF1
:1013F0001822214616A809F01DFA4FF00050FFF7F9
:1014000095FC4FF48020FFF791FC4FF48043CDE929
:10141000163616AB1946C0481A9400F0A1FE2846AD
:1014200022460421FFF744FC4FF440520421FFF709
:1014300071FC20220421FFF749FC0421FFF7B0FCD6
:101440000421FFF7A1FC4FF480720421FFF74AFC4E
:101450004FF480620421FFF751FCB04A136809F58C
:10146000807943F48073136008A94846CDE90844A5
:101470000A9400F077FD4FF4D861CDE90E174FF4D0
:101480008051139148460EA91296CDE9104400F000
:101490007FFDFFF791FCD9F80C3023F4406343F44F
:1014A0008063C9F80C309E4B019319464846FFF7FC
:1014B0009FFCFFF790FCD9F8042042F08002C9F8A5
:1014C000042006215246FFF74DFC5146FFF7A0FCD1
:1014D000D9F8B020019BDFF84CA222F48022C9F891
:1014E000B020DBF8082022F0E07242F48002484687
:1014F000CBF808200C211A46FFF734FC019B194653
:10150000FFF786FCD9F8B03023F01003C9F8B030EB
:10151000214614220EA809F08DF92146202216A892
:1015200009F088F90220FFF70FFC40462246062109
:10153000FFF7BEFB4FF440520621FFF7EBFB2022E2
:101540000621FFF7C3FB0621FFF72AFC0621DFF87F
:10155000D891FFF719FC4FF480720621FFF7C2FB08
:101560004FF480620621FFF7C9FB4FF47A7B4823D2
:101570000EA94846ADF838B0CDE910340F9400F00C
:101580009BFFD9F8003043F08003C9F80030D9F848
:10159000083023F4A03323F0070316A9C9F8083054
:1015A0000A4648463946CDE91644CDE918441A940E
:1015B00000F0EAFFD9F8183023F00403C9F8183016
:1015C000D9F8043023F0700343F02003C9F8043045
:1015D000D9F8083023F08003C9F8083021461422D6
:1015E00008A809F027F92146202216A809F022F9B7
:1015F000182221460EA84FF0804909F01BF9384601
:10160000FFF7A2FB08A94FF08040CDE9094BADF8E8
:1016100020400B9400F050FFD9F8003023F08003F5
:10162000C9F80030D9F8083023F4A03323F00703B9
:10163000C9F80830DAF8043016A943F00803484620
:10164000CAF804300A4660234FF480711693019360
:10165000CDE91744CDE9194400F096FFDAF80420EB
:1016600042F00402CAF80420D9F8042022F07002E3
:1016700042F01002C9F80420D9F8082042F0800294
:10168000C9F808204FF48020FFF750FB4FF4806327
:101690000221CDE90E3120480EA9CDE91064CDE933
:1016A000124700F05DFD2146142208A809F0C2F897
:1016B0002146202216A809F0BDF8214618220EA8BE
:1016C00009F5006909F0B6F80420FFF73DFB49224F
:1016D00008A94846ADF820B0CDE90A24099400F0E5
:1016E000EBFED9F80020019B42F08002C9F80020EF
:1016F000D9F8082022F4A03222F00702C9F8082005
:10170000DAF804281A9416A942F008020EE000BF85
:101710000010C0300010603200040048000001409A
:101720001000C0101800004000040040CAF804284F
:1017300048460A464FF48071CDE91634CDE9184485
:1017400000F022FFDAF8043843F00403CAF8043842
:10175000D9F8083023F0700343F01003C9F80830BB
:10176000D9F8083023F4803323F0070343F006034D
:10177000C9F80830D9F80C3023F04003C9F80C3010
:10178000D9F80C3023F48043C9F80C30D9F8043070
:1017900023F0700343F02003C9F80430D9F808306F
:1017A00023F080030DF1380BC9F808304FF4802086
:1017B0004FF00209FFF7BAFA4FF480735946C9484F
:1017C0000E930193CDE90F96CDE91144CDF84C90DD
:1017D00000F0C6FCC44B1A6842F480221A600DF176
:1017E000580A21461022584609F024F821461822AA
:1017F000504609F01FF84FF00050FFF7A5FA4FF4DC
:101800000030FFF793FA102251464FF09040CDE997
:1018100016261A9400F0A4FC404631461022FFF729
:1018200047FA31464FF40052FFF774FA202231464E
:10183000FFF74CFA3146FFF7B3FA3146FFF7A4FA47
:1018400031464FF40072FFF74DFA31464FF4006213
:10185000FFF754FAA44BA5491A68A8F5C63842F414
:1018600000521A6040465A46CDE90E44119400F0E9
:10187000B3FBD8F8002042F00402C8F8002021464B
:101880004FF02008142203A808F0D4FF4246214656
:10189000584608F0CFFF21462822504608F0CAFFDC
:1018A000214618220DEB080008F0C4FF904A916908
:1018B00041F400519161926902F4005202924FF496
:1018C0000020029AFFF732FA4FF40072CDE908299E
:1018D0000DEB0801042287480D92CDE90A640C94AF
:1018E00000F03EFC284622464946FFF7E1F949460A
:1018F0004FF48052FFF70EFA22464946FFF7E6F909
:101900004946FFF74DFA4946FFF73EFA019B494623
:101910001A46FFF7E7F949464FF48062FFF7EEF900
:1019200022463946FFF7C4F939464FF48052FFF793
:10193000F1F922463946FFF7C9F93946FFF730FA7F
:101940003946FFF721FA019B39461A46A5F550455D
:10195000FFF7C8F94FF480623946FFF7CFF94FF629
:10196000FF7603A92846ADF80C400494CDE9056440
:10197000079400F0A1FD2B6823F080032B60AB6877
:1019800023F4A03323F00703AB605A461021284606
:10199000CDE90E44CDE91044CDE91244CDE914441B
:1019A00000F0F2FDAB6923F48063AB616B6823F058
:1019B00070036B606B6823F470036B60AB6823F09B
:1019C0008003AB604C4B5A6822F0030242EA0902E2
:1019D0005A605A6822F00C025A605A6822F0F002EB
:1019E0005A602A6A22F420622A625A6822F44072FB
:1019F00042F480725A605A6822F440625A605A680F
:101A000022F470425A602B6A23F420432B624FF475
:101A100000535146CDE91A3428464FF00073374D34
:101A20001894CDE916448DF86440ADF866401C94D6
:101A3000CDE91D341F9400F041FF314BAC612846C5
:101A4000C5E90034C5E902461694CAE9014400F02C
:101A5000E3F951462846CDF85880189400F00CFA66
:101A600021461C22504608F0E5FE18222146584621
:101A700008F0E0FE4FF40030FFF766F94FF4003055
:101A8000FFF754F90C25072359464FF09040CDE954
:101A90000E591393CDE91044129400F061FBCDE987
:101AA0001A54184D1C944FF4E13351462846CDE9A1
:101AB0001634CDE9184400F045FFAB6823F4806389
:101AC000AB606B6823F490436B60AB6823F02A0330
:101AD000AB602B683B432B6001F004F9204621B03A
:101AE000BDE8F08F00040048000001400100100232
:101AF0000010024000080048183401409C050020F6
:101B000000100040004400400D4B9A6942F0010271
:101B10009A619A6982B002F001020092009ADA6931
:101B200042F08052DA61DB6903F080530193019B3C
:101B300000220F216FF0010002B000F0B9B800BF21
:101B4000001002400268084B9A4282B00AD103F5A5
:101B50000033DA6942F01002DA61DB6903F0100346
:101B60000193019B02B07047001000407047FEE7F0
:101B7000FEE7FEE7FEE770470B4B196810B502461B
:101B800009B90A491960186809490A4C0244091B35
:101B90008A4206D908F0DCFD0C2303604FF0FF30C9
:101BA00010BD1A60FCE700BF2C020020F0F40020FA
:101BB0000000012000040000034AD2F8883043F4FA
:101BC0007003C2F88830704700ED00E0DFF834D0D1
:101BD0000D480E490E4A002302E0D458C450043385
:101BE000C4188C42F9D30B4A0B4C002301E013605C
:101BF0000432A242FBD3FFF7DFFF08F0AFFDFFF78F
:101C00008FF9FEE700000120000000200C020020F8
:101C1000D0D0000810020020ECF40020FEE7000005
:101C200038B50E4A0E4B054618784FF47A73B3FB5D
:101C3000F0F31068B0FBF3F000F06EF8044658B90A
:101C40000F2D09D8024629464FF0FF3000F030F83A
:101C5000044B20461D6038BD0120FCE70000002039
:101C60000400002008000020074A08B5136843F06C
:101C700010031360032000F009F80F20FFF7D0FFD6
:101C8000FFF742FF002008BD00200240074AD3684A
:101C900023F4E0631B041B0C43F0BF63000243F416
:101CA000003300F4E0600343D360704700ED00E0D0
:101CB000174B70B5DC68C4F30224C4F10705042D8A
:101CC00004F1040328BF04254FF0FF36062B06FA63
:101CD00005F38CBF033C002421EA0303A34006FA6A
:101CE00004F422EA0404002843EA0403A8BF00F134
:101CF00060404FEA0313BCBF00F00F00054ADBB29F
:101D0000AABF00F56140135480F8003370BD00BFD6
:101D100000ED00E014ED00E00138B0F1807F0AD260
:101D2000064B074A5860F02182F823100020072252
:101D300098601A6070470120704700BF10E000E013
:101D400000ED00E0324A0368904212D0B0F1804FBB
:101D50000FD0A2F5943290420BD002F580629042EF
:101D600007D002F59632904203D002F5E05290423D
:101D700015D14A6823F070031343254A90421DD0C1
:101D8000B0F1804F1AD0A2F59432904216D002F5ED
:101D90008062904212D002F5963290420ED01D4AD7
:101DA00090420BD002F58062904207D002F580622B
:101DB000904203D002F50062904203D1CA6823F436
:101DC000407313434A6923F08003134303608B6815
:101DD000C3620B6883620E4B984213D003F5006315
:101DE00098420FD003F5406398420BD003F580630F
:101DF000984207D003F58063984203D003F500634F
:101E0000984201D10B69036301234361704700BF0E
:101E1000002C01400040014010B5044650B390F83A
:101E20003D3003F0FF021BB980F83C20FFF78AFE2B
:101E3000022384F83D302068211DFFF783FF012332
:101E400084F84830002084F83E3084F83F3084F82D
:101E5000403084F8413084F8423084F8433084F8CC
:101E6000443084F8453084F8463084F8473084F8AC
:101E70003D3010BD0120FCE790F83C30012B30B51F
:101E80004FF0020340D080F83D30204D036801221E
:101E9000AB4280F83C205A689C6807D005F5006585
:101EA000AB4203D005F5E055AB4203D14D6822F4B7
:101EB00070022A430D6822F070022A435A60134AC6
:101EC000934216D0B3F1804F13D0A2F594329342CF
:101ED0000FD002F5806293420BD002F59632934206
:101EE00007D002F54062934203D002F5805293423C
:101EF00004D1896824F080020A439A60012380F8A3
:101F00003D30002380F83C30184630BD002C0140A5
:101F1000114B98420CBF4FF0A043104B9A6803F549
:101F2000807330B59B681343DB4303F001038BB12F
:101F3000D1E900430A4D82682A4043B12343134349
:101F40008A681343CA6813438360002030BD22436C
:101F50008260FAE70120F9E7000300500004005016
:101F6000E030FCFF836813F0010330B50DD1D1E9F7
:101F70000025C46889682A430A4324F4804121F07B
:101F800038010A43C260184630BD0120FCE700005A
:101F90008368DB07F0B51BD4D1E90032D1E90347F0
:101FA0004E690C4D234372B1C46889683B43334387
:101FB0002C4023430B43C360036B23F00F031343F5
:101FC00003630020F0BDC1683B4333432940F1E780
:101FD0000120F7E73CC0F0FF70B501F01001056883
:101FE000012303FA01F4AC431DD0D2E90043D668C3
:101FF0007BB12343926805683343134340F6FA7478
:102000008B4004FA01F125EA010119430160002027
:1020100070BD0268FA258D40344322EA050204FAB5
:1020200001F11143F2E71846F2E700000146D0E95A
:102030000032007A30B500287DD0002B44D0487A99
:10204000012827D003D302282DD0012008E04348DF
:10205000446824EA0304446004681C4304600020CC
:102060008C7A6CB1022C22D0032C29D0012C2DD1DA
:102070003A4CE56825EA0305E560A5682B43A360B3
:10208000002A3DD04B7A012B3BD021D3022B41D0EB
:10209000012025E03148046824EA03040460446810
:1020A0001C434460DBE72D4804681C43F6E72B4CD7
:1020B000A56825EA0305A560E5682B43E360DFE733
:1020C000264CA5681D43F6E71846D9E70120D7E757
:1020D000224B5C6A24EA02045C621C6A14431C62A0
:1020E0008B7A6BB1022B19D0032B20D0012B32D16C
:1020F0001A4BD96A21EA0201D962996A0A439A62A3
:1021000030BD164B1C6A24EA02041C625C6A14434C
:102110005C62E5E7114B1C6A1443F6E70F4B996AC2
:1021200021EA02019962D96A0A43DA62E8E70B4BB5
:10213000996A1143F6E709490C68DB431C400C60BF
:102140004C6823404B600B6AD24313400B624B6ACE
:102150001A404A62D4E70120D2E700BF00040140E0
:102160002DE9F04F02460D6895FAA5F44FF0010EE7
:10217000B4FA84F403264FF00F0C6FEA050835FA21
:1021800004F001D1BDE8F08F0EFA04F32B406CD0BF
:102190004868471E012F1ED8976893FAA3F9B9FA29
:1021A00089F993FAA3FA4FEA490906FA09F927EAE5
:1021B0000909BAFA8AFA8F684FEA4A0A07FA0AF74F
:1021C00049EA07079760576808EA0709CF686F432D
:1021D00049EA07075760D76893FAA3F9B9FA89F96A
:1021E00093FAA3FA4FEA490906FA09F927EA090915
:1021F000BAFA8AFA0F694FEA4A0A07FA0AF749EA6D
:1022000007070228D7601DD193FAA3F7B7FA87F71B
:10221000072FD1F814A02ADCD2F820B093FAA3F744
:10222000B7FA87F793FAA3F9B9FA89F9BF000CFA5C
:1022300007F74FEA89092BEA07070AFA09FA47EA7A
:102240000A071762D2F8009093FAA3F7B7FA87F754
:1022500093FAA3F3B3FA83F37F0006FA07F75B0060
:1022600029EA0707984007431760013487E7D2F847
:1022700024B04FEA132999FAA9F7B7FA87F799FA20
:10228000A9F9B9FA89F9BF000CFA07F74FEA8909E9
:102290002BEA07070AFA09FA47EA0A075762D1E761
:1022A000024B1868C0F34000704700BF00100240A6
:1022B000034B044A5B68C3F30313D35CD8407047F5
:1022C0000010024047C30008034B044A5B68C3F395
:1022D0000223D35CD84070470010024057C3000867
:1022E000034B044A5B68C3F3C223D35CD8407047F6
:1022F0000010024057C300080A4B5A68D86A5B684E
:102300004FF4701292FAA2F2B2FA82F203F470134E
:10231000D340023300F00F0003490130B1FBF0F06D
:10232000584370470010024000127A00044B5B686B
:1023300003F00C03082B01D1FFF7DEBF0148704703
:102340000010024000127A0008B5024620BB2E4958
:102350000B6B03F00303022B0FD0032B05D0012BD3
:1023600012D1BDE80840FFF7E1BFFFF799FF274B07
:10237000002818BF1A4610462CE00B6A13F0020F13
:1023800018BF4FF40042F6E7FFF7D0FFFFF790FFCA
:10239000BDE80840FFF7A4BF10281CD11A4A1C4909
:1023A000136B03F4403343F080538B4224D0194A1B
:1023B00093420BD0A2F500329342D2D0FFF7B6FF82
:1023C000FFF776FFBDE80840FFF77EBFFFF768FF25
:1023D000C0B9002008BD1228FBD10B4A0E49136B6F
:1023E00003F4402343F090538B4205D00B4A9342B1
:1023F000ECD0A2F50022DFE7136A9B07E9D54FF482
:102400000040E7E70148E5E70010024000127A00CB
:1024100000000210000003100000081200000C125F
:10242000B0F5401F08B520D11D4A1E49136B03F4B7
:10243000401343F440538B4229D01B4A934207D0A8
:10244000A2F50012934208D1BDE80840FFF76EBF25
:10245000FFF726FF08BB002008BDFFF767FFFFF767
:1024600027FFBDE80840FFF72FBFB0F5400FF2D1BE
:102470000B4A0E49136B03F4400343F440438B4271
:1024800005D00B4A9342E3D0A2F50002DAE7136AC3
:102490009B07E0D54FF40040DEE70648DCE700BFCD
:1024A00000100240003020000030300000C08000EA
:1024B00000C0C00000127A00314A0368904212D076
:1024C000B0F1804F0FD0A2F5943290420BD002F5BC
:1024D0008062904207D002F59632904203D002F516
:1024E000E052904215D14A6823F070031343244A06
:1024F00090421DD0B0F1804F1AD0A2F59432904294
:1025000016D002F58062904212D002F596329042C7
:102510000ED01C4A90420BD002F58062904207D048
:1025200002F58062904203D002F50062904203D12E
:10253000CA6823F44073134303608B68C3620B883B
:1025400083620F4B984213D003F5006398420FD07B
:1025500003F5406398420BD003F58063984207D09F
:1025600003F58063984203D003F50063984201D1DC
:102570000B690363436943F0010343610020704723
:10258000002C014000400140B1F5807F30B500F0E3
:10259000DA8006D8012948D0102900F08C8001206B
:1025A00088E0B1F5803F00F01581B1F5801F00F0A3
:1025B0004A81B1F5805FF2D1036A156823F4805334
:1025C0000362036A4468C16921F0807121F4E64125
:1025D00041EA0521156923F4005343EA05335568A0
:1025E00023F4805343EA0533B34DA84213D005F5D5
:1025F0000065A8420FD005F54065A8420BD005F54F
:102600008065A84207D005F58065A84203D005F58E
:102610000065A84204D1956924F4804444EA8514F5
:10262000D2684460C161026442E0036A156823F025
:1026300001030362036A4168846924F4803424F04E
:1026400073042C43156923F002032B43556823F0D0
:1026500001032B43984DA84213D005F50065A8420D
:102660000FD005F54065A8420BD005F58065A8425E
:1026700007D005F58065A84203D005F50065A8429E
:1026800012D1556923F0080343EA8503956823F0C6
:10269000040343EA8503956921F480712943D569D0
:1026A00021F4007141EA4501D268416084614263CE
:1026B0000362002030BD036A156823F01003036233
:1026C000036A4168846924F0807424F4E64444EA8F
:1026D0000524156923F0200343EA0513556823F008
:1026E000100343EA0513744DA84213D005F50065A5
:1026F000A8420FD005F54065A8420BD005F58065CE
:10270000A84207D005F58065A84203D005F500650D
:10271000A84213D1556923F0800343EA85139568D5
:1027200023F0400343EA8513956921F4806141EA6F
:102730008501D56921F4006141EAC501D268416093
:1027400084618263B4E7036A156823F480730362CB
:10275000036A4168C46924F4803424F073042C4370
:10276000156923F4007343EA0523556823F4807345
:1027700043EA0523504DA84213D005F50065A84251
:102780000FD005F54065A8420BD005F58065A8423D
:1027900007D005F58065A84203D005F50065A8427D
:1027A00013D1556923F4006343EA8523956823F424
:1027B000806343EA8523956921F4805141EA05113C
:1027C000D56921F4005141EA4511D2684160C461E4
:1027D000C2636DE7036A146823F480330362036AFB
:1027E000416D21F4803121F070010C43116923F413
:1027F000003343EA0143516823F4803343EA014341
:102800002D49884213D001F5006188420FD001F5AF
:10281000406188420BD001F58061884207D001F504
:102820008061884203D001F50061884206D1416889
:10283000956921F4803141EA052141604465D268FF
:10284000816D826534E7036A146823F480130362A0
:10285000036A416D21F0807121F4E04141EA0424D2
:10286000116923F4001343EA0153516823F48013E0
:1028700043EA01531049884213D001F500618842B0
:102880000FD001F5406188420BD001F5806188428C
:1028900007D001F58061884203D001F500618842CC
:1028A00006D14168956921F4802141EA8521416082
:1028B000D2684465C265FBE6002C01408A680B7B48
:1028C00013434A6823F4806313430A6823F40063C4
:1028D000134323F48052CB8913430A6923F4005332
:1028E00013434A6A23F440431343144A904210B5F9
:1028F00006D0134CA04203D004F5E054A04219D1F5
:102900004C6923F47023904243EA040306D00C4A36
:10291000904203D002F5E05290420BD10A6A23F4B0
:10292000700313438A6923F080731343CA6923F049
:10293000007313434364002010BD00BF002C01400E
:102940000034014038B50446006810F001000D461F
:1029500001D0012038BDEA686B68216813432A69F9
:102960001343AA691343254A0A401343236063684B
:10297000AA6823F4405313436360A3686A6923F48D
:1029800040731343A3601E4B9C4219D1FFF7DCFC3C
:102990000028DED02A68002ADBD0A969B1F5004FF3
:1029A0004FEA520324D103EB40004FF6F073B0FB23
:1029B000F2F00340C0F342001843E0600020C9E792
:1029C000104B9C4201D11020E0E70F4B9C4201D1FB
:1029D0001220DBE70D4B9C4204D14FF44010FFF76F
:1029E0001FFDD5E70A4B9C42B3D14FF44000F6E7F8
:1029F0001844B0FBF2F080B2DFE700BFF369FFEFED
:102A0000003801400044004000480040004C0040B5
:102A1000005000404FF47A73B0FBF3F0034B0022F8
:102A2000013858609A6005221A60704710E000E093
:102A3000014B1860704700BF0000002080B50D4CAE
:102A4000237893B10C4E0D4D0D4C4AF6AA273760F2
:102A50002968204603F001FF0A2007F093FA0020BE
:102A600007F0AAFB074B1860F1E7022007F08AFA8B
:102A7000E6E700BF300200200030004058D30020BD
:102A800018D400200C00002008B5164C23782BB376
:102A9000154C164D26464FF0FF31206806F028FFF2
:102AA000012803D08321284604F0DEFC104803F0FF
:102AB0005FF800231A461946306806F0F3FD012836
:102AC00003D08721284604F0CFFC052007F05AFAEE
:102AD000002007F071FB074B1860DCE7022007F0CD
:102AE00051FAD3E7300200207C06002090C3000892
:102AF000000F00201000002008B51A4C23786BB39B
:102B0000194C1A4D26464FF0FF31286806F0F0FEAA
:102B1000012803D09821164804F0A6FC4FF0FF319D
:102B2000206806F0E5FE012803D09921104804F042
:102B30009BFC104803F0B4FA00231A46194630688B
:102B400006F0B0FD012803D09D21094804F08CFC5B
:102B5000002007F031FB084B1860D4E7022007F093
:102B600011FACBE7300200207C060020CC060020C2
:102B700090C30008000F00201400002070B53548F5
:102B8000354C03F0C9FF354803F034FE344800F0FB
:102B90002BFA344800F05CFB204602F06FF801216C
:102BA000204602F073FC4CF258432C48E3584FF493
:102BB000FA72032103F047FE2B4804F031F900209C
:102BC00000F01EFE01303ED0284B294D254C01223D
:102BD0001A702E46274B4FF0FF31186806F088FE1A
:102BE000012803D0C921244804F03EFC4FF0FF31F6
:102BF000286806F07DFE012803D0CA211E4804F093
:102C000033FC204600F094FB0128014605D11B4B04
:102C100012481B68322203F016FE00231A4619469A
:102C2000306884F8943184F8C93006F03BFD0128FF
:102C300003D0D221104804F017FC002007F0BCFAA2
:102C40000F4B1860C6E742F2107300BF013BFCD186
:102C5000B5E700BFA0E60020000F002018D4002038
:102C6000700B0020F0E6002028D600203002002063
:102C70007C0600208006002090C3000858D3002066
:102C80001800002008B5124C2378E3B1114D124E04
:102C900028684FF0FF3106F02BFE012803D0E12118
:102CA0000E4804F0E1FB0E4C94F82033002BEFD0DB
:102CB000204600F015FA322007F064F9002007F0F2
:102CC0007BFA3060F0E7022007F05CF9DCE700BF38
:102CD00030020020E80500201C00002090C30008FE
:102CE000700B0020F0B585B072B65B4E5B4BF2689E
:102CF0005B4D5C4F22F4E0621204120C134300247B
:102D0000F360594BAC601868FFF784FEF02386F837
:102D100023302B68032643F002032B602246214612
:102D20000096524B524D012006F074FC224638604A
:102D3000214600964F4B012006F06CFC224628608D
:102D40004D4B00962146012006F064FC4B4C4C494B
:102D50002060012006F058FD4A4B3A6818602E4664
:102D600025461C461AB95521474804F07DFB3368B7
:102D70001BB95621444804F077FB2B681BB9572137
:102D8000414804F071FB23681BB958213E4804F008
:102D90006BFB3E4B02933E4B019303230093802237
:102DA00000233C493C4806F0C1FE18B95B21364877
:102DB00004F05AFB394B0293394B019301230093E2
:102DC000802200233749384806F0B0FE18B95C214C
:102DD0002D4804F049FB354B0293354B01930523F5
:102DE0000093802200233349334806F09FFE18B930
:102DF0005D21254804F038FB304B0293304B0193A2
:102E0000022300934FF4007200232E492E4806F04F
:102E10008DFE18B95E211C4804F026FB2B4B029353
:102E20002B4B0193042300938022002329492A4835
:102E300006F07CFE18B95F21134804F015FB62B65A
:102E4000264B01221A7006F051FF0F48672105B08A
:102E5000BDE8F04004F008BB00ED00E00003FA0517
:102E600010E000E08006002000000020EC050020BB
:102E7000CC0600208406002034060020E80500204F
:102E8000D00600207C06002090C30008A80E002079
:102E9000E0F000205FC300083D2A000888F0002011
:102EA0007007002062C30008892A0008E8E50020B6
:102EB00028D400206DC30008F92A000844E6002049
:102EC00088E800207DC300087D2B0008180700203B
:102ED000700900208BC30008852C000830020020F8
:102EE0002DE9FF4190F832737A1E53424FF00005EE
:102EF0005341044680F83333294604F5C876A0F8D8
:102F000030534FF4C87207F095FC29464FF4C8724D
:102F1000304607F08FFC012F0CBFC8231E234FF44F
:102F200080774FF48068009303952346CDE90178BC
:102F300002221849184803F0EBFC94F83333174881
:102F40001449AB4214BFC8231E23CDE90037CDE995
:102F500002853346012203F0DBFC114B1149DA688C
:102F600042F00102DA609D635D6294F833334A688F
:102F7000AB4214BF0C20284622F4406242EA0022F1
:102F80004A604B6823F00C0303434B6004B0BDE878
:102F9000F08100BF00040240403401403834014059
:102FA000003401401834014008B5FFF799FF0C4B7D
:102FB000DA6842F48052DA60DA6842F40062DA6079
:102FC000084A4FF4805151601A6A0A431A621A6A19
:102FD00042F480721A621A6842F001021A6008BD57
:102FE0000034014000E100E0154B0022C0E9CA2393
:102FF0000023144A80F82033A0F83233D268C2F399
:103000000222C2F1070110B4042902F1040428BF0E
:103010000421062C98BF1A464FF0FF3303FA01F340
:103020006FEA030388BF033A03F0040393401B01D4
:10303000054ADBB282F82C335DF8044BFFF750BF32
:103040000000F0BF00ED00E000E100E030B490F8D7
:10305000203380F8322380F8201363B9012912D17C
:103060000A4D0024C0E9CA4509481A4619460068B5
:1030700030BC06F017BB31B9012B04D1044B30BC76
:10308000186806F035BC30BC704700BF0000F0BFC8
:10309000E805002009B1FFF787BF0F4B1A6822F03F
:1030A00001021A601A6A22F480521A621A6A22F421
:1030B00080721A62094A4FF48051C2F88410BFF33B
:1030C0004F8FBFF36F8FDA6822F48052DA60DA68CC
:1030D00022F40062DA6070470034014000E100E051
:1030E0002DE9F8430446FFF75FFF0025DFF8D480A1
:1030F0002F46D8F80460B7F57A7FB6B203DD0A2010
:1031000006F040FF0A35B5F5FA6F07F1010701DC5B
:10311000002EEED100212046FFF7BCFF94F8335378
:10312000002D0CBF1E23C8239B1B012B38D904EB99
:103130004302B4F890015E1EB2F88E3132F8022CD0
:103140001B1A9BB220882BB3C0F57F40FF30013B98
:1031500010449BB2C3EB03431844FDF7DBF98046F0
:1031600030468946FDF7D6F902460B4640464946A9
:10317000FDF774FB02460B4610A1D1E90001FDF7F3
:103180006DFB002255B10A4BFDF73EFAC4E9CA01B6
:10319000BDE8F8839042FBD2101ADBE7054BF3E75A
:1031A000054B0022C4E9CA23F2E700BFAFF3008059
:1031B000000020400000F03F0000F0BF00000000D1
:1031C000882AA1411C040240074A1369DB0707D57E
:1031D0000649B1F8303301339BB2A1F83033936321
:1031E0006FF001031361704700340140700B002041
:1031F000012070472DE9F041DFF85080054600F1CD
:103200008406002456F8043BEBB1012C19D1D5F803
:10321000383193F89431002B14BF0423052305EBB8
:103220008303D3F884703846FCF7DAFF3946024648
:103230002846013405F0BAFA042CE3D10120BDE898
:10324000F0812346EBE701224146F1E797CC0008E5
:1032500000B5002380F8933180F8943180F89531DF
:1032600080F8C83080F8C93080F8CA30224B234A31
:1032700018608BB001230793214B0693C823059355
:10328000204B0493204B0393204B0293204B01933C
:10329000204B089000932049204B214805F0E4F989
:1032A000204BDA69910225D5DA69520222D51A68D3
:1032B00042F020021A601C4BDB68C3F302231A1D84
:1032C000062AC3F107028CBFD91E0021042A28BF99
:1032D00004224FF0FF339340DB4303F006038B409F
:1032E000124A1B01DBB282F82633402353600BB035
:1032F0005DF804FB00BFD4E740E60020200000207A
:10330000E4F400201CF4002097CC00084EC4000810
:1033100054C400086EC4000880C4000800CD000832
:10332000E0F200200044004000ED00E000E100E099
:1033300070B590F89451012D044611D100F1CB06DF
:1033400090F895210748314605F0BCFDC8220021C0
:10335000304607F06FFA002384F89531284670BD97
:103360000025FBE7E0F2002030B590F89331012B07
:103370000ED1084C0B46581A824201DC104630BD73
:1033800013F8010BE5692D06FCD580B22085F2E724
:103390000022F3E700440040D0F83801FFF7E4BF13
:1033A00030B50CB29BB00546204604F051FB2246D6
:1033B0000346064901A807F045FA01A90246D5F8D7
:1033C0003801FFF7D1FF00201BB030BD34C4000826
:1033D00010B501299CB0044613460CD1094903A835
:1033E00007F030FA024603A9D4F83801FFF7BCFF12
:1033F00001201CB010BD009203A80A46024907F044
:1034000021FAEFE708C400081BC4000808B5092228
:103410000349D0F83801FFF7A7FF012008BD00BF1E
:1034200044C4000830B589B005460023084601AC05
:103430001146C25C1A550133082BFAD12C230A22FB
:103440000DF10D008DF80C3004F0ABF808AB03441F
:103450000D2203F8132C0A2203F8122C214600F146
:103460000B022846FFF780FF09B030BD264B37B569
:10347000DA69920646D59A8C244B93F8941192B24D
:1034800000293FD193F8C940002C3BD193F8950116
:10349000411CC9B2C629184483F89511D2B288BF1D
:1034A00083F89541184C80F8CB20012100204FF47F
:1034B00000650A2A83F8931183F8C800256221D198
:1034C00093F895218A421DD91A4492F8C9200D2AF1
:1034D00018D183F8941102A90D4B41F8040D186816
:1034E00006F0A7F9012803D02C210A4803F0BCFFFD
:1034F000019B3BB1084B4FF080521A60BFF34F8FD6
:10350000BFF36F8F03B030BD00440040F0E60020F1
:10351000800600209CC7000804ED00E013B50023DE
:1035200001AA6946044605F059FB00211D4801F037
:103530008BFC01211B4801F0A9FF0121194801F072
:1035400083FC019901291BD1009B1B78532B0ED1C1
:103550000022144801F03CFB0021124801F096FFC4
:103560001149204605F038F9012002B010BD4C2B5E
:1035700006D10A460B48002101F02AFB0221ECE7A4
:1035800001221146074801F023FB0022114607489B
:10359000FFF75CFD064803F0D3FA064803F046FF48
:1035A000DEE700BF000F00203AC80008700B0020C3
:1035B000A0E6002028D6002073B5012301AA6946A1
:1035C000054605F00BFB80B3019C052C10D1184972
:1035D0002246009807F083F910BB0021154801F03E
:1035E00055FF1549284605F0F7F8012002B070BDD7
:1035F000042C02D122461149EBE7022C10D1009E87
:103600000F492246304607F06AF908B90121E5E77B
:1036100022460C49304607F062F908B92146DDE739
:103620006FF0DF01284604F00FFA4FF0FF30DDE7BE
:1036300048C90008000F00203AC800084EC9000819
:1036400053C9000856C9000808B5074A4CF264433C
:10365000D35C23B9054905F0BFF8012008BD012B53
:103660000CBF03490349F6E7000F002048C90008D2
:1036700053C9000856C9000830B5B7B0012400236B
:10368000ADF85830ADF85C30CDE911341B4B0394E4
:1036900005460A20CDE90F30194B08944FF47A7C87
:1036A000CDE90D3C4FF4FA6E4FF49673CDE90B3E25
:1036B0006423CDE9094317AB079316AB06930222A7
:1036C00003210423CDE91321CDE904330D4A0E4B28
:1036D0000E49CDE901324CF25033009303F59603C5
:1036E00003F23D131A4618A807F0ACF818A90246D1
:1036F000284605F05BF8204637B030BD40C0650372
:1037000020AA4400006CDC0200BADB0009C90008F2
:1037100010B5A2B0114B0793114B0693114B0593B3
:10372000114B0493114B0393114B124AD3ED007AC2
:103730001149FDEEE77A48230193104BCDED027A53
:103740000446009309A80E4B07F07CF809A902462D
:10375000204605F02BF8012022B010BDCFC800088C
:10376000D2C80008D9C80008DCC80008E8C80008AA
:103770004CD30020AAC80008B1C80008F5C800084A
:10378000A3C80008174A4CF2584330B5D158164D1B
:10379000164AB1FBF2F205FB021515494EF66023FD
:1037A00095FBF3F301FB0355124989B004464FF42E
:1037B0007A7095FBF0F001FB00516425C0B291FBDB
:1037C000F5F1C9B201910090DBB20B4903A807F0F3
:1037D00039F803A90246204604F0E8FF012009B0A9
:1037E00030BD00BF000F00208011C9FF80EE360001
:1037F000A015FFFF18FCFFFF59C9000800000000DA
:103800002DE9F04F4CF26443B74D2DED028BEB5C8C
:10381000012BC3B0064640F0608100220F920028C1
:1038200000F0D3800FA905F0D6F90F9C00220023E9
:10383000012CCDE91023CDE91223CDE91423CDE9E4
:103840001623CDE9182307D04FF0FF37002C40F0A6
:10385000BE804CF26043EF50A44BEA88586880B2B7
:10386000101A013848BF02F1FF30002800F00103B0
:10387000B8BF5B42012B0ED0013848BF02F1FF30C8
:10388000002800F00103B8BF5B42012B03D00138D0
:1038900048BF02F1FF30012C4FF0020790FBF7F711
:1038A00006D14CF260416B585C1C40F098806F5020
:1038B0000024CDE9044412AB4CF21648029310AB3D
:1038C0000394019315F8083000932B68022103F04C
:1038D000CCFD6A8ACDE90444CDE9024414AB0193DE
:1038E00015F808300093EB683846012103F0BDFD60
:1038F000EA8BCDE90444CDE9024416AB019315F8F7
:1039000008300093AB693846012103F0AEFD6A8DA3
:10391000CDE90444CDE9024418AB019315F8083011
:1039200000936B6A3846012103F09FFD704B714F85
:103930001888DDE91089FCF7EDFD69A3D3E90023C0
:10394000FCF762FE42464B46FCF788FF9DED127B7A
:103950008DED067B9DED147B8DED087B9DED167B3B
:103960008DED0A7B9DED187B04460D464046494689
:103970008DED0C7BBB46FDF729F95BF80CA9CBF864
:10398000000000225C4B20462946FCF73DFEFDF777
:103990001DF908EE100A47F8080C002E39D1002254
:1039A000002340464946FDF7BFF8A8B1DFED537A42
:1039B000B4EEE78AF1EE10FACCBF01204FF0FF30F1
:1039C00043B0BDEC028BBDE8F08F0F932DE76FF095
:1039D000DF01304604F038F84FF0FF30F0E7BB422B
:1039E00005D14749304604F0F7FE0120E8E74CF2E4
:1039F00014402C89285A013300EB540083426B5049
:103A0000A4BF00236B504CF26043E85840000130E3
:103A10004EE75046FCF7A0FD1AAF8046894645ECBC
:103A2000104B04223749384603F014FF22462B4638
:103A3000DDE90601FCF7E8FD4B464246FCF70EFFC8
:103A4000042241EC100B2F491DA803F003FF22466E
:103A50002B46DDE90801FCF7D7FD4B464246FCF753
:103A6000FDFE042241EC100B264920A803F0F2FED3
:103A700022462B46DDE90A01FCF7C6FD4B464246CD
:103A8000FCF7ECFE0DF18C0A41EC100B04221D49F1
:103A9000504603F0DFFE22462B46DDE90C01FCF721
:103AA000B3FD4B464246FCF7D9FE26AC41EC100B69
:103AB00004221449204603F0CDFE1DAACDE901479A
:103AC000CDF800A020AB104929A806F0BBFE29A91B
:103AD0000246304604F06AFE87E70C497AE700BFE9
:103AE0006666666666660A40000F002008000240AF
:103AF000BAF7FF1F54D3002000408F400080BB4422
:103B00006DC900080DC80008C0C800088CFEFFFF82
:103B100070B52D4B4CF2644286B09A5C06461C464A
:103B2000002A4AD14CF2AA429B5C23B9274904F0EF
:103B300053FE012046E04CF216424CF21443A25CC4
:103B4000E35A0C2A224A4CF201411278615C4CF291
:103B5000024003F10A034CF20345205C655D08BF97
:103B60005B00012A0CBF2268002201290CBFE1681A
:103B7000002101280CBFA0690020012D08BF656A43
:103B8000009318BF0025CDE90121CDE903051A46B0
:103B90001946304604F007FF4CF2DC420023A350E4
:103BA0004CF2AA42A3524CF27043E35C022BC0D009
:103BB0000121054801F048F9BBE7064903F044FF3D
:103BC0004FF0FF3006B070BD000F002046C800085F
:103BD00000D300208CFEFFFF2DE9F04F4CF2644330
:103BE000AD4EF35CA7B00546002B40F04B8101229F
:103BF00002A904F0F0FF10B94FF0FF3024E10122D8
:103C000003A9284604F0E7FF0028F5D0012204A903
:103C1000284604F0E0FF0028EED001230BAA08A9F3
:103C2000284604F0DBFF0028E6D0012205A928463B
:103C300004F0D1FF0028DFD0012206A9284604F0B5
:103C4000CAFF0028D8D001230CAA09A9284604F0ED
:103C5000C5FF0028D0D001230DAA0AA9284604F0E8
:103C6000BDFF0028C8D0012207A9284604F0B3FFF1
:103C70000028C1D0059B013B032B32D80B9B042BA2
:103C80002FD10C9B012B2CD10D9B012B29D1089BF3
:103C900093F80080A8F13002012A22D893F801900D
:103CA000A9F13002012A1CD893F802A0AAF130022F
:103CB000012A16D8DF78A7F13003012B11D8099B10
:103CC0001B78522B01D0462B0BD10A9B1C78413C10
:103CD000E3B2122B05D8714CDC40E44314F001042C
:103CE00005D06FF0DF01284603F0AEFE84E76C4B91
:103CF000A3F16802A3F11401A3F1800000F04CFFCE
:103D00002146654801F0A0F8634801F06BF84CF2D9
:103D10006543012203216048F25401F03FF99DF808
:103D200008105D4801F0FEF9303F049B019318BF75
:103D30000127BAF1300318BF0123B9F1300218BFCF
:103D40000122B8F1300118BF012100978346524883
:103D500001F0AEFA049907464F4801F03DFABDF86C
:103D60000C1080464C4801F019F9099B05991B7805
:103D70009DF81820522B814669D0462B14BF022390
:103D800001230A980078412863D04E2863D0532835
:103D900014BF03200220079CCDE900043E4802F036
:103DA00061FA0BEB090343443B44181859D14CF218
:103DB00065433C4CF0543A4BA3F16802A3F1140163
:103DC000A3F1800000F0E8FE0121334801F03CF847
:103DD0002068FCF7C1FB344B0022FCF75DFA4CF283
:103DE0001643F35C0C2B38D127A3D3E90023FCF74F
:103DF00035FD2E4B0022FCF74FFA012241EC100B4F
:103E00002B4910A803F026FD2A4B294914AE93ED47
:103E1000000B0622304603F01DFD2068FCF79CFBDA
:103E2000012241EC100B22490EA803F013FD0EAB4A
:103E300010AA2149009619A806F004FD19A9024606
:103E4000284604F0B3FC012027B0BDE8F08F2346DC
:103E500097E700209FE701209DE70DA3D3E900230A
:103E6000C5E74CF26443012400210B48F45401F0EF
:103E70000DFB4CF26543002221460748F25400F046
:103E8000E3FF2EE70D492FE745724CEA519E6C3F48
:103E90006FEDD0A91571643F000F002009200400C8
:103EA00080D3002050D300200000E03F00408F402E
:103EB0000DC8000808D3002051C800088CFEFFFF81
:103EC0002DE9F0414CF26443614CE35CB6B0074627
:103ED000002B40F0AC8004F544431B78002B14BF4A
:103EE000312330238DF834304CF20143E35C002B56
:103EF00014BF312330238DF835304CF20243E35C9C
:103F0000002B14BF312330238DF836304CF203439D
:103F1000E35C002B14BF312330238DF837304CF293
:103F20007143E35C002B78D0012B0CBF4623422366
:103F30008DF82C304CF27043E35C002B6FD0012BDA
:103F40006FD0022B0CBF53234423424D8DF83030E9
:103F5000286800238DF838308DF82D308DF83130F9
:103F6000FCF7FAFA3C4B0022FCF796F94CF21643A8
:103F7000E35C0C2B57D032A3D3E90023FCF76EFC93
:103F8000364B0022FCF788F911AE41EC100B0322EE
:103F90003349304603F05EFC324B31490DF1540891
:103FA00093ED000B0622404603F054FC2868FCF712
:103FB000D3FA0FAD41EC100B01222949284603F03A
:103FC00049FC4CF26C414CF21443615806910CA927
:103FD00005910BA904914CF27C414CF216426158B8
:103FE00003914CF27441E35A615802910DA9019179
:103FF0004CF21041A25C61580091CDE908581A4971
:1040000007961AA806F01EFC1AA90246384604F0C4
:10401000CDFB012036B0BDE8F081522388E7412373
:1040200093E74E2391E708A3D3E90023A6E70F49BE
:1040300003F00AFD4FF0FF30ECE700BFAFF3008064
:104040006FEDD0A91571643F45724CEA519E6C3FEB
:10405000000F002050D300200000E03F00408F40C0
:104060000DC8000808D300205FC800088CFEFFFFC1
:1040700070B54CF26443304CE35C05462BB12F49DC
:1040800003F0E2FC4FF0FF3070BD4CF20F53E35CE5
:10409000012B0AD04CF2AA43E35C012B05D04CF271
:1040A0007043E35C032B00D01BB96FF4BA71284650
:1040B000E6E74CF26643E65C1EB90121204600F0BB
:1040C000C3FE4CF2DC43E2584CF2E043E3589A4220
:1040D00000DB2EB94CF20D530122E2541849E6E7F9
:1040E0004CF2AA43012200211348E25400F0ACFE36
:1040F0004CF2F443E358D9884CF2F843E258114BA0
:10410000134413F8012C4CF2FC43E35813445A684F
:1041100092B28A1A013A4CF2B84348BF01F1FF3219
:10412000E250094B09491868FFF77CF9084928460D
:1041300004F052FB0120A7E7000F00208CFEFFFFD8
:104140008AFEFFFFD6C7000840E600203DC80008F1
:104150003AC8000810B54CF26443134CE35C022BE0
:104160001BD14CF2AA43E25C22B9104904F034FBA3
:10417000012017E04CF2DC4100226250E25221683B
:10418000E28804F001FC4CF27043E35C022BEFD0B8
:104190000121204600F058FEEAE7054903F054FCEF
:1041A0004FF0FF3010BD00BF000F002046C80008D0
:1041B0008CFEFFFF2DE9F0474CF26443754EF35C33
:1041C000022B98B0054640F0E280012203A904F0DA
:1041D00002FD10B94FF0FF30BFE0012204A92846CC
:1041E00004F0F9FC0028F5D0012205A9284604F0C6
:1041F000F2FC0028EED0012309AA07A9284604F002
:10420000EDFC0028E6D001230AAA08A9284604F0FC
:10421000E5FC0028DED0012206A9284604F0DBFCDC
:104220000028D7D0059B013B032B19D8099B012BF4
:1042300016D10A9B012B13D1079B1B78522B03D05D
:1042400003F0FB03422B0BD1089B1C78413CE3B2EB
:10425000122B05D8504CDC40E44314F0010405D087
:104260006FF0DF01284603F0EFFBB3E74B4BA3F100
:104270006402A3F12801A3F1940000F08DFC214613
:10428000444800F0E1FD434800F0ACFD4CF26543CA
:104290004FF0010803213F4806F8038000F07EFE3E
:1042A00041463C4800F03EFF049B4246CDE9008376
:1042B000414643460746374800F0FAFF04998046D6
:1042C000344800F089FFBDF80C108146314800F0F9
:1042D00065FE079B05991B78522B824640D0462BE2
:1042E00014BF02230123089A1278412A3AD04E2A99
:1042F0003AD0532A14BF032202220698CDE90020A7
:104300000022244801F0AEFF07EB0A034B4443446C
:1043100018182BD14CF26543F054204BA3F16402E2
:10432000A3F12801A3F1940000F036FC0121194803
:1043300000F08AFD1A4B1B4993ED000B06220BA8D7
:1043400003F088FA0BAA184910A806F07BFA10A906
:104350000246284604F02AFA012018B0BDE8F0878A
:104360002346C0E70022C8E70122C6E74CF26443B7
:10437000012402210748F45401F088F84CF2654307
:10438000002221460348F25400F05EFD68E7074929
:1043900069E700BF000F00200920040094D300202B
:1043A00008D300200DC8000808C800088CFEFFFFD5
:1043B00070B54CF264432B4CE35C022BA8B006466C
:1043C0004AD14CF27143E35C002B3FD0012B0CBF70
:1043D000462342238DF818304CF27043E35C002BE7
:1043E00036D0012B36D0022B0CBF532344238DF83B
:1043F0001C3000238DF819308DF81D301A4B1B49E5
:1044000008AD93ED000B0622284603F023FA4CF288
:1044100014431749E25A04954CF26C430DA8E35833
:10442000039307AB029306AB01934CF27443E3583A
:1044300000934CF21043E35806F004FA0DA902462B
:10444000304604F0B3F9012028B070BD5223C1E713
:104450004123CCE74E23CAE7064903F0F5FA4FF0B3
:10446000FF30F1E7000F002008D300200DC800083E
:1044700010C800088CFEFFFF70B54CF26443314C4D
:10448000E35C022B054605D02F4903F0DDFA4FF01F
:10449000FF3070BD4CF20F53E35C012B0AD04CF29D
:1044A000AA43E35C012B05D04CF27043E35C032B81
:1044B00000D01BB96FF4BA712846E6E74CF26643A8
:1044C000E65C1EB90121204600F0BEFC4CF2DC4344
:1044D000E2584CF2E043E3589A4200DB2EB94CF22A
:1044E0000D530122E2541949E6E74CF2AA43012296
:1044F00000211448E25400F0A7FC4CF2F443E358C6
:10450000D9884CF2F843E258114B134413F8012CAC
:104510004CF2FC43E35813445A6892B28A1A013AA7
:104520004CF2B84348BF01F1FF32E250094B0A494F
:104530001868FEF777FF0949284604F04DF9012075
:10454000A7E700BF000F00208CFEFFFF8AFEFFFFE1
:10455000D6C7000840E600203DC800083AC8000859
:1045600007B50E4B93F8202393F83233002A14BF7B
:10457000312230228DF80420002B4FF02C028DF8D0
:10458000052014BF31233023032201A98DF8063002
:1045900004F00CF9012003B05DF804FB700B00205F
:1045A00013B501226946044604F015FB18B94FF013
:1045B000FF3002B010BD012201A9204604F00BFB20
:1045C0000028F4D00099012902D8019A012A05D9BE
:1045D0006FF0DF01204603F037FAE8E7D2B2C9B244
:1045E0000448FEF733FD0449204604F0F5F80120A5
:1045F000DFE700BF700B00203AC800080000000091
:104600002DE9F041584B93F82023A4B0804632B9ED
:104610006FF4B97103F018FA4FF0FF303BE0D3E9C3
:10462000CA670022514B30463946FCF77DFA002814
:1046300000F0868032463B4600204D49FCF70EF9DB
:10464000002204460D464B4B30463946FCF74EFAE5
:1046500020B347EC106B4849032201A803F0FAF895
:104660000022434B20462946FCF754FA002834D058
:1046700045EC104B4149032206A803F0EBF806ABCA
:1046800001AA3F490BA806F0DDF80BA902464046F7
:1046900004F08CF8012024B0BDE8F0812AA3D3E90E
:1046A000002330463946FCF721FA50B10022314B45
:1046B00030463946FCF7D2F8032241EC100B314961
:1046C000CBE721A3D3E9002330463946FCF7C6F8EF
:1046D000032241EC100B2C49BFE71DA3D3E90023B3
:1046E00020462946FCF716FA50B10022214B2046FD
:1046F0002946FBF789FF032241EC100B2349BBE756
:1047000015A3D3E9002320462946FCF703FA58B144
:104710000DA3D3E9002320462946FBF775FF0322AA
:1047200041EC100B1A49A7E70DA3D3E9002320465B
:104730002946FBF769FF032241EC100B15499BE763
:104740006FF4B671404665E70000000080842E419A
:10475000FCA9F1D24D62503F8DEDB5A0F7C6B03E39
:104760000000000065CDCD41700B00200000F0BFBF
:104770000000F03F00408F40DDC70008F1C700088F
:1047800059C80008E3C70008EAC70008F6C70008D0
:10479000FCC7000802C8000870B51A4C9AB006465B
:1047A000A069FBF7C7FE0B460246D4E90401FCF7FB
:1047B00055F806AD41EC100B03221349284603F0CF
:1047C00049F8A068FBF7C8FE0022104BFBF71CFF5E
:1047D000FCF7B4F9A36962680D49CDE90353237866
:1047E000029363780193E369009303460BA806F0F4
:1047F00029F80BA90246304603F0D8FF01201AB071
:1048000070BD00BF28D600200DC80008000024405D
:104810008EC8000830B597B001226946044604F0FE
:10482000DAF940B920466FF0DF0103F00DF94FF0DF
:10483000FF3017B030BD012201A9204604F0CBF9AA
:104840000028EFD0012202A9204604F0C4F9002874
:10485000E8D0012203A9204604F0BDF90028E1D0E8
:10486000012204A9204604F0B6F90028DAD0234B2F
:10487000009A9A42D6D8019BB3F57A7FD2D8029B90
:10488000642BCFD8039B052BCCD8049B012BC9D814
:104890001B481B4D02F0CAFD049B012B11D1DDED1D
:1048A000017A9DED007A029A9DF80C10F8EE677A75
:1048B000B2EE040AF8EE470A87EE800A284602F0B4
:1048C000DFFAA869FBF736FE0B460246D5E904017C
:1048D000FBF7C4FF032241EC100B0A4905A802F0C4
:1048E000B9FFAB69084905AA0AA805F0ABFF0AA9F8
:1048F0000246204603F05AFF01209AE720AA44000E
:1049000028D600200DC8000883C800082DE9F04310
:10491000124C1349E76C94F8008094F828909BB0EF
:1049200007AD94ED020B06460322284602F092FFE3
:10493000E36B0093CDE90395D4E90423CDE9017835
:1049400008490BA805F07EFF0BA90246304603F08C
:104950002DFF01201BB0BDE8F08300BFA0E60020C2
:104960000DC8000825C8000830B597B0012205A978
:10497000044604F030F9E8B1012206A9204604F00B
:104980002AF9B8B1012207A9204604F024F988B118
:10499000012208A9204604F01EF958B1012209A9F4
:1049A000204604F018F928B101220AA9204604F093
:1049B00012F940B920466FF0DF0103F045F84FF0DF
:1049C000FF3017B030BD0A9B104D0293099B019335
:1049D000089B00930599DDE90623284602F0C2F8FA
:1049E0000028E7D195ED020B032209490BA802F03C
:1049F00031FF0BAA07490FA805F024FF0FA90246B3
:104A0000204603F0D3FE0120DBE700BFA0E6002034
:104A10000DC8000808C80008024BD868C0F302207F
:104A2000704700BF00ED00E04309012200F01F00C5
:104A300002FA00F02033044A42F82300BFF34F8FFC
:104A4000BFF36F8F704700BF00E100E02DE9F04732
:104A500084469DF82C000A9F0C280C46DDE9086965
:104A60000CF130011FFA83FE4FF00A0528D105FB37
:104A700003254CF2F8380EEB8E035B0023813CF8E3
:104A80000830AAB2C81803EB4203206000212CF8BA
:104A90000830E280A4F804E06A0005F0CBFE4FF491
:104AA00080630022CDE90A324FF48073CDE90853C8
:104AB00023684A4639463046BDE8F04701F028BF32
:104AC00008281AD105FB03254CF2F8380EEB8E03AB
:104AD0005B0023813CF80830AAB2C8181344206058
:104AE00000212CF80830E280A4F804E02A4605F002
:104AF000A1FE0023CDE90A33D8E725814CF2F83531
:104B000002F10A083CF805301FFA88F2C81813446D
:104B1000206000212CF80530E280A4F804E0424631
:104B200005F088FE0023CDE90A33CDE9088306228B
:104B30002368BFE700F00700C0F10702031D042A45
:104B400028BF0422062B4FF0FF3303FA02F36FEA6B
:104B500003038CBF0338002003F0050303FA00F0C1
:104B60007047000083680B4A012903EA020303D15E
:104B700043F004038360704743F0100383604FF4F5
:104B8000401393FAA3F3C36823F0FB4323F4800399
:104B9000C3607047C0FFFF7F10B504691461848A49
:104BA0009482847D94750478147044785470847869
:104BB0009470C078D0700A691A61CA68DA608A682D
:104BC0009A604A795A710A791A710A681A6010BD96
:104BD000012930B527D14CF22843274CC4504CF260
:104BE0002C434FF47A74C4524CF22E430C24C45418
:104BF0004CF2184340F20114C4504CF2904432235A
:104C000003514CF28C4440F2FF7505514CF288443C
:104C100001514CF28544002101554CF28444015568
:104C20004CF280414350012A24D14CF240431249B6
:104C3000C1504CF244434FF4FA61C1524CF2464326
:104C40004FF00131C2544CF23043C1504CF2A441F8
:104C5000002343504CF2A04143504CF29C4142503F
:104C60004CF2994283544CF2984283544CF2944350
:104C70003222C25030BD00BFA086010038B50446C4
:104C800000F018FF012211462046FFF7A1FF04F5AE
:104C900044421146104604F544436C3380311830C9
:104CA000FFF77AFF4CF264430025E5542946C4E936
:104CB00000552581C4E90355A582C4E9065525841C
:104CC000C4E90955A5854CF2503204F1300005F0D5
:104CD000B1FD4CF2F83304F54442E5524CF2F44392
:104CE0000620E5504CF26643E5544CF26543E5542A
:104CF0000023936404F54442D36404F544425365AD
:104D000004F5444213654CF267434FF0FF32E5541B
:104D10004CF26843E5544CF25843E5504CF25C4386
:104D2000E5504CF26043E250FFF77EFE0720FFF7AC
:104D30007BFE0820FFF778FE0920FFF775FEFFF7DE
:104D40006BFEFFF7F7FE26490001C0B281F80603AB
:104D5000FFF762FEFFF7EEFE0001C0B281F8070325
:104D6000FFF75AFEFFF7E6FE0001C0B281F8080324
:104D7000FFF752FEFFF7DEFE0001C0B281F8090323
:104D8000FFF74AFEFFF7D6FE0001C0B281F812031A
:104D90001220FFF749FEFFF73FFEFFF7CBFE0001B1
:104DA000C0B281F812031220FFF73EFEFFF734FE77
:104DB000FFF7C0FE0001C0B281F82F032F20FFF7DC
:104DC00033FEFFF729FEFFF7B5FE0001C0B281F800
:104DD0003D033D20FFF728FEBDE8384001F0E8BD67
:104DE00000E100E04CF2D843002110B5C1504CF274
:104DF000DC430446C1504CF2E843C1504CF2AA4394
:104E0000C1524CF2B043C1504CF2B443C1504CF2C9
:104E1000A843C154C28812B1006805F00BFD628A34
:104E20001AB10021E06805F005FDE28B1AB10021FE
:104E3000A06905F0FFFC628D2AB1606A0021BDE81F
:104E4000104005F0F7BC10BD38B504460D4621B939
:104E50004C4A136823F0010313604CF264424A4940
:104E6000A35823F07F4323F0FF038B4265D04CF21D
:104E7000DC41002363504CF2B44163504CF2B0412A
:104E800063504CF2A94163544CF2AD4163544CF26F
:104E90000D516354A35C012B58D8002D4ED004F55E
:104EA000444319784B1E594259414FF0A040FFF737
:104EB00059FE002D44D04CF20143E35C012B3FD15D
:104EC0004CF26743E15CB1FA81F149092F48FFF7E1
:104ED00049FE002D36D04CF20243E35C012B31D168
:104EE0004CF26743E15CB1FA81F149092848FFF7C8
:104EF00039FE4DB34CF20343E35C012B24D14CF259
:104F00006743E15CB1FA81F149092248FFF72AFEC3
:104F100042F2107300BF013BFCD1012D01BF194AC1
:104F2000136843F0010313604CF25843E2584CF20B
:104F3000D843E2504CF26643E55438BD2946B4E705
:104F40000021C3E70021D1E70021DEE74CF2045342
:104F5000E35823B940F2BD210F4802F085FA094B0E
:104F6000012DDA6803D142F40072DA60D0E722F44E
:104F70000072DA604CF20453E0560028C8DBFFF7F9
:104F800053FDC5E70004004000010100000100508E
:104F9000000400500005005073C900082DE9FF41CE
:104FA00004460D460021FFF74FFF2046FFF71AFF8A
:104FB0004CF2F8330021C4E900112181C4E9031146
:104FC000A182C4E906112184C4E90911A1854CF22A
:104FD0005032E15204F1300005F02CFC4CF2164343
:104FE0004CF25030E15C46F2A8130C2908BF184679
:104FF0004CF26443E35C022B72D004F54442127815
:10500000012B14BF1346531C4CF2014214F80280CA
:105010004CF20242A75C4CF20342A65C03EB08028E
:105020003A443244002D6CD06A43824269DC6BB151
:10503000DFF8E8E003910122CDE9012E324A009227
:10504000214603FB05F22046FFF700FDB8F1000FF3
:1050500012D04CF21643DFF8B8C0E35C039303238D
:10506000CDE9013C294B009308FB05F2434604F1CE
:105070000C012046FFF7EAFC8FB14CF2164324489E
:10508000E35C03930523CDE90130224B009307FB3A
:1050900005F23B4604F118012046FFF7D7FC8EB11C
:1050A0004CF216431A49E35C03930423CDE9013122
:1050B000194B009306FB05F2334604F12401204608
:1050C000FFF7C4FC4CF214432046E55201F068FBA4
:1050D00020460121FFF7B8FE002004B0BDE8F081B2
:1050E0006B1E9BB24CF24F3293420AD80B4A03918B
:1050F0000623CDE901320A4B00932A4604232146B8
:10510000DDE76FF00100E8E740000050400100508B
:1051100000040240400400504005005000000240DE
:105120001008004838B501F0FB03082B04460D4673
:1051300001D001293ED14CF216430C2DE55404F563
:10514000444303F154032FD11D4A1A604CF26443C7
:10515000E35C012B31D800212046FFF775FE204685
:10516000FFF740FE082D14BF0025102529464FF0FB
:10517000A04001F0CBFC2946124801F0C7FC2946AB
:10518000114801F0C3FC2946104801F0BFFC4CF265
:1051900014432046E15AFFF701FF0121054620464E
:1051A000FFF752FE284638BD082D0CBF084A4FF0C5
:1051B0007E52CAE74FF0FF35F4E70025F2E700BF63
:1051C00000F07F4500010050000400500005005031
:1051D00000007F43000000002DE9F0434CF26443DF
:1051E00085B0C55C00F5444304461B780E46002B91
:1051F00049D06B1E584258410130FBF79BF90246DB
:105200000B4625A1D1E90001FBF728FB8046894622
:10521000002E3DDD3046FBF78DF9022D03D10FF254
:105220008809D9E9008942464B46FBF77DFC0546D3
:1052300070BB4CF210430146E6502046FFF704FED7
:105240002046FFF7CFFD04A9012741F8047D144B48
:1052500000964FF6FF7202A8029702F04DF904F58E
:10526000444383ED020B0F4B029A9A62039ADA626F
:10527000204601F095FA20463946FFF7E5FD28461D
:1052800005B0BDE8F0830FF21009D9E90089BFE746
:105290004FF0FF30F4E700BF0000004023F152411F
:1052A00000449508000400400000000040776B4176
:1052B0002DE9F04F1F4600F544432DED028B0446C7
:1052C00019704CF201438FB0E2544CF202439DF846
:1052D0006890C7544CF203438B4600F803908B1838
:1052E0003B4413EB090F9246DDF86C8007D14FF079
:1052F000FF3528460FB0BDEC028BBDE8F08F4CF2B5
:105300006643C55C012D40F09F800021FFF79CFDA6
:105310002046FFF767FD4CF26443E35C022B00F08C
:105320008A80B8F1000FE2DD012B0CBF01230023BE
:1053300009934F4B1E684F4B404693ED008A14BFB4
:10534000012302230893FBF7F5F80B4602464A496E
:105350000020FBF783FA4CF21643CDE90A01E35C27
:105360000C2B73D19FED3C7B8DED067B414B059360
:105370004FF00008059BF3EC017A17EE900ACDED93
:10538000047A0593FBF7E8F800223C4BFAF786FF16
:10539000DDE90623FAF782FF31A3D3E90023FBF707
:1053A00033F9CDE90C010898FBF7C4F802460B4627
:1053B000DDE90C01FBF728F9DDE90A23FBF796FB91
:1053C00048B12B4B9DED048A53F8286008F1010881
:1053D000B8F1080FCED104F5444383ED148A099B3C
:1053E0004FF00008CDE901634246434659464FF06D
:1053F000A040CDF8008001F009FB434652464146EB
:105400001F48CDF80080CDE9016801F0FFFA3B4666
:10541000424641461B48CDF80080CDE9016801F0C5
:10542000F5FACDE90168CDF8009043464246414681
:10543000154801F0EBFA002D3FF45BAF0121204647
:10544000FFF702FD002554E7002564E79FED067B8A
:105450008AE700BFAFF30080000000000000294091
:10546000C2C298567FD34D3E00000000000021408C
:10547000C8C30008E8C300080000F03F0000E03F98
:105480000001005000040050000500502DE9F041DB
:105490004CF2644388B0C35C04468846002B69D153
:1054A00000F5444300F544428033183204F544418A
:1054B0006C3104F54440FFF76FFB00212046FFF7F5
:1054C000C3FC2046FFF78EFC4CF265430125E554F2
:1054D0004CF26443A84504F8038054D8002702A97D
:1054E000032672480797CDE905770295CDE9036653
:1054F000FCF736FE022302A96C480293FCF730FE4B
:1055000002A96B480295FCF72BFE4FF4804302A9D9
:1055100067480293FCF724FEB8F1000F00F08D807D
:1055200031462046FFF73AFD4FF064080C21204633
:10553000FFF7F8FD2B462A462946CDE900582046BC
:10554000FFF7B6FE4FF496712046FFF727FD414660
:105550002046FFF741FE3223CDE900633A463B4641
:105560002946204600F07EFE4CF260434FF0FF32A9
:10557000E25051E0022BA0D100F5444300F5444233
:105580009433303292E71422002103A805F052F937
:1055900003250F2302A9454802930495FCF7E0FD7B
:1055A00029462046FFF7FAFC4CF246434CF24045B0
:1055B000E15C2046FFF7B6FD605901904CF23340A4
:1055C0004CF232434CF231424CF23041205CA25C4E
:1055D000E35C615C00902046FFF76AFE615920465B
:1055E000FFF7FAFD4CF244432046E15AFFF7D6FCA0
:1055F0004CF294414CF29943615801914CF2A4420F
:105600004CF29841E35C615CA25C00914CF29C41DD
:105610006158204600F026FE4CF265430022E25419
:1056200001212046FFF710FC4CF25843E2584CF29F
:105630005C43E25008B0BDE8F08131462046FFF7F8
:10564000ADFC4CF22E434CF22845E15C2046FFF7BE
:1056500069FD605901904CF21B404CF21A434CF228
:1056600019424CF21841205CA25CE35C615C009042
:105670002046FFF71DFE61592046FFF7ADFD4CF2B5
:105680002C432046E15AFFF789FC4CF280414CF252
:105690008543615801914CF284414CF29042615C27
:1056A0000091E35CA25C4CF28841B1E7000800483D
:1056B0000004004800280DDB4309012200F01F0010
:1056C00002FA00F02033044A42F82300BFF34F8F60
:1056D000BFF36F8F704700BF00E100E04FF440134D
:1056E00093FAA3F3C36823F0FB4323F48003C3605E
:1056F000704700001A4A4CF2F44310B5D358D988C9
:105700004CF2F8434FF0A044D058164B034413F822
:10571000010C4CF2FC43D35803445B689BB2CB1A98
:10572000013B48BF01F1FF334CF214515350236841
:1057300019060FD54CF20853D056FFF7BBFF0A4AA3
:105740001068FFF7CBFFA2F5454000F097FB8023E0
:10575000236003E0054C23681B06EBD410BD00BF9B
:10576000000F0020A8C9000800D40020000100504C
:10577000174A4CF2F44310B5D358164CD9884CF262
:10578000F843D058144B034413F8010C4CF2FC437B
:10579000D35803445B689BB2CB1A013B48BF01F16D
:1057A000FF334CF21451535023681B060ED54CF2B4
:1057B0000853D056FFF77EFF084A1068FFF78EFFA8
:1057C000A2F5454000F05AFB8023236010BD00BFC6
:1057D000000F002000040050A8C9000800D40020D9
:1057E000174A4CF2F44310B5D358164CD9884CF2F2
:1057F000F843D058144B034413F8010C4CF2FC430B
:10580000D35803445B689BB2CB1A013B48BF01F1FC
:10581000FF334CF21451535023681B060ED54CF243
:105820000853D056FFF746FF084A1068FFF756FFA7
:10583000A2F5454000F022FB8023236010BD00BF8D
:10584000000F002000050050A8C9000800D4002067
:10585000164A4CF2F44310B5D358154CD9884CF283
:10586000F843D058134B034413F8013C03F1804331
:1058700003F500335B689BB2CB1A013B48BF01F1D3
:10588000FF334CF2145153506269D3070AD50A4BC7
:105890004022C3F88020BFF34F8FBFF36F8F0348C0
:1058A00000F0C2FB0123636110BD00BF000F0020A8
:1058B00000040140A8C9000800E100E0164A4CF2CB
:1058C000F44310B5D358154CD9884CF2F843D0584E
:1058D000134B034413F8013C03F1804303F50033F9
:1058E0005B689BB2CB1A013B48BF01F1FF334CF21E
:1058F00014515350626993070AD50A4B8022C3F8AA
:105900008020BFF34F8FBFF36F8F034800F08CFBF5
:105910000223636110BD00BF000F0020000401409E
:10592000A8C9000800E100E0164A4CF2F44310B5A3
:10593000D358154CD9884CF2F843D058134B034434
:1059400013F8013C03F1804303F500335B689BB21D
:10595000CB1A013B48BF01F1FF334CF214515350B5
:10596000626953070BD50A4B4FF48072C3F880204D
:10597000BFF34F8FBFF36F8F024800F055FB042336
:10598000636110BD000F002000040140A8C9000899
:1059900000E100E0164A4CF2F44310B5D358154C20
:1059A000D9884CF2F843D058134B034413F8013C08
:1059B00003F1804303F500335B689BB2CB1A013BD4
:1059C00048BF01F1FF334CF2145153506269130781
:1059D0000BD50A4B4FF40072C3F88020BFF34F8FF2
:1059E000BFF36F8F024800F01FFB0823636110BDF7
:1059F000000F002000040140A8C9000800E100E0F9
:105A0000024B5A6910225A61704700BF00040140DE
:105A1000002808DB4209012300F01F0003FA00F010
:105A2000014B43F82200704700E100E000280DDB45
:105A30004309012200F01F0002FA00F02033044A5B
:105A400042F82300BFF34F8FBFF36F8F704700BF43
:105A500000E100E0002809DB4309012200F01F00FB
:105A600002FA00F06033024A42F82300704700BF98
:105A700000E100E010B54FF4401393FAA3F3036A7A
:105A800091FAA1F4B4FA84F423EA0101A2400A4392
:105A9000026210BD4FF4401393FAA3F3C368044AA3
:105AA00023F0FB4323F480030A401343C360704791
:105AB0000000C07D4CF2D842002383504CF2DC42FF
:105AC000012183504CF2E04283504CF2E442835077
:105AD0004CF2E84283504CF2EC4283504CF2F042DC
